{
	"contracts/crowdsale.sol": {
		"crowdsale": {
			"abi": [
				{
					"inputs": [],
					"stateMutability": "nonpayable",
					"type": "constructor"
				},
				{
					"anonymous": false,
					"inputs": [
						{
							"indexed": true,
							"internalType": "address",
							"name": "previousOwner",
							"type": "address"
						},
						{
							"indexed": true,
							"internalType": "address",
							"name": "newOwner",
							"type": "address"
						}
					],
					"name": "OwnershipTransferred",
					"type": "event"
				},
				{
					"anonymous": false,
					"inputs": [
						{
							"indexed": false,
							"internalType": "address",
							"name": "account",
							"type": "address"
						}
					],
					"name": "Paused",
					"type": "event"
				},
				{
					"anonymous": false,
					"inputs": [
						{
							"indexed": false,
							"internalType": "address",
							"name": "account",
							"type": "address"
						}
					],
					"name": "Unpaused",
					"type": "event"
				},
				{
					"anonymous": false,
					"inputs": [
						{
							"indexed": false,
							"internalType": "uint256",
							"name": "totalSold",
							"type": "uint256"
						}
					],
					"name": "saleEvent",
					"type": "event"
				},
				{
					"inputs": [],
					"name": "BUSDRecipient",
					"outputs": [
						{
							"internalType": "address",
							"name": "",
							"type": "address"
						}
					],
					"stateMutability": "view",
					"type": "function"
				},
				{
					"inputs": [],
					"name": "BUSDToken",
					"outputs": [
						{
							"internalType": "contract IERC20",
							"name": "",
							"type": "address"
						}
					],
					"stateMutability": "view",
					"type": "function"
				},
				{
					"inputs": [],
					"name": "XPADToken",
					"outputs": [
						{
							"internalType": "contract IERC20",
							"name": "",
							"type": "address"
						}
					],
					"stateMutability": "view",
					"type": "function"
				},
				{
					"inputs": [],
					"name": "XPADTokenHolder",
					"outputs": [
						{
							"internalType": "address",
							"name": "",
							"type": "address"
						}
					],
					"stateMutability": "view",
					"type": "function"
				},
				{
					"inputs": [
						{
							"internalType": "uint256",
							"name": "_timeStart",
							"type": "uint256"
						},
						{
							"internalType": "uint256",
							"name": "_timeEnd",
							"type": "uint256"
						},
						{
							"internalType": "uint256",
							"name": "_vesting",
							"type": "uint256"
						},
						{
							"internalType": "uint256",
							"name": "_price",
							"type": "uint256"
						},
						{
							"internalType": "uint256",
							"name": "_maxTotalAmount",
							"type": "uint256"
						}
					],
					"name": "addRound",
					"outputs": [],
					"stateMutability": "nonpayable",
					"type": "function"
				},
				{
					"inputs": [
						{
							"internalType": "uint256",
							"name": "i",
							"type": "uint256"
						},
						{
							"internalType": "uint256",
							"name": "_timeStart",
							"type": "uint256"
						},
						{
							"internalType": "uint256",
							"name": "_timeEnd",
							"type": "uint256"
						},
						{
							"internalType": "uint256",
							"name": "_vesting",
							"type": "uint256"
						},
						{
							"internalType": "uint256",
							"name": "_price",
							"type": "uint256"
						},
						{
							"internalType": "uint256",
							"name": "_maxTotalAmount",
							"type": "uint256"
						}
					],
					"name": "changeRound",
					"outputs": [],
					"stateMutability": "nonpayable",
					"type": "function"
				},
				{
					"inputs": [
						{
							"internalType": "uint256",
							"name": "i",
							"type": "uint256"
						}
					],
					"name": "deleteRound",
					"outputs": [],
					"stateMutability": "nonpayable",
					"type": "function"
				},
				{
					"inputs": [],
					"name": "getAllRounds",
					"outputs": [
						{
							"components": [
								{
									"internalType": "uint256",
									"name": "timeStart",
									"type": "uint256"
								},
								{
									"internalType": "uint256",
									"name": "timeEnd",
									"type": "uint256"
								},
								{
									"internalType": "uint256",
									"name": "vesting",
									"type": "uint256"
								},
								{
									"internalType": "uint256",
									"name": "price",
									"type": "uint256"
								},
								{
									"internalType": "uint256",
									"name": "maxTotalAmount",
									"type": "uint256"
								}
							],
							"internalType": "struct Data.Round[]",
							"name": "",
							"type": "tuple[]"
						}
					],
					"stateMutability": "view",
					"type": "function"
				},
				{
					"inputs": [],
					"name": "getAmountXPPAvailebleToWithdraw",
					"outputs": [
						{
							"internalType": "uint256",
							"name": "",
							"type": "uint256"
						}
					],
					"stateMutability": "view",
					"type": "function"
				},
				{
					"inputs": [
						{
							"internalType": "address",
							"name": "_address",
							"type": "address"
						}
					],
					"name": "getAmountXPPAvailebleToWithdrawOwner",
					"outputs": [
						{
							"internalType": "uint256",
							"name": "",
							"type": "uint256"
						}
					],
					"stateMutability": "view",
					"type": "function"
				},
				{
					"inputs": [],
					"name": "getCurrentMaxTotalAmount",
					"outputs": [
						{
							"internalType": "uint256",
							"name": "",
							"type": "uint256"
						}
					],
					"stateMutability": "view",
					"type": "function"
				},
				{
					"inputs": [],
					"name": "getCurrentRound",
					"outputs": [
						{
							"internalType": "uint256",
							"name": "",
							"type": "uint256"
						}
					],
					"stateMutability": "view",
					"type": "function"
				},
				{
					"inputs": [],
					"name": "getPriceXPAD",
					"outputs": [
						{
							"internalType": "uint256",
							"name": "",
							"type": "uint256"
						}
					],
					"stateMutability": "view",
					"type": "function"
				},
				{
					"inputs": [],
					"name": "getStakeBalance",
					"outputs": [
						{
							"internalType": "uint256",
							"name": "",
							"type": "uint256"
						}
					],
					"stateMutability": "view",
					"type": "function"
				},
				{
					"inputs": [
						{
							"internalType": "address",
							"name": "_address",
							"type": "address"
						}
					],
					"name": "getStakeBalanceOwner",
					"outputs": [
						{
							"internalType": "uint256",
							"name": "",
							"type": "uint256"
						}
					],
					"stateMutability": "view",
					"type": "function"
				},
				{
					"inputs": [],
					"name": "getStakerData",
					"outputs": [
						{
							"components": [
								{
									"internalType": "uint256",
									"name": "timeStake",
									"type": "uint256"
								},
								{
									"internalType": "uint256",
									"name": "value",
									"type": "uint256"
								}
							],
							"internalType": "struct crowdsale.Staker[]",
							"name": "",
							"type": "tuple[]"
						}
					],
					"stateMutability": "view",
					"type": "function"
				},
				{
					"inputs": [
						{
							"internalType": "address",
							"name": "_address",
							"type": "address"
						}
					],
					"name": "getStakerDataOwner",
					"outputs": [
						{
							"components": [
								{
									"internalType": "uint256",
									"name": "timeStake",
									"type": "uint256"
								},
								{
									"internalType": "uint256",
									"name": "value",
									"type": "uint256"
								}
							],
							"internalType": "struct crowdsale.Staker[]",
							"name": "",
							"type": "tuple[]"
						}
					],
					"stateMutability": "view",
					"type": "function"
				},
				{
					"inputs": [
						{
							"internalType": "uint256",
							"name": "_timeStake",
							"type": "uint256"
						}
					],
					"name": "getVestingXPAD",
					"outputs": [
						{
							"internalType": "uint256",
							"name": "",
							"type": "uint256"
						}
					],
					"stateMutability": "view",
					"type": "function"
				},
				{
					"inputs": [],
					"name": "minBUSD",
					"outputs": [
						{
							"internalType": "uint256",
							"name": "",
							"type": "uint256"
						}
					],
					"stateMutability": "view",
					"type": "function"
				},
				{
					"inputs": [],
					"name": "owner",
					"outputs": [
						{
							"internalType": "address",
							"name": "",
							"type": "address"
						}
					],
					"stateMutability": "view",
					"type": "function"
				},
				{
					"inputs": [],
					"name": "pause",
					"outputs": [],
					"stateMutability": "nonpayable",
					"type": "function"
				},
				{
					"inputs": [],
					"name": "paused",
					"outputs": [
						{
							"internalType": "bool",
							"name": "",
							"type": "bool"
						}
					],
					"stateMutability": "view",
					"type": "function"
				},
				{
					"inputs": [],
					"name": "renounceOwnership",
					"outputs": [],
					"stateMutability": "nonpayable",
					"type": "function"
				},
				{
					"inputs": [
						{
							"internalType": "uint256",
							"name": "amount",
							"type": "uint256"
						}
					],
					"name": "sale",
					"outputs": [],
					"stateMutability": "nonpayable",
					"type": "function"
				},
				{
					"inputs": [
						{
							"internalType": "address",
							"name": "_address",
							"type": "address"
						}
					],
					"name": "setBUSDRecipient",
					"outputs": [],
					"stateMutability": "nonpayable",
					"type": "function"
				},
				{
					"inputs": [
						{
							"internalType": "address",
							"name": "_address",
							"type": "address"
						}
					],
					"name": "setBUSDTokenAddress",
					"outputs": [],
					"stateMutability": "nonpayable",
					"type": "function"
				},
				{
					"inputs": [
						{
							"internalType": "address",
							"name": "_address",
							"type": "address"
						}
					],
					"name": "setXPADTokenAddress",
					"outputs": [],
					"stateMutability": "nonpayable",
					"type": "function"
				},
				{
					"inputs": [
						{
							"internalType": "address",
							"name": "_address",
							"type": "address"
						}
					],
					"name": "setXPADTokenHolder",
					"outputs": [],
					"stateMutability": "nonpayable",
					"type": "function"
				},
				{
					"inputs": [
						{
							"internalType": "uint256",
							"name": "_minBUSD",
							"type": "uint256"
						}
					],
					"name": "setminBUSD",
					"outputs": [],
					"stateMutability": "nonpayable",
					"type": "function"
				},
				{
					"inputs": [],
					"name": "totalSold",
					"outputs": [
						{
							"internalType": "uint256",
							"name": "",
							"type": "uint256"
						}
					],
					"stateMutability": "view",
					"type": "function"
				},
				{
					"inputs": [
						{
							"internalType": "address",
							"name": "newOwner",
							"type": "address"
						}
					],
					"name": "transferOwnership",
					"outputs": [],
					"stateMutability": "nonpayable",
					"type": "function"
				},
				{
					"inputs": [],
					"name": "unpause",
					"outputs": [],
					"stateMutability": "nonpayable",
					"type": "function"
				},
				{
					"inputs": [],
					"name": "withdraw",
					"outputs": [],
					"stateMutability": "nonpayable",
					"type": "function"
				}
			],
			"devdoc": {
				"kind": "dev",
				"methods": {
					"owner()": {
						"details": "Returns the address of the current owner."
					},
					"paused()": {
						"details": "Returns true if the contract is paused, and false otherwise."
					},
					"renounceOwnership()": {
						"details": "Leaves the contract without owner. It will not be possible to call `onlyOwner` functions anymore. Can only be called by the current owner. NOTE: Renouncing ownership will leave the contract without an owner, thereby removing any functionality that is only available to the owner."
					},
					"transferOwnership(address)": {
						"details": "Transfers ownership of the contract to a new account (`newOwner`). Can only be called by the current owner."
					}
				},
				"version": 1
			},
			"evm": {
				"assembly": "    /* \"contracts/crowdsale.sol\":251:6383  contract crowdsale is Ownable, Pausable, Data {\r... */\n  mstore(0x40, 0x80)\n    /* \"contracts/crowdsale.sol\":331:373  0xffE2d15aFE09b43C60E05B220018a643C9005CE9 */\n  0xffe2d15afe09b43c60e05b220018a643c9005ce9\n    /* \"contracts/crowdsale.sol\":304:373  address XPADTokenAddress = 0xffE2d15aFE09b43C60E05B220018a643C9005CE9 */\n  0x02\n  exp(0x0100, 0x00)\n  dup2\n  sload\n  dup2\n  0xffffffffffffffffffffffffffffffffffffffff\n  mul\n  not\n  and\n  swap1\n  dup4\n  0xffffffffffffffffffffffffffffffffffffffff\n  and\n  mul\n  or\n  swap1\n  sstore\n  pop\n    /* \"contracts/crowdsale.sol\":413:429  XPADTokenAddress */\n  0x02\n  0x00\n  swap1\n  sload\n  swap1\n  0x0100\n  exp\n  swap1\n  div\n  0xffffffffffffffffffffffffffffffffffffffff\n  and\n    /* \"contracts/crowdsale.sol\":380:430  IERC20 public XPADToken = IERC20(XPADTokenAddress) */\n  0x03\n  exp(0x0100, 0x00)\n  dup2\n  sload\n  dup2\n  0xffffffffffffffffffffffffffffffffffffffff\n  mul\n  not\n  and\n  swap1\n  dup4\n  0xffffffffffffffffffffffffffffffffffffffff\n  and\n  mul\n  or\n  swap1\n  sstore\n  pop\n    /* \"contracts/crowdsale.sol\":466:508  0xDc2280A89e7Fa73D84f4e01c07f1421Cab69eacb */\n  0xdc2280a89e7fa73d84f4e01c07f1421cab69eacb\n    /* \"contracts/crowdsale.sol\":439:508  address BUSDTokenAddress = 0xDc2280A89e7Fa73D84f4e01c07f1421Cab69eacb */\n  0x04\n  exp(0x0100, 0x00)\n  dup2\n  sload\n  dup2\n  0xffffffffffffffffffffffffffffffffffffffff\n  mul\n  not\n  and\n  swap1\n  dup4\n  0xffffffffffffffffffffffffffffffffffffffff\n  and\n  mul\n  or\n  swap1\n  sstore\n  pop\n    /* \"contracts/crowdsale.sol\":548:564  BUSDTokenAddress */\n  0x04\n  0x00\n  swap1\n  sload\n  swap1\n  0x0100\n  exp\n  swap1\n  div\n  0xffffffffffffffffffffffffffffffffffffffff\n  and\n    /* \"contracts/crowdsale.sol\":515:565  IERC20 public BUSDToken = IERC20(BUSDTokenAddress) */\n  0x05\n  exp(0x0100, 0x00)\n  dup2\n  sload\n  dup2\n  0xffffffffffffffffffffffffffffffffffffffff\n  mul\n  not\n  and\n  swap1\n  dup4\n  0xffffffffffffffffffffffffffffffffffffffff\n  and\n  mul\n  or\n  swap1\n  sstore\n  pop\n    /* \"contracts/crowdsale.sol\":605:647  0x7b76dBF7f01ebA3eE2fa1339C8C29FA6949b1bE4 */\n  0x7b76dbf7f01eba3ee2fa1339c8c29fa6949b1be4\n    /* \"contracts/crowdsale.sol\":574:647  address public BUSDRecipient = 0x7b76dBF7f01ebA3eE2fa1339C8C29FA6949b1bE4 */\n  0x06\n  exp(0x0100, 0x00)\n  dup2\n  sload\n  dup2\n  0xffffffffffffffffffffffffffffffffffffffff\n  mul\n  not\n  and\n  swap1\n  dup4\n  0xffffffffffffffffffffffffffffffffffffffff\n  and\n  mul\n  or\n  swap1\n  sstore\n  pop\n    /* \"contracts/crowdsale.sol\":687:729  0x7b76dBF7f01ebA3eE2fa1339C8C29FA6949b1bE4 */\n  0x7b76dbf7f01eba3ee2fa1339c8c29fa6949b1be4\n    /* \"contracts/crowdsale.sol\":654:729  address public XPADTokenHolder = 0x7b76dBF7f01ebA3eE2fa1339C8C29FA6949b1bE4 */\n  0x07\n  exp(0x0100, 0x00)\n  dup2\n  sload\n  dup2\n  0xffffffffffffffffffffffffffffffffffffffff\n  mul\n  not\n  and\n  swap1\n  dup4\n  0xffffffffffffffffffffffffffffffffffffffff\n  and\n  mul\n  or\n  swap1\n  sstore\n  pop\n    /* \"contracts/crowdsale.sol\":760:768  50 ether */\n  0x02b5e3af16b1880000\n    /* \"contracts/crowdsale.sol\":738:768  uint public minBUSD = 50 ether */\n  0x08\n  sstore\n    /* \"contracts/crowdsale.sol\":1017:1057  constructor() {\r... */\n  callvalue\n  dup1\n  iszero\n  tag_1\n  jumpi\n  0x00\n  dup1\n  revert\ntag_1:\n  pop\n    /* \"@openzeppelin/contracts/access/Ownable.sol\":936:968  _transferOwnership(_msgSender()) */\n  tag_7\n    /* \"@openzeppelin/contracts/access/Ownable.sol\":955:967  _msgSender() */\n  tag_8\n    /* \"@openzeppelin/contracts/access/Ownable.sol\":955:965  _msgSender */\n  shl(0x20, tag_9)\n    /* \"@openzeppelin/contracts/access/Ownable.sol\":955:967  _msgSender() */\n  0x20\n  shr\n  jump\t// in\ntag_8:\n    /* \"@openzeppelin/contracts/access/Ownable.sol\":936:954  _transferOwnership */\n  shl(0x20, tag_10)\n    /* \"@openzeppelin/contracts/access/Ownable.sol\":936:968  _transferOwnership(_msgSender()) */\n  0x20\n  shr\n  jump\t// in\ntag_7:\n    /* \"@openzeppelin/contracts/security/Pausable.sol\":1006:1011  false */\n  0x00\n    /* \"@openzeppelin/contracts/security/Pausable.sol\":996:1003  _paused */\n  dup1\n  0x14\n    /* \"@openzeppelin/contracts/security/Pausable.sol\":996:1011  _paused = false */\n  0x0100\n  exp\n  dup2\n  sload\n  dup2\n  0xff\n  mul\n  not\n  and\n  swap1\n  dup4\n  iszero\n  iszero\n  mul\n  or\n  swap1\n  sstore\n  pop\n    /* \"contracts/data.sol\":358:367  allRounds */\n  0x01\n    /* \"contracts/data.sol\":373:419  Round(1682420772, 1683527630, 60, 5, 19000000) */\n  mload(0x40)\n  dup1\n  0xa0\n  add\n  0x40\n  mstore\n  dup1\n    /* \"contracts/data.sol\":379:389  1682420772 */\n  0x6447b424\n    /* \"contracts/data.sol\":373:419  Round(1682420772, 1683527630, 60, 5, 19000000) */\n  dup2\n  mstore\n  0x20\n  add\n    /* \"contracts/data.sol\":391:401  1683527630 */\n  0x645897ce\n    /* \"contracts/data.sol\":373:419  Round(1682420772, 1683527630, 60, 5, 19000000) */\n  dup2\n  mstore\n  0x20\n  add\n    /* \"contracts/data.sol\":403:405  60 */\n  0x3c\n    /* \"contracts/data.sol\":373:419  Round(1682420772, 1683527630, 60, 5, 19000000) */\n  dup2\n  mstore\n  0x20\n  add\n    /* \"contracts/data.sol\":407:408  5 */\n  0x05\n    /* \"contracts/data.sol\":373:419  Round(1682420772, 1683527630, 60, 5, 19000000) */\n  dup2\n  mstore\n  0x20\n  add\n    /* \"contracts/data.sol\":410:418  19000000 */\n  0x0121eac0\n    /* \"contracts/data.sol\":373:419  Round(1682420772, 1683527630, 60, 5, 19000000) */\n  dup2\n  mstore\n  pop\n    /* \"contracts/data.sol\":358:420  allRounds.push(Round(1682420772, 1683527630, 60, 5, 19000000)) */\n  swap1\n  dup1\n  0x01\n  dup2\n  sload\n  add\n  dup1\n  dup3\n  sstore\n  dup1\n  swap2\n  pop\n  pop\n  0x01\n  swap1\n  sub\n  swap1\n  0x00\n  mstore\n  keccak256(0x00, 0x20)\n  swap1\n  0x05\n  mul\n  add\n  0x00\n  swap1\n  swap2\n  swap1\n  swap2\n  swap1\n  swap2\n  pop\n  0x00\n  dup3\n  add\n  mload\n  dup2\n  0x00\n  add\n  sstore\n  0x20\n  dup3\n  add\n  mload\n  dup2\n  0x01\n  add\n  sstore\n  0x40\n  dup3\n  add\n  mload\n  dup2\n  0x02\n  add\n  sstore\n  0x60\n  dup3\n  add\n  mload\n  dup2\n  0x03\n  add\n  sstore\n  0x80\n  dup3\n  add\n  mload\n  dup2\n  0x04\n  add\n  sstore\n  pop\n  pop\n    /* \"contracts/data.sol\":431:440  allRounds */\n  0x01\n    /* \"contracts/data.sol\":446:492  Round(1683527630, 1684593572, 60, 7, 19000000) */\n  mload(0x40)\n  dup1\n  0xa0\n  add\n  0x40\n  mstore\n  dup1\n    /* \"contracts/data.sol\":452:462  1683527630 */\n  0x645897ce\n    /* \"contracts/data.sol\":446:492  Round(1683527630, 1684593572, 60, 7, 19000000) */\n  dup2\n  mstore\n  0x20\n  add\n    /* \"contracts/data.sol\":464:474  1684593572 */\n  0x6468dba4\n    /* \"contracts/data.sol\":446:492  Round(1683527630, 1684593572, 60, 7, 19000000) */\n  dup2\n  mstore\n  0x20\n  add\n    /* \"contracts/data.sol\":476:478  60 */\n  0x3c\n    /* \"contracts/data.sol\":446:492  Round(1683527630, 1684593572, 60, 7, 19000000) */\n  dup2\n  mstore\n  0x20\n  add\n    /* \"contracts/data.sol\":480:481  7 */\n  0x07\n    /* \"contracts/data.sol\":446:492  Round(1683527630, 1684593572, 60, 7, 19000000) */\n  dup2\n  mstore\n  0x20\n  add\n    /* \"contracts/data.sol\":483:491  19000000 */\n  0x0121eac0\n    /* \"contracts/data.sol\":446:492  Round(1683527630, 1684593572, 60, 7, 19000000) */\n  dup2\n  mstore\n  pop\n    /* \"contracts/data.sol\":431:493  allRounds.push(Round(1683527630, 1684593572, 60, 7, 19000000)) */\n  swap1\n  dup1\n  0x01\n  dup2\n  sload\n  add\n  dup1\n  dup3\n  sstore\n  dup1\n  swap2\n  pop\n  pop\n  0x01\n  swap1\n  sub\n  swap1\n  0x00\n  mstore\n  keccak256(0x00, 0x20)\n  swap1\n  0x05\n  mul\n  add\n  0x00\n  swap1\n  swap2\n  swap1\n  swap2\n  swap1\n  swap2\n  pop\n  0x00\n  dup3\n  add\n  mload\n  dup2\n  0x00\n  add\n  sstore\n  0x20\n  dup3\n  add\n  mload\n  dup2\n  0x01\n  add\n  sstore\n  0x40\n  dup3\n  add\n  mload\n  dup2\n  0x02\n  add\n  sstore\n  0x60\n  dup3\n  add\n  mload\n  dup2\n  0x03\n  add\n  sstore\n  0x80\n  dup3\n  add\n  mload\n  dup2\n  0x04\n  add\n  sstore\n  pop\n  pop\n    /* \"contracts/data.sol\":504:513  allRounds */\n  0x01\n    /* \"contracts/data.sol\":519:568  Round(1684593572, 1684593572, 5000, 10, 19000000) */\n  mload(0x40)\n  dup1\n  0xa0\n  add\n  0x40\n  mstore\n  dup1\n    /* \"contracts/data.sol\":525:535  1684593572 */\n  0x6468dba4\n    /* \"contracts/data.sol\":519:568  Round(1684593572, 1684593572, 5000, 10, 19000000) */\n  dup2\n  mstore\n  0x20\n  add\n    /* \"contracts/data.sol\":537:547  1684593572 */\n  0x6468dba4\n    /* \"contracts/data.sol\":519:568  Round(1684593572, 1684593572, 5000, 10, 19000000) */\n  dup2\n  mstore\n  0x20\n  add\n    /* \"contracts/data.sol\":549:553  5000 */\n  0x1388\n    /* \"contracts/data.sol\":519:568  Round(1684593572, 1684593572, 5000, 10, 19000000) */\n  dup2\n  mstore\n  0x20\n  add\n    /* \"contracts/data.sol\":555:557  10 */\n  0x0a\n    /* \"contracts/data.sol\":519:568  Round(1684593572, 1684593572, 5000, 10, 19000000) */\n  dup2\n  mstore\n  0x20\n  add\n    /* \"contracts/data.sol\":559:567  19000000 */\n  0x0121eac0\n    /* \"contracts/data.sol\":519:568  Round(1684593572, 1684593572, 5000, 10, 19000000) */\n  dup2\n  mstore\n  pop\n    /* \"contracts/data.sol\":504:569  allRounds.push(Round(1684593572, 1684593572, 5000, 10, 19000000)) */\n  swap1\n  dup1\n  0x01\n  dup2\n  sload\n  add\n  dup1\n  dup3\n  sstore\n  dup1\n  swap2\n  pop\n  pop\n  0x01\n  swap1\n  sub\n  swap1\n  0x00\n  mstore\n  keccak256(0x00, 0x20)\n  swap1\n  0x05\n  mul\n  add\n  0x00\n  swap1\n  swap2\n  swap1\n  swap2\n  swap1\n  swap2\n  pop\n  0x00\n  dup3\n  add\n  mload\n  dup2\n  0x00\n  add\n  sstore\n  0x20\n  dup3\n  add\n  mload\n  dup2\n  0x01\n  add\n  sstore\n  0x40\n  dup3\n  add\n  mload\n  dup2\n  0x02\n  add\n  sstore\n  0x60\n  dup3\n  add\n  mload\n  dup2\n  0x03\n  add\n  sstore\n  0x80\n  dup3\n  add\n  mload\n  dup2\n  0x04\n  add\n  sstore\n  pop\n  pop\n    /* \"contracts/data.sol\":580:589  allRounds */\n  0x01\n    /* \"contracts/data.sol\":595:644  Round(1684593572, 1684593572, 5000, 15, 19000000) */\n  mload(0x40)\n  dup1\n  0xa0\n  add\n  0x40\n  mstore\n  dup1\n    /* \"contracts/data.sol\":601:611  1684593572 */\n  0x6468dba4\n    /* \"contracts/data.sol\":595:644  Round(1684593572, 1684593572, 5000, 15, 19000000) */\n  dup2\n  mstore\n  0x20\n  add\n    /* \"contracts/data.sol\":613:623  1684593572 */\n  0x6468dba4\n    /* \"contracts/data.sol\":595:644  Round(1684593572, 1684593572, 5000, 15, 19000000) */\n  dup2\n  mstore\n  0x20\n  add\n    /* \"contracts/data.sol\":625:629  5000 */\n  0x1388\n    /* \"contracts/data.sol\":595:644  Round(1684593572, 1684593572, 5000, 15, 19000000) */\n  dup2\n  mstore\n  0x20\n  add\n    /* \"contracts/data.sol\":631:633  15 */\n  0x0f\n    /* \"contracts/data.sol\":595:644  Round(1684593572, 1684593572, 5000, 15, 19000000) */\n  dup2\n  mstore\n  0x20\n  add\n    /* \"contracts/data.sol\":635:643  19000000 */\n  0x0121eac0\n    /* \"contracts/data.sol\":595:644  Round(1684593572, 1684593572, 5000, 15, 19000000) */\n  dup2\n  mstore\n  pop\n    /* \"contracts/data.sol\":580:645  allRounds.push(Round(1684593572, 1684593572, 5000, 15, 19000000)) */\n  swap1\n  dup1\n  0x01\n  dup2\n  sload\n  add\n  dup1\n  dup3\n  sstore\n  dup1\n  swap2\n  pop\n  pop\n  0x01\n  swap1\n  sub\n  swap1\n  0x00\n  mstore\n  keccak256(0x00, 0x20)\n  swap1\n  0x05\n  mul\n  add\n  0x00\n  swap1\n  swap2\n  swap1\n  swap2\n  swap1\n  swap2\n  pop\n  0x00\n  dup3\n  add\n  mload\n  dup2\n  0x00\n  add\n  sstore\n  0x20\n  dup3\n  add\n  mload\n  dup2\n  0x01\n  add\n  sstore\n  0x40\n  dup3\n  add\n  mload\n  dup2\n  0x02\n  add\n  sstore\n  0x60\n  dup3\n  add\n  mload\n  dup2\n  0x03\n  add\n  sstore\n  0x80\n  dup3\n  add\n  mload\n  dup2\n  0x04\n  add\n  sstore\n  pop\n  pop\n    /* \"contracts/crowdsale.sol\":1042:1049  pause() */\n  tag_18\n    /* \"contracts/crowdsale.sol\":1042:1047  pause */\n  shl(0x20, tag_19)\n    /* \"contracts/crowdsale.sol\":1042:1049  pause() */\n  0x20\n  shr\n  jump\t// in\ntag_18:\n    /* \"contracts/crowdsale.sol\":251:6383  contract crowdsale is Ownable, Pausable, Data {\r... */\n  jump(tag_20)\n    /* \"@openzeppelin/contracts/utils/Context.sol\":640:736  function _msgSender() internal view virtual returns (address) {... */\ntag_9:\n    /* \"@openzeppelin/contracts/utils/Context.sol\":693:700  address */\n  0x00\n    /* \"@openzeppelin/contracts/utils/Context.sol\":719:729  msg.sender */\n  caller\n    /* \"@openzeppelin/contracts/utils/Context.sol\":712:729  return msg.sender */\n  swap1\n  pop\n    /* \"@openzeppelin/contracts/utils/Context.sol\":640:736  function _msgSender() internal view virtual returns (address) {... */\n  swap1\n  jump\t// out\n    /* \"@openzeppelin/contracts/access/Ownable.sol\":2433:2620  function _transferOwnership(address newOwner) internal virtual {... */\ntag_10:\n    /* \"@openzeppelin/contracts/access/Ownable.sol\":2506:2522  address oldOwner */\n  0x00\n    /* \"@openzeppelin/contracts/access/Ownable.sol\":2525:2531  _owner */\n  dup1\n  0x00\n  swap1\n  sload\n  swap1\n  0x0100\n  exp\n  swap1\n  div\n  0xffffffffffffffffffffffffffffffffffffffff\n  and\n    /* \"@openzeppelin/contracts/access/Ownable.sol\":2506:2531  address oldOwner = _owner */\n  swap1\n  pop\n    /* \"@openzeppelin/contracts/access/Ownable.sol\":2550:2558  newOwner */\n  dup2\n    /* \"@openzeppelin/contracts/access/Ownable.sol\":2541:2547  _owner */\n  0x00\n  dup1\n    /* \"@openzeppelin/contracts/access/Ownable.sol\":2541:2558  _owner = newOwner */\n  0x0100\n  exp\n  dup2\n  sload\n  dup2\n  0xffffffffffffffffffffffffffffffffffffffff\n  mul\n  not\n  and\n  swap1\n  dup4\n  0xffffffffffffffffffffffffffffffffffffffff\n  and\n  mul\n  or\n  swap1\n  sstore\n  pop\n    /* \"@openzeppelin/contracts/access/Ownable.sol\":2604:2612  newOwner */\n  dup2\n    /* \"@openzeppelin/contracts/access/Ownable.sol\":2573:2613  OwnershipTransferred(oldOwner, newOwner) */\n  0xffffffffffffffffffffffffffffffffffffffff\n  and\n    /* \"@openzeppelin/contracts/access/Ownable.sol\":2594:2602  oldOwner */\n  dup2\n    /* \"@openzeppelin/contracts/access/Ownable.sol\":2573:2613  OwnershipTransferred(oldOwner, newOwner) */\n  0xffffffffffffffffffffffffffffffffffffffff\n  and\n  0x8be0079c531659141344cd1fd0a4f28419497f9722a3daafe3b4186f6b6457e0\n  mload(0x40)\n  mload(0x40)\n  dup1\n  swap2\n  sub\n  swap1\n  log3\n    /* \"@openzeppelin/contracts/access/Ownable.sol\":2496:2620  {... */\n  pop\n    /* \"@openzeppelin/contracts/access/Ownable.sol\":2433:2620  function _transferOwnership(address newOwner) internal virtual {... */\n  pop\n  jump\t// out\n    /* \"contracts/crowdsale.sol\":3767:3828  function pause() public onlyOwner {\r... */\ntag_19:\n    /* \"@openzeppelin/contracts/access/Ownable.sol\":1094:1107  _checkOwner() */\n  tag_24\n    /* \"@openzeppelin/contracts/access/Ownable.sol\":1094:1105  _checkOwner */\n  shl(0x20, tag_25)\n    /* \"@openzeppelin/contracts/access/Ownable.sol\":1094:1107  _checkOwner() */\n  0x20\n  shr\n  jump\t// in\ntag_24:\n    /* \"contracts/crowdsale.sol\":3812:3820  _pause() */\n  tag_27\n    /* \"contracts/crowdsale.sol\":3812:3818  _pause */\n  shl(0x20, tag_28)\n    /* \"contracts/crowdsale.sol\":3812:3820  _pause() */\n  0x20\n  shr\n  jump\t// in\ntag_27:\n    /* \"contracts/crowdsale.sol\":3767:3828  function pause() public onlyOwner {\r... */\n  jump\t// out\n    /* \"@openzeppelin/contracts/access/Ownable.sol\":1359:1489  function _checkOwner() internal view virtual {... */\ntag_25:\n    /* \"@openzeppelin/contracts/access/Ownable.sol\":1433:1445  _msgSender() */\n  tag_30\n    /* \"@openzeppelin/contracts/access/Ownable.sol\":1433:1443  _msgSender */\n  shl(0x20, tag_9)\n    /* \"@openzeppelin/contracts/access/Ownable.sol\":1433:1445  _msgSender() */\n  0x20\n  shr\n  jump\t// in\ntag_30:\n    /* \"@openzeppelin/contracts/access/Ownable.sol\":1422:1445  owner() == _msgSender() */\n  0xffffffffffffffffffffffffffffffffffffffff\n  and\n    /* \"@openzeppelin/contracts/access/Ownable.sol\":1422:1429  owner() */\n  tag_31\n    /* \"@openzeppelin/contracts/access/Ownable.sol\":1422:1427  owner */\n  shl(0x20, tag_32)\n    /* \"@openzeppelin/contracts/access/Ownable.sol\":1422:1429  owner() */\n  0x20\n  shr\n  jump\t// in\ntag_31:\n    /* \"@openzeppelin/contracts/access/Ownable.sol\":1422:1445  owner() == _msgSender() */\n  0xffffffffffffffffffffffffffffffffffffffff\n  and\n  eq\n    /* \"@openzeppelin/contracts/access/Ownable.sol\":1414:1482  require(owner() == _msgSender(), \"Ownable: caller is not the owner\") */\n  tag_33\n  jumpi\n  mload(0x40)\n  0x08c379a000000000000000000000000000000000000000000000000000000000\n  dup2\n  mstore\n  0x04\n  add\n  tag_34\n  swap1\n  tag_35\n  jump\t// in\ntag_34:\n  mload(0x40)\n  dup1\n  swap2\n  sub\n  swap1\n  revert\ntag_33:\n    /* \"@openzeppelin/contracts/access/Ownable.sol\":1359:1489  function _checkOwner() internal view virtual {... */\n  jump\t// out\n    /* \"@openzeppelin/contracts/security/Pausable.sol\":2186:2301  function _pause() internal virtual whenNotPaused {... */\ntag_28:\n    /* \"@openzeppelin/contracts/security/Pausable.sol\":1239:1258  _requireNotPaused() */\n  tag_37\n    /* \"@openzeppelin/contracts/security/Pausable.sol\":1239:1256  _requireNotPaused */\n  shl(0x20, tag_38)\n    /* \"@openzeppelin/contracts/security/Pausable.sol\":1239:1258  _requireNotPaused() */\n  0x20\n  shr\n  jump\t// in\ntag_37:\n    /* \"@openzeppelin/contracts/security/Pausable.sol\":2255:2259  true */\n  0x01\n    /* \"@openzeppelin/contracts/security/Pausable.sol\":2245:2252  _paused */\n  0x00\n  0x14\n    /* \"@openzeppelin/contracts/security/Pausable.sol\":2245:2259  _paused = true */\n  0x0100\n  exp\n  dup2\n  sload\n  dup2\n  0xff\n  mul\n  not\n  and\n  swap1\n  dup4\n  iszero\n  iszero\n  mul\n  or\n  swap1\n  sstore\n  pop\n    /* \"@openzeppelin/contracts/security/Pausable.sol\":2274:2294  Paused(_msgSender()) */\n  0x62e78cea01bee320cd4e420270b5ea74000d11b0c9f74754ebdbfc544b05a258\n    /* \"@openzeppelin/contracts/security/Pausable.sol\":2281:2293  _msgSender() */\n  tag_40\n    /* \"@openzeppelin/contracts/security/Pausable.sol\":2281:2291  _msgSender */\n  shl(0x20, tag_9)\n    /* \"@openzeppelin/contracts/security/Pausable.sol\":2281:2293  _msgSender() */\n  0x20\n  shr\n  jump\t// in\ntag_40:\n    /* \"@openzeppelin/contracts/security/Pausable.sol\":2274:2294  Paused(_msgSender()) */\n  mload(0x40)\n  tag_41\n  swap2\n  swap1\n  tag_42\n  jump\t// in\ntag_41:\n  mload(0x40)\n  dup1\n  swap2\n  sub\n  swap1\n  log1\n    /* \"@openzeppelin/contracts/security/Pausable.sol\":2186:2301  function _pause() internal virtual whenNotPaused {... */\n  jump\t// out\n    /* \"@openzeppelin/contracts/access/Ownable.sol\":1201:1286  function owner() public view virtual returns (address) {... */\ntag_32:\n    /* \"@openzeppelin/contracts/access/Ownable.sol\":1247:1254  address */\n  0x00\n    /* \"@openzeppelin/contracts/access/Ownable.sol\":1273:1279  _owner */\n  dup1\n  0x00\n  swap1\n  sload\n  swap1\n  0x0100\n  exp\n  swap1\n  div\n  0xffffffffffffffffffffffffffffffffffffffff\n  and\n    /* \"@openzeppelin/contracts/access/Ownable.sol\":1266:1279  return _owner */\n  swap1\n  pop\n    /* \"@openzeppelin/contracts/access/Ownable.sol\":1201:1286  function owner() public view virtual returns (address) {... */\n  swap1\n  jump\t// out\n    /* \"@openzeppelin/contracts/security/Pausable.sol\":1767:1873  function _requireNotPaused() internal view virtual {... */\ntag_38:\n    /* \"@openzeppelin/contracts/security/Pausable.sol\":1837:1845  paused() */\n  tag_45\n    /* \"@openzeppelin/contracts/security/Pausable.sol\":1837:1843  paused */\n  shl(0x20, tag_46)\n    /* \"@openzeppelin/contracts/security/Pausable.sol\":1837:1845  paused() */\n  0x20\n  shr\n  jump\t// in\ntag_45:\n    /* \"@openzeppelin/contracts/security/Pausable.sol\":1836:1845  !paused() */\n  iszero\n    /* \"@openzeppelin/contracts/security/Pausable.sol\":1828:1866  require(!paused(), \"Pausable: paused\") */\n  tag_47\n  jumpi\n  mload(0x40)\n  0x08c379a000000000000000000000000000000000000000000000000000000000\n  dup2\n  mstore\n  0x04\n  add\n  tag_48\n  swap1\n  tag_49\n  jump\t// in\ntag_48:\n  mload(0x40)\n  dup1\n  swap2\n  sub\n  swap1\n  revert\ntag_47:\n    /* \"@openzeppelin/contracts/security/Pausable.sol\":1767:1873  function _requireNotPaused() internal view virtual {... */\n  jump\t// out\n    /* \"@openzeppelin/contracts/security/Pausable.sol\":1615:1699  function paused() public view virtual returns (bool) {... */\ntag_46:\n    /* \"@openzeppelin/contracts/security/Pausable.sol\":1662:1666  bool */\n  0x00\n    /* \"@openzeppelin/contracts/security/Pausable.sol\":1685:1692  _paused */\n  dup1\n  0x14\n  swap1\n  sload\n  swap1\n  0x0100\n  exp\n  swap1\n  div\n  0xff\n  and\n    /* \"@openzeppelin/contracts/security/Pausable.sol\":1678:1692  return _paused */\n  swap1\n  pop\n    /* \"@openzeppelin/contracts/security/Pausable.sol\":1615:1699  function paused() public view virtual returns (bool) {... */\n  swap1\n  jump\t// out\n    /* \"#utility.yul\":7:125   */\ntag_52:\n    /* \"#utility.yul\":94:118   */\n  tag_54\n    /* \"#utility.yul\":112:117   */\n  dup2\n    /* \"#utility.yul\":94:118   */\n  tag_55\n  jump\t// in\ntag_54:\n    /* \"#utility.yul\":89:92   */\n  dup3\n    /* \"#utility.yul\":82:119   */\n  mstore\n    /* \"#utility.yul\":7:125   */\n  pop\n  pop\n  jump\t// out\n    /* \"#utility.yul\":131:497   */\ntag_56:\n    /* \"#utility.yul\":273:276   */\n  0x00\n    /* \"#utility.yul\":294:361   */\n  tag_58\n    /* \"#utility.yul\":358:360   */\n  0x10\n    /* \"#utility.yul\":353:356   */\n  dup4\n    /* \"#utility.yul\":294:361   */\n  tag_59\n  jump\t// in\ntag_58:\n    /* \"#utility.yul\":287:361   */\n  swap2\n  pop\n    /* \"#utility.yul\":370:463   */\n  tag_60\n    /* \"#utility.yul\":459:462   */\n  dup3\n    /* \"#utility.yul\":370:463   */\n  tag_61\n  jump\t// in\ntag_60:\n    /* \"#utility.yul\":488:490   */\n  0x20\n    /* \"#utility.yul\":483:486   */\n  dup3\n    /* \"#utility.yul\":479:491   */\n  add\n    /* \"#utility.yul\":472:491   */\n  swap1\n  pop\n    /* \"#utility.yul\":131:497   */\n  swap2\n  swap1\n  pop\n  jump\t// out\n    /* \"#utility.yul\":503:869   */\ntag_62:\n    /* \"#utility.yul\":645:648   */\n  0x00\n    /* \"#utility.yul\":666:733   */\n  tag_64\n    /* \"#utility.yul\":730:732   */\n  0x20\n    /* \"#utility.yul\":725:728   */\n  dup4\n    /* \"#utility.yul\":666:733   */\n  tag_59\n  jump\t// in\ntag_64:\n    /* \"#utility.yul\":659:733   */\n  swap2\n  pop\n    /* \"#utility.yul\":742:835   */\n  tag_65\n    /* \"#utility.yul\":831:834   */\n  dup3\n    /* \"#utility.yul\":742:835   */\n  tag_66\n  jump\t// in\ntag_65:\n    /* \"#utility.yul\":860:862   */\n  0x20\n    /* \"#utility.yul\":855:858   */\n  dup3\n    /* \"#utility.yul\":851:863   */\n  add\n    /* \"#utility.yul\":844:863   */\n  swap1\n  pop\n    /* \"#utility.yul\":503:869   */\n  swap2\n  swap1\n  pop\n  jump\t// out\n    /* \"#utility.yul\":875:1097   */\ntag_42:\n    /* \"#utility.yul\":968:972   */\n  0x00\n    /* \"#utility.yul\":1006:1008   */\n  0x20\n    /* \"#utility.yul\":995:1004   */\n  dup3\n    /* \"#utility.yul\":991:1009   */\n  add\n    /* \"#utility.yul\":983:1009   */\n  swap1\n  pop\n    /* \"#utility.yul\":1019:1090   */\n  tag_68\n    /* \"#utility.yul\":1087:1088   */\n  0x00\n    /* \"#utility.yul\":1076:1085   */\n  dup4\n    /* \"#utility.yul\":1072:1089   */\n  add\n    /* \"#utility.yul\":1063:1069   */\n  dup5\n    /* \"#utility.yul\":1019:1090   */\n  tag_52\n  jump\t// in\ntag_68:\n    /* \"#utility.yul\":875:1097   */\n  swap3\n  swap2\n  pop\n  pop\n  jump\t// out\n    /* \"#utility.yul\":1103:1522   */\ntag_49:\n    /* \"#utility.yul\":1269:1273   */\n  0x00\n    /* \"#utility.yul\":1307:1309   */\n  0x20\n    /* \"#utility.yul\":1296:1305   */\n  dup3\n    /* \"#utility.yul\":1292:1310   */\n  add\n    /* \"#utility.yul\":1284:1310   */\n  swap1\n  pop\n    /* \"#utility.yul\":1356:1365   */\n  dup2\n    /* \"#utility.yul\":1350:1354   */\n  dup2\n    /* \"#utility.yul\":1346:1366   */\n  sub\n    /* \"#utility.yul\":1342:1343   */\n  0x00\n    /* \"#utility.yul\":1331:1340   */\n  dup4\n    /* \"#utility.yul\":1327:1344   */\n  add\n    /* \"#utility.yul\":1320:1367   */\n  mstore\n    /* \"#utility.yul\":1384:1515   */\n  tag_70\n    /* \"#utility.yul\":1510:1514   */\n  dup2\n    /* \"#utility.yul\":1384:1515   */\n  tag_56\n  jump\t// in\ntag_70:\n    /* \"#utility.yul\":1376:1515   */\n  swap1\n  pop\n    /* \"#utility.yul\":1103:1522   */\n  swap2\n  swap1\n  pop\n  jump\t// out\n    /* \"#utility.yul\":1528:1947   */\ntag_35:\n    /* \"#utility.yul\":1694:1698   */\n  0x00\n    /* \"#utility.yul\":1732:1734   */\n  0x20\n    /* \"#utility.yul\":1721:1730   */\n  dup3\n    /* \"#utility.yul\":1717:1735   */\n  add\n    /* \"#utility.yul\":1709:1735   */\n  swap1\n  pop\n    /* \"#utility.yul\":1781:1790   */\n  dup2\n    /* \"#utility.yul\":1775:1779   */\n  dup2\n    /* \"#utility.yul\":1771:1791   */\n  sub\n    /* \"#utility.yul\":1767:1768   */\n  0x00\n    /* \"#utility.yul\":1756:1765   */\n  dup4\n    /* \"#utility.yul\":1752:1769   */\n  add\n    /* \"#utility.yul\":1745:1792   */\n  mstore\n    /* \"#utility.yul\":1809:1940   */\n  tag_72\n    /* \"#utility.yul\":1935:1939   */\n  dup2\n    /* \"#utility.yul\":1809:1940   */\n  tag_62\n  jump\t// in\ntag_72:\n    /* \"#utility.yul\":1801:1940   */\n  swap1\n  pop\n    /* \"#utility.yul\":1528:1947   */\n  swap2\n  swap1\n  pop\n  jump\t// out\n    /* \"#utility.yul\":1953:2122   */\ntag_59:\n    /* \"#utility.yul\":2037:2048   */\n  0x00\n    /* \"#utility.yul\":2071:2077   */\n  dup3\n    /* \"#utility.yul\":2066:2069   */\n  dup3\n    /* \"#utility.yul\":2059:2078   */\n  mstore\n    /* \"#utility.yul\":2111:2115   */\n  0x20\n    /* \"#utility.yul\":2106:2109   */\n  dup3\n    /* \"#utility.yul\":2102:2116   */\n  add\n    /* \"#utility.yul\":2087:2116   */\n  swap1\n  pop\n    /* \"#utility.yul\":1953:2122   */\n  swap3\n  swap2\n  pop\n  pop\n  jump\t// out\n    /* \"#utility.yul\":2128:2224   */\ntag_55:\n    /* \"#utility.yul\":2165:2172   */\n  0x00\n    /* \"#utility.yul\":2194:2218   */\n  tag_75\n    /* \"#utility.yul\":2212:2217   */\n  dup3\n    /* \"#utility.yul\":2194:2218   */\n  tag_76\n  jump\t// in\ntag_75:\n    /* \"#utility.yul\":2183:2218   */\n  swap1\n  pop\n    /* \"#utility.yul\":2128:2224   */\n  swap2\n  swap1\n  pop\n  jump\t// out\n    /* \"#utility.yul\":2230:2356   */\ntag_76:\n    /* \"#utility.yul\":2267:2274   */\n  0x00\n    /* \"#utility.yul\":2307:2349   */\n  0xffffffffffffffffffffffffffffffffffffffff\n    /* \"#utility.yul\":2300:2305   */\n  dup3\n    /* \"#utility.yul\":2296:2350   */\n  and\n    /* \"#utility.yul\":2285:2350   */\n  swap1\n  pop\n    /* \"#utility.yul\":2230:2356   */\n  swap2\n  swap1\n  pop\n  jump\t// out\n    /* \"#utility.yul\":2362:2528   */\ntag_61:\n    /* \"#utility.yul\":2502:2520   */\n  0x5061757361626c653a2070617573656400000000000000000000000000000000\n    /* \"#utility.yul\":2498:2499   */\n  0x00\n    /* \"#utility.yul\":2490:2496   */\n  dup3\n    /* \"#utility.yul\":2486:2500   */\n  add\n    /* \"#utility.yul\":2479:2521   */\n  mstore\n    /* \"#utility.yul\":2362:2528   */\n  pop\n  jump\t// out\n    /* \"#utility.yul\":2534:2716   */\ntag_66:\n    /* \"#utility.yul\":2674:2708   */\n  0x4f776e61626c653a2063616c6c6572206973206e6f7420746865206f776e6572\n    /* \"#utility.yul\":2670:2671   */\n  0x00\n    /* \"#utility.yul\":2662:2668   */\n  dup3\n    /* \"#utility.yul\":2658:2672   */\n  add\n    /* \"#utility.yul\":2651:2709   */\n  mstore\n    /* \"#utility.yul\":2534:2716   */\n  pop\n  jump\t// out\n    /* \"contracts/crowdsale.sol\":251:6383  contract crowdsale is Ownable, Pausable, Data {\r... */\ntag_20:\n  dataSize(sub_0)\n  dup1\n  dataOffset(sub_0)\n  0x00\n  codecopy\n  0x00\n  return\nstop\n\nsub_0: assembly {\n        /* \"contracts/crowdsale.sol\":251:6383  contract crowdsale is Ownable, Pausable, Data {\r... */\n      mstore(0x40, 0x80)\n      callvalue\n      dup1\n      iszero\n      tag_1\n      jumpi\n      0x00\n      dup1\n      revert\n    tag_1:\n      pop\n      jumpi(tag_2, lt(calldatasize, 0x04))\n      shr(0xe0, calldataload(0x00))\n      dup1\n      0x8456cb59\n      gt\n      tag_36\n      jumpi\n      dup1\n      0xa32bf597\n      gt\n      tag_37\n      jumpi\n      dup1\n      0xc411fcd8\n      gt\n      tag_38\n      jumpi\n      dup1\n      0xc411fcd8\n      eq\n      tag_31\n      jumpi\n      dup1\n      0xdaf4f5fd\n      eq\n      tag_32\n      jumpi\n      dup1\n      0xe5066bbf\n      eq\n      tag_33\n      jumpi\n      dup1\n      0xf2fde38b\n      eq\n      tag_34\n      jumpi\n      dup1\n      0xfed6b1ef\n      eq\n      tag_35\n      jumpi\n      jump(tag_2)\n    tag_38:\n      dup1\n      0xa32bf597\n      eq\n      tag_27\n      jumpi\n      dup1\n      0xb5f5935c\n      eq\n      tag_28\n      jumpi\n      dup1\n      0xb60181c7\n      eq\n      tag_29\n      jumpi\n      dup1\n      0xb67d9530\n      eq\n      tag_30\n      jumpi\n      jump(tag_2)\n    tag_37:\n      dup1\n      0x9309f8f3\n      gt\n      tag_39\n      jumpi\n      dup1\n      0x9309f8f3\n      eq\n      tag_23\n      jumpi\n      dup1\n      0x96032702\n      eq\n      tag_24\n      jumpi\n      dup1\n      0x9788f555\n      eq\n      tag_25\n      jumpi\n      dup1\n      0xa2059be2\n      eq\n      tag_26\n      jumpi\n      jump(tag_2)\n    tag_39:\n      dup1\n      0x8456cb59\n      eq\n      tag_19\n      jumpi\n      dup1\n      0x8bbf9b07\n      eq\n      tag_20\n      jumpi\n      dup1\n      0x8da5cb5b\n      eq\n      tag_21\n      jumpi\n      dup1\n      0x9106d7ba\n      eq\n      tag_22\n      jumpi\n      jump(tag_2)\n    tag_36:\n      dup1\n      0x427c7f38\n      gt\n      tag_40\n      jumpi\n      dup1\n      0x523c69e6\n      gt\n      tag_41\n      jumpi\n      dup1\n      0x523c69e6\n      eq\n      tag_15\n      jumpi\n      dup1\n      0x5c975abb\n      eq\n      tag_16\n      jumpi\n      dup1\n      0x705ba605\n      eq\n      tag_17\n      jumpi\n      dup1\n      0x715018a6\n      eq\n      tag_18\n      jumpi\n      jump(tag_2)\n    tag_41:\n      dup1\n      0x427c7f38\n      eq\n      tag_11\n      jumpi\n      dup1\n      0x46c3fa70\n      eq\n      tag_12\n      jumpi\n      dup1\n      0x48148a80\n      eq\n      tag_13\n      jumpi\n      dup1\n      0x4867e444\n      eq\n      tag_14\n      jumpi\n      jump(tag_2)\n    tag_40:\n      dup1\n      0x3b9c0fdc\n      gt\n      tag_42\n      jumpi\n      dup1\n      0x3b9c0fdc\n      eq\n      tag_7\n      jumpi\n      dup1\n      0x3ccfd60b\n      eq\n      tag_8\n      jumpi\n      dup1\n      0x3f4ba83a\n      eq\n      tag_9\n      jumpi\n      dup1\n      0x3f9a16a8\n      eq\n      tag_10\n      jumpi\n      jump(tag_2)\n    tag_42:\n      dup1\n      0x1a65b563\n      eq\n      tag_3\n      jumpi\n      dup1\n      0x1d65abb0\n      eq\n      tag_4\n      jumpi\n      dup1\n      0x2d2c4158\n      eq\n      tag_5\n      jumpi\n      dup1\n      0x39f83026\n      eq\n      tag_6\n      jumpi\n    tag_2:\n      0x00\n      dup1\n      revert\n        /* \"contracts/crowdsale.sol\":3909:4133  function changeRound(uint i, uint _timeStart, uint _timeEnd, uint _vesting, uint _price, uint _maxTotalAmount) public onlyOwner {\r... */\n    tag_3:\n      tag_43\n      0x04\n      dup1\n      calldatasize\n      sub\n      dup2\n      add\n      swap1\n      tag_44\n      swap2\n      swap1\n      tag_45\n      jump\t// in\n    tag_44:\n      tag_46\n      jump\t// in\n    tag_43:\n      stop\n        /* \"contracts/crowdsale.sol\":5044:5148  function setBUSDRecipient(address _address) public onlyOwner {\r... */\n    tag_4:\n      tag_47\n      0x04\n      dup1\n      calldatasize\n      sub\n      dup2\n      add\n      swap1\n      tag_48\n      swap2\n      swap1\n      tag_49\n      jump\t// in\n    tag_48:\n      tag_50\n      jump\t// in\n    tag_47:\n      stop\n        /* \"contracts/data.sol\":661:1033  function getPriceXPAD() public view returns (uint){\r... */\n    tag_5:\n      tag_51\n      tag_52\n      jump\t// in\n    tag_51:\n      mload(0x40)\n      tag_53\n      swap2\n      swap1\n      tag_54\n      jump\t// in\n    tag_53:\n      mload(0x40)\n      dup1\n      swap2\n      sub\n      swap1\n      return\n        /* \"contracts/crowdsale.sol\":5756:6378  function getAmountXPPAvailebleToWithdrawOwner(address _address) public onlyOwner view returns (uint){\r... */\n    tag_6:\n      tag_55\n      0x04\n      dup1\n      calldatasize\n      sub\n      dup2\n      add\n      swap1\n      tag_56\n      swap2\n      swap1\n      tag_49\n      jump\t// in\n    tag_56:\n      tag_57\n      jump\t// in\n    tag_55:\n      mload(0x40)\n      tag_58\n      swap2\n      swap1\n      tag_54\n      jump\t// in\n    tag_58:\n      mload(0x40)\n      dup1\n      swap2\n      sub\n      swap1\n      return\n        /* \"contracts/crowdsale.sol\":4363:4587  function deleteRound(uint i) public onlyOwner {\r... */\n    tag_7:\n      tag_59\n      0x04\n      dup1\n      calldatasize\n      sub\n      dup2\n      add\n      swap1\n      tag_60\n      swap2\n      swap1\n      tag_61\n      jump\t// in\n    tag_60:\n      tag_62\n      jump\t// in\n    tag_59:\n      stop\n        /* \"contracts/crowdsale.sol\":1670:2312  function withdraw() public {\r... */\n    tag_8:\n      tag_63\n      tag_64\n      jump\t// in\n    tag_63:\n      stop\n        /* \"contracts/crowdsale.sol\":3836:3901  function unpause() public onlyOwner {\r... */\n    tag_9:\n      tag_65\n      tag_66\n      jump\t// in\n    tag_65:\n      stop\n        /* \"contracts/data.sol\":1893:2301  function getCurrentMaxTotalAmount() public view returns(uint) {\r... */\n    tag_10:\n      tag_67\n      tag_68\n      jump\t// in\n    tag_67:\n      mload(0x40)\n      tag_69\n      swap2\n      swap1\n      tag_54\n      jump\t// in\n    tag_69:\n      mload(0x40)\n      dup1\n      swap2\n      sub\n      swap1\n      return\n        /* \"contracts/crowdsale.sol\":2695:3117  function getStakeBalance() public view returns (uint){\r... */\n    tag_11:\n      tag_70\n      tag_71\n      jump\t// in\n    tag_70:\n      mload(0x40)\n      tag_72\n      swap2\n      swap1\n      tag_54\n      jump\t// in\n    tag_72:\n      mload(0x40)\n      dup1\n      swap2\n      sub\n      swap1\n      return\n        /* \"contracts/crowdsale.sol\":4831:4939  function setXPADTokenHolder(address _address) public onlyOwner {\r... */\n    tag_12:\n      tag_73\n      0x04\n      dup1\n      calldatasize\n      sub\n      dup2\n      add\n      swap1\n      tag_74\n      swap2\n      swap1\n      tag_49\n      jump\t// in\n    tag_74:\n      tag_75\n      jump\t// in\n    tag_73:\n      stop\n        /* \"contracts/crowdsale.sol\":654:729  address public XPADTokenHolder = 0x7b76dBF7f01ebA3eE2fa1339C8C29FA6949b1bE4 */\n    tag_13:\n      tag_76\n      tag_77\n      jump\t// in\n    tag_76:\n      mload(0x40)\n      tag_78\n      swap2\n      swap1\n      tag_79\n      jump\t// in\n    tag_78:\n      mload(0x40)\n      dup1\n      swap2\n      sub\n      swap1\n      return\n        /* \"contracts/crowdsale.sol\":5156:5295  function getStakerDataOwner(address _address) public onlyOwner view returns (Staker[] memory){\r... */\n    tag_14:\n      tag_80\n      0x04\n      dup1\n      calldatasize\n      sub\n      dup2\n      add\n      swap1\n      tag_81\n      swap2\n      swap1\n      tag_49\n      jump\t// in\n    tag_81:\n      tag_82\n      jump\t// in\n    tag_80:\n      mload(0x40)\n      tag_83\n      swap2\n      swap1\n      tag_84\n      jump\t// in\n    tag_83:\n      mload(0x40)\n      dup1\n      swap2\n      sub\n      swap1\n      return\n        /* \"contracts/data.sol\":1041:1428  function getVestingXPAD(uint _timeStake) public view returns (uint){\r... */\n    tag_15:\n      tag_85\n      0x04\n      dup1\n      calldatasize\n      sub\n      dup2\n      add\n      swap1\n      tag_86\n      swap2\n      swap1\n      tag_61\n      jump\t// in\n    tag_86:\n      tag_87\n      jump\t// in\n    tag_85:\n      mload(0x40)\n      tag_88\n      swap2\n      swap1\n      tag_54\n      jump\t// in\n    tag_88:\n      mload(0x40)\n      dup1\n      swap2\n      sub\n      swap1\n      return\n        /* \"@openzeppelin/contracts/security/Pausable.sol\":1615:1699  function paused() public view virtual returns (bool) {... */\n    tag_16:\n      tag_89\n      tag_90\n      jump\t// in\n    tag_89:\n      mload(0x40)\n      tag_91\n      swap2\n      swap1\n      tag_92\n      jump\t// in\n    tag_91:\n      mload(0x40)\n      dup1\n      swap2\n      sub\n      swap1\n      return\n        /* \"contracts/crowdsale.sol\":5303:5748  function getStakeBalanceOwner(address _address) public onlyOwner view returns (uint){\r... */\n    tag_17:\n      tag_93\n      0x04\n      dup1\n      calldatasize\n      sub\n      dup2\n      add\n      swap1\n      tag_94\n      swap2\n      swap1\n      tag_49\n      jump\t// in\n    tag_94:\n      tag_95\n      jump\t// in\n    tag_93:\n      mload(0x40)\n      tag_96\n      swap2\n      swap1\n      tag_54\n      jump\t// in\n    tag_96:\n      mload(0x40)\n      dup1\n      swap2\n      sub\n      swap1\n      return\n        /* \"@openzeppelin/contracts/access/Ownable.sol\":1831:1932  function renounceOwnership() public virtual onlyOwner {... */\n    tag_18:\n      tag_97\n      tag_98\n      jump\t// in\n    tag_97:\n      stop\n        /* \"contracts/crowdsale.sol\":3767:3828  function pause() public onlyOwner {\r... */\n    tag_19:\n      tag_99\n      tag_100\n      jump\t// in\n    tag_99:\n      stop\n        /* \"contracts/crowdsale.sol\":4141:4355  function addRound(uint _timeStart, uint _timeEnd, uint _vesting, uint _price, uint _maxTotalAmount) public onlyOwner {\r... */\n    tag_20:\n      tag_101\n      0x04\n      dup1\n      calldatasize\n      sub\n      dup2\n      add\n      swap1\n      tag_102\n      swap2\n      swap1\n      tag_103\n      jump\t// in\n    tag_102:\n      tag_104\n      jump\t// in\n    tag_101:\n      stop\n        /* \"@openzeppelin/contracts/access/Ownable.sol\":1201:1286  function owner() public view virtual returns (address) {... */\n    tag_21:\n      tag_105\n      tag_106\n      jump\t// in\n    tag_105:\n      mload(0x40)\n      tag_107\n      swap2\n      swap1\n      tag_79\n      jump\t// in\n    tag_107:\n      mload(0x40)\n      dup1\n      swap2\n      sub\n      swap1\n      return\n        /* \"contracts/crowdsale.sol\":777:798  uint public totalSold */\n    tag_22:\n      tag_108\n      tag_109\n      jump\t// in\n    tag_108:\n      mload(0x40)\n      tag_110\n      swap2\n      swap1\n      tag_54\n      jump\t// in\n    tag_110:\n      mload(0x40)\n      dup1\n      swap2\n      sub\n      swap1\n      return\n        /* \"contracts/crowdsale.sol\":2577:2687  function getStakerData() public view returns (Staker[] memory){\r... */\n    tag_23:\n      tag_111\n      tag_112\n      jump\t// in\n    tag_111:\n      mload(0x40)\n      tag_113\n      swap2\n      swap1\n      tag_84\n      jump\t// in\n    tag_113:\n      mload(0x40)\n      dup1\n      swap2\n      sub\n      swap1\n      return\n        /* \"contracts/crowdsale.sol\":1156:1662  function sale(uint amount)\r... */\n    tag_24:\n      tag_114\n      0x04\n      dup1\n      calldatasize\n      sub\n      dup2\n      add\n      swap1\n      tag_115\n      swap2\n      swap1\n      tag_61\n      jump\t// in\n    tag_115:\n      tag_116\n      jump\t// in\n    tag_114:\n      stop\n        /* \"contracts/crowdsale.sol\":738:768  uint public minBUSD = 50 ether */\n    tag_25:\n      tag_117\n      tag_118\n      jump\t// in\n    tag_117:\n      mload(0x40)\n      tag_119\n      swap2\n      swap1\n      tag_54\n      jump\t// in\n    tag_119:\n      mload(0x40)\n      dup1\n      swap2\n      sub\n      swap1\n      return\n        /* \"contracts/crowdsale.sol\":4595:4705  function setXPADTokenAddress(address _address) public onlyOwner {\r... */\n    tag_26:\n      tag_120\n      0x04\n      dup1\n      calldatasize\n      sub\n      dup2\n      add\n      swap1\n      tag_121\n      swap2\n      swap1\n      tag_49\n      jump\t// in\n    tag_121:\n      tag_122\n      jump\t// in\n    tag_120:\n      stop\n        /* \"contracts/data.sol\":1539:1885  function getCurrentRound() public view returns(uint) {\r... */\n    tag_27:\n      tag_123\n      tag_124\n      jump\t// in\n    tag_123:\n      mload(0x40)\n      tag_125\n      swap2\n      swap1\n      tag_54\n      jump\t// in\n    tag_125:\n      mload(0x40)\n      dup1\n      swap2\n      sub\n      swap1\n      return\n        /* \"contracts/crowdsale.sol\":574:647  address public BUSDRecipient = 0x7b76dBF7f01ebA3eE2fa1339C8C29FA6949b1bE4 */\n    tag_28:\n      tag_126\n      tag_127\n      jump\t// in\n    tag_126:\n      mload(0x40)\n      tag_128\n      swap2\n      swap1\n      tag_79\n      jump\t// in\n    tag_128:\n      mload(0x40)\n      dup1\n      swap2\n      sub\n      swap1\n      return\n        /* \"contracts/crowdsale.sol\":4947:5036  function setminBUSD(uint _minBUSD) public onlyOwner {\r... */\n    tag_29:\n      tag_129\n      0x04\n      dup1\n      calldatasize\n      sub\n      dup2\n      add\n      swap1\n      tag_130\n      swap2\n      swap1\n      tag_61\n      jump\t// in\n    tag_130:\n      tag_131\n      jump\t// in\n    tag_129:\n      stop\n        /* \"contracts/crowdsale.sol\":4713:4823  function setBUSDTokenAddress(address _address) public onlyOwner {\r... */\n    tag_30:\n      tag_132\n      0x04\n      dup1\n      calldatasize\n      sub\n      dup2\n      add\n      swap1\n      tag_133\n      swap2\n      swap1\n      tag_49\n      jump\t// in\n    tag_133:\n      tag_134\n      jump\t// in\n    tag_132:\n      stop\n        /* \"contracts/crowdsale.sol\":515:565  IERC20 public BUSDToken = IERC20(BUSDTokenAddress) */\n    tag_31:\n      tag_135\n      tag_136\n      jump\t// in\n    tag_135:\n      mload(0x40)\n      tag_137\n      swap2\n      swap1\n      tag_138\n      jump\t// in\n    tag_137:\n      mload(0x40)\n      dup1\n      swap2\n      sub\n      swap1\n      return\n        /* \"contracts/crowdsale.sol\":380:430  IERC20 public XPADToken = IERC20(XPADTokenAddress) */\n    tag_32:\n      tag_139\n      tag_140\n      jump\t// in\n    tag_139:\n      mload(0x40)\n      tag_141\n      swap2\n      swap1\n      tag_138\n      jump\t// in\n    tag_141:\n      mload(0x40)\n      dup1\n      swap2\n      sub\n      swap1\n      return\n        /* \"contracts/data.sol\":1436:1531  function getAllRounds() public view returns(Round[] memory) {\r... */\n    tag_33:\n      tag_142\n      tag_143\n      jump\t// in\n    tag_142:\n      mload(0x40)\n      tag_144\n      swap2\n      swap1\n      tag_145\n      jump\t// in\n    tag_144:\n      mload(0x40)\n      dup1\n      swap2\n      sub\n      swap1\n      return\n        /* \"@openzeppelin/contracts/access/Ownable.sol\":2081:2279  function transferOwnership(address newOwner) public virtual onlyOwner {... */\n    tag_34:\n      tag_146\n      0x04\n      dup1\n      calldatasize\n      sub\n      dup2\n      add\n      swap1\n      tag_147\n      swap2\n      swap1\n      tag_49\n      jump\t// in\n    tag_147:\n      tag_148\n      jump\t// in\n    tag_146:\n      stop\n        /* \"contracts/crowdsale.sol\":3125:3728  function getAmountXPPAvailebleToWithdraw() public view returns (uint){\r... */\n    tag_35:\n      tag_149\n      tag_150\n      jump\t// in\n    tag_149:\n      mload(0x40)\n      tag_151\n      swap2\n      swap1\n      tag_54\n      jump\t// in\n    tag_151:\n      mload(0x40)\n      dup1\n      swap2\n      sub\n      swap1\n      return\n        /* \"contracts/crowdsale.sol\":3909:4133  function changeRound(uint i, uint _timeStart, uint _timeEnd, uint _vesting, uint _price, uint _maxTotalAmount) public onlyOwner {\r... */\n    tag_46:\n        /* \"@openzeppelin/contracts/access/Ownable.sol\":1094:1107  _checkOwner() */\n      tag_153\n        /* \"@openzeppelin/contracts/access/Ownable.sol\":1094:1105  _checkOwner */\n      tag_154\n        /* \"@openzeppelin/contracts/access/Ownable.sol\":1094:1107  _checkOwner() */\n      jump\t// in\n    tag_153:\n        /* \"contracts/crowdsale.sol\":4063:4125  Round(_timeStart, _timeEnd, _vesting, _price, _maxTotalAmount) */\n      mload(0x40)\n      dup1\n      0xa0\n      add\n      0x40\n      mstore\n      dup1\n        /* \"contracts/crowdsale.sol\":4069:4079  _timeStart */\n      dup7\n        /* \"contracts/crowdsale.sol\":4063:4125  Round(_timeStart, _timeEnd, _vesting, _price, _maxTotalAmount) */\n      dup2\n      mstore\n      0x20\n      add\n        /* \"contracts/crowdsale.sol\":4081:4089  _timeEnd */\n      dup6\n        /* \"contracts/crowdsale.sol\":4063:4125  Round(_timeStart, _timeEnd, _vesting, _price, _maxTotalAmount) */\n      dup2\n      mstore\n      0x20\n      add\n        /* \"contracts/crowdsale.sol\":4091:4099  _vesting */\n      dup5\n        /* \"contracts/crowdsale.sol\":4063:4125  Round(_timeStart, _timeEnd, _vesting, _price, _maxTotalAmount) */\n      dup2\n      mstore\n      0x20\n      add\n        /* \"contracts/crowdsale.sol\":4101:4107  _price */\n      dup4\n        /* \"contracts/crowdsale.sol\":4063:4125  Round(_timeStart, _timeEnd, _vesting, _price, _maxTotalAmount) */\n      dup2\n      mstore\n      0x20\n      add\n        /* \"contracts/crowdsale.sol\":4109:4124  _maxTotalAmount */\n      dup3\n        /* \"contracts/crowdsale.sol\":4063:4125  Round(_timeStart, _timeEnd, _vesting, _price, _maxTotalAmount) */\n      dup2\n      mstore\n      pop\n        /* \"contracts/crowdsale.sol\":4048:4057  allRounds */\n      0x01\n        /* \"contracts/crowdsale.sol\":4058:4059  i */\n      dup8\n        /* \"contracts/crowdsale.sol\":4048:4060  allRounds[i] */\n      dup2\n      sload\n      dup2\n      lt\n      tag_156\n      jumpi\n      tag_157\n      tag_158\n      jump\t// in\n    tag_157:\n    tag_156:\n      swap1\n      0x00\n      mstore\n      keccak256(0x00, 0x20)\n      swap1\n      0x05\n      mul\n      add\n        /* \"contracts/crowdsale.sol\":4048:4125  allRounds[i] = Round(_timeStart, _timeEnd, _vesting, _price, _maxTotalAmount) */\n      0x00\n      dup3\n      add\n      mload\n      dup2\n      0x00\n      add\n      sstore\n      0x20\n      dup3\n      add\n      mload\n      dup2\n      0x01\n      add\n      sstore\n      0x40\n      dup3\n      add\n      mload\n      dup2\n      0x02\n      add\n      sstore\n      0x60\n      dup3\n      add\n      mload\n      dup2\n      0x03\n      add\n      sstore\n      0x80\n      dup3\n      add\n      mload\n      dup2\n      0x04\n      add\n      sstore\n      swap1\n      pop\n      pop\n        /* \"contracts/crowdsale.sol\":3909:4133  function changeRound(uint i, uint _timeStart, uint _timeEnd, uint _vesting, uint _price, uint _maxTotalAmount) public onlyOwner {\r... */\n      pop\n      pop\n      pop\n      pop\n      pop\n      pop\n      jump\t// out\n        /* \"contracts/crowdsale.sol\":5044:5148  function setBUSDRecipient(address _address) public onlyOwner {\r... */\n    tag_50:\n        /* \"@openzeppelin/contracts/access/Ownable.sol\":1094:1107  _checkOwner() */\n      tag_161\n        /* \"@openzeppelin/contracts/access/Ownable.sol\":1094:1105  _checkOwner */\n      tag_154\n        /* \"@openzeppelin/contracts/access/Ownable.sol\":1094:1107  _checkOwner() */\n      jump\t// in\n    tag_161:\n        /* \"contracts/crowdsale.sol\":5132:5140  _address */\n      dup1\n        /* \"contracts/crowdsale.sol\":5116:5129  BUSDRecipient */\n      0x06\n      0x00\n        /* \"contracts/crowdsale.sol\":5116:5140  BUSDRecipient = _address */\n      0x0100\n      exp\n      dup2\n      sload\n      dup2\n      0xffffffffffffffffffffffffffffffffffffffff\n      mul\n      not\n      and\n      swap1\n      dup4\n      0xffffffffffffffffffffffffffffffffffffffff\n      and\n      mul\n      or\n      swap1\n      sstore\n      pop\n        /* \"contracts/crowdsale.sol\":5044:5148  function setBUSDRecipient(address _address) public onlyOwner {\r... */\n      pop\n      jump\t// out\n        /* \"contracts/data.sol\":661:1033  function getPriceXPAD() public view returns (uint){\r... */\n    tag_52:\n        /* \"contracts/data.sol\":706:710  uint */\n      0x00\n        /* \"contracts/data.sol\":722:736  uint priceXPAD */\n      dup1\n        /* \"contracts/data.sol\":754:760  uint i */\n      0x00\n        /* \"contracts/data.sol\":749:997  for (uint i = 0; i < allRounds.length; i++) {\r... */\n    tag_164:\n        /* \"contracts/data.sol\":770:779  allRounds */\n      0x01\n        /* \"contracts/data.sol\":770:786  allRounds.length */\n      dup1\n      sload\n      swap1\n      pop\n        /* \"contracts/data.sol\":766:767  i */\n      dup2\n        /* \"contracts/data.sol\":766:786  i < allRounds.length */\n      lt\n        /* \"contracts/data.sol\":749:997  for (uint i = 0; i < allRounds.length; i++) {\r... */\n      iszero\n      tag_165\n      jumpi\n        /* \"contracts/data.sol\":831:840  allRounds */\n      0x01\n        /* \"contracts/data.sol\":841:842  i */\n      dup2\n        /* \"contracts/data.sol\":831:843  allRounds[i] */\n      dup2\n      sload\n      dup2\n      lt\n      tag_167\n      jumpi\n      tag_168\n      tag_158\n      jump\t// in\n    tag_168:\n    tag_167:\n      swap1\n      0x00\n      mstore\n      keccak256(0x00, 0x20)\n      swap1\n      0x05\n      mul\n      add\n        /* \"contracts/data.sol\":831:853  allRounds[i].timeStart */\n      0x00\n      add\n      sload\n        /* \"contracts/data.sol\":812:827  block.timestamp */\n      timestamp\n        /* \"contracts/data.sol\":812:853  block.timestamp >= allRounds[i].timeStart */\n      lt\n      iszero\n        /* \"contracts/data.sol\":812:895  block.timestamp >= allRounds[i].timeStart && block.timestamp < allRounds[i].timeEnd */\n      dup1\n      iszero\n      tag_170\n      jumpi\n      pop\n        /* \"contracts/data.sol\":875:884  allRounds */\n      0x01\n        /* \"contracts/data.sol\":885:886  i */\n      dup2\n        /* \"contracts/data.sol\":875:887  allRounds[i] */\n      dup2\n      sload\n      dup2\n      lt\n      tag_171\n      jumpi\n      tag_172\n      tag_158\n      jump\t// in\n    tag_172:\n    tag_171:\n      swap1\n      0x00\n      mstore\n      keccak256(0x00, 0x20)\n      swap1\n      0x05\n      mul\n      add\n        /* \"contracts/data.sol\":875:895  allRounds[i].timeEnd */\n      0x01\n      add\n      sload\n        /* \"contracts/data.sol\":857:872  block.timestamp */\n      timestamp\n        /* \"contracts/data.sol\":857:895  block.timestamp < allRounds[i].timeEnd */\n      lt\n        /* \"contracts/data.sol\":812:895  block.timestamp >= allRounds[i].timeStart && block.timestamp < allRounds[i].timeEnd */\n    tag_170:\n        /* \"contracts/data.sol\":808:986  if (block.timestamp >= allRounds[i].timeStart && block.timestamp < allRounds[i].timeEnd) {\r... */\n      iszero\n      tag_174\n      jumpi\n        /* \"contracts/data.sol\":928:937  allRounds */\n      0x01\n        /* \"contracts/data.sol\":938:939  i */\n      dup2\n        /* \"contracts/data.sol\":928:940  allRounds[i] */\n      dup2\n      sload\n      dup2\n      lt\n      tag_175\n      jumpi\n      tag_176\n      tag_158\n      jump\t// in\n    tag_176:\n    tag_175:\n      swap1\n      0x00\n      mstore\n      keccak256(0x00, 0x20)\n      swap1\n      0x05\n      mul\n      add\n        /* \"contracts/data.sol\":928:946  allRounds[i].price */\n      0x03\n      add\n      sload\n        /* \"contracts/data.sol\":916:946  priceXPAD = allRounds[i].price */\n      swap2\n      pop\n        /* \"contracts/data.sol\":965:970  break */\n      jump(tag_165)\n        /* \"contracts/data.sol\":808:986  if (block.timestamp >= allRounds[i].timeStart && block.timestamp < allRounds[i].timeEnd) {\r... */\n    tag_174:\n        /* \"contracts/data.sol\":788:791  i++ */\n      dup1\n      dup1\n      tag_178\n      swap1\n      tag_179\n      jump\t// in\n    tag_178:\n      swap2\n      pop\n      pop\n        /* \"contracts/data.sol\":749:997  for (uint i = 0; i < allRounds.length; i++) {\r... */\n      jump(tag_164)\n    tag_165:\n      pop\n        /* \"contracts/data.sol\":1016:1025  priceXPAD */\n      dup1\n        /* \"contracts/data.sol\":1009:1025  return priceXPAD */\n      swap2\n      pop\n      pop\n        /* \"contracts/data.sol\":661:1033  function getPriceXPAD() public view returns (uint){\r... */\n      swap1\n      jump\t// out\n        /* \"contracts/crowdsale.sol\":5756:6378  function getAmountXPPAvailebleToWithdrawOwner(address _address) public onlyOwner view returns (uint){\r... */\n    tag_57:\n        /* \"contracts/crowdsale.sol\":5851:5855  uint */\n      0x00\n        /* \"@openzeppelin/contracts/access/Ownable.sol\":1094:1107  _checkOwner() */\n      tag_181\n        /* \"@openzeppelin/contracts/access/Ownable.sol\":1094:1105  _checkOwner */\n      tag_154\n        /* \"@openzeppelin/contracts/access/Ownable.sol\":1094:1107  _checkOwner() */\n      jump\t// in\n    tag_181:\n        /* \"contracts/crowdsale.sol\":5867:5889  uint _MaxvalueWithdraw */\n      0x00\n        /* \"contracts/crowdsale.sol\":5937:5938  0 */\n      dup1\n        /* \"contracts/crowdsale.sol\":5906:5916  addressToS */\n      0x0a\n        /* \"contracts/crowdsale.sol\":5906:5926  addressToS[_address] */\n      0x00\n        /* \"contracts/crowdsale.sol\":5917:5925  _address */\n      dup6\n        /* \"contracts/crowdsale.sol\":5906:5926  addressToS[_address] */\n      0xffffffffffffffffffffffffffffffffffffffff\n      and\n      0xffffffffffffffffffffffffffffffffffffffff\n      and\n      dup2\n      mstore\n      0x20\n      add\n      swap1\n      dup2\n      mstore\n      0x20\n      add\n      0x00\n      keccak256\n        /* \"contracts/crowdsale.sol\":5906:5933  addressToS[_address].length */\n      dup1\n      sload\n      swap1\n      pop\n        /* \"contracts/crowdsale.sol\":5906:5938  addressToS[_address].length != 0 */\n      eq\n        /* \"contracts/crowdsale.sol\":5902:6334  if (addressToS[_address].length != 0) {\r... */\n      tag_183\n      jumpi\n        /* \"contracts/crowdsale.sol\":5960:5966  uint i */\n      0x00\n        /* \"contracts/crowdsale.sol\":5955:6323  for (uint i = 0; i < addressToS[_address].length; i++) {\r... */\n    tag_184:\n        /* \"contracts/crowdsale.sol\":5976:5986  addressToS */\n      0x0a\n        /* \"contracts/crowdsale.sol\":5976:5996  addressToS[_address] */\n      0x00\n        /* \"contracts/crowdsale.sol\":5987:5995  _address */\n      dup6\n        /* \"contracts/crowdsale.sol\":5976:5996  addressToS[_address] */\n      0xffffffffffffffffffffffffffffffffffffffff\n      and\n      0xffffffffffffffffffffffffffffffffffffffff\n      and\n      dup2\n      mstore\n      0x20\n      add\n      swap1\n      dup2\n      mstore\n      0x20\n      add\n      0x00\n      keccak256\n        /* \"contracts/crowdsale.sol\":5976:6003  addressToS[_address].length */\n      dup1\n      sload\n      swap1\n      pop\n        /* \"contracts/crowdsale.sol\":5972:5973  i */\n      dup2\n        /* \"contracts/crowdsale.sol\":5972:6003  i < addressToS[_address].length */\n      lt\n        /* \"contracts/crowdsale.sol\":5955:6323  for (uint i = 0; i < addressToS[_address].length; i++) {\r... */\n      iszero\n      tag_185\n      jumpi\n        /* \"contracts/crowdsale.sol\":6123:6138  block.timestamp */\n      timestamp\n        /* \"contracts/crowdsale.sol\":6071:6120  getVestingXPAD(addressToS[_address][i].timeStake) */\n      tag_187\n        /* \"contracts/crowdsale.sol\":6086:6096  addressToS */\n      0x0a\n        /* \"contracts/crowdsale.sol\":6086:6106  addressToS[_address] */\n      0x00\n        /* \"contracts/crowdsale.sol\":6097:6105  _address */\n      dup8\n        /* \"contracts/crowdsale.sol\":6086:6106  addressToS[_address] */\n      0xffffffffffffffffffffffffffffffffffffffff\n      and\n      0xffffffffffffffffffffffffffffffffffffffff\n      and\n      dup2\n      mstore\n      0x20\n      add\n      swap1\n      dup2\n      mstore\n      0x20\n      add\n      0x00\n      keccak256\n        /* \"contracts/crowdsale.sol\":6107:6108  i */\n      dup4\n        /* \"contracts/crowdsale.sol\":6086:6109  addressToS[_address][i] */\n      dup2\n      sload\n      dup2\n      lt\n      tag_188\n      jumpi\n      tag_189\n      tag_158\n      jump\t// in\n    tag_189:\n    tag_188:\n      swap1\n      0x00\n      mstore\n      keccak256(0x00, 0x20)\n      swap1\n      0x02\n      mul\n      add\n        /* \"contracts/crowdsale.sol\":6086:6119  addressToS[_address][i].timeStake */\n      0x00\n      add\n      sload\n        /* \"contracts/crowdsale.sol\":6071:6085  getVestingXPAD */\n      tag_87\n        /* \"contracts/crowdsale.sol\":6071:6120  getVestingXPAD(addressToS[_address][i].timeStake) */\n      jump\t// in\n    tag_187:\n        /* \"contracts/crowdsale.sol\":6035:6045  addressToS */\n      0x0a\n        /* \"contracts/crowdsale.sol\":6035:6055  addressToS[_address] */\n      0x00\n        /* \"contracts/crowdsale.sol\":6046:6054  _address */\n      dup8\n        /* \"contracts/crowdsale.sol\":6035:6055  addressToS[_address] */\n      0xffffffffffffffffffffffffffffffffffffffff\n      and\n      0xffffffffffffffffffffffffffffffffffffffff\n      and\n      dup2\n      mstore\n      0x20\n      add\n      swap1\n      dup2\n      mstore\n      0x20\n      add\n      0x00\n      keccak256\n        /* \"contracts/crowdsale.sol\":6056:6057  i */\n      dup4\n        /* \"contracts/crowdsale.sol\":6035:6058  addressToS[_address][i] */\n      dup2\n      sload\n      dup2\n      lt\n      tag_191\n      jumpi\n      tag_192\n      tag_158\n      jump\t// in\n    tag_192:\n    tag_191:\n      swap1\n      0x00\n      mstore\n      keccak256(0x00, 0x20)\n      swap1\n      0x02\n      mul\n      add\n        /* \"contracts/crowdsale.sol\":6035:6068  addressToS[_address][i].timeStake */\n      0x00\n      add\n      sload\n        /* \"contracts/crowdsale.sol\":6035:6120  addressToS[_address][i].timeStake + getVestingXPAD(addressToS[_address][i].timeStake) */\n      tag_194\n      swap2\n      swap1\n      tag_195\n      jump\t// in\n    tag_194:\n        /* \"contracts/crowdsale.sol\":6035:6138  addressToS[_address][i].timeStake + getVestingXPAD(addressToS[_address][i].timeStake) < block.timestamp */\n      lt\n        /* \"contracts/crowdsale.sol\":6035:6176  addressToS[_address][i].timeStake + getVestingXPAD(addressToS[_address][i].timeStake) < block.timestamp && addressToS[_address][i].value != 0 */\n      dup1\n      iszero\n      tag_196\n      jumpi\n      pop\n        /* \"contracts/crowdsale.sol\":6175:6176  0 */\n      0x00\n        /* \"contracts/crowdsale.sol\":6142:6152  addressToS */\n      0x0a\n        /* \"contracts/crowdsale.sol\":6142:6162  addressToS[_address] */\n      0x00\n        /* \"contracts/crowdsale.sol\":6153:6161  _address */\n      dup7\n        /* \"contracts/crowdsale.sol\":6142:6162  addressToS[_address] */\n      0xffffffffffffffffffffffffffffffffffffffff\n      and\n      0xffffffffffffffffffffffffffffffffffffffff\n      and\n      dup2\n      mstore\n      0x20\n      add\n      swap1\n      dup2\n      mstore\n      0x20\n      add\n      0x00\n      keccak256\n        /* \"contracts/crowdsale.sol\":6163:6164  i */\n      dup3\n        /* \"contracts/crowdsale.sol\":6142:6165  addressToS[_address][i] */\n      dup2\n      sload\n      dup2\n      lt\n      tag_197\n      jumpi\n      tag_198\n      tag_158\n      jump\t// in\n    tag_198:\n    tag_197:\n      swap1\n      0x00\n      mstore\n      keccak256(0x00, 0x20)\n      swap1\n      0x02\n      mul\n      add\n        /* \"contracts/crowdsale.sol\":6142:6171  addressToS[_address][i].value */\n      0x01\n      add\n      sload\n        /* \"contracts/crowdsale.sol\":6142:6176  addressToS[_address][i].value != 0 */\n      eq\n      iszero\n        /* \"contracts/crowdsale.sol\":6035:6176  addressToS[_address][i].timeStake + getVestingXPAD(addressToS[_address][i].timeStake) < block.timestamp && addressToS[_address][i].value != 0 */\n    tag_196:\n        /* \"contracts/crowdsale.sol\":6031:6290  if (addressToS[_address][i].timeStake + getVestingXPAD(addressToS[_address][i].timeStake) < block.timestamp && addressToS[_address][i].value != 0) {\r... */\n      iszero\n      tag_200\n      jumpi\n        /* \"contracts/crowdsale.sol\":6241:6251  addressToS */\n      0x0a\n        /* \"contracts/crowdsale.sol\":6241:6261  addressToS[_address] */\n      0x00\n        /* \"contracts/crowdsale.sol\":6252:6260  _address */\n      dup6\n        /* \"contracts/crowdsale.sol\":6241:6261  addressToS[_address] */\n      0xffffffffffffffffffffffffffffffffffffffff\n      and\n      0xffffffffffffffffffffffffffffffffffffffff\n      and\n      dup2\n      mstore\n      0x20\n      add\n      swap1\n      dup2\n      mstore\n      0x20\n      add\n      0x00\n      keccak256\n        /* \"contracts/crowdsale.sol\":6262:6263  i */\n      dup2\n        /* \"contracts/crowdsale.sol\":6241:6264  addressToS[_address][i] */\n      dup2\n      sload\n      dup2\n      lt\n      tag_201\n      jumpi\n      tag_202\n      tag_158\n      jump\t// in\n    tag_202:\n    tag_201:\n      swap1\n      0x00\n      mstore\n      keccak256(0x00, 0x20)\n      swap1\n      0x02\n      mul\n      add\n        /* \"contracts/crowdsale.sol\":6241:6270  addressToS[_address][i].value */\n      0x01\n      add\n      sload\n        /* \"contracts/crowdsale.sol\":6221:6238  _MaxvalueWithdraw */\n      dup3\n        /* \"contracts/crowdsale.sol\":6221:6270  _MaxvalueWithdraw + addressToS[_address][i].value */\n      tag_204\n      swap2\n      swap1\n      tag_195\n      jump\t// in\n    tag_204:\n        /* \"contracts/crowdsale.sol\":6201:6270  _MaxvalueWithdraw = _MaxvalueWithdraw + addressToS[_address][i].value */\n      swap2\n      pop\n        /* \"contracts/crowdsale.sol\":6031:6290  if (addressToS[_address][i].timeStake + getVestingXPAD(addressToS[_address][i].timeStake) < block.timestamp && addressToS[_address][i].value != 0) {\r... */\n    tag_200:\n        /* \"contracts/crowdsale.sol\":6005:6008  i++ */\n      dup1\n      dup1\n      tag_205\n      swap1\n      tag_179\n      jump\t// in\n    tag_205:\n      swap2\n      pop\n      pop\n        /* \"contracts/crowdsale.sol\":5955:6323  for (uint i = 0; i < addressToS[_address].length; i++) {\r... */\n      jump(tag_184)\n    tag_185:\n      pop\n        /* \"contracts/crowdsale.sol\":5902:6334  if (addressToS[_address].length != 0) {\r... */\n    tag_183:\n        /* \"contracts/crowdsale.sol\":6353:6370  _MaxvalueWithdraw */\n      dup1\n        /* \"contracts/crowdsale.sol\":6346:6370  return _MaxvalueWithdraw */\n      swap2\n      pop\n      pop\n        /* \"contracts/crowdsale.sol\":5756:6378  function getAmountXPPAvailebleToWithdrawOwner(address _address) public onlyOwner view returns (uint){\r... */\n      swap2\n      swap1\n      pop\n      jump\t// out\n        /* \"contracts/crowdsale.sol\":4363:4587  function deleteRound(uint i) public onlyOwner {\r... */\n    tag_62:\n        /* \"@openzeppelin/contracts/access/Ownable.sol\":1094:1107  _checkOwner() */\n      tag_207\n        /* \"@openzeppelin/contracts/access/Ownable.sol\":1094:1105  _checkOwner */\n      tag_154\n        /* \"@openzeppelin/contracts/access/Ownable.sol\":1094:1107  _checkOwner() */\n      jump\t// in\n    tag_207:\n        /* \"contracts/crowdsale.sol\":4420:4434  uint lastIndex */\n      0x00\n        /* \"contracts/crowdsale.sol\":4456:4457  1 */\n      0x01\n        /* \"contracts/crowdsale.sol\":4437:4446  allRounds */\n      dup1\n        /* \"contracts/crowdsale.sol\":4437:4453  allRounds.length */\n      dup1\n      sload\n      swap1\n      pop\n        /* \"contracts/crowdsale.sol\":4437:4457  allRounds.length - 1 */\n      tag_209\n      swap2\n      swap1\n      tag_210\n      jump\t// in\n    tag_209:\n        /* \"contracts/crowdsale.sol\":4420:4457  uint lastIndex = allRounds.length - 1 */\n      swap1\n      pop\n        /* \"contracts/crowdsale.sol\":4479:4488  lastIndex */\n      dup1\n        /* \"contracts/crowdsale.sol\":4474:4475  i */\n      dup3\n        /* \"contracts/crowdsale.sol\":4474:4488  i != lastIndex */\n      eq\n        /* \"contracts/crowdsale.sol\":4470:4552  if (i != lastIndex) {\r... */\n      tag_211\n      jumpi\n        /* \"contracts/crowdsale.sol\":4520:4529  allRounds */\n      0x01\n        /* \"contracts/crowdsale.sol\":4530:4539  lastIndex */\n      dup2\n        /* \"contracts/crowdsale.sol\":4520:4540  allRounds[lastIndex] */\n      dup2\n      sload\n      dup2\n      lt\n      tag_212\n      jumpi\n      tag_213\n      tag_158\n      jump\t// in\n    tag_213:\n    tag_212:\n      swap1\n      0x00\n      mstore\n      keccak256(0x00, 0x20)\n      swap1\n      0x05\n      mul\n      add\n        /* \"contracts/crowdsale.sol\":4505:4514  allRounds */\n      0x01\n        /* \"contracts/crowdsale.sol\":4515:4516  i */\n      dup4\n        /* \"contracts/crowdsale.sol\":4505:4517  allRounds[i] */\n      dup2\n      sload\n      dup2\n      lt\n      tag_215\n      jumpi\n      tag_216\n      tag_158\n      jump\t// in\n    tag_216:\n    tag_215:\n      swap1\n      0x00\n      mstore\n      keccak256(0x00, 0x20)\n      swap1\n      0x05\n      mul\n      add\n        /* \"contracts/crowdsale.sol\":4505:4540  allRounds[i] = allRounds[lastIndex] */\n      0x00\n      dup3\n      add\n      sload\n      dup2\n      0x00\n      add\n      sstore\n      0x01\n      dup3\n      add\n      sload\n      dup2\n      0x01\n      add\n      sstore\n      0x02\n      dup3\n      add\n      sload\n      dup2\n      0x02\n      add\n      sstore\n      0x03\n      dup3\n      add\n      sload\n      dup2\n      0x03\n      add\n      sstore\n      0x04\n      dup3\n      add\n      sload\n      dup2\n      0x04\n      add\n      sstore\n      swap1\n      pop\n      pop\n        /* \"contracts/crowdsale.sol\":4470:4552  if (i != lastIndex) {\r... */\n    tag_211:\n        /* \"contracts/crowdsale.sol\":4564:4573  allRounds */\n      0x01\n        /* \"contracts/crowdsale.sol\":4564:4579  allRounds.pop() */\n      dup1\n      sload\n      dup1\n      tag_218\n      jumpi\n      tag_219\n      tag_220\n      jump\t// in\n    tag_219:\n    tag_218:\n      0x01\n      swap1\n      sub\n      dup2\n      dup2\n      swap1\n      0x00\n      mstore\n      keccak256(0x00, 0x20)\n      swap1\n      0x05\n      mul\n      add\n      0x00\n      dup1\n      dup3\n      add\n      0x00\n      swap1\n      sstore\n      0x01\n      dup3\n      add\n      0x00\n      swap1\n      sstore\n      0x02\n      dup3\n      add\n      0x00\n      swap1\n      sstore\n      0x03\n      dup3\n      add\n      0x00\n      swap1\n      sstore\n      0x04\n      dup3\n      add\n      0x00\n      swap1\n      sstore\n      pop\n      pop\n      swap1\n      sstore\n        /* \"contracts/crowdsale.sol\":4409:4587  {\r... */\n      pop\n        /* \"contracts/crowdsale.sol\":4363:4587  function deleteRound(uint i) public onlyOwner {\r... */\n      pop\n      jump\t// out\n        /* \"contracts/crowdsale.sol\":1670:2312  function withdraw() public {\r... */\n    tag_64:\n        /* \"contracts/crowdsale.sol\":1708:1730  uint _MaxvalueWithdraw */\n      0x00\n        /* \"contracts/crowdsale.sol\":1748:1754  uint i */\n      dup1\n        /* \"contracts/crowdsale.sol\":1757:1758  0 */\n      0x00\n        /* \"contracts/crowdsale.sol\":1748:1758  uint i = 0 */\n      swap1\n      pop\n        /* \"contracts/crowdsale.sol\":1743:2145  for (uint i = 0; i < addressToS[msg.sender].length; i++) {\r... */\n    tag_223:\n        /* \"contracts/crowdsale.sol\":1764:1774  addressToS */\n      0x0a\n        /* \"contracts/crowdsale.sol\":1764:1786  addressToS[msg.sender] */\n      0x00\n        /* \"contracts/crowdsale.sol\":1775:1785  msg.sender */\n      caller\n        /* \"contracts/crowdsale.sol\":1764:1786  addressToS[msg.sender] */\n      0xffffffffffffffffffffffffffffffffffffffff\n      and\n      0xffffffffffffffffffffffffffffffffffffffff\n      and\n      dup2\n      mstore\n      0x20\n      add\n      swap1\n      dup2\n      mstore\n      0x20\n      add\n      0x00\n      keccak256\n        /* \"contracts/crowdsale.sol\":1764:1793  addressToS[msg.sender].length */\n      dup1\n      sload\n      swap1\n      pop\n        /* \"contracts/crowdsale.sol\":1760:1761  i */\n      dup2\n        /* \"contracts/crowdsale.sol\":1760:1793  i < addressToS[msg.sender].length */\n      lt\n        /* \"contracts/crowdsale.sol\":1743:2145  for (uint i = 0; i < addressToS[msg.sender].length; i++) {\r... */\n      iszero\n      tag_224\n      jumpi\n        /* \"contracts/crowdsale.sol\":1913:1928  block.timestamp */\n      timestamp\n        /* \"contracts/crowdsale.sol\":1859:1910  getVestingXPAD(addressToS[msg.sender][i].timeStake) */\n      tag_226\n        /* \"contracts/crowdsale.sol\":1874:1884  addressToS */\n      0x0a\n        /* \"contracts/crowdsale.sol\":1874:1896  addressToS[msg.sender] */\n      0x00\n        /* \"contracts/crowdsale.sol\":1885:1895  msg.sender */\n      caller\n        /* \"contracts/crowdsale.sol\":1874:1896  addressToS[msg.sender] */\n      0xffffffffffffffffffffffffffffffffffffffff\n      and\n      0xffffffffffffffffffffffffffffffffffffffff\n      and\n      dup2\n      mstore\n      0x20\n      add\n      swap1\n      dup2\n      mstore\n      0x20\n      add\n      0x00\n      keccak256\n        /* \"contracts/crowdsale.sol\":1897:1898  i */\n      dup4\n        /* \"contracts/crowdsale.sol\":1874:1899  addressToS[msg.sender][i] */\n      dup2\n      sload\n      dup2\n      lt\n      tag_227\n      jumpi\n      tag_228\n      tag_158\n      jump\t// in\n    tag_228:\n    tag_227:\n      swap1\n      0x00\n      mstore\n      keccak256(0x00, 0x20)\n      swap1\n      0x02\n      mul\n      add\n        /* \"contracts/crowdsale.sol\":1874:1909  addressToS[msg.sender][i].timeStake */\n      0x00\n      add\n      sload\n        /* \"contracts/crowdsale.sol\":1859:1873  getVestingXPAD */\n      tag_87\n        /* \"contracts/crowdsale.sol\":1859:1910  getVestingXPAD(addressToS[msg.sender][i].timeStake) */\n      jump\t// in\n    tag_226:\n        /* \"contracts/crowdsale.sol\":1821:1831  addressToS */\n      0x0a\n        /* \"contracts/crowdsale.sol\":1821:1843  addressToS[msg.sender] */\n      0x00\n        /* \"contracts/crowdsale.sol\":1832:1842  msg.sender */\n      caller\n        /* \"contracts/crowdsale.sol\":1821:1843  addressToS[msg.sender] */\n      0xffffffffffffffffffffffffffffffffffffffff\n      and\n      0xffffffffffffffffffffffffffffffffffffffff\n      and\n      dup2\n      mstore\n      0x20\n      add\n      swap1\n      dup2\n      mstore\n      0x20\n      add\n      0x00\n      keccak256\n        /* \"contracts/crowdsale.sol\":1844:1845  i */\n      dup4\n        /* \"contracts/crowdsale.sol\":1821:1846  addressToS[msg.sender][i] */\n      dup2\n      sload\n      dup2\n      lt\n      tag_230\n      jumpi\n      tag_231\n      tag_158\n      jump\t// in\n    tag_231:\n    tag_230:\n      swap1\n      0x00\n      mstore\n      keccak256(0x00, 0x20)\n      swap1\n      0x02\n      mul\n      add\n        /* \"contracts/crowdsale.sol\":1821:1856  addressToS[msg.sender][i].timeStake */\n      0x00\n      add\n      sload\n        /* \"contracts/crowdsale.sol\":1821:1910  addressToS[msg.sender][i].timeStake + getVestingXPAD(addressToS[msg.sender][i].timeStake) */\n      tag_233\n      swap2\n      swap1\n      tag_195\n      jump\t// in\n    tag_233:\n        /* \"contracts/crowdsale.sol\":1821:1928  addressToS[msg.sender][i].timeStake + getVestingXPAD(addressToS[msg.sender][i].timeStake) < block.timestamp */\n      lt\n        /* \"contracts/crowdsale.sol\":1821:1968  addressToS[msg.sender][i].timeStake + getVestingXPAD(addressToS[msg.sender][i].timeStake) < block.timestamp && addressToS[msg.sender][i].value != 0 */\n      dup1\n      iszero\n      tag_234\n      jumpi\n      pop\n        /* \"contracts/crowdsale.sol\":1967:1968  0 */\n      0x00\n        /* \"contracts/crowdsale.sol\":1932:1942  addressToS */\n      0x0a\n        /* \"contracts/crowdsale.sol\":1932:1954  addressToS[msg.sender] */\n      0x00\n        /* \"contracts/crowdsale.sol\":1943:1953  msg.sender */\n      caller\n        /* \"contracts/crowdsale.sol\":1932:1954  addressToS[msg.sender] */\n      0xffffffffffffffffffffffffffffffffffffffff\n      and\n      0xffffffffffffffffffffffffffffffffffffffff\n      and\n      dup2\n      mstore\n      0x20\n      add\n      swap1\n      dup2\n      mstore\n      0x20\n      add\n      0x00\n      keccak256\n        /* \"contracts/crowdsale.sol\":1955:1956  i */\n      dup3\n        /* \"contracts/crowdsale.sol\":1932:1957  addressToS[msg.sender][i] */\n      dup2\n      sload\n      dup2\n      lt\n      tag_235\n      jumpi\n      tag_236\n      tag_158\n      jump\t// in\n    tag_236:\n    tag_235:\n      swap1\n      0x00\n      mstore\n      keccak256(0x00, 0x20)\n      swap1\n      0x02\n      mul\n      add\n        /* \"contracts/crowdsale.sol\":1932:1963  addressToS[msg.sender][i].value */\n      0x01\n      add\n      sload\n        /* \"contracts/crowdsale.sol\":1932:1968  addressToS[msg.sender][i].value != 0 */\n      eq\n      iszero\n        /* \"contracts/crowdsale.sol\":1821:1968  addressToS[msg.sender][i].timeStake + getVestingXPAD(addressToS[msg.sender][i].timeStake) < block.timestamp && addressToS[msg.sender][i].value != 0 */\n    tag_234:\n        /* \"contracts/crowdsale.sol\":1817:2132  if (addressToS[msg.sender][i].timeStake + getVestingXPAD(addressToS[msg.sender][i].timeStake) < block.timestamp && addressToS[msg.sender][i].value != 0) {\r... */\n      iszero\n      tag_238\n      jumpi\n        /* \"contracts/crowdsale.sol\":2029:2039  addressToS */\n      0x0a\n        /* \"contracts/crowdsale.sol\":2029:2051  addressToS[msg.sender] */\n      0x00\n        /* \"contracts/crowdsale.sol\":2040:2050  msg.sender */\n      caller\n        /* \"contracts/crowdsale.sol\":2029:2051  addressToS[msg.sender] */\n      0xffffffffffffffffffffffffffffffffffffffff\n      and\n      0xffffffffffffffffffffffffffffffffffffffff\n      and\n      dup2\n      mstore\n      0x20\n      add\n      swap1\n      dup2\n      mstore\n      0x20\n      add\n      0x00\n      keccak256\n        /* \"contracts/crowdsale.sol\":2052:2053  i */\n      dup2\n        /* \"contracts/crowdsale.sol\":2029:2054  addressToS[msg.sender][i] */\n      dup2\n      sload\n      dup2\n      lt\n      tag_239\n      jumpi\n      tag_240\n      tag_158\n      jump\t// in\n    tag_240:\n    tag_239:\n      swap1\n      0x00\n      mstore\n      keccak256(0x00, 0x20)\n      swap1\n      0x02\n      mul\n      add\n        /* \"contracts/crowdsale.sol\":2029:2060  addressToS[msg.sender][i].value */\n      0x01\n      add\n      sload\n        /* \"contracts/crowdsale.sol\":2009:2026  _MaxvalueWithdraw */\n      dup3\n        /* \"contracts/crowdsale.sol\":2009:2060  _MaxvalueWithdraw + addressToS[msg.sender][i].value */\n      tag_242\n      swap2\n      swap1\n      tag_195\n      jump\t// in\n    tag_242:\n        /* \"contracts/crowdsale.sol\":1989:2060  _MaxvalueWithdraw = _MaxvalueWithdraw + addressToS[msg.sender][i].value */\n      swap2\n      pop\n        /* \"contracts/crowdsale.sol\":2115:2116  0 */\n      0x00\n        /* \"contracts/crowdsale.sol\":2081:2091  addressToS */\n      0x0a\n        /* \"contracts/crowdsale.sol\":2081:2103  addressToS[msg.sender] */\n      0x00\n        /* \"contracts/crowdsale.sol\":2092:2102  msg.sender */\n      caller\n        /* \"contracts/crowdsale.sol\":2081:2103  addressToS[msg.sender] */\n      0xffffffffffffffffffffffffffffffffffffffff\n      and\n      0xffffffffffffffffffffffffffffffffffffffff\n      and\n      dup2\n      mstore\n      0x20\n      add\n      swap1\n      dup2\n      mstore\n      0x20\n      add\n      0x00\n      keccak256\n        /* \"contracts/crowdsale.sol\":2104:2105  i */\n      dup3\n        /* \"contracts/crowdsale.sol\":2081:2106  addressToS[msg.sender][i] */\n      dup2\n      sload\n      dup2\n      lt\n      tag_243\n      jumpi\n      tag_244\n      tag_158\n      jump\t// in\n    tag_244:\n    tag_243:\n      swap1\n      0x00\n      mstore\n      keccak256(0x00, 0x20)\n      swap1\n      0x02\n      mul\n      add\n        /* \"contracts/crowdsale.sol\":2081:2112  addressToS[msg.sender][i].value */\n      0x01\n      add\n        /* \"contracts/crowdsale.sol\":2081:2116  addressToS[msg.sender][i].value = 0 */\n      dup2\n      swap1\n      sstore\n      pop\n        /* \"contracts/crowdsale.sol\":1817:2132  if (addressToS[msg.sender][i].timeStake + getVestingXPAD(addressToS[msg.sender][i].timeStake) < block.timestamp && addressToS[msg.sender][i].value != 0) {\r... */\n    tag_238:\n        /* \"contracts/crowdsale.sol\":1795:1798  i++ */\n      dup1\n      dup1\n      tag_246\n      swap1\n      tag_179\n      jump\t// in\n    tag_246:\n      swap2\n      pop\n      pop\n        /* \"contracts/crowdsale.sol\":1743:2145  for (uint i = 0; i < addressToS[msg.sender].length; i++) {\r... */\n      jump(tag_223)\n    tag_224:\n      pop\n        /* \"contracts/crowdsale.sol\":2157:2166  XPADToken */\n      0x03\n      0x00\n      swap1\n      sload\n      swap1\n      0x0100\n      exp\n      swap1\n      div\n      0xffffffffffffffffffffffffffffffffffffffff\n      and\n        /* \"contracts/crowdsale.sol\":2157:2179  XPADToken.transferFrom */\n      0xffffffffffffffffffffffffffffffffffffffff\n      and\n      0x23b872dd\n        /* \"contracts/crowdsale.sol\":2180:2195  XPADTokenHolder */\n      0x07\n      0x00\n      swap1\n      sload\n      swap1\n      0x0100\n      exp\n      swap1\n      div\n      0xffffffffffffffffffffffffffffffffffffffff\n      and\n        /* \"contracts/crowdsale.sol\":2197:2207  msg.sender */\n      caller\n        /* \"contracts/crowdsale.sol\":2209:2226  _MaxvalueWithdraw */\n      dup5\n        /* \"contracts/crowdsale.sol\":2157:2227  XPADToken.transferFrom(XPADTokenHolder, msg.sender, _MaxvalueWithdraw) */\n      mload(0x40)\n      dup5\n      0xffffffff\n      and\n      0xe0\n      shl\n      dup2\n      mstore\n      0x04\n      add\n      tag_247\n      swap4\n      swap3\n      swap2\n      swap1\n      tag_248\n      jump\t// in\n    tag_247:\n      0x20\n      mload(0x40)\n      dup1\n      dup4\n      sub\n      dup2\n      0x00\n      dup8\n      dup1\n      extcodesize\n      iszero\n      dup1\n      iszero\n      tag_249\n      jumpi\n      0x00\n      dup1\n      revert\n    tag_249:\n      pop\n      gas\n      call\n      iszero\n      dup1\n      iszero\n      tag_251\n      jumpi\n      returndatasize\n      0x00\n      dup1\n      returndatacopy\n      revert(0x00, returndatasize)\n    tag_251:\n      pop\n      pop\n      pop\n      pop\n      mload(0x40)\n      returndatasize\n      not(0x1f)\n      0x1f\n      dup3\n      add\n      and\n      dup3\n      add\n      dup1\n      0x40\n      mstore\n      pop\n      dup2\n      add\n      swap1\n      tag_252\n      swap2\n      swap1\n      tag_253\n      jump\t// in\n    tag_252:\n      pop\n        /* \"contracts/crowdsale.sol\":2268:2269  0 */\n      0x00\n        /* \"contracts/crowdsale.sol\":2248:2265  _MaxvalueWithdraw */\n      dup2\n        /* \"contracts/crowdsale.sol\":2248:2269  _MaxvalueWithdraw > 0 */\n      gt\n        /* \"contracts/crowdsale.sol\":2240:2304  require(_MaxvalueWithdraw > 0, \"Available for withdrawal 0 XPP\") */\n      tag_254\n      jumpi\n      mload(0x40)\n      0x08c379a000000000000000000000000000000000000000000000000000000000\n      dup2\n      mstore\n      0x04\n      add\n      tag_255\n      swap1\n      tag_256\n      jump\t// in\n    tag_255:\n      mload(0x40)\n      dup1\n      swap2\n      sub\n      swap1\n      revert\n    tag_254:\n        /* \"contracts/crowdsale.sol\":1697:2312  {\r... */\n      pop\n        /* \"contracts/crowdsale.sol\":1670:2312  function withdraw() public {\r... */\n      jump\t// out\n        /* \"contracts/crowdsale.sol\":3836:3901  function unpause() public onlyOwner {\r... */\n    tag_66:\n        /* \"@openzeppelin/contracts/access/Ownable.sol\":1094:1107  _checkOwner() */\n      tag_258\n        /* \"@openzeppelin/contracts/access/Ownable.sol\":1094:1105  _checkOwner */\n      tag_154\n        /* \"@openzeppelin/contracts/access/Ownable.sol\":1094:1107  _checkOwner() */\n      jump\t// in\n    tag_258:\n        /* \"contracts/crowdsale.sol\":3883:3893  _unpause() */\n      tag_260\n        /* \"contracts/crowdsale.sol\":3883:3891  _unpause */\n      tag_261\n        /* \"contracts/crowdsale.sol\":3883:3893  _unpause() */\n      jump\t// in\n    tag_260:\n        /* \"contracts/crowdsale.sol\":3836:3901  function unpause() public onlyOwner {\r... */\n      jump\t// out\n        /* \"contracts/data.sol\":1893:2301  function getCurrentMaxTotalAmount() public view returns(uint) {\r... */\n    tag_68:\n        /* \"contracts/data.sol\":1949:1953  uint */\n      0x00\n        /* \"contracts/data.sol\":1966:1985  uint maxTotalAmount */\n      dup1\n        /* \"contracts/data.sol\":2003:2009  uint i */\n      0x00\n        /* \"contracts/data.sol\":1998:2260  for (uint i = 0; i < allRounds.length; i++) {\r... */\n    tag_263:\n        /* \"contracts/data.sol\":2019:2028  allRounds */\n      0x01\n        /* \"contracts/data.sol\":2019:2035  allRounds.length */\n      dup1\n      sload\n      swap1\n      pop\n        /* \"contracts/data.sol\":2015:2016  i */\n      dup2\n        /* \"contracts/data.sol\":2015:2035  i < allRounds.length */\n      lt\n        /* \"contracts/data.sol\":1998:2260  for (uint i = 0; i < allRounds.length; i++) {\r... */\n      iszero\n      tag_264\n      jumpi\n        /* \"contracts/data.sol\":2080:2089  allRounds */\n      0x01\n        /* \"contracts/data.sol\":2090:2091  i */\n      dup2\n        /* \"contracts/data.sol\":2080:2092  allRounds[i] */\n      dup2\n      sload\n      dup2\n      lt\n      tag_266\n      jumpi\n      tag_267\n      tag_158\n      jump\t// in\n    tag_267:\n    tag_266:\n      swap1\n      0x00\n      mstore\n      keccak256(0x00, 0x20)\n      swap1\n      0x05\n      mul\n      add\n        /* \"contracts/data.sol\":2080:2102  allRounds[i].timeStart */\n      0x00\n      add\n      sload\n        /* \"contracts/data.sol\":2061:2076  block.timestamp */\n      timestamp\n        /* \"contracts/data.sol\":2061:2102  block.timestamp >= allRounds[i].timeStart */\n      lt\n      iszero\n        /* \"contracts/data.sol\":2061:2144  block.timestamp >= allRounds[i].timeStart && block.timestamp < allRounds[i].timeEnd */\n      dup1\n      iszero\n      tag_269\n      jumpi\n      pop\n        /* \"contracts/data.sol\":2124:2133  allRounds */\n      0x01\n        /* \"contracts/data.sol\":2134:2135  i */\n      dup2\n        /* \"contracts/data.sol\":2124:2136  allRounds[i] */\n      dup2\n      sload\n      dup2\n      lt\n      tag_270\n      jumpi\n      tag_271\n      tag_158\n      jump\t// in\n    tag_271:\n    tag_270:\n      swap1\n      0x00\n      mstore\n      keccak256(0x00, 0x20)\n      swap1\n      0x05\n      mul\n      add\n        /* \"contracts/data.sol\":2124:2144  allRounds[i].timeEnd */\n      0x01\n      add\n      sload\n        /* \"contracts/data.sol\":2106:2121  block.timestamp */\n      timestamp\n        /* \"contracts/data.sol\":2106:2144  block.timestamp < allRounds[i].timeEnd */\n      lt\n        /* \"contracts/data.sol\":2061:2144  block.timestamp >= allRounds[i].timeStart && block.timestamp < allRounds[i].timeEnd */\n    tag_269:\n        /* \"contracts/data.sol\":2057:2249  if (block.timestamp >= allRounds[i].timeStart && block.timestamp < allRounds[i].timeEnd) {\r... */\n      iszero\n      tag_273\n      jumpi\n        /* \"contracts/data.sol\":2182:2191  allRounds */\n      0x01\n        /* \"contracts/data.sol\":2192:2193  i */\n      dup2\n        /* \"contracts/data.sol\":2182:2194  allRounds[i] */\n      dup2\n      sload\n      dup2\n      lt\n      tag_274\n      jumpi\n      tag_275\n      tag_158\n      jump\t// in\n    tag_275:\n    tag_274:\n      swap1\n      0x00\n      mstore\n      keccak256(0x00, 0x20)\n      swap1\n      0x05\n      mul\n      add\n        /* \"contracts/data.sol\":2182:2209  allRounds[i].maxTotalAmount */\n      0x04\n      add\n      sload\n        /* \"contracts/data.sol\":2165:2209  maxTotalAmount = allRounds[i].maxTotalAmount */\n      swap2\n      pop\n        /* \"contracts/data.sol\":2228:2233  break */\n      jump(tag_264)\n        /* \"contracts/data.sol\":2057:2249  if (block.timestamp >= allRounds[i].timeStart && block.timestamp < allRounds[i].timeEnd) {\r... */\n    tag_273:\n        /* \"contracts/data.sol\":2037:2040  i++ */\n      dup1\n      dup1\n      tag_277\n      swap1\n      tag_179\n      jump\t// in\n    tag_277:\n      swap2\n      pop\n      pop\n        /* \"contracts/data.sol\":1998:2260  for (uint i = 0; i < allRounds.length; i++) {\r... */\n      jump(tag_263)\n    tag_264:\n      pop\n        /* \"contracts/data.sol\":2279:2293  maxTotalAmount */\n      dup1\n        /* \"contracts/data.sol\":2272:2293  return maxTotalAmount */\n      swap2\n      pop\n      pop\n        /* \"contracts/data.sol\":1893:2301  function getCurrentMaxTotalAmount() public view returns(uint) {\r... */\n      swap1\n      jump\t// out\n        /* \"contracts/crowdsale.sol\":2695:3117  function getStakeBalance() public view returns (uint){\r... */\n    tag_71:\n        /* \"contracts/crowdsale.sol\":2743:2747  uint */\n      0x00\n        /* \"contracts/crowdsale.sol\":2759:2772  uint _balance */\n      dup1\n        /* \"contracts/crowdsale.sol\":2822:2823  0 */\n      0x00\n        /* \"contracts/crowdsale.sol\":2789:2799  addressToS */\n      0x0a\n        /* \"contracts/crowdsale.sol\":2789:2811  addressToS[msg.sender] */\n      0x00\n        /* \"contracts/crowdsale.sol\":2800:2810  msg.sender */\n      caller\n        /* \"contracts/crowdsale.sol\":2789:2811  addressToS[msg.sender] */\n      0xffffffffffffffffffffffffffffffffffffffff\n      and\n      0xffffffffffffffffffffffffffffffffffffffff\n      and\n      dup2\n      mstore\n      0x20\n      add\n      swap1\n      dup2\n      mstore\n      0x20\n      add\n      0x00\n      keccak256\n        /* \"contracts/crowdsale.sol\":2789:2818  addressToS[msg.sender].length */\n      dup1\n      sload\n      swap1\n      pop\n        /* \"contracts/crowdsale.sol\":2789:2823  addressToS[msg.sender].length != 0 */\n      eq\n        /* \"contracts/crowdsale.sol\":2785:3082  if (addressToS[msg.sender].length != 0) {\r... */\n      tag_279\n      jumpi\n        /* \"contracts/crowdsale.sol\":2847:2853  uint i */\n      0x00\n        /* \"contracts/crowdsale.sol\":2842:3071  for (uint i = 0; i < addressToS[msg.sender].length; i++) {\r... */\n    tag_280:\n        /* \"contracts/crowdsale.sol\":2863:2873  addressToS */\n      0x0a\n        /* \"contracts/crowdsale.sol\":2863:2885  addressToS[msg.sender] */\n      0x00\n        /* \"contracts/crowdsale.sol\":2874:2884  msg.sender */\n      caller\n        /* \"contracts/crowdsale.sol\":2863:2885  addressToS[msg.sender] */\n      0xffffffffffffffffffffffffffffffffffffffff\n      and\n      0xffffffffffffffffffffffffffffffffffffffff\n      and\n      dup2\n      mstore\n      0x20\n      add\n      swap1\n      dup2\n      mstore\n      0x20\n      add\n      0x00\n      keccak256\n        /* \"contracts/crowdsale.sol\":2863:2892  addressToS[msg.sender].length */\n      dup1\n      sload\n      swap1\n      pop\n        /* \"contracts/crowdsale.sol\":2859:2860  i */\n      dup2\n        /* \"contracts/crowdsale.sol\":2859:2892  i < addressToS[msg.sender].length */\n      lt\n        /* \"contracts/crowdsale.sol\":2842:3071  for (uint i = 0; i < addressToS[msg.sender].length; i++) {\r... */\n      iszero\n      tag_281\n      jumpi\n        /* \"contracts/crowdsale.sol\":2957:2958  0 */\n      0x00\n        /* \"contracts/crowdsale.sol\":2922:2932  addressToS */\n      0x0a\n        /* \"contracts/crowdsale.sol\":2922:2944  addressToS[msg.sender] */\n      0x00\n        /* \"contracts/crowdsale.sol\":2933:2943  msg.sender */\n      caller\n        /* \"contracts/crowdsale.sol\":2922:2944  addressToS[msg.sender] */\n      0xffffffffffffffffffffffffffffffffffffffff\n      and\n      0xffffffffffffffffffffffffffffffffffffffff\n      and\n      dup2\n      mstore\n      0x20\n      add\n      swap1\n      dup2\n      mstore\n      0x20\n      add\n      0x00\n      keccak256\n        /* \"contracts/crowdsale.sol\":2945:2946  i */\n      dup3\n        /* \"contracts/crowdsale.sol\":2922:2947  addressToS[msg.sender][i] */\n      dup2\n      sload\n      dup2\n      lt\n      tag_283\n      jumpi\n      tag_284\n      tag_158\n      jump\t// in\n    tag_284:\n    tag_283:\n      swap1\n      0x00\n      mstore\n      keccak256(0x00, 0x20)\n      swap1\n      0x02\n      mul\n      add\n        /* \"contracts/crowdsale.sol\":2922:2953  addressToS[msg.sender][i].value */\n      0x01\n      add\n      sload\n        /* \"contracts/crowdsale.sol\":2922:2958  addressToS[msg.sender][i].value != 0 */\n      eq\n        /* \"contracts/crowdsale.sol\":2918:3056  if (addressToS[msg.sender][i].value != 0) {\r... */\n      tag_286\n      jumpi\n        /* \"contracts/crowdsale.sol\":3005:3015  addressToS */\n      0x0a\n        /* \"contracts/crowdsale.sol\":3005:3027  addressToS[msg.sender] */\n      0x00\n        /* \"contracts/crowdsale.sol\":3016:3026  msg.sender */\n      caller\n        /* \"contracts/crowdsale.sol\":3005:3027  addressToS[msg.sender] */\n      0xffffffffffffffffffffffffffffffffffffffff\n      and\n      0xffffffffffffffffffffffffffffffffffffffff\n      and\n      dup2\n      mstore\n      0x20\n      add\n      swap1\n      dup2\n      mstore\n      0x20\n      add\n      0x00\n      keccak256\n        /* \"contracts/crowdsale.sol\":3028:3029  i */\n      dup2\n        /* \"contracts/crowdsale.sol\":3005:3030  addressToS[msg.sender][i] */\n      dup2\n      sload\n      dup2\n      lt\n      tag_287\n      jumpi\n      tag_288\n      tag_158\n      jump\t// in\n    tag_288:\n    tag_287:\n      swap1\n      0x00\n      mstore\n      keccak256(0x00, 0x20)\n      swap1\n      0x02\n      mul\n      add\n        /* \"contracts/crowdsale.sol\":3005:3036  addressToS[msg.sender][i].value */\n      0x01\n      add\n      sload\n        /* \"contracts/crowdsale.sol\":2994:3002  _balance */\n      dup3\n        /* \"contracts/crowdsale.sol\":2994:3036  _balance + addressToS[msg.sender][i].value */\n      tag_290\n      swap2\n      swap1\n      tag_195\n      jump\t// in\n    tag_290:\n        /* \"contracts/crowdsale.sol\":2983:3036  _balance = _balance + addressToS[msg.sender][i].value */\n      swap2\n      pop\n        /* \"contracts/crowdsale.sol\":2918:3056  if (addressToS[msg.sender][i].value != 0) {\r... */\n    tag_286:\n        /* \"contracts/crowdsale.sol\":2894:2897  i++ */\n      dup1\n      dup1\n      tag_291\n      swap1\n      tag_179\n      jump\t// in\n    tag_291:\n      swap2\n      pop\n      pop\n        /* \"contracts/crowdsale.sol\":2842:3071  for (uint i = 0; i < addressToS[msg.sender].length; i++) {\r... */\n      jump(tag_280)\n    tag_281:\n      pop\n        /* \"contracts/crowdsale.sol\":2785:3082  if (addressToS[msg.sender].length != 0) {\r... */\n    tag_279:\n        /* \"contracts/crowdsale.sol\":3101:3109  _balance */\n      dup1\n        /* \"contracts/crowdsale.sol\":3094:3109  return _balance */\n      swap2\n      pop\n      pop\n        /* \"contracts/crowdsale.sol\":2695:3117  function getStakeBalance() public view returns (uint){\r... */\n      swap1\n      jump\t// out\n        /* \"contracts/crowdsale.sol\":4831:4939  function setXPADTokenHolder(address _address) public onlyOwner {\r... */\n    tag_75:\n        /* \"@openzeppelin/contracts/access/Ownable.sol\":1094:1107  _checkOwner() */\n      tag_293\n        /* \"@openzeppelin/contracts/access/Ownable.sol\":1094:1105  _checkOwner */\n      tag_154\n        /* \"@openzeppelin/contracts/access/Ownable.sol\":1094:1107  _checkOwner() */\n      jump\t// in\n    tag_293:\n        /* \"contracts/crowdsale.sol\":4923:4931  _address */\n      dup1\n        /* \"contracts/crowdsale.sol\":4905:4920  XPADTokenHolder */\n      0x07\n      0x00\n        /* \"contracts/crowdsale.sol\":4905:4931  XPADTokenHolder = _address */\n      0x0100\n      exp\n      dup2\n      sload\n      dup2\n      0xffffffffffffffffffffffffffffffffffffffff\n      mul\n      not\n      and\n      swap1\n      dup4\n      0xffffffffffffffffffffffffffffffffffffffff\n      and\n      mul\n      or\n      swap1\n      sstore\n      pop\n        /* \"contracts/crowdsale.sol\":4831:4939  function setXPADTokenHolder(address _address) public onlyOwner {\r... */\n      pop\n      jump\t// out\n        /* \"contracts/crowdsale.sol\":654:729  address public XPADTokenHolder = 0x7b76dBF7f01ebA3eE2fa1339C8C29FA6949b1bE4 */\n    tag_77:\n      0x07\n      0x00\n      swap1\n      sload\n      swap1\n      0x0100\n      exp\n      swap1\n      div\n      0xffffffffffffffffffffffffffffffffffffffff\n      and\n      dup2\n      jump\t// out\n        /* \"contracts/crowdsale.sol\":5156:5295  function getStakerDataOwner(address _address) public onlyOwner view returns (Staker[] memory){\r... */\n    tag_82:\n        /* \"contracts/crowdsale.sol\":5233:5248  Staker[] memory */\n      0x60\n        /* \"@openzeppelin/contracts/access/Ownable.sol\":1094:1107  _checkOwner() */\n      tag_296\n        /* \"@openzeppelin/contracts/access/Ownable.sol\":1094:1105  _checkOwner */\n      tag_154\n        /* \"@openzeppelin/contracts/access/Ownable.sol\":1094:1107  _checkOwner() */\n      jump\t// in\n    tag_296:\n        /* \"contracts/crowdsale.sol\":5267:5277  addressToS */\n      0x0a\n        /* \"contracts/crowdsale.sol\":5267:5287  addressToS[_address] */\n      0x00\n        /* \"contracts/crowdsale.sol\":5278:5286  _address */\n      dup4\n        /* \"contracts/crowdsale.sol\":5267:5287  addressToS[_address] */\n      0xffffffffffffffffffffffffffffffffffffffff\n      and\n      0xffffffffffffffffffffffffffffffffffffffff\n      and\n      dup2\n      mstore\n      0x20\n      add\n      swap1\n      dup2\n      mstore\n      0x20\n      add\n      0x00\n      keccak256\n        /* \"contracts/crowdsale.sol\":5260:5287  return addressToS[_address] */\n      dup1\n      sload\n      dup1\n      0x20\n      mul\n      0x20\n      add\n      mload(0x40)\n      swap1\n      dup2\n      add\n      0x40\n      mstore\n      dup1\n      swap3\n      swap2\n      swap1\n      dup2\n      dup2\n      mstore\n      0x20\n      add\n      0x00\n      swap1\n    tag_298:\n      dup3\n      dup3\n      lt\n      iszero\n      tag_299\n      jumpi\n      dup4\n      dup3\n      swap1\n      0x00\n      mstore\n      keccak256(0x00, 0x20)\n      swap1\n      0x02\n      mul\n      add\n      mload(0x40)\n      dup1\n      0x40\n      add\n      0x40\n      mstore\n      swap1\n      dup2\n      0x00\n      dup3\n      add\n      sload\n      dup2\n      mstore\n      0x20\n      add\n      0x01\n      dup3\n      add\n      sload\n      dup2\n      mstore\n      pop\n      pop\n      dup2\n      mstore\n      0x20\n      add\n      swap1\n      0x01\n      add\n      swap1\n      jump(tag_298)\n    tag_299:\n      pop\n      pop\n      pop\n      pop\n      swap1\n      pop\n        /* \"contracts/crowdsale.sol\":5156:5295  function getStakerDataOwner(address _address) public onlyOwner view returns (Staker[] memory){\r... */\n      swap2\n      swap1\n      pop\n      jump\t// out\n        /* \"contracts/data.sol\":1041:1428  function getVestingXPAD(uint _timeStake) public view returns (uint){\r... */\n    tag_87:\n        /* \"contracts/data.sol\":1103:1107  uint */\n      0x00\n        /* \"contracts/data.sol\":1119:1135  uint vestingXPAD */\n      dup1\n        /* \"contracts/data.sol\":1153:1159  uint i */\n      0x00\n        /* \"contracts/data.sol\":1148:1390  for (uint i = 0; i < allRounds.length; i++) {\r... */\n    tag_302:\n        /* \"contracts/data.sol\":1169:1178  allRounds */\n      0x01\n        /* \"contracts/data.sol\":1169:1185  allRounds.length */\n      dup1\n      sload\n      swap1\n      pop\n        /* \"contracts/data.sol\":1165:1166  i */\n      dup2\n        /* \"contracts/data.sol\":1165:1185  i < allRounds.length */\n      lt\n        /* \"contracts/data.sol\":1148:1390  for (uint i = 0; i < allRounds.length; i++) {\r... */\n      iszero\n      tag_303\n      jumpi\n        /* \"contracts/data.sol\":1225:1234  allRounds */\n      0x01\n        /* \"contracts/data.sol\":1235:1236  i */\n      dup2\n        /* \"contracts/data.sol\":1225:1237  allRounds[i] */\n      dup2\n      sload\n      dup2\n      lt\n      tag_305\n      jumpi\n      tag_306\n      tag_158\n      jump\t// in\n    tag_306:\n    tag_305:\n      swap1\n      0x00\n      mstore\n      keccak256(0x00, 0x20)\n      swap1\n      0x05\n      mul\n      add\n        /* \"contracts/data.sol\":1225:1247  allRounds[i].timeStart */\n      0x00\n      add\n      sload\n        /* \"contracts/data.sol\":1211:1221  _timeStake */\n      dup5\n        /* \"contracts/data.sol\":1211:1247  _timeStake >= allRounds[i].timeStart */\n      lt\n      iszero\n        /* \"contracts/data.sol\":1211:1284  _timeStake >= allRounds[i].timeStart && _timeStake < allRounds[i].timeEnd */\n      dup1\n      iszero\n      tag_308\n      jumpi\n      pop\n        /* \"contracts/data.sol\":1264:1273  allRounds */\n      0x01\n        /* \"contracts/data.sol\":1274:1275  i */\n      dup2\n        /* \"contracts/data.sol\":1264:1276  allRounds[i] */\n      dup2\n      sload\n      dup2\n      lt\n      tag_309\n      jumpi\n      tag_310\n      tag_158\n      jump\t// in\n    tag_310:\n    tag_309:\n      swap1\n      0x00\n      mstore\n      keccak256(0x00, 0x20)\n      swap1\n      0x05\n      mul\n      add\n        /* \"contracts/data.sol\":1264:1284  allRounds[i].timeEnd */\n      0x01\n      add\n      sload\n        /* \"contracts/data.sol\":1251:1261  _timeStake */\n      dup5\n        /* \"contracts/data.sol\":1251:1284  _timeStake < allRounds[i].timeEnd */\n      lt\n        /* \"contracts/data.sol\":1211:1284  _timeStake >= allRounds[i].timeStart && _timeStake < allRounds[i].timeEnd */\n    tag_308:\n        /* \"contracts/data.sol\":1207:1379  if (_timeStake >= allRounds[i].timeStart && _timeStake < allRounds[i].timeEnd) {\r... */\n      iszero\n      tag_312\n      jumpi\n        /* \"contracts/data.sol\":1319:1328  allRounds */\n      0x01\n        /* \"contracts/data.sol\":1329:1330  i */\n      dup2\n        /* \"contracts/data.sol\":1319:1331  allRounds[i] */\n      dup2\n      sload\n      dup2\n      lt\n      tag_313\n      jumpi\n      tag_314\n      tag_158\n      jump\t// in\n    tag_314:\n    tag_313:\n      swap1\n      0x00\n      mstore\n      keccak256(0x00, 0x20)\n      swap1\n      0x05\n      mul\n      add\n        /* \"contracts/data.sol\":1319:1339  allRounds[i].vesting */\n      0x02\n      add\n      sload\n        /* \"contracts/data.sol\":1305:1339  vestingXPAD = allRounds[i].vesting */\n      swap2\n      pop\n        /* \"contracts/data.sol\":1358:1363  break */\n      jump(tag_303)\n        /* \"contracts/data.sol\":1207:1379  if (_timeStake >= allRounds[i].timeStart && _timeStake < allRounds[i].timeEnd) {\r... */\n    tag_312:\n        /* \"contracts/data.sol\":1187:1190  i++ */\n      dup1\n      dup1\n      tag_316\n      swap1\n      tag_179\n      jump\t// in\n    tag_316:\n      swap2\n      pop\n      pop\n        /* \"contracts/data.sol\":1148:1390  for (uint i = 0; i < allRounds.length; i++) {\r... */\n      jump(tag_302)\n    tag_303:\n      pop\n        /* \"contracts/data.sol\":1409:1420  vestingXPAD */\n      dup1\n        /* \"contracts/data.sol\":1402:1420  return vestingXPAD */\n      swap2\n      pop\n      pop\n        /* \"contracts/data.sol\":1041:1428  function getVestingXPAD(uint _timeStake) public view returns (uint){\r... */\n      swap2\n      swap1\n      pop\n      jump\t// out\n        /* \"@openzeppelin/contracts/security/Pausable.sol\":1615:1699  function paused() public view virtual returns (bool) {... */\n    tag_90:\n        /* \"@openzeppelin/contracts/security/Pausable.sol\":1662:1666  bool */\n      0x00\n        /* \"@openzeppelin/contracts/security/Pausable.sol\":1685:1692  _paused */\n      dup1\n      0x14\n      swap1\n      sload\n      swap1\n      0x0100\n      exp\n      swap1\n      div\n      0xff\n      and\n        /* \"@openzeppelin/contracts/security/Pausable.sol\":1678:1692  return _paused */\n      swap1\n      pop\n        /* \"@openzeppelin/contracts/security/Pausable.sol\":1615:1699  function paused() public view virtual returns (bool) {... */\n      swap1\n      jump\t// out\n        /* \"contracts/crowdsale.sol\":5303:5748  function getStakeBalanceOwner(address _address) public onlyOwner view returns (uint){\r... */\n    tag_95:\n        /* \"contracts/crowdsale.sol\":5382:5386  uint */\n      0x00\n        /* \"@openzeppelin/contracts/access/Ownable.sol\":1094:1107  _checkOwner() */\n      tag_319\n        /* \"@openzeppelin/contracts/access/Ownable.sol\":1094:1105  _checkOwner */\n      tag_154\n        /* \"@openzeppelin/contracts/access/Ownable.sol\":1094:1107  _checkOwner() */\n      jump\t// in\n    tag_319:\n        /* \"contracts/crowdsale.sol\":5398:5411  uint _balance */\n      0x00\n        /* \"contracts/crowdsale.sol\":5459:5460  0 */\n      dup1\n        /* \"contracts/crowdsale.sol\":5428:5438  addressToS */\n      0x0a\n        /* \"contracts/crowdsale.sol\":5428:5448  addressToS[_address] */\n      0x00\n        /* \"contracts/crowdsale.sol\":5439:5447  _address */\n      dup6\n        /* \"contracts/crowdsale.sol\":5428:5448  addressToS[_address] */\n      0xffffffffffffffffffffffffffffffffffffffff\n      and\n      0xffffffffffffffffffffffffffffffffffffffff\n      and\n      dup2\n      mstore\n      0x20\n      add\n      swap1\n      dup2\n      mstore\n      0x20\n      add\n      0x00\n      keccak256\n        /* \"contracts/crowdsale.sol\":5428:5455  addressToS[_address].length */\n      dup1\n      sload\n      swap1\n      pop\n        /* \"contracts/crowdsale.sol\":5428:5460  addressToS[_address].length != 0 */\n      eq\n        /* \"contracts/crowdsale.sol\":5424:5713  if (addressToS[_address].length != 0) {\r... */\n      tag_321\n      jumpi\n        /* \"contracts/crowdsale.sol\":5484:5490  uint i */\n      0x00\n        /* \"contracts/crowdsale.sol\":5479:5702  for (uint i = 0; i < addressToS[_address].length; i++) {\r... */\n    tag_322:\n        /* \"contracts/crowdsale.sol\":5500:5510  addressToS */\n      0x0a\n        /* \"contracts/crowdsale.sol\":5500:5520  addressToS[_address] */\n      0x00\n        /* \"contracts/crowdsale.sol\":5511:5519  _address */\n      dup6\n        /* \"contracts/crowdsale.sol\":5500:5520  addressToS[_address] */\n      0xffffffffffffffffffffffffffffffffffffffff\n      and\n      0xffffffffffffffffffffffffffffffffffffffff\n      and\n      dup2\n      mstore\n      0x20\n      add\n      swap1\n      dup2\n      mstore\n      0x20\n      add\n      0x00\n      keccak256\n        /* \"contracts/crowdsale.sol\":5500:5527  addressToS[_address].length */\n      dup1\n      sload\n      swap1\n      pop\n        /* \"contracts/crowdsale.sol\":5496:5497  i */\n      dup2\n        /* \"contracts/crowdsale.sol\":5496:5527  i < addressToS[_address].length */\n      lt\n        /* \"contracts/crowdsale.sol\":5479:5702  for (uint i = 0; i < addressToS[_address].length; i++) {\r... */\n      iszero\n      tag_323\n      jumpi\n        /* \"contracts/crowdsale.sol\":5590:5591  0 */\n      0x00\n        /* \"contracts/crowdsale.sol\":5557:5567  addressToS */\n      0x0a\n        /* \"contracts/crowdsale.sol\":5557:5577  addressToS[_address] */\n      0x00\n        /* \"contracts/crowdsale.sol\":5568:5576  _address */\n      dup7\n        /* \"contracts/crowdsale.sol\":5557:5577  addressToS[_address] */\n      0xffffffffffffffffffffffffffffffffffffffff\n      and\n      0xffffffffffffffffffffffffffffffffffffffff\n      and\n      dup2\n      mstore\n      0x20\n      add\n      swap1\n      dup2\n      mstore\n      0x20\n      add\n      0x00\n      keccak256\n        /* \"contracts/crowdsale.sol\":5578:5579  i */\n      dup3\n        /* \"contracts/crowdsale.sol\":5557:5580  addressToS[_address][i] */\n      dup2\n      sload\n      dup2\n      lt\n      tag_325\n      jumpi\n      tag_326\n      tag_158\n      jump\t// in\n    tag_326:\n    tag_325:\n      swap1\n      0x00\n      mstore\n      keccak256(0x00, 0x20)\n      swap1\n      0x02\n      mul\n      add\n        /* \"contracts/crowdsale.sol\":5557:5586  addressToS[_address][i].value */\n      0x01\n      add\n      sload\n        /* \"contracts/crowdsale.sol\":5557:5591  addressToS[_address][i].value != 0 */\n      eq\n        /* \"contracts/crowdsale.sol\":5553:5687  if (addressToS[_address][i].value != 0) {\r... */\n      tag_328\n      jumpi\n        /* \"contracts/crowdsale.sol\":5638:5648  addressToS */\n      0x0a\n        /* \"contracts/crowdsale.sol\":5638:5658  addressToS[_address] */\n      0x00\n        /* \"contracts/crowdsale.sol\":5649:5657  _address */\n      dup6\n        /* \"contracts/crowdsale.sol\":5638:5658  addressToS[_address] */\n      0xffffffffffffffffffffffffffffffffffffffff\n      and\n      0xffffffffffffffffffffffffffffffffffffffff\n      and\n      dup2\n      mstore\n      0x20\n      add\n      swap1\n      dup2\n      mstore\n      0x20\n      add\n      0x00\n      keccak256\n        /* \"contracts/crowdsale.sol\":5659:5660  i */\n      dup2\n        /* \"contracts/crowdsale.sol\":5638:5661  addressToS[_address][i] */\n      dup2\n      sload\n      dup2\n      lt\n      tag_329\n      jumpi\n      tag_330\n      tag_158\n      jump\t// in\n    tag_330:\n    tag_329:\n      swap1\n      0x00\n      mstore\n      keccak256(0x00, 0x20)\n      swap1\n      0x02\n      mul\n      add\n        /* \"contracts/crowdsale.sol\":5638:5667  addressToS[_address][i].value */\n      0x01\n      add\n      sload\n        /* \"contracts/crowdsale.sol\":5627:5635  _balance */\n      dup3\n        /* \"contracts/crowdsale.sol\":5627:5667  _balance + addressToS[_address][i].value */\n      tag_332\n      swap2\n      swap1\n      tag_195\n      jump\t// in\n    tag_332:\n        /* \"contracts/crowdsale.sol\":5616:5667  _balance = _balance + addressToS[_address][i].value */\n      swap2\n      pop\n        /* \"contracts/crowdsale.sol\":5553:5687  if (addressToS[_address][i].value != 0) {\r... */\n    tag_328:\n        /* \"contracts/crowdsale.sol\":5529:5532  i++ */\n      dup1\n      dup1\n      tag_333\n      swap1\n      tag_179\n      jump\t// in\n    tag_333:\n      swap2\n      pop\n      pop\n        /* \"contracts/crowdsale.sol\":5479:5702  for (uint i = 0; i < addressToS[_address].length; i++) {\r... */\n      jump(tag_322)\n    tag_323:\n      pop\n        /* \"contracts/crowdsale.sol\":5424:5713  if (addressToS[_address].length != 0) {\r... */\n    tag_321:\n        /* \"contracts/crowdsale.sol\":5732:5740  _balance */\n      dup1\n        /* \"contracts/crowdsale.sol\":5725:5740  return _balance */\n      swap2\n      pop\n      pop\n        /* \"contracts/crowdsale.sol\":5303:5748  function getStakeBalanceOwner(address _address) public onlyOwner view returns (uint){\r... */\n      swap2\n      swap1\n      pop\n      jump\t// out\n        /* \"@openzeppelin/contracts/access/Ownable.sol\":1831:1932  function renounceOwnership() public virtual onlyOwner {... */\n    tag_98:\n        /* \"@openzeppelin/contracts/access/Ownable.sol\":1094:1107  _checkOwner() */\n      tag_335\n        /* \"@openzeppelin/contracts/access/Ownable.sol\":1094:1105  _checkOwner */\n      tag_154\n        /* \"@openzeppelin/contracts/access/Ownable.sol\":1094:1107  _checkOwner() */\n      jump\t// in\n    tag_335:\n        /* \"@openzeppelin/contracts/access/Ownable.sol\":1895:1925  _transferOwnership(address(0)) */\n      tag_337\n        /* \"@openzeppelin/contracts/access/Ownable.sol\":1922:1923  0 */\n      0x00\n        /* \"@openzeppelin/contracts/access/Ownable.sol\":1895:1913  _transferOwnership */\n      tag_338\n        /* \"@openzeppelin/contracts/access/Ownable.sol\":1895:1925  _transferOwnership(address(0)) */\n      jump\t// in\n    tag_337:\n        /* \"@openzeppelin/contracts/access/Ownable.sol\":1831:1932  function renounceOwnership() public virtual onlyOwner {... */\n      jump\t// out\n        /* \"contracts/crowdsale.sol\":3767:3828  function pause() public onlyOwner {\r... */\n    tag_100:\n        /* \"@openzeppelin/contracts/access/Ownable.sol\":1094:1107  _checkOwner() */\n      tag_340\n        /* \"@openzeppelin/contracts/access/Ownable.sol\":1094:1105  _checkOwner */\n      tag_154\n        /* \"@openzeppelin/contracts/access/Ownable.sol\":1094:1107  _checkOwner() */\n      jump\t// in\n    tag_340:\n        /* \"contracts/crowdsale.sol\":3812:3820  _pause() */\n      tag_342\n        /* \"contracts/crowdsale.sol\":3812:3818  _pause */\n      tag_343\n        /* \"contracts/crowdsale.sol\":3812:3820  _pause() */\n      jump\t// in\n    tag_342:\n        /* \"contracts/crowdsale.sol\":3767:3828  function pause() public onlyOwner {\r... */\n      jump\t// out\n        /* \"contracts/crowdsale.sol\":4141:4355  function addRound(uint _timeStart, uint _timeEnd, uint _vesting, uint _price, uint _maxTotalAmount) public onlyOwner {\r... */\n    tag_104:\n        /* \"@openzeppelin/contracts/access/Ownable.sol\":1094:1107  _checkOwner() */\n      tag_345\n        /* \"@openzeppelin/contracts/access/Ownable.sol\":1094:1105  _checkOwner */\n      tag_154\n        /* \"@openzeppelin/contracts/access/Ownable.sol\":1094:1107  _checkOwner() */\n      jump\t// in\n    tag_345:\n        /* \"contracts/crowdsale.sol\":4269:4278  allRounds */\n      0x01\n        /* \"contracts/crowdsale.sol\":4284:4346  Round(_timeStart, _timeEnd, _vesting, _price, _maxTotalAmount) */\n      mload(0x40)\n      dup1\n      0xa0\n      add\n      0x40\n      mstore\n      dup1\n        /* \"contracts/crowdsale.sol\":4290:4300  _timeStart */\n      dup8\n        /* \"contracts/crowdsale.sol\":4284:4346  Round(_timeStart, _timeEnd, _vesting, _price, _maxTotalAmount) */\n      dup2\n      mstore\n      0x20\n      add\n        /* \"contracts/crowdsale.sol\":4302:4310  _timeEnd */\n      dup7\n        /* \"contracts/crowdsale.sol\":4284:4346  Round(_timeStart, _timeEnd, _vesting, _price, _maxTotalAmount) */\n      dup2\n      mstore\n      0x20\n      add\n        /* \"contracts/crowdsale.sol\":4312:4320  _vesting */\n      dup6\n        /* \"contracts/crowdsale.sol\":4284:4346  Round(_timeStart, _timeEnd, _vesting, _price, _maxTotalAmount) */\n      dup2\n      mstore\n      0x20\n      add\n        /* \"contracts/crowdsale.sol\":4322:4328  _price */\n      dup5\n        /* \"contracts/crowdsale.sol\":4284:4346  Round(_timeStart, _timeEnd, _vesting, _price, _maxTotalAmount) */\n      dup2\n      mstore\n      0x20\n      add\n        /* \"contracts/crowdsale.sol\":4330:4345  _maxTotalAmount */\n      dup4\n        /* \"contracts/crowdsale.sol\":4284:4346  Round(_timeStart, _timeEnd, _vesting, _price, _maxTotalAmount) */\n      dup2\n      mstore\n      pop\n        /* \"contracts/crowdsale.sol\":4269:4347  allRounds.push(Round(_timeStart, _timeEnd, _vesting, _price, _maxTotalAmount)) */\n      swap1\n      dup1\n      0x01\n      dup2\n      sload\n      add\n      dup1\n      dup3\n      sstore\n      dup1\n      swap2\n      pop\n      pop\n      0x01\n      swap1\n      sub\n      swap1\n      0x00\n      mstore\n      keccak256(0x00, 0x20)\n      swap1\n      0x05\n      mul\n      add\n      0x00\n      swap1\n      swap2\n      swap1\n      swap2\n      swap1\n      swap2\n      pop\n      0x00\n      dup3\n      add\n      mload\n      dup2\n      0x00\n      add\n      sstore\n      0x20\n      dup3\n      add\n      mload\n      dup2\n      0x01\n      add\n      sstore\n      0x40\n      dup3\n      add\n      mload\n      dup2\n      0x02\n      add\n      sstore\n      0x60\n      dup3\n      add\n      mload\n      dup2\n      0x03\n      add\n      sstore\n      0x80\n      dup3\n      add\n      mload\n      dup2\n      0x04\n      add\n      sstore\n      pop\n      pop\n        /* \"contracts/crowdsale.sol\":4141:4355  function addRound(uint _timeStart, uint _timeEnd, uint _vesting, uint _price, uint _maxTotalAmount) public onlyOwner {\r... */\n      pop\n      pop\n      pop\n      pop\n      pop\n      jump\t// out\n        /* \"@openzeppelin/contracts/access/Ownable.sol\":1201:1286  function owner() public view virtual returns (address) {... */\n    tag_106:\n        /* \"@openzeppelin/contracts/access/Ownable.sol\":1247:1254  address */\n      0x00\n        /* \"@openzeppelin/contracts/access/Ownable.sol\":1273:1279  _owner */\n      dup1\n      0x00\n      swap1\n      sload\n      swap1\n      0x0100\n      exp\n      swap1\n      div\n      0xffffffffffffffffffffffffffffffffffffffff\n      and\n        /* \"@openzeppelin/contracts/access/Ownable.sol\":1266:1279  return _owner */\n      swap1\n      pop\n        /* \"@openzeppelin/contracts/access/Ownable.sol\":1201:1286  function owner() public view virtual returns (address) {... */\n      swap1\n      jump\t// out\n        /* \"contracts/crowdsale.sol\":777:798  uint public totalSold */\n    tag_109:\n      sload(0x09)\n      dup2\n      jump\t// out\n        /* \"contracts/crowdsale.sol\":2577:2687  function getStakerData() public view returns (Staker[] memory){\r... */\n    tag_112:\n        /* \"contracts/crowdsale.sol\":2623:2638  Staker[] memory */\n      0x60\n        /* \"contracts/crowdsale.sol\":2657:2667  addressToS */\n      0x0a\n        /* \"contracts/crowdsale.sol\":2657:2679  addressToS[msg.sender] */\n      0x00\n        /* \"contracts/crowdsale.sol\":2668:2678  msg.sender */\n      caller\n        /* \"contracts/crowdsale.sol\":2657:2679  addressToS[msg.sender] */\n      0xffffffffffffffffffffffffffffffffffffffff\n      and\n      0xffffffffffffffffffffffffffffffffffffffff\n      and\n      dup2\n      mstore\n      0x20\n      add\n      swap1\n      dup2\n      mstore\n      0x20\n      add\n      0x00\n      keccak256\n        /* \"contracts/crowdsale.sol\":2650:2679  return addressToS[msg.sender] */\n      dup1\n      sload\n      dup1\n      0x20\n      mul\n      0x20\n      add\n      mload(0x40)\n      swap1\n      dup2\n      add\n      0x40\n      mstore\n      dup1\n      swap3\n      swap2\n      swap1\n      dup2\n      dup2\n      mstore\n      0x20\n      add\n      0x00\n      swap1\n    tag_350:\n      dup3\n      dup3\n      lt\n      iszero\n      tag_351\n      jumpi\n      dup4\n      dup3\n      swap1\n      0x00\n      mstore\n      keccak256(0x00, 0x20)\n      swap1\n      0x02\n      mul\n      add\n      mload(0x40)\n      dup1\n      0x40\n      add\n      0x40\n      mstore\n      swap1\n      dup2\n      0x00\n      dup3\n      add\n      sload\n      dup2\n      mstore\n      0x20\n      add\n      0x01\n      dup3\n      add\n      sload\n      dup2\n      mstore\n      pop\n      pop\n      dup2\n      mstore\n      0x20\n      add\n      swap1\n      0x01\n      add\n      swap1\n      jump(tag_350)\n    tag_351:\n      pop\n      pop\n      pop\n      pop\n      swap1\n      pop\n        /* \"contracts/crowdsale.sol\":2577:2687  function getStakerData() public view returns (Staker[] memory){\r... */\n      swap1\n      jump\t// out\n        /* \"contracts/crowdsale.sol\":1156:1662  function sale(uint amount)\r... */\n    tag_116:\n        /* \"@openzeppelin/contracts/security/Pausable.sol\":1239:1258  _requireNotPaused() */\n      tag_354\n        /* \"@openzeppelin/contracts/security/Pausable.sol\":1239:1256  _requireNotPaused */\n      tag_355\n        /* \"@openzeppelin/contracts/security/Pausable.sol\":1239:1258  _requireNotPaused() */\n      jump\t// in\n    tag_354:\n        /* \"contracts/crowdsale.sol\":1241:1256  uint amountBUSD */\n      0x00\n        /* \"contracts/crowdsale.sol\":1285:1290  10**2 */\n      0x64\n        /* \"contracts/crowdsale.sol\":1268:1282  getPriceXPAD() */\n      tag_357\n        /* \"contracts/crowdsale.sol\":1268:1280  getPriceXPAD */\n      tag_52\n        /* \"contracts/crowdsale.sol\":1268:1282  getPriceXPAD() */\n      jump\t// in\n    tag_357:\n        /* \"contracts/crowdsale.sol\":1259:1265  amount */\n      dup4\n        /* \"contracts/crowdsale.sol\":1259:1282  amount * getPriceXPAD() */\n      tag_358\n      swap2\n      swap1\n      tag_359\n      jump\t// in\n    tag_358:\n        /* \"contracts/crowdsale.sol\":1259:1290  amount * getPriceXPAD() / 10**2 */\n      tag_360\n      swap2\n      swap1\n      tag_361\n      jump\t// in\n    tag_360:\n        /* \"contracts/crowdsale.sol\":1241:1290  uint amountBUSD = amount * getPriceXPAD() / 10**2 */\n      swap1\n      pop\n        /* \"contracts/crowdsale.sol\":1325:1332  minBUSD */\n      sload(0x08)\n        /* \"contracts/crowdsale.sol\":1311:1321  amountBUSD */\n      dup2\n        /* \"contracts/crowdsale.sol\":1311:1332  amountBUSD >= minBUSD */\n      lt\n      iszero\n        /* \"contracts/crowdsale.sol\":1303:1394  require(amountBUSD >= minBUSD, \"The minimum purchase amount for the XPAD token is 50 BUSD\") */\n      tag_362\n      jumpi\n      mload(0x40)\n      0x08c379a000000000000000000000000000000000000000000000000000000000\n      dup2\n      mstore\n      0x04\n      add\n      tag_363\n      swap1\n      tag_364\n      jump\t// in\n    tag_363:\n      mload(0x40)\n      dup1\n      swap2\n      sub\n      swap1\n      revert\n    tag_362:\n        /* \"contracts/crowdsale.sol\":1455:1461  amount */\n      dup2\n        /* \"contracts/crowdsale.sol\":1443:1452  totalSold */\n      sload(0x09)\n        /* \"contracts/crowdsale.sol\":1443:1461  totalSold + amount */\n      tag_365\n      swap2\n      swap1\n      tag_195\n      jump\t// in\n    tag_365:\n        /* \"contracts/crowdsale.sol\":1413:1439  getCurrentMaxTotalAmount() */\n      tag_366\n        /* \"contracts/crowdsale.sol\":1413:1437  getCurrentMaxTotalAmount */\n      tag_68\n        /* \"contracts/crowdsale.sol\":1413:1439  getCurrentMaxTotalAmount() */\n      jump\t// in\n    tag_366:\n        /* \"contracts/crowdsale.sol\":1413:1461  getCurrentMaxTotalAmount() >= totalSold + amount */\n      lt\n      iszero\n        /* \"contracts/crowdsale.sol\":1405:1462  require(getCurrentMaxTotalAmount() >= totalSold + amount) */\n      tag_367\n      jumpi\n      0x00\n      dup1\n      revert\n    tag_367:\n        /* \"contracts/crowdsale.sol\":1475:1499  fund(amount, msg.sender) */\n      tag_368\n        /* \"contracts/crowdsale.sol\":1480:1486  amount */\n      dup3\n        /* \"contracts/crowdsale.sol\":1488:1498  msg.sender */\n      caller\n        /* \"contracts/crowdsale.sol\":1475:1479  fund */\n      tag_369\n        /* \"contracts/crowdsale.sol\":1475:1499  fund(amount, msg.sender) */\n      jump\t// in\n    tag_368:\n        /* \"contracts/crowdsale.sol\":1536:1542  amount */\n      dup2\n        /* \"contracts/crowdsale.sol\":1524:1533  totalSold */\n      sload(0x09)\n        /* \"contracts/crowdsale.sol\":1524:1542  totalSold + amount */\n      tag_370\n      swap2\n      swap1\n      tag_195\n      jump\t// in\n    tag_370:\n        /* \"contracts/crowdsale.sol\":1512:1521  totalSold */\n      0x09\n        /* \"contracts/crowdsale.sol\":1512:1542  totalSold = totalSold + amount */\n      dup2\n      swap1\n      sstore\n      pop\n        /* \"contracts/crowdsale.sol\":1555:1564  BUSDToken */\n      0x05\n      0x00\n      swap1\n      sload\n      swap1\n      0x0100\n      exp\n      swap1\n      div\n      0xffffffffffffffffffffffffffffffffffffffff\n      and\n        /* \"contracts/crowdsale.sol\":1555:1577  BUSDToken.transferFrom */\n      0xffffffffffffffffffffffffffffffffffffffff\n      and\n      0x23b872dd\n        /* \"contracts/crowdsale.sol\":1578:1588  msg.sender */\n      caller\n        /* \"contracts/crowdsale.sol\":1590:1603  BUSDRecipient */\n      0x06\n      0x00\n      swap1\n      sload\n      swap1\n      0x0100\n      exp\n      swap1\n      div\n      0xffffffffffffffffffffffffffffffffffffffff\n      and\n        /* \"contracts/crowdsale.sol\":1605:1615  amountBUSD */\n      dup5\n        /* \"contracts/crowdsale.sol\":1555:1616  BUSDToken.transferFrom(msg.sender, BUSDRecipient, amountBUSD) */\n      mload(0x40)\n      dup5\n      0xffffffff\n      and\n      0xe0\n      shl\n      dup2\n      mstore\n      0x04\n      add\n      tag_371\n      swap4\n      swap3\n      swap2\n      swap1\n      tag_248\n      jump\t// in\n    tag_371:\n      0x20\n      mload(0x40)\n      dup1\n      dup4\n      sub\n      dup2\n      0x00\n      dup8\n      dup1\n      extcodesize\n      iszero\n      dup1\n      iszero\n      tag_372\n      jumpi\n      0x00\n      dup1\n      revert\n    tag_372:\n      pop\n      gas\n      call\n      iszero\n      dup1\n      iszero\n      tag_374\n      jumpi\n      returndatasize\n      0x00\n      dup1\n      returndatacopy\n      revert(0x00, returndatasize)\n    tag_374:\n      pop\n      pop\n      pop\n      pop\n      mload(0x40)\n      returndatasize\n      not(0x1f)\n      0x1f\n      dup3\n      add\n      and\n      dup3\n      add\n      dup1\n      0x40\n      mstore\n      pop\n      dup2\n      add\n      swap1\n      tag_375\n      swap2\n      swap1\n      tag_253\n      jump\t// in\n    tag_375:\n      pop\n        /* \"contracts/crowdsale.sol\":1634:1654  saleEvent(totalSold) */\n      0xf80ee73bdaed5cca4b962c19eef79f415ef61eb13bd1145aa0f1a4b188bb8b\n        /* \"contracts/crowdsale.sol\":1644:1653  totalSold */\n      sload(0x09)\n        /* \"contracts/crowdsale.sol\":1634:1654  saleEvent(totalSold) */\n      mload(0x40)\n      tag_376\n      swap2\n      swap1\n      tag_54\n      jump\t// in\n    tag_376:\n      mload(0x40)\n      dup1\n      swap2\n      sub\n      swap1\n      log1\n        /* \"contracts/crowdsale.sol\":1227:1662  {   \r... */\n      pop\n        /* \"contracts/crowdsale.sol\":1156:1662  function sale(uint amount)\r... */\n      pop\n      jump\t// out\n        /* \"contracts/crowdsale.sol\":738:768  uint public minBUSD = 50 ether */\n    tag_118:\n      sload(0x08)\n      dup2\n      jump\t// out\n        /* \"contracts/crowdsale.sol\":4595:4705  function setXPADTokenAddress(address _address) public onlyOwner {\r... */\n    tag_122:\n        /* \"@openzeppelin/contracts/access/Ownable.sol\":1094:1107  _checkOwner() */\n      tag_378\n        /* \"@openzeppelin/contracts/access/Ownable.sol\":1094:1105  _checkOwner */\n      tag_154\n        /* \"@openzeppelin/contracts/access/Ownable.sol\":1094:1107  _checkOwner() */\n      jump\t// in\n    tag_378:\n        /* \"contracts/crowdsale.sol\":4689:4697  _address */\n      dup1\n        /* \"contracts/crowdsale.sol\":4670:4686  XPADTokenAddress */\n      0x02\n      0x00\n        /* \"contracts/crowdsale.sol\":4670:4697  XPADTokenAddress = _address */\n      0x0100\n      exp\n      dup2\n      sload\n      dup2\n      0xffffffffffffffffffffffffffffffffffffffff\n      mul\n      not\n      and\n      swap1\n      dup4\n      0xffffffffffffffffffffffffffffffffffffffff\n      and\n      mul\n      or\n      swap1\n      sstore\n      pop\n        /* \"contracts/crowdsale.sol\":4595:4705  function setXPADTokenAddress(address _address) public onlyOwner {\r... */\n      pop\n      jump\t// out\n        /* \"contracts/data.sol\":1539:1885  function getCurrentRound() public view returns(uint) {\r... */\n    tag_124:\n        /* \"contracts/data.sol\":1586:1590  uint */\n      0x00\n        /* \"contracts/data.sol\":1603:1613  uint round */\n      dup1\n        /* \"contracts/data.sol\":1631:1637  uint i */\n      0x00\n        /* \"contracts/data.sol\":1626:1853  for (uint i = 0; i < allRounds.length; i++) {\r... */\n    tag_381:\n        /* \"contracts/data.sol\":1647:1656  allRounds */\n      0x01\n        /* \"contracts/data.sol\":1647:1663  allRounds.length */\n      dup1\n      sload\n      swap1\n      pop\n        /* \"contracts/data.sol\":1643:1644  i */\n      dup2\n        /* \"contracts/data.sol\":1643:1663  i < allRounds.length */\n      lt\n        /* \"contracts/data.sol\":1626:1853  for (uint i = 0; i < allRounds.length; i++) {\r... */\n      iszero\n      tag_382\n      jumpi\n        /* \"contracts/data.sol\":1708:1717  allRounds */\n      0x01\n        /* \"contracts/data.sol\":1718:1719  i */\n      dup2\n        /* \"contracts/data.sol\":1708:1720  allRounds[i] */\n      dup2\n      sload\n      dup2\n      lt\n      tag_384\n      jumpi\n      tag_385\n      tag_158\n      jump\t// in\n    tag_385:\n    tag_384:\n      swap1\n      0x00\n      mstore\n      keccak256(0x00, 0x20)\n      swap1\n      0x05\n      mul\n      add\n        /* \"contracts/data.sol\":1708:1730  allRounds[i].timeStart */\n      0x00\n      add\n      sload\n        /* \"contracts/data.sol\":1689:1704  block.timestamp */\n      timestamp\n        /* \"contracts/data.sol\":1689:1730  block.timestamp >= allRounds[i].timeStart */\n      lt\n      iszero\n        /* \"contracts/data.sol\":1689:1772  block.timestamp >= allRounds[i].timeStart && block.timestamp < allRounds[i].timeEnd */\n      dup1\n      iszero\n      tag_387\n      jumpi\n      pop\n        /* \"contracts/data.sol\":1752:1761  allRounds */\n      0x01\n        /* \"contracts/data.sol\":1762:1763  i */\n      dup2\n        /* \"contracts/data.sol\":1752:1764  allRounds[i] */\n      dup2\n      sload\n      dup2\n      lt\n      tag_388\n      jumpi\n      tag_389\n      tag_158\n      jump\t// in\n    tag_389:\n    tag_388:\n      swap1\n      0x00\n      mstore\n      keccak256(0x00, 0x20)\n      swap1\n      0x05\n      mul\n      add\n        /* \"contracts/data.sol\":1752:1772  allRounds[i].timeEnd */\n      0x01\n      add\n      sload\n        /* \"contracts/data.sol\":1734:1749  block.timestamp */\n      timestamp\n        /* \"contracts/data.sol\":1734:1772  block.timestamp < allRounds[i].timeEnd */\n      lt\n        /* \"contracts/data.sol\":1689:1772  block.timestamp >= allRounds[i].timeStart && block.timestamp < allRounds[i].timeEnd */\n    tag_387:\n        /* \"contracts/data.sol\":1685:1842  if (block.timestamp >= allRounds[i].timeStart && block.timestamp < allRounds[i].timeEnd) {\r... */\n      iszero\n      tag_391\n      jumpi\n        /* \"contracts/data.sol\":1801:1802  i */\n      dup1\n        /* \"contracts/data.sol\":1793:1802  round = i */\n      swap2\n      pop\n        /* \"contracts/data.sol\":1821:1826  break */\n      jump(tag_382)\n        /* \"contracts/data.sol\":1685:1842  if (block.timestamp >= allRounds[i].timeStart && block.timestamp < allRounds[i].timeEnd) {\r... */\n    tag_391:\n        /* \"contracts/data.sol\":1665:1668  i++ */\n      dup1\n      dup1\n      tag_392\n      swap1\n      tag_179\n      jump\t// in\n    tag_392:\n      swap2\n      pop\n      pop\n        /* \"contracts/data.sol\":1626:1853  for (uint i = 0; i < allRounds.length; i++) {\r... */\n      jump(tag_381)\n    tag_382:\n      pop\n        /* \"contracts/data.sol\":1872:1877  round */\n      dup1\n        /* \"contracts/data.sol\":1865:1877  return round */\n      swap2\n      pop\n      pop\n        /* \"contracts/data.sol\":1539:1885  function getCurrentRound() public view returns(uint) {\r... */\n      swap1\n      jump\t// out\n        /* \"contracts/crowdsale.sol\":574:647  address public BUSDRecipient = 0x7b76dBF7f01ebA3eE2fa1339C8C29FA6949b1bE4 */\n    tag_127:\n      0x06\n      0x00\n      swap1\n      sload\n      swap1\n      0x0100\n      exp\n      swap1\n      div\n      0xffffffffffffffffffffffffffffffffffffffff\n      and\n      dup2\n      jump\t// out\n        /* \"contracts/crowdsale.sol\":4947:5036  function setminBUSD(uint _minBUSD) public onlyOwner {\r... */\n    tag_131:\n        /* \"@openzeppelin/contracts/access/Ownable.sol\":1094:1107  _checkOwner() */\n      tag_394\n        /* \"@openzeppelin/contracts/access/Ownable.sol\":1094:1105  _checkOwner */\n      tag_154\n        /* \"@openzeppelin/contracts/access/Ownable.sol\":1094:1107  _checkOwner() */\n      jump\t// in\n    tag_394:\n        /* \"contracts/crowdsale.sol\":5020:5028  _minBUSD */\n      dup1\n        /* \"contracts/crowdsale.sol\":5010:5017  minBUSD */\n      0x08\n        /* \"contracts/crowdsale.sol\":5010:5028  minBUSD = _minBUSD */\n      dup2\n      swap1\n      sstore\n      pop\n        /* \"contracts/crowdsale.sol\":4947:5036  function setminBUSD(uint _minBUSD) public onlyOwner {\r... */\n      pop\n      jump\t// out\n        /* \"contracts/crowdsale.sol\":4713:4823  function setBUSDTokenAddress(address _address) public onlyOwner {\r... */\n    tag_134:\n        /* \"@openzeppelin/contracts/access/Ownable.sol\":1094:1107  _checkOwner() */\n      tag_397\n        /* \"@openzeppelin/contracts/access/Ownable.sol\":1094:1105  _checkOwner */\n      tag_154\n        /* \"@openzeppelin/contracts/access/Ownable.sol\":1094:1107  _checkOwner() */\n      jump\t// in\n    tag_397:\n        /* \"contracts/crowdsale.sol\":4807:4815  _address */\n      dup1\n        /* \"contracts/crowdsale.sol\":4788:4804  BUSDTokenAddress */\n      0x04\n      0x00\n        /* \"contracts/crowdsale.sol\":4788:4815  BUSDTokenAddress = _address */\n      0x0100\n      exp\n      dup2\n      sload\n      dup2\n      0xffffffffffffffffffffffffffffffffffffffff\n      mul\n      not\n      and\n      swap1\n      dup4\n      0xffffffffffffffffffffffffffffffffffffffff\n      and\n      mul\n      or\n      swap1\n      sstore\n      pop\n        /* \"contracts/crowdsale.sol\":4713:4823  function setBUSDTokenAddress(address _address) public onlyOwner {\r... */\n      pop\n      jump\t// out\n        /* \"contracts/crowdsale.sol\":515:565  IERC20 public BUSDToken = IERC20(BUSDTokenAddress) */\n    tag_136:\n      0x05\n      0x00\n      swap1\n      sload\n      swap1\n      0x0100\n      exp\n      swap1\n      div\n      0xffffffffffffffffffffffffffffffffffffffff\n      and\n      dup2\n      jump\t// out\n        /* \"contracts/crowdsale.sol\":380:430  IERC20 public XPADToken = IERC20(XPADTokenAddress) */\n    tag_140:\n      0x03\n      0x00\n      swap1\n      sload\n      swap1\n      0x0100\n      exp\n      swap1\n      div\n      0xffffffffffffffffffffffffffffffffffffffff\n      and\n      dup2\n      jump\t// out\n        /* \"contracts/data.sol\":1436:1531  function getAllRounds() public view returns(Round[] memory) {\r... */\n    tag_143:\n        /* \"contracts/data.sol\":1480:1494  Round[] memory */\n      0x60\n        /* \"contracts/data.sol\":1514:1523  allRounds */\n      0x01\n        /* \"contracts/data.sol\":1507:1523  return allRounds */\n      dup1\n      sload\n      dup1\n      0x20\n      mul\n      0x20\n      add\n      mload(0x40)\n      swap1\n      dup2\n      add\n      0x40\n      mstore\n      dup1\n      swap3\n      swap2\n      swap1\n      dup2\n      dup2\n      mstore\n      0x20\n      add\n      0x00\n      swap1\n    tag_400:\n      dup3\n      dup3\n      lt\n      iszero\n      tag_401\n      jumpi\n      dup4\n      dup3\n      swap1\n      0x00\n      mstore\n      keccak256(0x00, 0x20)\n      swap1\n      0x05\n      mul\n      add\n      mload(0x40)\n      dup1\n      0xa0\n      add\n      0x40\n      mstore\n      swap1\n      dup2\n      0x00\n      dup3\n      add\n      sload\n      dup2\n      mstore\n      0x20\n      add\n      0x01\n      dup3\n      add\n      sload\n      dup2\n      mstore\n      0x20\n      add\n      0x02\n      dup3\n      add\n      sload\n      dup2\n      mstore\n      0x20\n      add\n      0x03\n      dup3\n      add\n      sload\n      dup2\n      mstore\n      0x20\n      add\n      0x04\n      dup3\n      add\n      sload\n      dup2\n      mstore\n      pop\n      pop\n      dup2\n      mstore\n      0x20\n      add\n      swap1\n      0x01\n      add\n      swap1\n      jump(tag_400)\n    tag_401:\n      pop\n      pop\n      pop\n      pop\n      swap1\n      pop\n        /* \"contracts/data.sol\":1436:1531  function getAllRounds() public view returns(Round[] memory) {\r... */\n      swap1\n      jump\t// out\n        /* \"@openzeppelin/contracts/access/Ownable.sol\":2081:2279  function transferOwnership(address newOwner) public virtual onlyOwner {... */\n    tag_148:\n        /* \"@openzeppelin/contracts/access/Ownable.sol\":1094:1107  _checkOwner() */\n      tag_404\n        /* \"@openzeppelin/contracts/access/Ownable.sol\":1094:1105  _checkOwner */\n      tag_154\n        /* \"@openzeppelin/contracts/access/Ownable.sol\":1094:1107  _checkOwner() */\n      jump\t// in\n    tag_404:\n        /* \"@openzeppelin/contracts/access/Ownable.sol\":2189:2190  0 */\n      0x00\n        /* \"@openzeppelin/contracts/access/Ownable.sol\":2169:2191  newOwner != address(0) */\n      0xffffffffffffffffffffffffffffffffffffffff\n      and\n        /* \"@openzeppelin/contracts/access/Ownable.sol\":2169:2177  newOwner */\n      dup2\n        /* \"@openzeppelin/contracts/access/Ownable.sol\":2169:2191  newOwner != address(0) */\n      0xffffffffffffffffffffffffffffffffffffffff\n      and\n      eq\n      iszero\n        /* \"@openzeppelin/contracts/access/Ownable.sol\":2161:2234  require(newOwner != address(0), \"Ownable: new owner is the zero address\") */\n      tag_406\n      jumpi\n      mload(0x40)\n      0x08c379a000000000000000000000000000000000000000000000000000000000\n      dup2\n      mstore\n      0x04\n      add\n      tag_407\n      swap1\n      tag_408\n      jump\t// in\n    tag_407:\n      mload(0x40)\n      dup1\n      swap2\n      sub\n      swap1\n      revert\n    tag_406:\n        /* \"@openzeppelin/contracts/access/Ownable.sol\":2244:2272  _transferOwnership(newOwner) */\n      tag_409\n        /* \"@openzeppelin/contracts/access/Ownable.sol\":2263:2271  newOwner */\n      dup2\n        /* \"@openzeppelin/contracts/access/Ownable.sol\":2244:2262  _transferOwnership */\n      tag_338\n        /* \"@openzeppelin/contracts/access/Ownable.sol\":2244:2272  _transferOwnership(newOwner) */\n      jump\t// in\n    tag_409:\n        /* \"@openzeppelin/contracts/access/Ownable.sol\":2081:2279  function transferOwnership(address newOwner) public virtual onlyOwner {... */\n      pop\n      jump\t// out\n        /* \"contracts/crowdsale.sol\":3125:3728  function getAmountXPPAvailebleToWithdraw() public view returns (uint){\r... */\n    tag_150:\n        /* \"contracts/crowdsale.sol\":3189:3193  uint */\n      0x00\n        /* \"contracts/crowdsale.sol\":3205:3227  uint _MaxvalueWithdraw */\n      dup1\n        /* \"contracts/crowdsale.sol\":3277:3278  0 */\n      0x00\n        /* \"contracts/crowdsale.sol\":3244:3254  addressToS */\n      0x0a\n        /* \"contracts/crowdsale.sol\":3244:3266  addressToS[msg.sender] */\n      0x00\n        /* \"contracts/crowdsale.sol\":3255:3265  msg.sender */\n      caller\n        /* \"contracts/crowdsale.sol\":3244:3266  addressToS[msg.sender] */\n      0xffffffffffffffffffffffffffffffffffffffff\n      and\n      0xffffffffffffffffffffffffffffffffffffffff\n      and\n      dup2\n      mstore\n      0x20\n      add\n      swap1\n      dup2\n      mstore\n      0x20\n      add\n      0x00\n      keccak256\n        /* \"contracts/crowdsale.sol\":3244:3273  addressToS[msg.sender].length */\n      dup1\n      sload\n      swap1\n      pop\n        /* \"contracts/crowdsale.sol\":3244:3278  addressToS[msg.sender].length != 0 */\n      eq\n        /* \"contracts/crowdsale.sol\":3240:3684  if (addressToS[msg.sender].length != 0) {\r... */\n      tag_411\n      jumpi\n        /* \"contracts/crowdsale.sol\":3300:3306  uint i */\n      0x00\n        /* \"contracts/crowdsale.sol\":3295:3673  for (uint i = 0; i < addressToS[msg.sender].length; i++) {\r... */\n    tag_412:\n        /* \"contracts/crowdsale.sol\":3316:3326  addressToS */\n      0x0a\n        /* \"contracts/crowdsale.sol\":3316:3338  addressToS[msg.sender] */\n      0x00\n        /* \"contracts/crowdsale.sol\":3327:3337  msg.sender */\n      caller\n        /* \"contracts/crowdsale.sol\":3316:3338  addressToS[msg.sender] */\n      0xffffffffffffffffffffffffffffffffffffffff\n      and\n      0xffffffffffffffffffffffffffffffffffffffff\n      and\n      dup2\n      mstore\n      0x20\n      add\n      swap1\n      dup2\n      mstore\n      0x20\n      add\n      0x00\n      keccak256\n        /* \"contracts/crowdsale.sol\":3316:3345  addressToS[msg.sender].length */\n      dup1\n      sload\n      swap1\n      pop\n        /* \"contracts/crowdsale.sol\":3312:3313  i */\n      dup2\n        /* \"contracts/crowdsale.sol\":3312:3345  i < addressToS[msg.sender].length */\n      lt\n        /* \"contracts/crowdsale.sol\":3295:3673  for (uint i = 0; i < addressToS[msg.sender].length; i++) {\r... */\n      iszero\n      tag_413\n      jumpi\n        /* \"contracts/crowdsale.sol\":3469:3484  block.timestamp */\n      timestamp\n        /* \"contracts/crowdsale.sol\":3415:3466  getVestingXPAD(addressToS[msg.sender][i].timeStake) */\n      tag_415\n        /* \"contracts/crowdsale.sol\":3430:3440  addressToS */\n      0x0a\n        /* \"contracts/crowdsale.sol\":3430:3452  addressToS[msg.sender] */\n      0x00\n        /* \"contracts/crowdsale.sol\":3441:3451  msg.sender */\n      caller\n        /* \"contracts/crowdsale.sol\":3430:3452  addressToS[msg.sender] */\n      0xffffffffffffffffffffffffffffffffffffffff\n      and\n      0xffffffffffffffffffffffffffffffffffffffff\n      and\n      dup2\n      mstore\n      0x20\n      add\n      swap1\n      dup2\n      mstore\n      0x20\n      add\n      0x00\n      keccak256\n        /* \"contracts/crowdsale.sol\":3453:3454  i */\n      dup4\n        /* \"contracts/crowdsale.sol\":3430:3455  addressToS[msg.sender][i] */\n      dup2\n      sload\n      dup2\n      lt\n      tag_416\n      jumpi\n      tag_417\n      tag_158\n      jump\t// in\n    tag_417:\n    tag_416:\n      swap1\n      0x00\n      mstore\n      keccak256(0x00, 0x20)\n      swap1\n      0x02\n      mul\n      add\n        /* \"contracts/crowdsale.sol\":3430:3465  addressToS[msg.sender][i].timeStake */\n      0x00\n      add\n      sload\n        /* \"contracts/crowdsale.sol\":3415:3429  getVestingXPAD */\n      tag_87\n        /* \"contracts/crowdsale.sol\":3415:3466  getVestingXPAD(addressToS[msg.sender][i].timeStake) */\n      jump\t// in\n    tag_415:\n        /* \"contracts/crowdsale.sol\":3377:3387  addressToS */\n      0x0a\n        /* \"contracts/crowdsale.sol\":3377:3399  addressToS[msg.sender] */\n      0x00\n        /* \"contracts/crowdsale.sol\":3388:3398  msg.sender */\n      caller\n        /* \"contracts/crowdsale.sol\":3377:3399  addressToS[msg.sender] */\n      0xffffffffffffffffffffffffffffffffffffffff\n      and\n      0xffffffffffffffffffffffffffffffffffffffff\n      and\n      dup2\n      mstore\n      0x20\n      add\n      swap1\n      dup2\n      mstore\n      0x20\n      add\n      0x00\n      keccak256\n        /* \"contracts/crowdsale.sol\":3400:3401  i */\n      dup4\n        /* \"contracts/crowdsale.sol\":3377:3402  addressToS[msg.sender][i] */\n      dup2\n      sload\n      dup2\n      lt\n      tag_419\n      jumpi\n      tag_420\n      tag_158\n      jump\t// in\n    tag_420:\n    tag_419:\n      swap1\n      0x00\n      mstore\n      keccak256(0x00, 0x20)\n      swap1\n      0x02\n      mul\n      add\n        /* \"contracts/crowdsale.sol\":3377:3412  addressToS[msg.sender][i].timeStake */\n      0x00\n      add\n      sload\n        /* \"contracts/crowdsale.sol\":3377:3466  addressToS[msg.sender][i].timeStake + getVestingXPAD(addressToS[msg.sender][i].timeStake) */\n      tag_422\n      swap2\n      swap1\n      tag_195\n      jump\t// in\n    tag_422:\n        /* \"contracts/crowdsale.sol\":3377:3484  addressToS[msg.sender][i].timeStake + getVestingXPAD(addressToS[msg.sender][i].timeStake) < block.timestamp */\n      lt\n        /* \"contracts/crowdsale.sol\":3377:3524  addressToS[msg.sender][i].timeStake + getVestingXPAD(addressToS[msg.sender][i].timeStake) < block.timestamp && addressToS[msg.sender][i].value != 0 */\n      dup1\n      iszero\n      tag_423\n      jumpi\n      pop\n        /* \"contracts/crowdsale.sol\":3523:3524  0 */\n      0x00\n        /* \"contracts/crowdsale.sol\":3488:3498  addressToS */\n      0x0a\n        /* \"contracts/crowdsale.sol\":3488:3510  addressToS[msg.sender] */\n      0x00\n        /* \"contracts/crowdsale.sol\":3499:3509  msg.sender */\n      caller\n        /* \"contracts/crowdsale.sol\":3488:3510  addressToS[msg.sender] */\n      0xffffffffffffffffffffffffffffffffffffffff\n      and\n      0xffffffffffffffffffffffffffffffffffffffff\n      and\n      dup2\n      mstore\n      0x20\n      add\n      swap1\n      dup2\n      mstore\n      0x20\n      add\n      0x00\n      keccak256\n        /* \"contracts/crowdsale.sol\":3511:3512  i */\n      dup3\n        /* \"contracts/crowdsale.sol\":3488:3513  addressToS[msg.sender][i] */\n      dup2\n      sload\n      dup2\n      lt\n      tag_424\n      jumpi\n      tag_425\n      tag_158\n      jump\t// in\n    tag_425:\n    tag_424:\n      swap1\n      0x00\n      mstore\n      keccak256(0x00, 0x20)\n      swap1\n      0x02\n      mul\n      add\n        /* \"contracts/crowdsale.sol\":3488:3519  addressToS[msg.sender][i].value */\n      0x01\n      add\n      sload\n        /* \"contracts/crowdsale.sol\":3488:3524  addressToS[msg.sender][i].value != 0 */\n      eq\n      iszero\n        /* \"contracts/crowdsale.sol\":3377:3524  addressToS[msg.sender][i].timeStake + getVestingXPAD(addressToS[msg.sender][i].timeStake) < block.timestamp && addressToS[msg.sender][i].value != 0 */\n    tag_423:\n        /* \"contracts/crowdsale.sol\":3373:3640  if (addressToS[msg.sender][i].timeStake + getVestingXPAD(addressToS[msg.sender][i].timeStake) < block.timestamp && addressToS[msg.sender][i].value != 0) {\r... */\n      iszero\n      tag_427\n      jumpi\n        /* \"contracts/crowdsale.sol\":3589:3599  addressToS */\n      0x0a\n        /* \"contracts/crowdsale.sol\":3589:3611  addressToS[msg.sender] */\n      0x00\n        /* \"contracts/crowdsale.sol\":3600:3610  msg.sender */\n      caller\n        /* \"contracts/crowdsale.sol\":3589:3611  addressToS[msg.sender] */\n      0xffffffffffffffffffffffffffffffffffffffff\n      and\n      0xffffffffffffffffffffffffffffffffffffffff\n      and\n      dup2\n      mstore\n      0x20\n      add\n      swap1\n      dup2\n      mstore\n      0x20\n      add\n      0x00\n      keccak256\n        /* \"contracts/crowdsale.sol\":3612:3613  i */\n      dup2\n        /* \"contracts/crowdsale.sol\":3589:3614  addressToS[msg.sender][i] */\n      dup2\n      sload\n      dup2\n      lt\n      tag_428\n      jumpi\n      tag_429\n      tag_158\n      jump\t// in\n    tag_429:\n    tag_428:\n      swap1\n      0x00\n      mstore\n      keccak256(0x00, 0x20)\n      swap1\n      0x02\n      mul\n      add\n        /* \"contracts/crowdsale.sol\":3589:3620  addressToS[msg.sender][i].value */\n      0x01\n      add\n      sload\n        /* \"contracts/crowdsale.sol\":3569:3586  _MaxvalueWithdraw */\n      dup3\n        /* \"contracts/crowdsale.sol\":3569:3620  _MaxvalueWithdraw + addressToS[msg.sender][i].value */\n      tag_431\n      swap2\n      swap1\n      tag_195\n      jump\t// in\n    tag_431:\n        /* \"contracts/crowdsale.sol\":3549:3620  _MaxvalueWithdraw = _MaxvalueWithdraw + addressToS[msg.sender][i].value */\n      swap2\n      pop\n        /* \"contracts/crowdsale.sol\":3373:3640  if (addressToS[msg.sender][i].timeStake + getVestingXPAD(addressToS[msg.sender][i].timeStake) < block.timestamp && addressToS[msg.sender][i].value != 0) {\r... */\n    tag_427:\n        /* \"contracts/crowdsale.sol\":3347:3350  i++ */\n      dup1\n      dup1\n      tag_432\n      swap1\n      tag_179\n      jump\t// in\n    tag_432:\n      swap2\n      pop\n      pop\n        /* \"contracts/crowdsale.sol\":3295:3673  for (uint i = 0; i < addressToS[msg.sender].length; i++) {\r... */\n      jump(tag_412)\n    tag_413:\n      pop\n        /* \"contracts/crowdsale.sol\":3240:3684  if (addressToS[msg.sender].length != 0) {\r... */\n    tag_411:\n        /* \"contracts/crowdsale.sol\":3703:3720  _MaxvalueWithdraw */\n      dup1\n        /* \"contracts/crowdsale.sol\":3696:3720  return _MaxvalueWithdraw */\n      swap2\n      pop\n      pop\n        /* \"contracts/crowdsale.sol\":3125:3728  function getAmountXPPAvailebleToWithdraw() public view returns (uint){\r... */\n      swap1\n      jump\t// out\n        /* \"@openzeppelin/contracts/access/Ownable.sol\":1359:1489  function _checkOwner() internal view virtual {... */\n    tag_154:\n        /* \"@openzeppelin/contracts/access/Ownable.sol\":1433:1445  _msgSender() */\n      tag_434\n        /* \"@openzeppelin/contracts/access/Ownable.sol\":1433:1443  _msgSender */\n      tag_435\n        /* \"@openzeppelin/contracts/access/Ownable.sol\":1433:1445  _msgSender() */\n      jump\t// in\n    tag_434:\n        /* \"@openzeppelin/contracts/access/Ownable.sol\":1422:1445  owner() == _msgSender() */\n      0xffffffffffffffffffffffffffffffffffffffff\n      and\n        /* \"@openzeppelin/contracts/access/Ownable.sol\":1422:1429  owner() */\n      tag_436\n        /* \"@openzeppelin/contracts/access/Ownable.sol\":1422:1427  owner */\n      tag_106\n        /* \"@openzeppelin/contracts/access/Ownable.sol\":1422:1429  owner() */\n      jump\t// in\n    tag_436:\n        /* \"@openzeppelin/contracts/access/Ownable.sol\":1422:1445  owner() == _msgSender() */\n      0xffffffffffffffffffffffffffffffffffffffff\n      and\n      eq\n        /* \"@openzeppelin/contracts/access/Ownable.sol\":1414:1482  require(owner() == _msgSender(), \"Ownable: caller is not the owner\") */\n      tag_437\n      jumpi\n      mload(0x40)\n      0x08c379a000000000000000000000000000000000000000000000000000000000\n      dup2\n      mstore\n      0x04\n      add\n      tag_438\n      swap1\n      tag_439\n      jump\t// in\n    tag_438:\n      mload(0x40)\n      dup1\n      swap2\n      sub\n      swap1\n      revert\n    tag_437:\n        /* \"@openzeppelin/contracts/access/Ownable.sol\":1359:1489  function _checkOwner() internal view virtual {... */\n      jump\t// out\n        /* \"@openzeppelin/contracts/security/Pausable.sol\":2433:2550  function _unpause() internal virtual whenPaused {... */\n    tag_261:\n        /* \"@openzeppelin/contracts/security/Pausable.sol\":1486:1502  _requirePaused() */\n      tag_441\n        /* \"@openzeppelin/contracts/security/Pausable.sol\":1486:1500  _requirePaused */\n      tag_442\n        /* \"@openzeppelin/contracts/security/Pausable.sol\":1486:1502  _requirePaused() */\n      jump\t// in\n    tag_441:\n        /* \"@openzeppelin/contracts/security/Pausable.sol\":2501:2506  false */\n      0x00\n        /* \"@openzeppelin/contracts/security/Pausable.sol\":2491:2498  _paused */\n      dup1\n      0x14\n        /* \"@openzeppelin/contracts/security/Pausable.sol\":2491:2506  _paused = false */\n      0x0100\n      exp\n      dup2\n      sload\n      dup2\n      0xff\n      mul\n      not\n      and\n      swap1\n      dup4\n      iszero\n      iszero\n      mul\n      or\n      swap1\n      sstore\n      pop\n        /* \"@openzeppelin/contracts/security/Pausable.sol\":2521:2543  Unpaused(_msgSender()) */\n      0x5db9ee0a495bf2e6ff9c91a7834c1ba4fdd244a5e8aa4e537bd38aeae4b073aa\n        /* \"@openzeppelin/contracts/security/Pausable.sol\":2530:2542  _msgSender() */\n      tag_444\n        /* \"@openzeppelin/contracts/security/Pausable.sol\":2530:2540  _msgSender */\n      tag_435\n        /* \"@openzeppelin/contracts/security/Pausable.sol\":2530:2542  _msgSender() */\n      jump\t// in\n    tag_444:\n        /* \"@openzeppelin/contracts/security/Pausable.sol\":2521:2543  Unpaused(_msgSender()) */\n      mload(0x40)\n      tag_445\n      swap2\n      swap1\n      tag_79\n      jump\t// in\n    tag_445:\n      mload(0x40)\n      dup1\n      swap2\n      sub\n      swap1\n      log1\n        /* \"@openzeppelin/contracts/security/Pausable.sol\":2433:2550  function _unpause() internal virtual whenPaused {... */\n      jump\t// out\n        /* \"@openzeppelin/contracts/access/Ownable.sol\":2433:2620  function _transferOwnership(address newOwner) internal virtual {... */\n    tag_338:\n        /* \"@openzeppelin/contracts/access/Ownable.sol\":2506:2522  address oldOwner */\n      0x00\n        /* \"@openzeppelin/contracts/access/Ownable.sol\":2525:2531  _owner */\n      dup1\n      0x00\n      swap1\n      sload\n      swap1\n      0x0100\n      exp\n      swap1\n      div\n      0xffffffffffffffffffffffffffffffffffffffff\n      and\n        /* \"@openzeppelin/contracts/access/Ownable.sol\":2506:2531  address oldOwner = _owner */\n      swap1\n      pop\n        /* \"@openzeppelin/contracts/access/Ownable.sol\":2550:2558  newOwner */\n      dup2\n        /* \"@openzeppelin/contracts/access/Ownable.sol\":2541:2547  _owner */\n      0x00\n      dup1\n        /* \"@openzeppelin/contracts/access/Ownable.sol\":2541:2558  _owner = newOwner */\n      0x0100\n      exp\n      dup2\n      sload\n      dup2\n      0xffffffffffffffffffffffffffffffffffffffff\n      mul\n      not\n      and\n      swap1\n      dup4\n      0xffffffffffffffffffffffffffffffffffffffff\n      and\n      mul\n      or\n      swap1\n      sstore\n      pop\n        /* \"@openzeppelin/contracts/access/Ownable.sol\":2604:2612  newOwner */\n      dup2\n        /* \"@openzeppelin/contracts/access/Ownable.sol\":2573:2613  OwnershipTransferred(oldOwner, newOwner) */\n      0xffffffffffffffffffffffffffffffffffffffff\n      and\n        /* \"@openzeppelin/contracts/access/Ownable.sol\":2594:2602  oldOwner */\n      dup2\n        /* \"@openzeppelin/contracts/access/Ownable.sol\":2573:2613  OwnershipTransferred(oldOwner, newOwner) */\n      0xffffffffffffffffffffffffffffffffffffffff\n      and\n      0x8be0079c531659141344cd1fd0a4f28419497f9722a3daafe3b4186f6b6457e0\n      mload(0x40)\n      mload(0x40)\n      dup1\n      swap2\n      sub\n      swap1\n      log3\n        /* \"@openzeppelin/contracts/access/Ownable.sol\":2496:2620  {... */\n      pop\n        /* \"@openzeppelin/contracts/access/Ownable.sol\":2433:2620  function _transferOwnership(address newOwner) internal virtual {... */\n      pop\n      jump\t// out\n        /* \"@openzeppelin/contracts/security/Pausable.sol\":2186:2301  function _pause() internal virtual whenNotPaused {... */\n    tag_343:\n        /* \"@openzeppelin/contracts/security/Pausable.sol\":1239:1258  _requireNotPaused() */\n      tag_448\n        /* \"@openzeppelin/contracts/security/Pausable.sol\":1239:1256  _requireNotPaused */\n      tag_355\n        /* \"@openzeppelin/contracts/security/Pausable.sol\":1239:1258  _requireNotPaused() */\n      jump\t// in\n    tag_448:\n        /* \"@openzeppelin/contracts/security/Pausable.sol\":2255:2259  true */\n      0x01\n        /* \"@openzeppelin/contracts/security/Pausable.sol\":2245:2252  _paused */\n      0x00\n      0x14\n        /* \"@openzeppelin/contracts/security/Pausable.sol\":2245:2259  _paused = true */\n      0x0100\n      exp\n      dup2\n      sload\n      dup2\n      0xff\n      mul\n      not\n      and\n      swap1\n      dup4\n      iszero\n      iszero\n      mul\n      or\n      swap1\n      sstore\n      pop\n        /* \"@openzeppelin/contracts/security/Pausable.sol\":2274:2294  Paused(_msgSender()) */\n      0x62e78cea01bee320cd4e420270b5ea74000d11b0c9f74754ebdbfc544b05a258\n        /* \"@openzeppelin/contracts/security/Pausable.sol\":2281:2293  _msgSender() */\n      tag_450\n        /* \"@openzeppelin/contracts/security/Pausable.sol\":2281:2291  _msgSender */\n      tag_435\n        /* \"@openzeppelin/contracts/security/Pausable.sol\":2281:2293  _msgSender() */\n      jump\t// in\n    tag_450:\n        /* \"@openzeppelin/contracts/security/Pausable.sol\":2274:2294  Paused(_msgSender()) */\n      mload(0x40)\n      tag_451\n      swap2\n      swap1\n      tag_79\n      jump\t// in\n    tag_451:\n      mload(0x40)\n      dup1\n      swap2\n      sub\n      swap1\n      log1\n        /* \"@openzeppelin/contracts/security/Pausable.sol\":2186:2301  function _pause() internal virtual whenNotPaused {... */\n      jump\t// out\n        /* \"@openzeppelin/contracts/security/Pausable.sol\":1767:1873  function _requireNotPaused() internal view virtual {... */\n    tag_355:\n        /* \"@openzeppelin/contracts/security/Pausable.sol\":1837:1845  paused() */\n      tag_453\n        /* \"@openzeppelin/contracts/security/Pausable.sol\":1837:1843  paused */\n      tag_90\n        /* \"@openzeppelin/contracts/security/Pausable.sol\":1837:1845  paused() */\n      jump\t// in\n    tag_453:\n        /* \"@openzeppelin/contracts/security/Pausable.sol\":1836:1845  !paused() */\n      iszero\n        /* \"@openzeppelin/contracts/security/Pausable.sol\":1828:1866  require(!paused(), \"Pausable: paused\") */\n      tag_454\n      jumpi\n      mload(0x40)\n      0x08c379a000000000000000000000000000000000000000000000000000000000\n      dup2\n      mstore\n      0x04\n      add\n      tag_455\n      swap1\n      tag_456\n      jump\t// in\n    tag_455:\n      mload(0x40)\n      dup1\n      swap2\n      sub\n      swap1\n      revert\n    tag_454:\n        /* \"@openzeppelin/contracts/security/Pausable.sol\":1767:1873  function _requireNotPaused() internal view virtual {... */\n      jump\t// out\n        /* \"contracts/crowdsale.sol\":2412:2544  function fund(uint _value, address _address) private {\r... */\n    tag_369:\n        /* \"contracts/crowdsale.sol\":2478:2488  addressToS */\n      0x0a\n        /* \"contracts/crowdsale.sol\":2478:2498  addressToS[_address] */\n      0x00\n        /* \"contracts/crowdsale.sol\":2489:2497  _address */\n      dup3\n        /* \"contracts/crowdsale.sol\":2478:2498  addressToS[_address] */\n      0xffffffffffffffffffffffffffffffffffffffff\n      and\n      0xffffffffffffffffffffffffffffffffffffffff\n      and\n      dup2\n      mstore\n      0x20\n      add\n      swap1\n      dup2\n      mstore\n      0x20\n      add\n      0x00\n      keccak256\n        /* \"contracts/crowdsale.sol\":2504:2535  Staker(block.timestamp, _value) */\n      mload(0x40)\n      dup1\n      0x40\n      add\n      0x40\n      mstore\n      dup1\n        /* \"contracts/crowdsale.sol\":2511:2526  block.timestamp */\n      timestamp\n        /* \"contracts/crowdsale.sol\":2504:2535  Staker(block.timestamp, _value) */\n      dup2\n      mstore\n      0x20\n      add\n        /* \"contracts/crowdsale.sol\":2528:2534  _value */\n      dup5\n        /* \"contracts/crowdsale.sol\":2504:2535  Staker(block.timestamp, _value) */\n      dup2\n      mstore\n      pop\n        /* \"contracts/crowdsale.sol\":2478:2536  addressToS[_address].push(Staker(block.timestamp, _value)) */\n      swap1\n      dup1\n      0x01\n      dup2\n      sload\n      add\n      dup1\n      dup3\n      sstore\n      dup1\n      swap2\n      pop\n      pop\n      0x01\n      swap1\n      sub\n      swap1\n      0x00\n      mstore\n      keccak256(0x00, 0x20)\n      swap1\n      0x02\n      mul\n      add\n      0x00\n      swap1\n      swap2\n      swap1\n      swap2\n      swap1\n      swap2\n      pop\n      0x00\n      dup3\n      add\n      mload\n      dup2\n      0x00\n      add\n      sstore\n      0x20\n      dup3\n      add\n      mload\n      dup2\n      0x01\n      add\n      sstore\n      pop\n      pop\n        /* \"contracts/crowdsale.sol\":2412:2544  function fund(uint _value, address _address) private {\r... */\n      pop\n      pop\n      jump\t// out\n        /* \"@openzeppelin/contracts/utils/Context.sol\":640:736  function _msgSender() internal view virtual returns (address) {... */\n    tag_435:\n        /* \"@openzeppelin/contracts/utils/Context.sol\":693:700  address */\n      0x00\n        /* \"@openzeppelin/contracts/utils/Context.sol\":719:729  msg.sender */\n      caller\n        /* \"@openzeppelin/contracts/utils/Context.sol\":712:729  return msg.sender */\n      swap1\n      pop\n        /* \"@openzeppelin/contracts/utils/Context.sol\":640:736  function _msgSender() internal view virtual returns (address) {... */\n      swap1\n      jump\t// out\n        /* \"@openzeppelin/contracts/security/Pausable.sol\":1945:2051  function _requirePaused() internal view virtual {... */\n    tag_442:\n        /* \"@openzeppelin/contracts/security/Pausable.sol\":2011:2019  paused() */\n      tag_461\n        /* \"@openzeppelin/contracts/security/Pausable.sol\":2011:2017  paused */\n      tag_90\n        /* \"@openzeppelin/contracts/security/Pausable.sol\":2011:2019  paused() */\n      jump\t// in\n    tag_461:\n        /* \"@openzeppelin/contracts/security/Pausable.sol\":2003:2044  require(paused(), \"Pausable: not paused\") */\n      tag_462\n      jumpi\n      mload(0x40)\n      0x08c379a000000000000000000000000000000000000000000000000000000000\n      dup2\n      mstore\n      0x04\n      add\n      tag_463\n      swap1\n      tag_464\n      jump\t// in\n    tag_463:\n      mload(0x40)\n      dup1\n      swap2\n      sub\n      swap1\n      revert\n    tag_462:\n        /* \"@openzeppelin/contracts/security/Pausable.sol\":1945:2051  function _requirePaused() internal view virtual {... */\n      jump\t// out\n        /* \"#utility.yul\":7:146   */\n    tag_466:\n        /* \"#utility.yul\":53:58   */\n      0x00\n        /* \"#utility.yul\":91:97   */\n      dup2\n        /* \"#utility.yul\":78:98   */\n      calldataload\n        /* \"#utility.yul\":69:98   */\n      swap1\n      pop\n        /* \"#utility.yul\":107:140   */\n      tag_468\n        /* \"#utility.yul\":134:139   */\n      dup2\n        /* \"#utility.yul\":107:140   */\n      tag_469\n      jump\t// in\n    tag_468:\n        /* \"#utility.yul\":7:146   */\n      swap3\n      swap2\n      pop\n      pop\n      jump\t// out\n        /* \"#utility.yul\":152:289   */\n    tag_470:\n        /* \"#utility.yul\":206:211   */\n      0x00\n        /* \"#utility.yul\":237:243   */\n      dup2\n        /* \"#utility.yul\":231:244   */\n      mload\n        /* \"#utility.yul\":222:244   */\n      swap1\n      pop\n        /* \"#utility.yul\":253:283   */\n      tag_472\n        /* \"#utility.yul\":277:282   */\n      dup2\n        /* \"#utility.yul\":253:283   */\n      tag_473\n      jump\t// in\n    tag_472:\n        /* \"#utility.yul\":152:289   */\n      swap3\n      swap2\n      pop\n      pop\n      jump\t// out\n        /* \"#utility.yul\":295:434   */\n    tag_474:\n        /* \"#utility.yul\":341:346   */\n      0x00\n        /* \"#utility.yul\":379:385   */\n      dup2\n        /* \"#utility.yul\":366:386   */\n      calldataload\n        /* \"#utility.yul\":357:386   */\n      swap1\n      pop\n        /* \"#utility.yul\":395:428   */\n      tag_476\n        /* \"#utility.yul\":422:427   */\n      dup2\n        /* \"#utility.yul\":395:428   */\n      tag_477\n      jump\t// in\n    tag_476:\n        /* \"#utility.yul\":295:434   */\n      swap3\n      swap2\n      pop\n      pop\n      jump\t// out\n        /* \"#utility.yul\":440:769   */\n    tag_49:\n        /* \"#utility.yul\":499:505   */\n      0x00\n        /* \"#utility.yul\":548:550   */\n      0x20\n        /* \"#utility.yul\":536:545   */\n      dup3\n        /* \"#utility.yul\":527:534   */\n      dup5\n        /* \"#utility.yul\":523:546   */\n      sub\n        /* \"#utility.yul\":519:551   */\n      slt\n        /* \"#utility.yul\":516:635   */\n      iszero\n      tag_479\n      jumpi\n        /* \"#utility.yul\":554:633   */\n      tag_480\n      tag_481\n      jump\t// in\n    tag_480:\n        /* \"#utility.yul\":516:635   */\n    tag_479:\n        /* \"#utility.yul\":674:675   */\n      0x00\n        /* \"#utility.yul\":699:752   */\n      tag_482\n        /* \"#utility.yul\":744:751   */\n      dup5\n        /* \"#utility.yul\":735:741   */\n      dup3\n        /* \"#utility.yul\":724:733   */\n      dup6\n        /* \"#utility.yul\":720:742   */\n      add\n        /* \"#utility.yul\":699:752   */\n      tag_466\n      jump\t// in\n    tag_482:\n        /* \"#utility.yul\":689:752   */\n      swap2\n      pop\n        /* \"#utility.yul\":645:762   */\n      pop\n        /* \"#utility.yul\":440:769   */\n      swap3\n      swap2\n      pop\n      pop\n      jump\t// out\n        /* \"#utility.yul\":775:1120   */\n    tag_253:\n        /* \"#utility.yul\":842:848   */\n      0x00\n        /* \"#utility.yul\":891:893   */\n      0x20\n        /* \"#utility.yul\":879:888   */\n      dup3\n        /* \"#utility.yul\":870:877   */\n      dup5\n        /* \"#utility.yul\":866:889   */\n      sub\n        /* \"#utility.yul\":862:894   */\n      slt\n        /* \"#utility.yul\":859:978   */\n      iszero\n      tag_484\n      jumpi\n        /* \"#utility.yul\":897:976   */\n      tag_485\n      tag_481\n      jump\t// in\n    tag_485:\n        /* \"#utility.yul\":859:978   */\n    tag_484:\n        /* \"#utility.yul\":1017:1018   */\n      0x00\n        /* \"#utility.yul\":1042:1103   */\n      tag_486\n        /* \"#utility.yul\":1095:1102   */\n      dup5\n        /* \"#utility.yul\":1086:1092   */\n      dup3\n        /* \"#utility.yul\":1075:1084   */\n      dup6\n        /* \"#utility.yul\":1071:1093   */\n      add\n        /* \"#utility.yul\":1042:1103   */\n      tag_470\n      jump\t// in\n    tag_486:\n        /* \"#utility.yul\":1032:1103   */\n      swap2\n      pop\n        /* \"#utility.yul\":988:1113   */\n      pop\n        /* \"#utility.yul\":775:1120   */\n      swap3\n      swap2\n      pop\n      pop\n      jump\t// out\n        /* \"#utility.yul\":1126:1455   */\n    tag_61:\n        /* \"#utility.yul\":1185:1191   */\n      0x00\n        /* \"#utility.yul\":1234:1236   */\n      0x20\n        /* \"#utility.yul\":1222:1231   */\n      dup3\n        /* \"#utility.yul\":1213:1220   */\n      dup5\n        /* \"#utility.yul\":1209:1232   */\n      sub\n        /* \"#utility.yul\":1205:1237   */\n      slt\n        /* \"#utility.yul\":1202:1321   */\n      iszero\n      tag_488\n      jumpi\n        /* \"#utility.yul\":1240:1319   */\n      tag_489\n      tag_481\n      jump\t// in\n    tag_489:\n        /* \"#utility.yul\":1202:1321   */\n    tag_488:\n        /* \"#utility.yul\":1360:1361   */\n      0x00\n        /* \"#utility.yul\":1385:1438   */\n      tag_490\n        /* \"#utility.yul\":1430:1437   */\n      dup5\n        /* \"#utility.yul\":1421:1427   */\n      dup3\n        /* \"#utility.yul\":1410:1419   */\n      dup6\n        /* \"#utility.yul\":1406:1428   */\n      add\n        /* \"#utility.yul\":1385:1438   */\n      tag_474\n      jump\t// in\n    tag_490:\n        /* \"#utility.yul\":1375:1438   */\n      swap2\n      pop\n        /* \"#utility.yul\":1331:1448   */\n      pop\n        /* \"#utility.yul\":1126:1455   */\n      swap3\n      swap2\n      pop\n      pop\n      jump\t// out\n        /* \"#utility.yul\":1461:2372   */\n    tag_103:\n        /* \"#utility.yul\":1556:1562   */\n      0x00\n        /* \"#utility.yul\":1564:1570   */\n      dup1\n        /* \"#utility.yul\":1572:1578   */\n      0x00\n        /* \"#utility.yul\":1580:1586   */\n      dup1\n        /* \"#utility.yul\":1588:1594   */\n      0x00\n        /* \"#utility.yul\":1637:1640   */\n      0xa0\n        /* \"#utility.yul\":1625:1634   */\n      dup7\n        /* \"#utility.yul\":1616:1623   */\n      dup9\n        /* \"#utility.yul\":1612:1635   */\n      sub\n        /* \"#utility.yul\":1608:1641   */\n      slt\n        /* \"#utility.yul\":1605:1725   */\n      iszero\n      tag_492\n      jumpi\n        /* \"#utility.yul\":1644:1723   */\n      tag_493\n      tag_481\n      jump\t// in\n    tag_493:\n        /* \"#utility.yul\":1605:1725   */\n    tag_492:\n        /* \"#utility.yul\":1764:1765   */\n      0x00\n        /* \"#utility.yul\":1789:1842   */\n      tag_494\n        /* \"#utility.yul\":1834:1841   */\n      dup9\n        /* \"#utility.yul\":1825:1831   */\n      dup3\n        /* \"#utility.yul\":1814:1823   */\n      dup10\n        /* \"#utility.yul\":1810:1832   */\n      add\n        /* \"#utility.yul\":1789:1842   */\n      tag_474\n      jump\t// in\n    tag_494:\n        /* \"#utility.yul\":1779:1842   */\n      swap6\n      pop\n        /* \"#utility.yul\":1735:1852   */\n      pop\n        /* \"#utility.yul\":1891:1893   */\n      0x20\n        /* \"#utility.yul\":1917:1970   */\n      tag_495\n        /* \"#utility.yul\":1962:1969   */\n      dup9\n        /* \"#utility.yul\":1953:1959   */\n      dup3\n        /* \"#utility.yul\":1942:1951   */\n      dup10\n        /* \"#utility.yul\":1938:1960   */\n      add\n        /* \"#utility.yul\":1917:1970   */\n      tag_474\n      jump\t// in\n    tag_495:\n        /* \"#utility.yul\":1907:1970   */\n      swap5\n      pop\n        /* \"#utility.yul\":1862:1980   */\n      pop\n        /* \"#utility.yul\":2019:2021   */\n      0x40\n        /* \"#utility.yul\":2045:2098   */\n      tag_496\n        /* \"#utility.yul\":2090:2097   */\n      dup9\n        /* \"#utility.yul\":2081:2087   */\n      dup3\n        /* \"#utility.yul\":2070:2079   */\n      dup10\n        /* \"#utility.yul\":2066:2088   */\n      add\n        /* \"#utility.yul\":2045:2098   */\n      tag_474\n      jump\t// in\n    tag_496:\n        /* \"#utility.yul\":2035:2098   */\n      swap4\n      pop\n        /* \"#utility.yul\":1990:2108   */\n      pop\n        /* \"#utility.yul\":2147:2149   */\n      0x60\n        /* \"#utility.yul\":2173:2226   */\n      tag_497\n        /* \"#utility.yul\":2218:2225   */\n      dup9\n        /* \"#utility.yul\":2209:2215   */\n      dup3\n        /* \"#utility.yul\":2198:2207   */\n      dup10\n        /* \"#utility.yul\":2194:2216   */\n      add\n        /* \"#utility.yul\":2173:2226   */\n      tag_474\n      jump\t// in\n    tag_497:\n        /* \"#utility.yul\":2163:2226   */\n      swap3\n      pop\n        /* \"#utility.yul\":2118:2236   */\n      pop\n        /* \"#utility.yul\":2275:2278   */\n      0x80\n        /* \"#utility.yul\":2302:2355   */\n      tag_498\n        /* \"#utility.yul\":2347:2354   */\n      dup9\n        /* \"#utility.yul\":2338:2344   */\n      dup3\n        /* \"#utility.yul\":2327:2336   */\n      dup10\n        /* \"#utility.yul\":2323:2345   */\n      add\n        /* \"#utility.yul\":2302:2355   */\n      tag_474\n      jump\t// in\n    tag_498:\n        /* \"#utility.yul\":2292:2355   */\n      swap2\n      pop\n        /* \"#utility.yul\":2246:2365   */\n      pop\n        /* \"#utility.yul\":1461:2372   */\n      swap3\n      swap6\n      pop\n      swap3\n      swap6\n      swap1\n      swap4\n      pop\n      jump\t// out\n        /* \"#utility.yul\":2378:3435   */\n    tag_45:\n        /* \"#utility.yul\":2482:2488   */\n      0x00\n        /* \"#utility.yul\":2490:2496   */\n      dup1\n        /* \"#utility.yul\":2498:2504   */\n      0x00\n        /* \"#utility.yul\":2506:2512   */\n      dup1\n        /* \"#utility.yul\":2514:2520   */\n      0x00\n        /* \"#utility.yul\":2522:2528   */\n      dup1\n        /* \"#utility.yul\":2571:2574   */\n      0xc0\n        /* \"#utility.yul\":2559:2568   */\n      dup8\n        /* \"#utility.yul\":2550:2557   */\n      dup10\n        /* \"#utility.yul\":2546:2569   */\n      sub\n        /* \"#utility.yul\":2542:2575   */\n      slt\n        /* \"#utility.yul\":2539:2659   */\n      iszero\n      tag_500\n      jumpi\n        /* \"#utility.yul\":2578:2657   */\n      tag_501\n      tag_481\n      jump\t// in\n    tag_501:\n        /* \"#utility.yul\":2539:2659   */\n    tag_500:\n        /* \"#utility.yul\":2698:2699   */\n      0x00\n        /* \"#utility.yul\":2723:2776   */\n      tag_502\n        /* \"#utility.yul\":2768:2775   */\n      dup10\n        /* \"#utility.yul\":2759:2765   */\n      dup3\n        /* \"#utility.yul\":2748:2757   */\n      dup11\n        /* \"#utility.yul\":2744:2766   */\n      add\n        /* \"#utility.yul\":2723:2776   */\n      tag_474\n      jump\t// in\n    tag_502:\n        /* \"#utility.yul\":2713:2776   */\n      swap7\n      pop\n        /* \"#utility.yul\":2669:2786   */\n      pop\n        /* \"#utility.yul\":2825:2827   */\n      0x20\n        /* \"#utility.yul\":2851:2904   */\n      tag_503\n        /* \"#utility.yul\":2896:2903   */\n      dup10\n        /* \"#utility.yul\":2887:2893   */\n      dup3\n        /* \"#utility.yul\":2876:2885   */\n      dup11\n        /* \"#utility.yul\":2872:2894   */\n      add\n        /* \"#utility.yul\":2851:2904   */\n      tag_474\n      jump\t// in\n    tag_503:\n        /* \"#utility.yul\":2841:2904   */\n      swap6\n      pop\n        /* \"#utility.yul\":2796:2914   */\n      pop\n        /* \"#utility.yul\":2953:2955   */\n      0x40\n        /* \"#utility.yul\":2979:3032   */\n      tag_504\n        /* \"#utility.yul\":3024:3031   */\n      dup10\n        /* \"#utility.yul\":3015:3021   */\n      dup3\n        /* \"#utility.yul\":3004:3013   */\n      dup11\n        /* \"#utility.yul\":3000:3022   */\n      add\n        /* \"#utility.yul\":2979:3032   */\n      tag_474\n      jump\t// in\n    tag_504:\n        /* \"#utility.yul\":2969:3032   */\n      swap5\n      pop\n        /* \"#utility.yul\":2924:3042   */\n      pop\n        /* \"#utility.yul\":3081:3083   */\n      0x60\n        /* \"#utility.yul\":3107:3160   */\n      tag_505\n        /* \"#utility.yul\":3152:3159   */\n      dup10\n        /* \"#utility.yul\":3143:3149   */\n      dup3\n        /* \"#utility.yul\":3132:3141   */\n      dup11\n        /* \"#utility.yul\":3128:3150   */\n      add\n        /* \"#utility.yul\":3107:3160   */\n      tag_474\n      jump\t// in\n    tag_505:\n        /* \"#utility.yul\":3097:3160   */\n      swap4\n      pop\n        /* \"#utility.yul\":3052:3170   */\n      pop\n        /* \"#utility.yul\":3209:3212   */\n      0x80\n        /* \"#utility.yul\":3236:3289   */\n      tag_506\n        /* \"#utility.yul\":3281:3288   */\n      dup10\n        /* \"#utility.yul\":3272:3278   */\n      dup3\n        /* \"#utility.yul\":3261:3270   */\n      dup11\n        /* \"#utility.yul\":3257:3279   */\n      add\n        /* \"#utility.yul\":3236:3289   */\n      tag_474\n      jump\t// in\n    tag_506:\n        /* \"#utility.yul\":3226:3289   */\n      swap3\n      pop\n        /* \"#utility.yul\":3180:3299   */\n      pop\n        /* \"#utility.yul\":3338:3341   */\n      0xa0\n        /* \"#utility.yul\":3365:3418   */\n      tag_507\n        /* \"#utility.yul\":3410:3417   */\n      dup10\n        /* \"#utility.yul\":3401:3407   */\n      dup3\n        /* \"#utility.yul\":3390:3399   */\n      dup11\n        /* \"#utility.yul\":3386:3408   */\n      add\n        /* \"#utility.yul\":3365:3418   */\n      tag_474\n      jump\t// in\n    tag_507:\n        /* \"#utility.yul\":3355:3418   */\n      swap2\n      pop\n        /* \"#utility.yul\":3309:3428   */\n      pop\n        /* \"#utility.yul\":2378:3435   */\n      swap3\n      swap6\n      pop\n      swap3\n      swap6\n      pop\n      swap3\n      swap6\n      jump\t// out\n        /* \"#utility.yul\":3441:3712   */\n    tag_508:\n        /* \"#utility.yul\":3556:3566   */\n      0x00\n        /* \"#utility.yul\":3577:3669   */\n      tag_510\n        /* \"#utility.yul\":3665:3668   */\n      dup4\n        /* \"#utility.yul\":3657:3663   */\n      dup4\n        /* \"#utility.yul\":3577:3669   */\n      tag_511\n      jump\t// in\n    tag_510:\n        /* \"#utility.yul\":3701:3705   */\n      0xa0\n        /* \"#utility.yul\":3696:3699   */\n      dup4\n        /* \"#utility.yul\":3692:3706   */\n      add\n        /* \"#utility.yul\":3678:3706   */\n      swap1\n      pop\n        /* \"#utility.yul\":3441:3712   */\n      swap3\n      swap2\n      pop\n      pop\n      jump\t// out\n        /* \"#utility.yul\":3718:3989   */\n    tag_512:\n        /* \"#utility.yul\":3833:3843   */\n      0x00\n        /* \"#utility.yul\":3854:3946   */\n      tag_514\n        /* \"#utility.yul\":3942:3945   */\n      dup4\n        /* \"#utility.yul\":3934:3940   */\n      dup4\n        /* \"#utility.yul\":3854:3946   */\n      tag_515\n      jump\t// in\n    tag_514:\n        /* \"#utility.yul\":3978:3982   */\n      0x40\n        /* \"#utility.yul\":3973:3976   */\n      dup4\n        /* \"#utility.yul\":3969:3983   */\n      add\n        /* \"#utility.yul\":3955:3983   */\n      swap1\n      pop\n        /* \"#utility.yul\":3718:3989   */\n      swap3\n      swap2\n      pop\n      pop\n      jump\t// out\n        /* \"#utility.yul\":3995:4113   */\n    tag_516:\n        /* \"#utility.yul\":4082:4106   */\n      tag_518\n        /* \"#utility.yul\":4100:4105   */\n      dup2\n        /* \"#utility.yul\":4082:4106   */\n      tag_519\n      jump\t// in\n    tag_518:\n        /* \"#utility.yul\":4077:4080   */\n      dup3\n        /* \"#utility.yul\":4070:4107   */\n      mstore\n        /* \"#utility.yul\":3995:4113   */\n      pop\n      pop\n      jump\t// out\n        /* \"#utility.yul\":4169:5085   */\n    tag_520:\n        /* \"#utility.yul\":4334:4337   */\n      0x00\n        /* \"#utility.yul\":4363:4440   */\n      tag_522\n        /* \"#utility.yul\":4434:4439   */\n      dup3\n        /* \"#utility.yul\":4363:4440   */\n      tag_523\n      jump\t// in\n    tag_522:\n        /* \"#utility.yul\":4456:4565   */\n      tag_524\n        /* \"#utility.yul\":4558:4564   */\n      dup2\n        /* \"#utility.yul\":4553:4556   */\n      dup6\n        /* \"#utility.yul\":4456:4565   */\n      tag_525\n      jump\t// in\n    tag_524:\n        /* \"#utility.yul\":4449:4565   */\n      swap4\n      pop\n        /* \"#utility.yul\":4589:4668   */\n      tag_526\n        /* \"#utility.yul\":4662:4667   */\n      dup4\n        /* \"#utility.yul\":4589:4668   */\n      tag_527\n      jump\t// in\n    tag_526:\n        /* \"#utility.yul\":4691:4698   */\n      dup1\n        /* \"#utility.yul\":4722:4723   */\n      0x00\n        /* \"#utility.yul\":4707:5060   */\n    tag_528:\n        /* \"#utility.yul\":4732:4738   */\n      dup4\n        /* \"#utility.yul\":4729:4730   */\n      dup2\n        /* \"#utility.yul\":4726:4739   */\n      lt\n        /* \"#utility.yul\":4707:5060   */\n      iszero\n      tag_530\n      jumpi\n        /* \"#utility.yul\":4808:4814   */\n      dup2\n        /* \"#utility.yul\":4802:4815   */\n      mload\n        /* \"#utility.yul\":4835:4944   */\n      tag_531\n        /* \"#utility.yul\":4940:4943   */\n      dup9\n        /* \"#utility.yul\":4925:4938   */\n      dup3\n        /* \"#utility.yul\":4835:4944   */\n      tag_508\n      jump\t// in\n    tag_531:\n        /* \"#utility.yul\":4828:4944   */\n      swap8\n      pop\n        /* \"#utility.yul\":4967:5050   */\n      tag_532\n        /* \"#utility.yul\":5043:5049   */\n      dup4\n        /* \"#utility.yul\":4967:5050   */\n      tag_533\n      jump\t// in\n    tag_532:\n        /* \"#utility.yul\":4957:5050   */\n      swap3\n      pop\n        /* \"#utility.yul\":4767:5060   */\n      pop\n        /* \"#utility.yul\":4754:4755   */\n      0x01\n        /* \"#utility.yul\":4751:4752   */\n      dup2\n        /* \"#utility.yul\":4747:4756   */\n      add\n        /* \"#utility.yul\":4742:4756   */\n      swap1\n      pop\n        /* \"#utility.yul\":4707:5060   */\n      jump(tag_528)\n    tag_530:\n        /* \"#utility.yul\":4711:4725   */\n      pop\n        /* \"#utility.yul\":5076:5079   */\n      dup6\n        /* \"#utility.yul\":5069:5079   */\n      swap4\n      pop\n        /* \"#utility.yul\":4339:5085   */\n      pop\n      pop\n      pop\n        /* \"#utility.yul\":4169:5085   */\n      swap3\n      swap2\n      pop\n      pop\n      jump\t// out\n        /* \"#utility.yul\":5153:6069   */\n    tag_534:\n        /* \"#utility.yul\":5318:5321   */\n      0x00\n        /* \"#utility.yul\":5347:5424   */\n      tag_536\n        /* \"#utility.yul\":5418:5423   */\n      dup3\n        /* \"#utility.yul\":5347:5424   */\n      tag_537\n      jump\t// in\n    tag_536:\n        /* \"#utility.yul\":5440:5549   */\n      tag_538\n        /* \"#utility.yul\":5542:5548   */\n      dup2\n        /* \"#utility.yul\":5537:5540   */\n      dup6\n        /* \"#utility.yul\":5440:5549   */\n      tag_539\n      jump\t// in\n    tag_538:\n        /* \"#utility.yul\":5433:5549   */\n      swap4\n      pop\n        /* \"#utility.yul\":5573:5652   */\n      tag_540\n        /* \"#utility.yul\":5646:5651   */\n      dup4\n        /* \"#utility.yul\":5573:5652   */\n      tag_541\n      jump\t// in\n    tag_540:\n        /* \"#utility.yul\":5675:5682   */\n      dup1\n        /* \"#utility.yul\":5706:5707   */\n      0x00\n        /* \"#utility.yul\":5691:6044   */\n    tag_542:\n        /* \"#utility.yul\":5716:5722   */\n      dup4\n        /* \"#utility.yul\":5713:5714   */\n      dup2\n        /* \"#utility.yul\":5710:5723   */\n      lt\n        /* \"#utility.yul\":5691:6044   */\n      iszero\n      tag_544\n      jumpi\n        /* \"#utility.yul\":5792:5798   */\n      dup2\n        /* \"#utility.yul\":5786:5799   */\n      mload\n        /* \"#utility.yul\":5819:5928   */\n      tag_545\n        /* \"#utility.yul\":5924:5927   */\n      dup9\n        /* \"#utility.yul\":5909:5922   */\n      dup3\n        /* \"#utility.yul\":5819:5928   */\n      tag_512\n      jump\t// in\n    tag_545:\n        /* \"#utility.yul\":5812:5928   */\n      swap8\n      pop\n        /* \"#utility.yul\":5951:6034   */\n      tag_546\n        /* \"#utility.yul\":6027:6033   */\n      dup4\n        /* \"#utility.yul\":5951:6034   */\n      tag_547\n      jump\t// in\n    tag_546:\n        /* \"#utility.yul\":5941:6034   */\n      swap3\n      pop\n        /* \"#utility.yul\":5751:6044   */\n      pop\n        /* \"#utility.yul\":5738:5739   */\n      0x01\n        /* \"#utility.yul\":5735:5736   */\n      dup2\n        /* \"#utility.yul\":5731:5740   */\n      add\n        /* \"#utility.yul\":5726:5740   */\n      swap1\n      pop\n        /* \"#utility.yul\":5691:6044   */\n      jump(tag_542)\n    tag_544:\n        /* \"#utility.yul\":5695:5709   */\n      pop\n        /* \"#utility.yul\":6060:6063   */\n      dup6\n        /* \"#utility.yul\":6053:6063   */\n      swap4\n      pop\n        /* \"#utility.yul\":5323:6069   */\n      pop\n      pop\n      pop\n        /* \"#utility.yul\":5153:6069   */\n      swap3\n      swap2\n      pop\n      pop\n      jump\t// out\n        /* \"#utility.yul\":6075:6184   */\n    tag_548:\n        /* \"#utility.yul\":6156:6177   */\n      tag_550\n        /* \"#utility.yul\":6171:6176   */\n      dup2\n        /* \"#utility.yul\":6156:6177   */\n      tag_551\n      jump\t// in\n    tag_550:\n        /* \"#utility.yul\":6151:6154   */\n      dup3\n        /* \"#utility.yul\":6144:6178   */\n      mstore\n        /* \"#utility.yul\":6075:6184   */\n      pop\n      pop\n      jump\t// out\n        /* \"#utility.yul\":6190:6349   */\n    tag_552:\n        /* \"#utility.yul\":6291:6342   */\n      tag_554\n        /* \"#utility.yul\":6336:6341   */\n      dup2\n        /* \"#utility.yul\":6291:6342   */\n      tag_555\n      jump\t// in\n    tag_554:\n        /* \"#utility.yul\":6286:6289   */\n      dup3\n        /* \"#utility.yul\":6279:6343   */\n      mstore\n        /* \"#utility.yul\":6190:6349   */\n      pop\n      pop\n      jump\t// out\n        /* \"#utility.yul\":6355:6721   */\n    tag_556:\n        /* \"#utility.yul\":6497:6500   */\n      0x00\n        /* \"#utility.yul\":6518:6585   */\n      tag_558\n        /* \"#utility.yul\":6582:6584   */\n      0x14\n        /* \"#utility.yul\":6577:6580   */\n      dup4\n        /* \"#utility.yul\":6518:6585   */\n      tag_559\n      jump\t// in\n    tag_558:\n        /* \"#utility.yul\":6511:6585   */\n      swap2\n      pop\n        /* \"#utility.yul\":6594:6687   */\n      tag_560\n        /* \"#utility.yul\":6683:6686   */\n      dup3\n        /* \"#utility.yul\":6594:6687   */\n      tag_561\n      jump\t// in\n    tag_560:\n        /* \"#utility.yul\":6712:6714   */\n      0x20\n        /* \"#utility.yul\":6707:6710   */\n      dup3\n        /* \"#utility.yul\":6703:6715   */\n      add\n        /* \"#utility.yul\":6696:6715   */\n      swap1\n      pop\n        /* \"#utility.yul\":6355:6721   */\n      swap2\n      swap1\n      pop\n      jump\t// out\n        /* \"#utility.yul\":6727:7093   */\n    tag_562:\n        /* \"#utility.yul\":6869:6872   */\n      0x00\n        /* \"#utility.yul\":6890:6957   */\n      tag_564\n        /* \"#utility.yul\":6954:6956   */\n      0x26\n        /* \"#utility.yul\":6949:6952   */\n      dup4\n        /* \"#utility.yul\":6890:6957   */\n      tag_559\n      jump\t// in\n    tag_564:\n        /* \"#utility.yul\":6883:6957   */\n      swap2\n      pop\n        /* \"#utility.yul\":6966:7059   */\n      tag_565\n        /* \"#utility.yul\":7055:7058   */\n      dup3\n        /* \"#utility.yul\":6966:7059   */\n      tag_566\n      jump\t// in\n    tag_565:\n        /* \"#utility.yul\":7084:7086   */\n      0x40\n        /* \"#utility.yul\":7079:7082   */\n      dup3\n        /* \"#utility.yul\":7075:7087   */\n      add\n        /* \"#utility.yul\":7068:7087   */\n      swap1\n      pop\n        /* \"#utility.yul\":6727:7093   */\n      swap2\n      swap1\n      pop\n      jump\t// out\n        /* \"#utility.yul\":7099:7465   */\n    tag_567:\n        /* \"#utility.yul\":7241:7244   */\n      0x00\n        /* \"#utility.yul\":7262:7329   */\n      tag_569\n        /* \"#utility.yul\":7326:7328   */\n      0x10\n        /* \"#utility.yul\":7321:7324   */\n      dup4\n        /* \"#utility.yul\":7262:7329   */\n      tag_559\n      jump\t// in\n    tag_569:\n        /* \"#utility.yul\":7255:7329   */\n      swap2\n      pop\n        /* \"#utility.yul\":7338:7431   */\n      tag_570\n        /* \"#utility.yul\":7427:7430   */\n      dup3\n        /* \"#utility.yul\":7338:7431   */\n      tag_571\n      jump\t// in\n    tag_570:\n        /* \"#utility.yul\":7456:7458   */\n      0x20\n        /* \"#utility.yul\":7451:7454   */\n      dup3\n        /* \"#utility.yul\":7447:7459   */\n      add\n        /* \"#utility.yul\":7440:7459   */\n      swap1\n      pop\n        /* \"#utility.yul\":7099:7465   */\n      swap2\n      swap1\n      pop\n      jump\t// out\n        /* \"#utility.yul\":7471:7837   */\n    tag_572:\n        /* \"#utility.yul\":7613:7616   */\n      0x00\n        /* \"#utility.yul\":7634:7701   */\n      tag_574\n        /* \"#utility.yul\":7698:7700   */\n      0x20\n        /* \"#utility.yul\":7693:7696   */\n      dup4\n        /* \"#utility.yul\":7634:7701   */\n      tag_559\n      jump\t// in\n    tag_574:\n        /* \"#utility.yul\":7627:7701   */\n      swap2\n      pop\n        /* \"#utility.yul\":7710:7803   */\n      tag_575\n        /* \"#utility.yul\":7799:7802   */\n      dup3\n        /* \"#utility.yul\":7710:7803   */\n      tag_576\n      jump\t// in\n    tag_575:\n        /* \"#utility.yul\":7828:7830   */\n      0x20\n        /* \"#utility.yul\":7823:7826   */\n      dup3\n        /* \"#utility.yul\":7819:7831   */\n      add\n        /* \"#utility.yul\":7812:7831   */\n      swap1\n      pop\n        /* \"#utility.yul\":7471:7837   */\n      swap2\n      swap1\n      pop\n      jump\t// out\n        /* \"#utility.yul\":7843:8209   */\n    tag_577:\n        /* \"#utility.yul\":7985:7988   */\n      0x00\n        /* \"#utility.yul\":8006:8073   */\n      tag_579\n        /* \"#utility.yul\":8070:8072   */\n      0x1e\n        /* \"#utility.yul\":8065:8068   */\n      dup4\n        /* \"#utility.yul\":8006:8073   */\n      tag_559\n      jump\t// in\n    tag_579:\n        /* \"#utility.yul\":7999:8073   */\n      swap2\n      pop\n        /* \"#utility.yul\":8082:8175   */\n      tag_580\n        /* \"#utility.yul\":8171:8174   */\n      dup3\n        /* \"#utility.yul\":8082:8175   */\n      tag_581\n      jump\t// in\n    tag_580:\n        /* \"#utility.yul\":8200:8202   */\n      0x20\n        /* \"#utility.yul\":8195:8198   */\n      dup3\n        /* \"#utility.yul\":8191:8203   */\n      add\n        /* \"#utility.yul\":8184:8203   */\n      swap1\n      pop\n        /* \"#utility.yul\":7843:8209   */\n      swap2\n      swap1\n      pop\n      jump\t// out\n        /* \"#utility.yul\":8215:8581   */\n    tag_582:\n        /* \"#utility.yul\":8357:8360   */\n      0x00\n        /* \"#utility.yul\":8378:8445   */\n      tag_584\n        /* \"#utility.yul\":8442:8444   */\n      0x39\n        /* \"#utility.yul\":8437:8440   */\n      dup4\n        /* \"#utility.yul\":8378:8445   */\n      tag_559\n      jump\t// in\n    tag_584:\n        /* \"#utility.yul\":8371:8445   */\n      swap2\n      pop\n        /* \"#utility.yul\":8454:8547   */\n      tag_585\n        /* \"#utility.yul\":8543:8546   */\n      dup3\n        /* \"#utility.yul\":8454:8547   */\n      tag_586\n      jump\t// in\n    tag_585:\n        /* \"#utility.yul\":8572:8574   */\n      0x40\n        /* \"#utility.yul\":8567:8570   */\n      dup3\n        /* \"#utility.yul\":8563:8575   */\n      add\n        /* \"#utility.yul\":8556:8575   */\n      swap1\n      pop\n        /* \"#utility.yul\":8215:8581   */\n      swap2\n      swap1\n      pop\n      jump\t// out\n        /* \"#utility.yul\":8633:9670   */\n    tag_511:\n        /* \"#utility.yul\":8766:8770   */\n      0xa0\n        /* \"#utility.yul\":8761:8764   */\n      dup3\n        /* \"#utility.yul\":8757:8771   */\n      add\n        /* \"#utility.yul\":8858:8862   */\n      0x00\n        /* \"#utility.yul\":8851:8856   */\n      dup3\n        /* \"#utility.yul\":8847:8863   */\n      add\n        /* \"#utility.yul\":8841:8864   */\n      mload\n        /* \"#utility.yul\":8877:8940   */\n      tag_588\n        /* \"#utility.yul\":8934:8938   */\n      0x00\n        /* \"#utility.yul\":8929:8932   */\n      dup6\n        /* \"#utility.yul\":8925:8939   */\n      add\n        /* \"#utility.yul\":8911:8923   */\n      dup3\n        /* \"#utility.yul\":8877:8940   */\n      tag_589\n      jump\t// in\n    tag_588:\n        /* \"#utility.yul\":8781:8950   */\n      pop\n        /* \"#utility.yul\":9035:9039   */\n      0x20\n        /* \"#utility.yul\":9028:9033   */\n      dup3\n        /* \"#utility.yul\":9024:9040   */\n      add\n        /* \"#utility.yul\":9018:9041   */\n      mload\n        /* \"#utility.yul\":9054:9117   */\n      tag_590\n        /* \"#utility.yul\":9111:9115   */\n      0x20\n        /* \"#utility.yul\":9106:9109   */\n      dup6\n        /* \"#utility.yul\":9102:9116   */\n      add\n        /* \"#utility.yul\":9088:9100   */\n      dup3\n        /* \"#utility.yul\":9054:9117   */\n      tag_589\n      jump\t// in\n    tag_590:\n        /* \"#utility.yul\":8960:9127   */\n      pop\n        /* \"#utility.yul\":9212:9216   */\n      0x40\n        /* \"#utility.yul\":9205:9210   */\n      dup3\n        /* \"#utility.yul\":9201:9217   */\n      add\n        /* \"#utility.yul\":9195:9218   */\n      mload\n        /* \"#utility.yul\":9231:9294   */\n      tag_591\n        /* \"#utility.yul\":9288:9292   */\n      0x40\n        /* \"#utility.yul\":9283:9286   */\n      dup6\n        /* \"#utility.yul\":9279:9293   */\n      add\n        /* \"#utility.yul\":9265:9277   */\n      dup3\n        /* \"#utility.yul\":9231:9294   */\n      tag_589\n      jump\t// in\n    tag_591:\n        /* \"#utility.yul\":9137:9304   */\n      pop\n        /* \"#utility.yul\":9387:9391   */\n      0x60\n        /* \"#utility.yul\":9380:9385   */\n      dup3\n        /* \"#utility.yul\":9376:9392   */\n      add\n        /* \"#utility.yul\":9370:9393   */\n      mload\n        /* \"#utility.yul\":9406:9469   */\n      tag_592\n        /* \"#utility.yul\":9463:9467   */\n      0x60\n        /* \"#utility.yul\":9458:9461   */\n      dup6\n        /* \"#utility.yul\":9454:9468   */\n      add\n        /* \"#utility.yul\":9440:9452   */\n      dup3\n        /* \"#utility.yul\":9406:9469   */\n      tag_589\n      jump\t// in\n    tag_592:\n        /* \"#utility.yul\":9314:9479   */\n      pop\n        /* \"#utility.yul\":9571:9575   */\n      0x80\n        /* \"#utility.yul\":9564:9569   */\n      dup3\n        /* \"#utility.yul\":9560:9576   */\n      add\n        /* \"#utility.yul\":9554:9577   */\n      mload\n        /* \"#utility.yul\":9590:9653   */\n      tag_593\n        /* \"#utility.yul\":9647:9651   */\n      0x80\n        /* \"#utility.yul\":9642:9645   */\n      dup6\n        /* \"#utility.yul\":9638:9652   */\n      add\n        /* \"#utility.yul\":9624:9636   */\n      dup3\n        /* \"#utility.yul\":9590:9653   */\n      tag_589\n      jump\t// in\n    tag_593:\n        /* \"#utility.yul\":9489:9663   */\n      pop\n        /* \"#utility.yul\":8735:9670   */\n      pop\n        /* \"#utility.yul\":8633:9670   */\n      pop\n      pop\n      jump\t// out\n        /* \"#utility.yul\":9734:10233   */\n    tag_515:\n        /* \"#utility.yul\":9867:9871   */\n      0x40\n        /* \"#utility.yul\":9862:9865   */\n      dup3\n        /* \"#utility.yul\":9858:9872   */\n      add\n        /* \"#utility.yul\":9959:9963   */\n      0x00\n        /* \"#utility.yul\":9952:9957   */\n      dup3\n        /* \"#utility.yul\":9948:9964   */\n      add\n        /* \"#utility.yul\":9942:9965   */\n      mload\n        /* \"#utility.yul\":9978:10041   */\n      tag_595\n        /* \"#utility.yul\":10035:10039   */\n      0x00\n        /* \"#utility.yul\":10030:10033   */\n      dup6\n        /* \"#utility.yul\":10026:10040   */\n      add\n        /* \"#utility.yul\":10012:10024   */\n      dup3\n        /* \"#utility.yul\":9978:10041   */\n      tag_589\n      jump\t// in\n    tag_595:\n        /* \"#utility.yul\":9882:10051   */\n      pop\n        /* \"#utility.yul\":10134:10138   */\n      0x20\n        /* \"#utility.yul\":10127:10132   */\n      dup3\n        /* \"#utility.yul\":10123:10139   */\n      add\n        /* \"#utility.yul\":10117:10140   */\n      mload\n        /* \"#utility.yul\":10153:10216   */\n      tag_596\n        /* \"#utility.yul\":10210:10214   */\n      0x20\n        /* \"#utility.yul\":10205:10208   */\n      dup6\n        /* \"#utility.yul\":10201:10215   */\n      add\n        /* \"#utility.yul\":10187:10199   */\n      dup3\n        /* \"#utility.yul\":10153:10216   */\n      tag_589\n      jump\t// in\n    tag_596:\n        /* \"#utility.yul\":10061:10226   */\n      pop\n        /* \"#utility.yul\":9836:10233   */\n      pop\n        /* \"#utility.yul\":9734:10233   */\n      pop\n      pop\n      jump\t// out\n        /* \"#utility.yul\":10239:10347   */\n    tag_589:\n        /* \"#utility.yul\":10316:10340   */\n      tag_598\n        /* \"#utility.yul\":10334:10339   */\n      dup2\n        /* \"#utility.yul\":10316:10340   */\n      tag_599\n      jump\t// in\n    tag_598:\n        /* \"#utility.yul\":10311:10314   */\n      dup3\n        /* \"#utility.yul\":10304:10341   */\n      mstore\n        /* \"#utility.yul\":10239:10347   */\n      pop\n      pop\n      jump\t// out\n        /* \"#utility.yul\":10353:10471   */\n    tag_600:\n        /* \"#utility.yul\":10440:10464   */\n      tag_602\n        /* \"#utility.yul\":10458:10463   */\n      dup2\n        /* \"#utility.yul\":10440:10464   */\n      tag_599\n      jump\t// in\n    tag_602:\n        /* \"#utility.yul\":10435:10438   */\n      dup3\n        /* \"#utility.yul\":10428:10465   */\n      mstore\n        /* \"#utility.yul\":10353:10471   */\n      pop\n      pop\n      jump\t// out\n        /* \"#utility.yul\":10477:10699   */\n    tag_79:\n        /* \"#utility.yul\":10570:10574   */\n      0x00\n        /* \"#utility.yul\":10608:10610   */\n      0x20\n        /* \"#utility.yul\":10597:10606   */\n      dup3\n        /* \"#utility.yul\":10593:10611   */\n      add\n        /* \"#utility.yul\":10585:10611   */\n      swap1\n      pop\n        /* \"#utility.yul\":10621:10692   */\n      tag_604\n        /* \"#utility.yul\":10689:10690   */\n      0x00\n        /* \"#utility.yul\":10678:10687   */\n      dup4\n        /* \"#utility.yul\":10674:10691   */\n      add\n        /* \"#utility.yul\":10665:10671   */\n      dup5\n        /* \"#utility.yul\":10621:10692   */\n      tag_516\n      jump\t// in\n    tag_604:\n        /* \"#utility.yul\":10477:10699   */\n      swap3\n      swap2\n      pop\n      pop\n      jump\t// out\n        /* \"#utility.yul\":10705:11147   */\n    tag_248:\n        /* \"#utility.yul\":10854:10858   */\n      0x00\n        /* \"#utility.yul\":10892:10894   */\n      0x60\n        /* \"#utility.yul\":10881:10890   */\n      dup3\n        /* \"#utility.yul\":10877:10895   */\n      add\n        /* \"#utility.yul\":10869:10895   */\n      swap1\n      pop\n        /* \"#utility.yul\":10905:10976   */\n      tag_606\n        /* \"#utility.yul\":10973:10974   */\n      0x00\n        /* \"#utility.yul\":10962:10971   */\n      dup4\n        /* \"#utility.yul\":10958:10975   */\n      add\n        /* \"#utility.yul\":10949:10955   */\n      dup7\n        /* \"#utility.yul\":10905:10976   */\n      tag_516\n      jump\t// in\n    tag_606:\n        /* \"#utility.yul\":10986:11058   */\n      tag_607\n        /* \"#utility.yul\":11054:11056   */\n      0x20\n        /* \"#utility.yul\":11043:11052   */\n      dup4\n        /* \"#utility.yul\":11039:11057   */\n      add\n        /* \"#utility.yul\":11030:11036   */\n      dup6\n        /* \"#utility.yul\":10986:11058   */\n      tag_516\n      jump\t// in\n    tag_607:\n        /* \"#utility.yul\":11068:11140   */\n      tag_608\n        /* \"#utility.yul\":11136:11138   */\n      0x40\n        /* \"#utility.yul\":11125:11134   */\n      dup4\n        /* \"#utility.yul\":11121:11139   */\n      add\n        /* \"#utility.yul\":11112:11118   */\n      dup5\n        /* \"#utility.yul\":11068:11140   */\n      tag_600\n      jump\t// in\n    tag_608:\n        /* \"#utility.yul\":10705:11147   */\n      swap5\n      swap4\n      pop\n      pop\n      pop\n      pop\n      jump\t// out\n        /* \"#utility.yul\":11153:11618   */\n    tag_145:\n        /* \"#utility.yul\":11342:11346   */\n      0x00\n        /* \"#utility.yul\":11380:11382   */\n      0x20\n        /* \"#utility.yul\":11369:11378   */\n      dup3\n        /* \"#utility.yul\":11365:11383   */\n      add\n        /* \"#utility.yul\":11357:11383   */\n      swap1\n      pop\n        /* \"#utility.yul\":11429:11438   */\n      dup2\n        /* \"#utility.yul\":11423:11427   */\n      dup2\n        /* \"#utility.yul\":11419:11439   */\n      sub\n        /* \"#utility.yul\":11415:11416   */\n      0x00\n        /* \"#utility.yul\":11404:11413   */\n      dup4\n        /* \"#utility.yul\":11400:11417   */\n      add\n        /* \"#utility.yul\":11393:11440   */\n      mstore\n        /* \"#utility.yul\":11457:11611   */\n      tag_610\n        /* \"#utility.yul\":11606:11610   */\n      dup2\n        /* \"#utility.yul\":11597:11603   */\n      dup5\n        /* \"#utility.yul\":11457:11611   */\n      tag_520\n      jump\t// in\n    tag_610:\n        /* \"#utility.yul\":11449:11611   */\n      swap1\n      pop\n        /* \"#utility.yul\":11153:11618   */\n      swap3\n      swap2\n      pop\n      pop\n      jump\t// out\n        /* \"#utility.yul\":11624:12089   */\n    tag_84:\n        /* \"#utility.yul\":11813:11817   */\n      0x00\n        /* \"#utility.yul\":11851:11853   */\n      0x20\n        /* \"#utility.yul\":11840:11849   */\n      dup3\n        /* \"#utility.yul\":11836:11854   */\n      add\n        /* \"#utility.yul\":11828:11854   */\n      swap1\n      pop\n        /* \"#utility.yul\":11900:11909   */\n      dup2\n        /* \"#utility.yul\":11894:11898   */\n      dup2\n        /* \"#utility.yul\":11890:11910   */\n      sub\n        /* \"#utility.yul\":11886:11887   */\n      0x00\n        /* \"#utility.yul\":11875:11884   */\n      dup4\n        /* \"#utility.yul\":11871:11888   */\n      add\n        /* \"#utility.yul\":11864:11911   */\n      mstore\n        /* \"#utility.yul\":11928:12082   */\n      tag_612\n        /* \"#utility.yul\":12077:12081   */\n      dup2\n        /* \"#utility.yul\":12068:12074   */\n      dup5\n        /* \"#utility.yul\":11928:12082   */\n      tag_534\n      jump\t// in\n    tag_612:\n        /* \"#utility.yul\":11920:12082   */\n      swap1\n      pop\n        /* \"#utility.yul\":11624:12089   */\n      swap3\n      swap2\n      pop\n      pop\n      jump\t// out\n        /* \"#utility.yul\":12095:12305   */\n    tag_92:\n        /* \"#utility.yul\":12182:12186   */\n      0x00\n        /* \"#utility.yul\":12220:12222   */\n      0x20\n        /* \"#utility.yul\":12209:12218   */\n      dup3\n        /* \"#utility.yul\":12205:12223   */\n      add\n        /* \"#utility.yul\":12197:12223   */\n      swap1\n      pop\n        /* \"#utility.yul\":12233:12298   */\n      tag_614\n        /* \"#utility.yul\":12295:12296   */\n      0x00\n        /* \"#utility.yul\":12284:12293   */\n      dup4\n        /* \"#utility.yul\":12280:12297   */\n      add\n        /* \"#utility.yul\":12271:12277   */\n      dup5\n        /* \"#utility.yul\":12233:12298   */\n      tag_548\n      jump\t// in\n    tag_614:\n        /* \"#utility.yul\":12095:12305   */\n      swap3\n      swap2\n      pop\n      pop\n      jump\t// out\n        /* \"#utility.yul\":12311:12561   */\n    tag_138:\n        /* \"#utility.yul\":12418:12422   */\n      0x00\n        /* \"#utility.yul\":12456:12458   */\n      0x20\n        /* \"#utility.yul\":12445:12454   */\n      dup3\n        /* \"#utility.yul\":12441:12459   */\n      add\n        /* \"#utility.yul\":12433:12459   */\n      swap1\n      pop\n        /* \"#utility.yul\":12469:12554   */\n      tag_616\n        /* \"#utility.yul\":12551:12552   */\n      0x00\n        /* \"#utility.yul\":12540:12549   */\n      dup4\n        /* \"#utility.yul\":12536:12553   */\n      add\n        /* \"#utility.yul\":12527:12533   */\n      dup5\n        /* \"#utility.yul\":12469:12554   */\n      tag_552\n      jump\t// in\n    tag_616:\n        /* \"#utility.yul\":12311:12561   */\n      swap3\n      swap2\n      pop\n      pop\n      jump\t// out\n        /* \"#utility.yul\":12567:12986   */\n    tag_464:\n        /* \"#utility.yul\":12733:12737   */\n      0x00\n        /* \"#utility.yul\":12771:12773   */\n      0x20\n        /* \"#utility.yul\":12760:12769   */\n      dup3\n        /* \"#utility.yul\":12756:12774   */\n      add\n        /* \"#utility.yul\":12748:12774   */\n      swap1\n      pop\n        /* \"#utility.yul\":12820:12829   */\n      dup2\n        /* \"#utility.yul\":12814:12818   */\n      dup2\n        /* \"#utility.yul\":12810:12830   */\n      sub\n        /* \"#utility.yul\":12806:12807   */\n      0x00\n        /* \"#utility.yul\":12795:12804   */\n      dup4\n        /* \"#utility.yul\":12791:12808   */\n      add\n        /* \"#utility.yul\":12784:12831   */\n      mstore\n        /* \"#utility.yul\":12848:12979   */\n      tag_618\n        /* \"#utility.yul\":12974:12978   */\n      dup2\n        /* \"#utility.yul\":12848:12979   */\n      tag_556\n      jump\t// in\n    tag_618:\n        /* \"#utility.yul\":12840:12979   */\n      swap1\n      pop\n        /* \"#utility.yul\":12567:12986   */\n      swap2\n      swap1\n      pop\n      jump\t// out\n        /* \"#utility.yul\":12992:13411   */\n    tag_408:\n        /* \"#utility.yul\":13158:13162   */\n      0x00\n        /* \"#utility.yul\":13196:13198   */\n      0x20\n        /* \"#utility.yul\":13185:13194   */\n      dup3\n        /* \"#utility.yul\":13181:13199   */\n      add\n        /* \"#utility.yul\":13173:13199   */\n      swap1\n      pop\n        /* \"#utility.yul\":13245:13254   */\n      dup2\n        /* \"#utility.yul\":13239:13243   */\n      dup2\n        /* \"#utility.yul\":13235:13255   */\n      sub\n        /* \"#utility.yul\":13231:13232   */\n      0x00\n        /* \"#utility.yul\":13220:13229   */\n      dup4\n        /* \"#utility.yul\":13216:13233   */\n      add\n        /* \"#utility.yul\":13209:13256   */\n      mstore\n        /* \"#utility.yul\":13273:13404   */\n      tag_620\n        /* \"#utility.yul\":13399:13403   */\n      dup2\n        /* \"#utility.yul\":13273:13404   */\n      tag_562\n      jump\t// in\n    tag_620:\n        /* \"#utility.yul\":13265:13404   */\n      swap1\n      pop\n        /* \"#utility.yul\":12992:13411   */\n      swap2\n      swap1\n      pop\n      jump\t// out\n        /* \"#utility.yul\":13417:13836   */\n    tag_456:\n        /* \"#utility.yul\":13583:13587   */\n      0x00\n        /* \"#utility.yul\":13621:13623   */\n      0x20\n        /* \"#utility.yul\":13610:13619   */\n      dup3\n        /* \"#utility.yul\":13606:13624   */\n      add\n        /* \"#utility.yul\":13598:13624   */\n      swap1\n      pop\n        /* \"#utility.yul\":13670:13679   */\n      dup2\n        /* \"#utility.yul\":13664:13668   */\n      dup2\n        /* \"#utility.yul\":13660:13680   */\n      sub\n        /* \"#utility.yul\":13656:13657   */\n      0x00\n        /* \"#utility.yul\":13645:13654   */\n      dup4\n        /* \"#utility.yul\":13641:13658   */\n      add\n        /* \"#utility.yul\":13634:13681   */\n      mstore\n        /* \"#utility.yul\":13698:13829   */\n      tag_622\n        /* \"#utility.yul\":13824:13828   */\n      dup2\n        /* \"#utility.yul\":13698:13829   */\n      tag_567\n      jump\t// in\n    tag_622:\n        /* \"#utility.yul\":13690:13829   */\n      swap1\n      pop\n        /* \"#utility.yul\":13417:13836   */\n      swap2\n      swap1\n      pop\n      jump\t// out\n        /* \"#utility.yul\":13842:14261   */\n    tag_439:\n        /* \"#utility.yul\":14008:14012   */\n      0x00\n        /* \"#utility.yul\":14046:14048   */\n      0x20\n        /* \"#utility.yul\":14035:14044   */\n      dup3\n        /* \"#utility.yul\":14031:14049   */\n      add\n        /* \"#utility.yul\":14023:14049   */\n      swap1\n      pop\n        /* \"#utility.yul\":14095:14104   */\n      dup2\n        /* \"#utility.yul\":14089:14093   */\n      dup2\n        /* \"#utility.yul\":14085:14105   */\n      sub\n        /* \"#utility.yul\":14081:14082   */\n      0x00\n        /* \"#utility.yul\":14070:14079   */\n      dup4\n        /* \"#utility.yul\":14066:14083   */\n      add\n        /* \"#utility.yul\":14059:14106   */\n      mstore\n        /* \"#utility.yul\":14123:14254   */\n      tag_624\n        /* \"#utility.yul\":14249:14253   */\n      dup2\n        /* \"#utility.yul\":14123:14254   */\n      tag_572\n      jump\t// in\n    tag_624:\n        /* \"#utility.yul\":14115:14254   */\n      swap1\n      pop\n        /* \"#utility.yul\":13842:14261   */\n      swap2\n      swap1\n      pop\n      jump\t// out\n        /* \"#utility.yul\":14267:14686   */\n    tag_256:\n        /* \"#utility.yul\":14433:14437   */\n      0x00\n        /* \"#utility.yul\":14471:14473   */\n      0x20\n        /* \"#utility.yul\":14460:14469   */\n      dup3\n        /* \"#utility.yul\":14456:14474   */\n      add\n        /* \"#utility.yul\":14448:14474   */\n      swap1\n      pop\n        /* \"#utility.yul\":14520:14529   */\n      dup2\n        /* \"#utility.yul\":14514:14518   */\n      dup2\n        /* \"#utility.yul\":14510:14530   */\n      sub\n        /* \"#utility.yul\":14506:14507   */\n      0x00\n        /* \"#utility.yul\":14495:14504   */\n      dup4\n        /* \"#utility.yul\":14491:14508   */\n      add\n        /* \"#utility.yul\":14484:14531   */\n      mstore\n        /* \"#utility.yul\":14548:14679   */\n      tag_626\n        /* \"#utility.yul\":14674:14678   */\n      dup2\n        /* \"#utility.yul\":14548:14679   */\n      tag_577\n      jump\t// in\n    tag_626:\n        /* \"#utility.yul\":14540:14679   */\n      swap1\n      pop\n        /* \"#utility.yul\":14267:14686   */\n      swap2\n      swap1\n      pop\n      jump\t// out\n        /* \"#utility.yul\":14692:15111   */\n    tag_364:\n        /* \"#utility.yul\":14858:14862   */\n      0x00\n        /* \"#utility.yul\":14896:14898   */\n      0x20\n        /* \"#utility.yul\":14885:14894   */\n      dup3\n        /* \"#utility.yul\":14881:14899   */\n      add\n        /* \"#utility.yul\":14873:14899   */\n      swap1\n      pop\n        /* \"#utility.yul\":14945:14954   */\n      dup2\n        /* \"#utility.yul\":14939:14943   */\n      dup2\n        /* \"#utility.yul\":14935:14955   */\n      sub\n        /* \"#utility.yul\":14931:14932   */\n      0x00\n        /* \"#utility.yul\":14920:14929   */\n      dup4\n        /* \"#utility.yul\":14916:14933   */\n      add\n        /* \"#utility.yul\":14909:14956   */\n      mstore\n        /* \"#utility.yul\":14973:15104   */\n      tag_628\n        /* \"#utility.yul\":15099:15103   */\n      dup2\n        /* \"#utility.yul\":14973:15104   */\n      tag_582\n      jump\t// in\n    tag_628:\n        /* \"#utility.yul\":14965:15104   */\n      swap1\n      pop\n        /* \"#utility.yul\":14692:15111   */\n      swap2\n      swap1\n      pop\n      jump\t// out\n        /* \"#utility.yul\":15117:15339   */\n    tag_54:\n        /* \"#utility.yul\":15210:15214   */\n      0x00\n        /* \"#utility.yul\":15248:15250   */\n      0x20\n        /* \"#utility.yul\":15237:15246   */\n      dup3\n        /* \"#utility.yul\":15233:15251   */\n      add\n        /* \"#utility.yul\":15225:15251   */\n      swap1\n      pop\n        /* \"#utility.yul\":15261:15332   */\n      tag_630\n        /* \"#utility.yul\":15329:15330   */\n      0x00\n        /* \"#utility.yul\":15318:15327   */\n      dup4\n        /* \"#utility.yul\":15314:15331   */\n      add\n        /* \"#utility.yul\":15305:15311   */\n      dup5\n        /* \"#utility.yul\":15261:15332   */\n      tag_600\n      jump\t// in\n    tag_630:\n        /* \"#utility.yul\":15117:15339   */\n      swap3\n      swap2\n      pop\n      pop\n      jump\t// out\n        /* \"#utility.yul\":15426:15581   */\n    tag_527:\n        /* \"#utility.yul\":15516:15520   */\n      0x00\n        /* \"#utility.yul\":15539:15542   */\n      dup2\n        /* \"#utility.yul\":15531:15542   */\n      swap1\n      pop\n        /* \"#utility.yul\":15569:15573   */\n      0x20\n        /* \"#utility.yul\":15564:15567   */\n      dup3\n        /* \"#utility.yul\":15560:15574   */\n      add\n        /* \"#utility.yul\":15552:15574   */\n      swap1\n      pop\n        /* \"#utility.yul\":15426:15581   */\n      swap2\n      swap1\n      pop\n      jump\t// out\n        /* \"#utility.yul\":15587:15742   */\n    tag_541:\n        /* \"#utility.yul\":15677:15681   */\n      0x00\n        /* \"#utility.yul\":15700:15703   */\n      dup2\n        /* \"#utility.yul\":15692:15703   */\n      swap1\n      pop\n        /* \"#utility.yul\":15730:15734   */\n      0x20\n        /* \"#utility.yul\":15725:15728   */\n      dup3\n        /* \"#utility.yul\":15721:15735   */\n      add\n        /* \"#utility.yul\":15713:15735   */\n      swap1\n      pop\n        /* \"#utility.yul\":15587:15742   */\n      swap2\n      swap1\n      pop\n      jump\t// out\n        /* \"#utility.yul\":15748:15885   */\n    tag_523:\n        /* \"#utility.yul\":15838:15844   */\n      0x00\n        /* \"#utility.yul\":15872:15877   */\n      dup2\n        /* \"#utility.yul\":15866:15878   */\n      mload\n        /* \"#utility.yul\":15856:15878   */\n      swap1\n      pop\n        /* \"#utility.yul\":15748:15885   */\n      swap2\n      swap1\n      pop\n      jump\t// out\n        /* \"#utility.yul\":15891:16028   */\n    tag_537:\n        /* \"#utility.yul\":15981:15987   */\n      0x00\n        /* \"#utility.yul\":16015:16020   */\n      dup2\n        /* \"#utility.yul\":16009:16021   */\n      mload\n        /* \"#utility.yul\":15999:16021   */\n      swap1\n      pop\n        /* \"#utility.yul\":15891:16028   */\n      swap2\n      swap1\n      pop\n      jump\t// out\n        /* \"#utility.yul\":16034:16170   */\n    tag_533:\n        /* \"#utility.yul\":16127:16131   */\n      0x00\n        /* \"#utility.yul\":16159:16163   */\n      0x20\n        /* \"#utility.yul\":16154:16157   */\n      dup3\n        /* \"#utility.yul\":16150:16164   */\n      add\n        /* \"#utility.yul\":16142:16164   */\n      swap1\n      pop\n        /* \"#utility.yul\":16034:16170   */\n      swap2\n      swap1\n      pop\n      jump\t// out\n        /* \"#utility.yul\":16176:16312   */\n    tag_547:\n        /* \"#utility.yul\":16269:16273   */\n      0x00\n        /* \"#utility.yul\":16301:16305   */\n      0x20\n        /* \"#utility.yul\":16296:16299   */\n      dup3\n        /* \"#utility.yul\":16292:16306   */\n      add\n        /* \"#utility.yul\":16284:16306   */\n      swap1\n      pop\n        /* \"#utility.yul\":16176:16312   */\n      swap2\n      swap1\n      pop\n      jump\t// out\n        /* \"#utility.yul\":16318:16525   */\n    tag_525:\n        /* \"#utility.yul\":16440:16451   */\n      0x00\n        /* \"#utility.yul\":16474:16480   */\n      dup3\n        /* \"#utility.yul\":16469:16472   */\n      dup3\n        /* \"#utility.yul\":16462:16481   */\n      mstore\n        /* \"#utility.yul\":16514:16518   */\n      0x20\n        /* \"#utility.yul\":16509:16512   */\n      dup3\n        /* \"#utility.yul\":16505:16519   */\n      add\n        /* \"#utility.yul\":16490:16519   */\n      swap1\n      pop\n        /* \"#utility.yul\":16318:16525   */\n      swap3\n      swap2\n      pop\n      pop\n      jump\t// out\n        /* \"#utility.yul\":16531:16738   */\n    tag_539:\n        /* \"#utility.yul\":16653:16664   */\n      0x00\n        /* \"#utility.yul\":16687:16693   */\n      dup3\n        /* \"#utility.yul\":16682:16685   */\n      dup3\n        /* \"#utility.yul\":16675:16694   */\n      mstore\n        /* \"#utility.yul\":16727:16731   */\n      0x20\n        /* \"#utility.yul\":16722:16725   */\n      dup3\n        /* \"#utility.yul\":16718:16732   */\n      add\n        /* \"#utility.yul\":16703:16732   */\n      swap1\n      pop\n        /* \"#utility.yul\":16531:16738   */\n      swap3\n      swap2\n      pop\n      pop\n      jump\t// out\n        /* \"#utility.yul\":16744:16913   */\n    tag_559:\n        /* \"#utility.yul\":16828:16839   */\n      0x00\n        /* \"#utility.yul\":16862:16868   */\n      dup3\n        /* \"#utility.yul\":16857:16860   */\n      dup3\n        /* \"#utility.yul\":16850:16869   */\n      mstore\n        /* \"#utility.yul\":16902:16906   */\n      0x20\n        /* \"#utility.yul\":16897:16900   */\n      dup3\n        /* \"#utility.yul\":16893:16907   */\n      add\n        /* \"#utility.yul\":16878:16907   */\n      swap1\n      pop\n        /* \"#utility.yul\":16744:16913   */\n      swap3\n      swap2\n      pop\n      pop\n      jump\t// out\n        /* \"#utility.yul\":16919:17224   */\n    tag_195:\n        /* \"#utility.yul\":16959:16962   */\n      0x00\n        /* \"#utility.yul\":16978:16998   */\n      tag_643\n        /* \"#utility.yul\":16996:16997   */\n      dup3\n        /* \"#utility.yul\":16978:16998   */\n      tag_599\n      jump\t// in\n    tag_643:\n        /* \"#utility.yul\":16973:16998   */\n      swap2\n      pop\n        /* \"#utility.yul\":17012:17032   */\n      tag_644\n        /* \"#utility.yul\":17030:17031   */\n      dup4\n        /* \"#utility.yul\":17012:17032   */\n      tag_599\n      jump\t// in\n    tag_644:\n        /* \"#utility.yul\":17007:17032   */\n      swap3\n      pop\n        /* \"#utility.yul\":17166:17167   */\n      dup3\n        /* \"#utility.yul\":17098:17164   */\n      0xffffffffffffffffffffffffffffffffffffffffffffffffffffffffffffffff\n        /* \"#utility.yul\":17094:17168   */\n      sub\n        /* \"#utility.yul\":17091:17092   */\n      dup3\n        /* \"#utility.yul\":17088:17169   */\n      gt\n        /* \"#utility.yul\":17085:17192   */\n      iszero\n      tag_645\n      jumpi\n        /* \"#utility.yul\":17172:17190   */\n      tag_646\n      tag_647\n      jump\t// in\n    tag_646:\n        /* \"#utility.yul\":17085:17192   */\n    tag_645:\n        /* \"#utility.yul\":17216:17217   */\n      dup3\n        /* \"#utility.yul\":17213:17214   */\n      dup3\n        /* \"#utility.yul\":17209:17218   */\n      add\n        /* \"#utility.yul\":17202:17218   */\n      swap1\n      pop\n        /* \"#utility.yul\":16919:17224   */\n      swap3\n      swap2\n      pop\n      pop\n      jump\t// out\n        /* \"#utility.yul\":17230:17415   */\n    tag_361:\n        /* \"#utility.yul\":17270:17271   */\n      0x00\n        /* \"#utility.yul\":17287:17307   */\n      tag_649\n        /* \"#utility.yul\":17305:17306   */\n      dup3\n        /* \"#utility.yul\":17287:17307   */\n      tag_599\n      jump\t// in\n    tag_649:\n        /* \"#utility.yul\":17282:17307   */\n      swap2\n      pop\n        /* \"#utility.yul\":17321:17341   */\n      tag_650\n        /* \"#utility.yul\":17339:17340   */\n      dup4\n        /* \"#utility.yul\":17321:17341   */\n      tag_599\n      jump\t// in\n    tag_650:\n        /* \"#utility.yul\":17316:17341   */\n      swap3\n      pop\n        /* \"#utility.yul\":17360:17361   */\n      dup3\n        /* \"#utility.yul\":17350:17385   */\n      tag_651\n      jumpi\n        /* \"#utility.yul\":17365:17383   */\n      tag_652\n      tag_653\n      jump\t// in\n    tag_652:\n        /* \"#utility.yul\":17350:17385   */\n    tag_651:\n        /* \"#utility.yul\":17407:17408   */\n      dup3\n        /* \"#utility.yul\":17404:17405   */\n      dup3\n        /* \"#utility.yul\":17400:17409   */\n      div\n        /* \"#utility.yul\":17395:17409   */\n      swap1\n      pop\n        /* \"#utility.yul\":17230:17415   */\n      swap3\n      swap2\n      pop\n      pop\n      jump\t// out\n        /* \"#utility.yul\":17421:17769   */\n    tag_359:\n        /* \"#utility.yul\":17461:17468   */\n      0x00\n        /* \"#utility.yul\":17484:17504   */\n      tag_655\n        /* \"#utility.yul\":17502:17503   */\n      dup3\n        /* \"#utility.yul\":17484:17504   */\n      tag_599\n      jump\t// in\n    tag_655:\n        /* \"#utility.yul\":17479:17504   */\n      swap2\n      pop\n        /* \"#utility.yul\":17518:17538   */\n      tag_656\n        /* \"#utility.yul\":17536:17537   */\n      dup4\n        /* \"#utility.yul\":17518:17538   */\n      tag_599\n      jump\t// in\n    tag_656:\n        /* \"#utility.yul\":17513:17538   */\n      swap3\n      pop\n        /* \"#utility.yul\":17706:17707   */\n      dup2\n        /* \"#utility.yul\":17638:17704   */\n      0xffffffffffffffffffffffffffffffffffffffffffffffffffffffffffffffff\n        /* \"#utility.yul\":17634:17708   */\n      div\n        /* \"#utility.yul\":17631:17632   */\n      dup4\n        /* \"#utility.yul\":17628:17709   */\n      gt\n        /* \"#utility.yul\":17623:17624   */\n      dup3\n        /* \"#utility.yul\":17616:17625   */\n      iszero\n        /* \"#utility.yul\":17609:17626   */\n      iszero\n        /* \"#utility.yul\":17605:17710   */\n      and\n        /* \"#utility.yul\":17602:17733   */\n      iszero\n      tag_657\n      jumpi\n        /* \"#utility.yul\":17713:17731   */\n      tag_658\n      tag_647\n      jump\t// in\n    tag_658:\n        /* \"#utility.yul\":17602:17733   */\n    tag_657:\n        /* \"#utility.yul\":17761:17762   */\n      dup3\n        /* \"#utility.yul\":17758:17759   */\n      dup3\n        /* \"#utility.yul\":17754:17763   */\n      mul\n        /* \"#utility.yul\":17743:17763   */\n      swap1\n      pop\n        /* \"#utility.yul\":17421:17769   */\n      swap3\n      swap2\n      pop\n      pop\n      jump\t// out\n        /* \"#utility.yul\":17775:17966   */\n    tag_210:\n        /* \"#utility.yul\":17815:17819   */\n      0x00\n        /* \"#utility.yul\":17835:17855   */\n      tag_660\n        /* \"#utility.yul\":17853:17854   */\n      dup3\n        /* \"#utility.yul\":17835:17855   */\n      tag_599\n      jump\t// in\n    tag_660:\n        /* \"#utility.yul\":17830:17855   */\n      swap2\n      pop\n        /* \"#utility.yul\":17869:17889   */\n      tag_661\n        /* \"#utility.yul\":17887:17888   */\n      dup4\n        /* \"#utility.yul\":17869:17889   */\n      tag_599\n      jump\t// in\n    tag_661:\n        /* \"#utility.yul\":17864:17889   */\n      swap3\n      pop\n        /* \"#utility.yul\":17908:17909   */\n      dup3\n        /* \"#utility.yul\":17905:17906   */\n      dup3\n        /* \"#utility.yul\":17902:17910   */\n      lt\n        /* \"#utility.yul\":17899:17933   */\n      iszero\n      tag_662\n      jumpi\n        /* \"#utility.yul\":17913:17931   */\n      tag_663\n      tag_647\n      jump\t// in\n    tag_663:\n        /* \"#utility.yul\":17899:17933   */\n    tag_662:\n        /* \"#utility.yul\":17958:17959   */\n      dup3\n        /* \"#utility.yul\":17955:17956   */\n      dup3\n        /* \"#utility.yul\":17951:17960   */\n      sub\n        /* \"#utility.yul\":17943:17960   */\n      swap1\n      pop\n        /* \"#utility.yul\":17775:17966   */\n      swap3\n      swap2\n      pop\n      pop\n      jump\t// out\n        /* \"#utility.yul\":17972:18068   */\n    tag_519:\n        /* \"#utility.yul\":18009:18016   */\n      0x00\n        /* \"#utility.yul\":18038:18062   */\n      tag_665\n        /* \"#utility.yul\":18056:18061   */\n      dup3\n        /* \"#utility.yul\":18038:18062   */\n      tag_666\n      jump\t// in\n    tag_665:\n        /* \"#utility.yul\":18027:18062   */\n      swap1\n      pop\n        /* \"#utility.yul\":17972:18068   */\n      swap2\n      swap1\n      pop\n      jump\t// out\n        /* \"#utility.yul\":18074:18164   */\n    tag_551:\n        /* \"#utility.yul\":18108:18115   */\n      0x00\n        /* \"#utility.yul\":18151:18156   */\n      dup2\n        /* \"#utility.yul\":18144:18157   */\n      iszero\n        /* \"#utility.yul\":18137:18158   */\n      iszero\n        /* \"#utility.yul\":18126:18158   */\n      swap1\n      pop\n        /* \"#utility.yul\":18074:18164   */\n      swap2\n      swap1\n      pop\n      jump\t// out\n        /* \"#utility.yul\":18170:18296   */\n    tag_666:\n        /* \"#utility.yul\":18207:18214   */\n      0x00\n        /* \"#utility.yul\":18247:18289   */\n      0xffffffffffffffffffffffffffffffffffffffff\n        /* \"#utility.yul\":18240:18245   */\n      dup3\n        /* \"#utility.yul\":18236:18290   */\n      and\n        /* \"#utility.yul\":18225:18290   */\n      swap1\n      pop\n        /* \"#utility.yul\":18170:18296   */\n      swap2\n      swap1\n      pop\n      jump\t// out\n        /* \"#utility.yul\":18302:18379   */\n    tag_599:\n        /* \"#utility.yul\":18339:18346   */\n      0x00\n        /* \"#utility.yul\":18368:18373   */\n      dup2\n        /* \"#utility.yul\":18357:18373   */\n      swap1\n      pop\n        /* \"#utility.yul\":18302:18379   */\n      swap2\n      swap1\n      pop\n      jump\t// out\n        /* \"#utility.yul\":18385:18525   */\n    tag_555:\n        /* \"#utility.yul\":18449:18458   */\n      0x00\n        /* \"#utility.yul\":18482:18519   */\n      tag_671\n        /* \"#utility.yul\":18513:18518   */\n      dup3\n        /* \"#utility.yul\":18482:18519   */\n      tag_672\n      jump\t// in\n    tag_671:\n        /* \"#utility.yul\":18469:18519   */\n      swap1\n      pop\n        /* \"#utility.yul\":18385:18525   */\n      swap2\n      swap1\n      pop\n      jump\t// out\n        /* \"#utility.yul\":18531:18657   */\n    tag_672:\n        /* \"#utility.yul\":18581:18590   */\n      0x00\n        /* \"#utility.yul\":18614:18651   */\n      tag_674\n        /* \"#utility.yul\":18645:18650   */\n      dup3\n        /* \"#utility.yul\":18614:18651   */\n      tag_675\n      jump\t// in\n    tag_674:\n        /* \"#utility.yul\":18601:18651   */\n      swap1\n      pop\n        /* \"#utility.yul\":18531:18657   */\n      swap2\n      swap1\n      pop\n      jump\t// out\n        /* \"#utility.yul\":18663:18776   */\n    tag_675:\n        /* \"#utility.yul\":18713:18722   */\n      0x00\n        /* \"#utility.yul\":18746:18770   */\n      tag_677\n        /* \"#utility.yul\":18764:18769   */\n      dup3\n        /* \"#utility.yul\":18746:18770   */\n      tag_666\n      jump\t// in\n    tag_677:\n        /* \"#utility.yul\":18733:18770   */\n      swap1\n      pop\n        /* \"#utility.yul\":18663:18776   */\n      swap2\n      swap1\n      pop\n      jump\t// out\n        /* \"#utility.yul\":18782:19015   */\n    tag_179:\n        /* \"#utility.yul\":18821:18824   */\n      0x00\n        /* \"#utility.yul\":18844:18868   */\n      tag_679\n        /* \"#utility.yul\":18862:18867   */\n      dup3\n        /* \"#utility.yul\":18844:18868   */\n      tag_599\n      jump\t// in\n    tag_679:\n        /* \"#utility.yul\":18835:18868   */\n      swap2\n      pop\n        /* \"#utility.yul\":18890:18956   */\n      0xffffffffffffffffffffffffffffffffffffffffffffffffffffffffffffffff\n        /* \"#utility.yul\":18883:18888   */\n      dup3\n        /* \"#utility.yul\":18880:18957   */\n      eq\n        /* \"#utility.yul\":18877:18980   */\n      iszero\n      tag_680\n      jumpi\n        /* \"#utility.yul\":18960:18978   */\n      tag_681\n      tag_647\n      jump\t// in\n    tag_681:\n        /* \"#utility.yul\":18877:18980   */\n    tag_680:\n        /* \"#utility.yul\":19007:19008   */\n      0x01\n        /* \"#utility.yul\":19000:19005   */\n      dup3\n        /* \"#utility.yul\":18996:19009   */\n      add\n        /* \"#utility.yul\":18989:19009   */\n      swap1\n      pop\n        /* \"#utility.yul\":18782:19015   */\n      swap2\n      swap1\n      pop\n      jump\t// out\n        /* \"#utility.yul\":19021:19201   */\n    tag_647:\n        /* \"#utility.yul\":19069:19146   */\n      0x4e487b7100000000000000000000000000000000000000000000000000000000\n        /* \"#utility.yul\":19066:19067   */\n      0x00\n        /* \"#utility.yul\":19059:19147   */\n      mstore\n        /* \"#utility.yul\":19166:19170   */\n      0x11\n        /* \"#utility.yul\":19163:19164   */\n      0x04\n        /* \"#utility.yul\":19156:19171   */\n      mstore\n        /* \"#utility.yul\":19190:19194   */\n      0x24\n        /* \"#utility.yul\":19187:19188   */\n      0x00\n        /* \"#utility.yul\":19180:19195   */\n      revert\n        /* \"#utility.yul\":19207:19387   */\n    tag_653:\n        /* \"#utility.yul\":19255:19332   */\n      0x4e487b7100000000000000000000000000000000000000000000000000000000\n        /* \"#utility.yul\":19252:19253   */\n      0x00\n        /* \"#utility.yul\":19245:19333   */\n      mstore\n        /* \"#utility.yul\":19352:19356   */\n      0x12\n        /* \"#utility.yul\":19349:19350   */\n      0x04\n        /* \"#utility.yul\":19342:19357   */\n      mstore\n        /* \"#utility.yul\":19376:19380   */\n      0x24\n        /* \"#utility.yul\":19373:19374   */\n      0x00\n        /* \"#utility.yul\":19366:19381   */\n      revert\n        /* \"#utility.yul\":19393:19573   */\n    tag_220:\n        /* \"#utility.yul\":19441:19518   */\n      0x4e487b7100000000000000000000000000000000000000000000000000000000\n        /* \"#utility.yul\":19438:19439   */\n      0x00\n        /* \"#utility.yul\":19431:19519   */\n      mstore\n        /* \"#utility.yul\":19538:19542   */\n      0x31\n        /* \"#utility.yul\":19535:19536   */\n      0x04\n        /* \"#utility.yul\":19528:19543   */\n      mstore\n        /* \"#utility.yul\":19562:19566   */\n      0x24\n        /* \"#utility.yul\":19559:19560   */\n      0x00\n        /* \"#utility.yul\":19552:19567   */\n      revert\n        /* \"#utility.yul\":19579:19759   */\n    tag_158:\n        /* \"#utility.yul\":19627:19704   */\n      0x4e487b7100000000000000000000000000000000000000000000000000000000\n        /* \"#utility.yul\":19624:19625   */\n      0x00\n        /* \"#utility.yul\":19617:19705   */\n      mstore\n        /* \"#utility.yul\":19724:19728   */\n      0x32\n        /* \"#utility.yul\":19721:19722   */\n      0x04\n        /* \"#utility.yul\":19714:19729   */\n      mstore\n        /* \"#utility.yul\":19748:19752   */\n      0x24\n        /* \"#utility.yul\":19745:19746   */\n      0x00\n        /* \"#utility.yul\":19738:19753   */\n      revert\n        /* \"#utility.yul\":19888:20005   */\n    tag_481:\n        /* \"#utility.yul\":19997:19998   */\n      0x00\n        /* \"#utility.yul\":19994:19995   */\n      dup1\n        /* \"#utility.yul\":19987:19999   */\n      revert\n        /* \"#utility.yul\":20011:20181   */\n    tag_561:\n        /* \"#utility.yul\":20151:20173   */\n      0x5061757361626c653a206e6f7420706175736564000000000000000000000000\n        /* \"#utility.yul\":20147:20148   */\n      0x00\n        /* \"#utility.yul\":20139:20145   */\n      dup3\n        /* \"#utility.yul\":20135:20149   */\n      add\n        /* \"#utility.yul\":20128:20174   */\n      mstore\n        /* \"#utility.yul\":20011:20181   */\n      pop\n      jump\t// out\n        /* \"#utility.yul\":20187:20412   */\n    tag_566:\n        /* \"#utility.yul\":20327:20361   */\n      0x4f776e61626c653a206e6577206f776e657220697320746865207a65726f2061\n        /* \"#utility.yul\":20323:20324   */\n      0x00\n        /* \"#utility.yul\":20315:20321   */\n      dup3\n        /* \"#utility.yul\":20311:20325   */\n      add\n        /* \"#utility.yul\":20304:20362   */\n      mstore\n        /* \"#utility.yul\":20396:20404   */\n      0x6464726573730000000000000000000000000000000000000000000000000000\n        /* \"#utility.yul\":20391:20393   */\n      0x20\n        /* \"#utility.yul\":20383:20389   */\n      dup3\n        /* \"#utility.yul\":20379:20394   */\n      add\n        /* \"#utility.yul\":20372:20405   */\n      mstore\n        /* \"#utility.yul\":20187:20412   */\n      pop\n      jump\t// out\n        /* \"#utility.yul\":20418:20584   */\n    tag_571:\n        /* \"#utility.yul\":20558:20576   */\n      0x5061757361626c653a2070617573656400000000000000000000000000000000\n        /* \"#utility.yul\":20554:20555   */\n      0x00\n        /* \"#utility.yul\":20546:20552   */\n      dup3\n        /* \"#utility.yul\":20542:20556   */\n      add\n        /* \"#utility.yul\":20535:20577   */\n      mstore\n        /* \"#utility.yul\":20418:20584   */\n      pop\n      jump\t// out\n        /* \"#utility.yul\":20590:20772   */\n    tag_576:\n        /* \"#utility.yul\":20730:20764   */\n      0x4f776e61626c653a2063616c6c6572206973206e6f7420746865206f776e6572\n        /* \"#utility.yul\":20726:20727   */\n      0x00\n        /* \"#utility.yul\":20718:20724   */\n      dup3\n        /* \"#utility.yul\":20714:20728   */\n      add\n        /* \"#utility.yul\":20707:20765   */\n      mstore\n        /* \"#utility.yul\":20590:20772   */\n      pop\n      jump\t// out\n        /* \"#utility.yul\":20778:20958   */\n    tag_581:\n        /* \"#utility.yul\":20918:20950   */\n      0x417661696c61626c6520666f72207769746864726177616c2030205850500000\n        /* \"#utility.yul\":20914:20915   */\n      0x00\n        /* \"#utility.yul\":20906:20912   */\n      dup3\n        /* \"#utility.yul\":20902:20916   */\n      add\n        /* \"#utility.yul\":20895:20951   */\n      mstore\n        /* \"#utility.yul\":20778:20958   */\n      pop\n      jump\t// out\n        /* \"#utility.yul\":20964:21208   */\n    tag_586:\n        /* \"#utility.yul\":21104:21138   */\n      0x546865206d696e696d756d20707572636861736520616d6f756e7420666f7220\n        /* \"#utility.yul\":21100:21101   */\n      0x00\n        /* \"#utility.yul\":21092:21098   */\n      dup3\n        /* \"#utility.yul\":21088:21102   */\n      add\n        /* \"#utility.yul\":21081:21139   */\n      mstore\n        /* \"#utility.yul\":21173:21200   */\n      0x746865205850414420746f6b656e206973203530204255534400000000000000\n        /* \"#utility.yul\":21168:21170   */\n      0x20\n        /* \"#utility.yul\":21160:21166   */\n      dup3\n        /* \"#utility.yul\":21156:21171   */\n      add\n        /* \"#utility.yul\":21149:21201   */\n      mstore\n        /* \"#utility.yul\":20964:21208   */\n      pop\n      jump\t// out\n        /* \"#utility.yul\":21214:21336   */\n    tag_469:\n        /* \"#utility.yul\":21287:21311   */\n      tag_696\n        /* \"#utility.yul\":21305:21310   */\n      dup2\n        /* \"#utility.yul\":21287:21311   */\n      tag_519\n      jump\t// in\n    tag_696:\n        /* \"#utility.yul\":21280:21285   */\n      dup2\n        /* \"#utility.yul\":21277:21312   */\n      eq\n        /* \"#utility.yul\":21267:21330   */\n      tag_697\n      jumpi\n        /* \"#utility.yul\":21326:21327   */\n      0x00\n        /* \"#utility.yul\":21323:21324   */\n      dup1\n        /* \"#utility.yul\":21316:21328   */\n      revert\n        /* \"#utility.yul\":21267:21330   */\n    tag_697:\n        /* \"#utility.yul\":21214:21336   */\n      pop\n      jump\t// out\n        /* \"#utility.yul\":21342:21458   */\n    tag_473:\n        /* \"#utility.yul\":21412:21433   */\n      tag_699\n        /* \"#utility.yul\":21427:21432   */\n      dup2\n        /* \"#utility.yul\":21412:21433   */\n      tag_551\n      jump\t// in\n    tag_699:\n        /* \"#utility.yul\":21405:21410   */\n      dup2\n        /* \"#utility.yul\":21402:21434   */\n      eq\n        /* \"#utility.yul\":21392:21452   */\n      tag_700\n      jumpi\n        /* \"#utility.yul\":21448:21449   */\n      0x00\n        /* \"#utility.yul\":21445:21446   */\n      dup1\n        /* \"#utility.yul\":21438:21450   */\n      revert\n        /* \"#utility.yul\":21392:21452   */\n    tag_700:\n        /* \"#utility.yul\":21342:21458   */\n      pop\n      jump\t// out\n        /* \"#utility.yul\":21464:21586   */\n    tag_477:\n        /* \"#utility.yul\":21537:21561   */\n      tag_702\n        /* \"#utility.yul\":21555:21560   */\n      dup2\n        /* \"#utility.yul\":21537:21561   */\n      tag_599\n      jump\t// in\n    tag_702:\n        /* \"#utility.yul\":21530:21535   */\n      dup2\n        /* \"#utility.yul\":21527:21562   */\n      eq\n        /* \"#utility.yul\":21517:21580   */\n      tag_703\n      jumpi\n        /* \"#utility.yul\":21576:21577   */\n      0x00\n        /* \"#utility.yul\":21573:21574   */\n      dup1\n        /* \"#utility.yul\":21566:21578   */\n      revert\n        /* \"#utility.yul\":21517:21580   */\n    tag_703:\n        /* \"#utility.yul\":21464:21586   */\n      pop\n      jump\t// out\n\n    auxdata: 0xa264697066735822122021621f9a3af95114a377a7ab080bd57e816304d7171b5c48b550517649202f8064736f6c63430008070033\n}\n",
				"bytecode": {
					"linkReferences": {},
					"object": "608060405273ffe2d15afe09b43c60e05b220018a643c9005ce9600260006101000a81548173ffffffffffffffffffffffffffffffffffffffff021916908373ffffffffffffffffffffffffffffffffffffffff160217905550600260009054906101000a900473ffffffffffffffffffffffffffffffffffffffff16600360006101000a81548173ffffffffffffffffffffffffffffffffffffffff021916908373ffffffffffffffffffffffffffffffffffffffff16021790555073dc2280a89e7fa73d84f4e01c07f1421cab69eacb600460006101000a81548173ffffffffffffffffffffffffffffffffffffffff021916908373ffffffffffffffffffffffffffffffffffffffff160217905550600460009054906101000a900473ffffffffffffffffffffffffffffffffffffffff16600560006101000a81548173ffffffffffffffffffffffffffffffffffffffff021916908373ffffffffffffffffffffffffffffffffffffffff160217905550737b76dbf7f01eba3ee2fa1339c8c29fa6949b1be4600660006101000a81548173ffffffffffffffffffffffffffffffffffffffff021916908373ffffffffffffffffffffffffffffffffffffffff160217905550737b76dbf7f01eba3ee2fa1339c8c29fa6949b1be4600760006101000a81548173ffffffffffffffffffffffffffffffffffffffff021916908373ffffffffffffffffffffffffffffffffffffffff1602179055506802b5e3af16b18800006008553480156200023857600080fd5b50620002596200024d620004db60201b60201c565b620004e360201b60201c565b60008060146101000a81548160ff02191690831515021790555060016040518060a00160405280636447b424815260200163645897ce8152602001603c815260200160058152602001630121eac081525090806001815401808255809150506001900390600052602060002090600502016000909190919091506000820151816000015560208201518160010155604082015181600201556060820151816003015560808201518160040155505060016040518060a0016040528063645897ce8152602001636468dba48152602001603c815260200160078152602001630121eac081525090806001815401808255809150506001900390600052602060002090600502016000909190919091506000820151816000015560208201518160010155604082015181600201556060820151816003015560808201518160040155505060016040518060a00160405280636468dba48152602001636468dba481526020016113888152602001600a8152602001630121eac081525090806001815401808255809150506001900390600052602060002090600502016000909190919091506000820151816000015560208201518160010155604082015181600201556060820151816003015560808201518160040155505060016040518060a00160405280636468dba48152602001636468dba481526020016113888152602001600f8152602001630121eac0815250908060018154018082558091505060019003906000526020600020906005020160009091909190915060008201518160000155602082015181600101556040820151816002015560608201518160030155608082015181600401555050620004d5620005a760201b60201c565b620008ba565b600033905090565b60008060009054906101000a900473ffffffffffffffffffffffffffffffffffffffff169050816000806101000a81548173ffffffffffffffffffffffffffffffffffffffff021916908373ffffffffffffffffffffffffffffffffffffffff1602179055508173ffffffffffffffffffffffffffffffffffffffff168173ffffffffffffffffffffffffffffffffffffffff167f8be0079c531659141344cd1fd0a4f28419497f9722a3daafe3b4186f6b6457e060405160405180910390a35050565b620005b7620005c960201b60201c565b620005c76200065a60201b60201c565b565b620005d9620004db60201b60201c565b73ffffffffffffffffffffffffffffffffffffffff16620005ff620006cf60201b60201c565b73ffffffffffffffffffffffffffffffffffffffff161462000658576040517f08c379a00000000000000000000000000000000000000000000000000000000081526004016200064f9062000801565b60405180910390fd5b565b6200066a620006f860201b60201c565b6001600060146101000a81548160ff0219169083151502179055507f62e78cea01bee320cd4e420270b5ea74000d11b0c9f74754ebdbfc544b05a258620006b6620004db60201b60201c565b604051620006c59190620007c2565b60405180910390a1565b60008060009054906101000a900473ffffffffffffffffffffffffffffffffffffffff16905090565b620007086200074d60201b60201c565b156200074b576040517f08c379a00000000000000000000000000000000000000000000000000000000081526004016200074290620007df565b60405180910390fd5b565b60008060149054906101000a900460ff16905090565b6200076e8162000834565b82525050565b60006200078360108362000823565b9150620007908262000868565b602082019050919050565b6000620007aa60208362000823565b9150620007b78262000891565b602082019050919050565b6000602082019050620007d9600083018462000763565b92915050565b60006020820190508181036000830152620007fa8162000774565b9050919050565b600060208201905081810360008301526200081c816200079b565b9050919050565b600082825260208201905092915050565b6000620008418262000848565b9050919050565b600073ffffffffffffffffffffffffffffffffffffffff82169050919050565b7f5061757361626c653a2070617573656400000000000000000000000000000000600082015250565b7f4f776e61626c653a2063616c6c6572206973206e6f7420746865206f776e6572600082015250565b612b2880620008ca6000396000f3fe608060405234801561001057600080fd5b50600436106101fb5760003560e01c80638456cb591161011a578063a32bf597116100ad578063c411fcd81161007c578063c411fcd81461052e578063daf4f5fd1461054c578063e5066bbf1461056a578063f2fde38b14610588578063fed6b1ef146105a4576101fb565b8063a32bf597146104ba578063b5f5935c146104d8578063b60181c7146104f6578063b67d953014610512576101fb565b80639309f8f3116100e95780639309f8f31461044657806396032702146104645780639788f55514610480578063a2059be21461049e576101fb565b80638456cb59146103e45780638bbf9b07146103ee5780638da5cb5b1461040a5780639106d7ba14610428576101fb565b8063427c7f3811610192578063523c69e611610161578063523c69e61461035c5780635c975abb1461038c578063705ba605146103aa578063715018a6146103da576101fb565b8063427c7f38146102d457806346c3fa70146102f257806348148a801461030e5780634867e4441461032c576101fb565b80633b9c0fdc116101ce5780633b9c0fdc146102865780633ccfd60b146102a25780633f4ba83a146102ac5780633f9a16a8146102b6576101fb565b80631a65b563146102005780631d65abb01461021c5780632d2c41581461023857806339f8302614610256575b600080fd5b61021a60048036038101906102159190612177565b6105c2565b005b61023660048036038101906102319190612075565b610650565b005b61024061069c565b60405161024d9190612630565b60405180910390f35b610270600480360381019061026b9190612075565b610755565b60405161027d9190612630565b60405180910390f35b6102a0600480360381019061029b91906120cf565b6109d4565b005b6102aa610ac9565b005b6102b4610e70565b005b6102be610e82565b6040516102cb9190612630565b60405180910390f35b6102dc610f3b565b6040516102e99190612630565b60405180910390f35b61030c60048036038101906103079190612075565b6110cc565b005b610316611118565b60405161032391906124a4565b60405180910390f35b61034660048036038101906103419190612075565b61113e565b6040516103539190612518565b60405180910390f35b610376600480360381019061037191906120cf565b6111f8565b6040516103839190612630565b60405180910390f35b6103946112b3565b6040516103a1919061253a565b60405180910390f35b6103c460048036038101906103bf9190612075565b6112c9565b6040516103d19190612630565b60405180910390f35b6103e2611464565b005b6103ec611478565b005b610408600480360381019061040391906120fc565b61148a565b005b61041261151f565b60405161041f91906124a4565b60405180910390f35b610430611548565b60405161043d9190612630565b60405180910390f35b61044e61154e565b60405161045b9190612518565b60405180910390f35b61047e600480360381019061047991906120cf565b6115fe565b005b6104886117bd565b6040516104959190612630565b60405180910390f35b6104b860048036038101906104b39190612075565b6117c3565b005b6104c261180f565b6040516104cf9190612630565b60405180910390f35b6104e06118a3565b6040516104ed91906124a4565b60405180910390f35b610510600480360381019061050b91906120cf565b6118c9565b005b61052c60048036038101906105279190612075565b6118db565b005b610536611927565b6040516105439190612555565b60405180910390f35b61055461194d565b6040516105619190612555565b60405180910390f35b610572611973565b60405161057f91906124f6565b60405180910390f35b6105a2600480360381019061059d9190612075565b611a04565b005b6105ac611a88565b6040516105b99190612630565b60405180910390f35b6105ca611cfd565b6040518060a00160405280868152602001858152602001848152602001838152602001828152506001878154811061060557610604612937565b5b90600052602060002090600502016000820151816000015560208201518160010155604082015181600201556060820151816003015560808201518160040155905050505050505050565b610658611cfd565b80600660006101000a81548173ffffffffffffffffffffffffffffffffffffffff021916908373ffffffffffffffffffffffffffffffffffffffff16021790555050565b60008060005b60018054905081101561074d57600181815481106106c3576106c2612937565b5b90600052602060002090600502016000015442101580156107085750600181815481106106f3576106f2612937565b5b90600052602060002090600502016001015442105b1561073a576001818154811061072157610720612937565b5b906000526020600020906005020160030154915061074d565b808061074590612861565b9150506106a2565b508091505090565b600061075f611cfd565b600080600a60008573ffffffffffffffffffffffffffffffffffffffff1673ffffffffffffffffffffffffffffffffffffffff16815260200190815260200160002080549050146109cb5760005b600a60008573ffffffffffffffffffffffffffffffffffffffff1673ffffffffffffffffffffffffffffffffffffffff168152602001908152602001600020805490508110156109c95742610863600a60008773ffffffffffffffffffffffffffffffffffffffff1673ffffffffffffffffffffffffffffffffffffffff168152602001908152602001600020838154811061084c5761084b612937565b5b9060005260206000209060020201600001546111f8565b600a60008773ffffffffffffffffffffffffffffffffffffffff1673ffffffffffffffffffffffffffffffffffffffff16815260200190815260200160002083815481106108b4576108b3612937565b5b9060005260206000209060020201600001546108d091906126ce565b10801561094057506000600a60008673ffffffffffffffffffffffffffffffffffffffff1673ffffffffffffffffffffffffffffffffffffffff168152602001908152602001600020828154811061092b5761092a612937565b5b90600052602060002090600202016001015414155b156109b657600a60008573ffffffffffffffffffffffffffffffffffffffff1673ffffffffffffffffffffffffffffffffffffffff168152602001908152602001600020818154811061099657610995612937565b5b906000526020600020906002020160010154826109b391906126ce565b91505b80806109c190612861565b9150506107ad565b505b80915050919050565b6109dc611cfd565b6000600180805490506109ef91906127af565b9050808214610a725760018181548110610a0c57610a0b612937565b5b906000526020600020906005020160018381548110610a2e57610a2d612937565b5b906000526020600020906005020160008201548160000155600182015481600101556002820154816002015560038201548160030155600482015481600401559050505b6001805480610a8457610a83612908565b5b60019003818190600052602060002090600502016000808201600090556001820160009055600282016000905560038201600090556004820160009055505090555050565b600080600090505b600a60003373ffffffffffffffffffffffffffffffffffffffff1673ffffffffffffffffffffffffffffffffffffffff16815260200190815260200160002080549050811015610d555742610b87600a60003373ffffffffffffffffffffffffffffffffffffffff1673ffffffffffffffffffffffffffffffffffffffff1681526020019081526020016000208381548110610b7057610b6f612937565b5b9060005260206000209060020201600001546111f8565b600a60003373ffffffffffffffffffffffffffffffffffffffff1673ffffffffffffffffffffffffffffffffffffffff1681526020019081526020016000208381548110610bd857610bd7612937565b5b906000526020600020906002020160000154610bf491906126ce565b108015610c6457506000600a60003373ffffffffffffffffffffffffffffffffffffffff1673ffffffffffffffffffffffffffffffffffffffff1681526020019081526020016000208281548110610c4f57610c4e612937565b5b90600052602060002090600202016001015414155b15610d4257600a60003373ffffffffffffffffffffffffffffffffffffffff1673ffffffffffffffffffffffffffffffffffffffff1681526020019081526020016000208181548110610cba57610cb9612937565b5b90600052602060002090600202016001015482610cd791906126ce565b91506000600a60003373ffffffffffffffffffffffffffffffffffffffff1673ffffffffffffffffffffffffffffffffffffffff1681526020019081526020016000208281548110610d2c57610d2b612937565b5b9060005260206000209060020201600101819055505b8080610d4d90612861565b915050610ad1565b50600360009054906101000a900473ffffffffffffffffffffffffffffffffffffffff1673ffffffffffffffffffffffffffffffffffffffff166323b872dd600760009054906101000a900473ffffffffffffffffffffffffffffffffffffffff1633846040518463ffffffff1660e01b8152600401610dd7939291906124bf565b602060405180830381600087803b158015610df157600080fd5b505af1158015610e05573d6000803e3d6000fd5b505050506040513d601f19601f82011682018060405250810190610e2991906120a2565b5060008111610e6d576040517f08c379a0000000000000000000000000000000000000000000000000000000008152600401610e64906125f0565b60405180910390fd5b50565b610e78611cfd565b610e80611d7b565b565b60008060005b600180549050811015610f335760018181548110610ea957610ea8612937565b5b9060005260206000209060050201600001544210158015610eee575060018181548110610ed957610ed8612937565b5b90600052602060002090600502016001015442105b15610f205760018181548110610f0757610f06612937565b5b9060005260206000209060050201600401549150610f33565b8080610f2b90612861565b915050610e88565b508091505090565b6000806000600a60003373ffffffffffffffffffffffffffffffffffffffff1673ffffffffffffffffffffffffffffffffffffffff16815260200190815260200160002080549050146110c55760005b600a60003373ffffffffffffffffffffffffffffffffffffffff1673ffffffffffffffffffffffffffffffffffffffff168152602001908152602001600020805490508110156110c3576000600a60003373ffffffffffffffffffffffffffffffffffffffff1673ffffffffffffffffffffffffffffffffffffffff168152602001908152602001600020828154811061102857611027612937565b5b906000526020600020906002020160010154146110b057600a60003373ffffffffffffffffffffffffffffffffffffffff1673ffffffffffffffffffffffffffffffffffffffff16815260200190815260200160002081815481106110905761108f612937565b5b906000526020600020906002020160010154826110ad91906126ce565b91505b80806110bb90612861565b915050610f8b565b505b8091505090565b6110d4611cfd565b80600760006101000a81548173ffffffffffffffffffffffffffffffffffffffff021916908373ffffffffffffffffffffffffffffffffffffffff16021790555050565b600760009054906101000a900473ffffffffffffffffffffffffffffffffffffffff1681565b6060611148611cfd565b600a60008373ffffffffffffffffffffffffffffffffffffffff1673ffffffffffffffffffffffffffffffffffffffff168152602001908152602001600020805480602002602001604051908101604052809291908181526020016000905b828210156111ed578382906000526020600020906002020160405180604001604052908160008201548152602001600182015481525050815260200190600101906111a7565b505050509050919050565b60008060005b6001805490508110156112a9576001818154811061121f5761121e612937565b5b906000526020600020906005020160000154841015801561126457506001818154811061124f5761124e612937565b5b90600052602060002090600502016001015484105b15611296576001818154811061127d5761127c612937565b5b90600052602060002090600502016002015491506112a9565b80806112a190612861565b9150506111fe565b5080915050919050565b60008060149054906101000a900460ff16905090565b60006112d3611cfd565b600080600a60008573ffffffffffffffffffffffffffffffffffffffff1673ffffffffffffffffffffffffffffffffffffffff168152602001908152602001600020805490501461145b5760005b600a60008573ffffffffffffffffffffffffffffffffffffffff1673ffffffffffffffffffffffffffffffffffffffff16815260200190815260200160002080549050811015611459576000600a60008673ffffffffffffffffffffffffffffffffffffffff1673ffffffffffffffffffffffffffffffffffffffff16815260200190815260200160002082815481106113be576113bd612937565b5b9060005260206000209060020201600101541461144657600a60008573ffffffffffffffffffffffffffffffffffffffff1673ffffffffffffffffffffffffffffffffffffffff168152602001908152602001600020818154811061142657611425612937565b5b9060005260206000209060020201600101548261144391906126ce565b91505b808061145190612861565b915050611321565b505b80915050919050565b61146c611cfd565b6114766000611ddd565b565b611480611cfd565b611488611ea1565b565b611492611cfd565b60016040518060a00160405280878152602001868152602001858152602001848152602001838152509080600181540180825580915050600190039060005260206000209060050201600090919091909150600082015181600001556020820151816001015560408201518160020155606082015181600301556080820151816004015550505050505050565b60008060009054906101000a900473ffffffffffffffffffffffffffffffffffffffff16905090565b60095481565b6060600a60003373ffffffffffffffffffffffffffffffffffffffff1673ffffffffffffffffffffffffffffffffffffffff168152602001908152602001600020805480602002602001604051908101604052809291908181526020016000905b828210156115f5578382906000526020600020906002020160405180604001604052908160008201548152602001600182015481525050815260200190600101906115af565b50505050905090565b611606611f04565b6000606461161261069c565b8361161d9190612755565b6116279190612724565b905060085481101561166e576040517f08c379a000000000000000000000000000000000000000000000000000000000815260040161166590612610565b60405180910390fd5b8160095461167c91906126ce565b611684610e82565b101561168f57600080fd5b6116998233611f4e565b816009546116a791906126ce565b600981905550600560009054906101000a900473ffffffffffffffffffffffffffffffffffffffff1673ffffffffffffffffffffffffffffffffffffffff166323b872dd33600660009054906101000a900473ffffffffffffffffffffffffffffffffffffffff16846040518463ffffffff1660e01b815260040161172e939291906124bf565b602060405180830381600087803b15801561174857600080fd5b505af115801561175c573d6000803e3d6000fd5b505050506040513d601f19601f8201168201806040525081019061178091906120a2565b507ef80ee73bdaed5cca4b962c19eef79f415ef61eb13bd1145aa0f1a4b188bb8b6009546040516117b19190612630565b60405180910390a15050565b60085481565b6117cb611cfd565b80600260006101000a81548173ffffffffffffffffffffffffffffffffffffffff021916908373ffffffffffffffffffffffffffffffffffffffff16021790555050565b60008060005b60018054905081101561189b576001818154811061183657611835612937565b5b906000526020600020906005020160000154421015801561187b57506001818154811061186657611865612937565b5b90600052602060002090600502016001015442105b156118885780915061189b565b808061189390612861565b915050611815565b508091505090565b600660009054906101000a900473ffffffffffffffffffffffffffffffffffffffff1681565b6118d1611cfd565b8060088190555050565b6118e3611cfd565b80600460006101000a81548173ffffffffffffffffffffffffffffffffffffffff021916908373ffffffffffffffffffffffffffffffffffffffff16021790555050565b600560009054906101000a900473ffffffffffffffffffffffffffffffffffffffff1681565b600360009054906101000a900473ffffffffffffffffffffffffffffffffffffffff1681565b60606001805480602002602001604051908101604052809291908181526020016000905b828210156119fb57838290600052602060002090600502016040518060a00160405290816000820154815260200160018201548152602001600282015481526020016003820154815260200160048201548152505081526020019060010190611997565b50505050905090565b611a0c611cfd565b600073ffffffffffffffffffffffffffffffffffffffff168173ffffffffffffffffffffffffffffffffffffffff161415611a7c576040517f08c379a0000000000000000000000000000000000000000000000000000000008152600401611a7390612590565b60405180910390fd5b611a8581611ddd565b50565b6000806000600a60003373ffffffffffffffffffffffffffffffffffffffff1673ffffffffffffffffffffffffffffffffffffffff1681526020019081526020016000208054905014611cf65760005b600a60003373ffffffffffffffffffffffffffffffffffffffff1673ffffffffffffffffffffffffffffffffffffffff16815260200190815260200160002080549050811015611cf45742611b8e600a60003373ffffffffffffffffffffffffffffffffffffffff1673ffffffffffffffffffffffffffffffffffffffff1681526020019081526020016000208381548110611b7757611b76612937565b5b9060005260206000209060020201600001546111f8565b600a60003373ffffffffffffffffffffffffffffffffffffffff1673ffffffffffffffffffffffffffffffffffffffff1681526020019081526020016000208381548110611bdf57611bde612937565b5b906000526020600020906002020160000154611bfb91906126ce565b108015611c6b57506000600a60003373ffffffffffffffffffffffffffffffffffffffff1673ffffffffffffffffffffffffffffffffffffffff1681526020019081526020016000208281548110611c5657611c55612937565b5b90600052602060002090600202016001015414155b15611ce157600a60003373ffffffffffffffffffffffffffffffffffffffff1673ffffffffffffffffffffffffffffffffffffffff1681526020019081526020016000208181548110611cc157611cc0612937565b5b90600052602060002090600202016001015482611cde91906126ce565b91505b8080611cec90612861565b915050611ad8565b505b8091505090565b611d05611fe5565b73ffffffffffffffffffffffffffffffffffffffff16611d2361151f565b73ffffffffffffffffffffffffffffffffffffffff1614611d79576040517f08c379a0000000000000000000000000000000000000000000000000000000008152600401611d70906125d0565b60405180910390fd5b565b611d83611fed565b60008060146101000a81548160ff0219169083151502179055507f5db9ee0a495bf2e6ff9c91a7834c1ba4fdd244a5e8aa4e537bd38aeae4b073aa611dc6611fe5565b604051611dd391906124a4565b60405180910390a1565b60008060009054906101000a900473ffffffffffffffffffffffffffffffffffffffff169050816000806101000a81548173ffffffffffffffffffffffffffffffffffffffff021916908373ffffffffffffffffffffffffffffffffffffffff1602179055508173ffffffffffffffffffffffffffffffffffffffff168173ffffffffffffffffffffffffffffffffffffffff167f8be0079c531659141344cd1fd0a4f28419497f9722a3daafe3b4186f6b6457e060405160405180910390a35050565b611ea9611f04565b6001600060146101000a81548160ff0219169083151502179055507f62e78cea01bee320cd4e420270b5ea74000d11b0c9f74754ebdbfc544b05a258611eed611fe5565b604051611efa91906124a4565b60405180910390a1565b611f0c6112b3565b15611f4c576040517f08c379a0000000000000000000000000000000000000000000000000000000008152600401611f43906125b0565b60405180910390fd5b565b600a60008273ffffffffffffffffffffffffffffffffffffffff1673ffffffffffffffffffffffffffffffffffffffff1681526020019081526020016000206040518060400160405280428152602001848152509080600181540180825580915050600190039060005260206000209060020201600090919091909150600082015181600001556020820151816001015550505050565b600033905090565b611ff56112b3565b612034576040517f08c379a000000000000000000000000000000000000000000000000000000000815260040161202b90612570565b60405180910390fd5b565b60008135905061204581612aad565b92915050565b60008151905061205a81612ac4565b92915050565b60008135905061206f81612adb565b92915050565b60006020828403121561208b5761208a612966565b5b600061209984828501612036565b91505092915050565b6000602082840312156120b8576120b7612966565b5b60006120c68482850161204b565b91505092915050565b6000602082840312156120e5576120e4612966565b5b60006120f384828501612060565b91505092915050565b600080600080600060a0868803121561211857612117612966565b5b600061212688828901612060565b955050602061213788828901612060565b945050604061214888828901612060565b935050606061215988828901612060565b925050608061216a88828901612060565b9150509295509295909350565b60008060008060008060c0878903121561219457612193612966565b5b60006121a289828a01612060565b96505060206121b389828a01612060565b95505060406121c489828a01612060565b94505060606121d589828a01612060565b93505060806121e689828a01612060565b92505060a06121f789828a01612060565b9150509295509295509295565b600061221083836123ef565b60a08301905092915050565b60006122288383612457565b60408301905092915050565b61223d816127e3565b82525050565b600061224e8261266b565b612258818561269b565b93506122638361264b565b8060005b8381101561229457815161227b8882612204565b975061228683612681565b925050600181019050612267565b5085935050505092915050565b60006122ac82612676565b6122b681856126ac565b93506122c18361265b565b8060005b838110156122f25781516122d9888261221c565b97506122e48361268e565b9250506001810190506122c5565b5085935050505092915050565b612308816127f5565b82525050565b6123178161282b565b82525050565b600061232a6014836126bd565b91506123358261296b565b602082019050919050565b600061234d6026836126bd565b915061235882612994565b604082019050919050565b60006123706010836126bd565b915061237b826129e3565b602082019050919050565b60006123936020836126bd565b915061239e82612a0c565b602082019050919050565b60006123b6601e836126bd565b91506123c182612a35565b602082019050919050565b60006123d96039836126bd565b91506123e482612a5e565b604082019050919050565b60a0820160008201516124056000850182612486565b5060208201516124186020850182612486565b50604082015161242b6040850182612486565b50606082015161243e6060850182612486565b5060808201516124516080850182612486565b50505050565b60408201600082015161246d6000850182612486565b5060208201516124806020850182612486565b50505050565b61248f81612821565b82525050565b61249e81612821565b82525050565b60006020820190506124b96000830184612234565b92915050565b60006060820190506124d46000830186612234565b6124e16020830185612234565b6124ee6040830184612495565b949350505050565b600060208201905081810360008301526125108184612243565b905092915050565b6000602082019050818103600083015261253281846122a1565b905092915050565b600060208201905061254f60008301846122ff565b92915050565b600060208201905061256a600083018461230e565b92915050565b600060208201905081810360008301526125898161231d565b9050919050565b600060208201905081810360008301526125a981612340565b9050919050565b600060208201905081810360008301526125c981612363565b9050919050565b600060208201905081810360008301526125e981612386565b9050919050565b60006020820190508181036000830152612609816123a9565b9050919050565b60006020820190508181036000830152612629816123cc565b9050919050565b60006020820190506126456000830184612495565b92915050565b6000819050602082019050919050565b6000819050602082019050919050565b600081519050919050565b600081519050919050565b6000602082019050919050565b6000602082019050919050565b600082825260208201905092915050565b600082825260208201905092915050565b600082825260208201905092915050565b60006126d982612821565b91506126e483612821565b9250827fffffffffffffffffffffffffffffffffffffffffffffffffffffffffffffffff03821115612719576127186128aa565b5b828201905092915050565b600061272f82612821565b915061273a83612821565b92508261274a576127496128d9565b5b828204905092915050565b600061276082612821565b915061276b83612821565b9250817fffffffffffffffffffffffffffffffffffffffffffffffffffffffffffffffff04831182151516156127a4576127a36128aa565b5b828202905092915050565b60006127ba82612821565b91506127c583612821565b9250828210156127d8576127d76128aa565b5b828203905092915050565b60006127ee82612801565b9050919050565b60008115159050919050565b600073ffffffffffffffffffffffffffffffffffffffff82169050919050565b6000819050919050565b60006128368261283d565b9050919050565b60006128488261284f565b9050919050565b600061285a82612801565b9050919050565b600061286c82612821565b91507fffffffffffffffffffffffffffffffffffffffffffffffffffffffffffffffff82141561289f5761289e6128aa565b5b600182019050919050565b7f4e487b7100000000000000000000000000000000000000000000000000000000600052601160045260246000fd5b7f4e487b7100000000000000000000000000000000000000000000000000000000600052601260045260246000fd5b7f4e487b7100000000000000000000000000000000000000000000000000000000600052603160045260246000fd5b7f4e487b7100000000000000000000000000000000000000000000000000000000600052603260045260246000fd5b600080fd5b7f5061757361626c653a206e6f7420706175736564000000000000000000000000600082015250565b7f4f776e61626c653a206e6577206f776e657220697320746865207a65726f206160008201527f6464726573730000000000000000000000000000000000000000000000000000602082015250565b7f5061757361626c653a2070617573656400000000000000000000000000000000600082015250565b7f4f776e61626c653a2063616c6c6572206973206e6f7420746865206f776e6572600082015250565b7f417661696c61626c6520666f72207769746864726177616c2030205850500000600082015250565b7f546865206d696e696d756d20707572636861736520616d6f756e7420666f722060008201527f746865205850414420746f6b656e206973203530204255534400000000000000602082015250565b612ab6816127e3565b8114612ac157600080fd5b50565b612acd816127f5565b8114612ad857600080fd5b50565b612ae481612821565b8114612aef57600080fd5b5056fea264697066735822122021621f9a3af95114a377a7ab080bd57e816304d7171b5c48b550517649202f8064736f6c63430008070033",
					"opcodes": "PUSH1 0x80 PUSH1 0x40 MSTORE PUSH20 0xFFE2D15AFE09B43C60E05B220018A643C9005CE9 PUSH1 0x2 PUSH1 0x0 PUSH2 0x100 EXP DUP2 SLOAD DUP2 PUSH20 0xFFFFFFFFFFFFFFFFFFFFFFFFFFFFFFFFFFFFFFFF MUL NOT AND SWAP1 DUP4 PUSH20 0xFFFFFFFFFFFFFFFFFFFFFFFFFFFFFFFFFFFFFFFF AND MUL OR SWAP1 SSTORE POP PUSH1 0x2 PUSH1 0x0 SWAP1 SLOAD SWAP1 PUSH2 0x100 EXP SWAP1 DIV PUSH20 0xFFFFFFFFFFFFFFFFFFFFFFFFFFFFFFFFFFFFFFFF AND PUSH1 0x3 PUSH1 0x0 PUSH2 0x100 EXP DUP2 SLOAD DUP2 PUSH20 0xFFFFFFFFFFFFFFFFFFFFFFFFFFFFFFFFFFFFFFFF MUL NOT AND SWAP1 DUP4 PUSH20 0xFFFFFFFFFFFFFFFFFFFFFFFFFFFFFFFFFFFFFFFF AND MUL OR SWAP1 SSTORE POP PUSH20 0xDC2280A89E7FA73D84F4E01C07F1421CAB69EACB PUSH1 0x4 PUSH1 0x0 PUSH2 0x100 EXP DUP2 SLOAD DUP2 PUSH20 0xFFFFFFFFFFFFFFFFFFFFFFFFFFFFFFFFFFFFFFFF MUL NOT AND SWAP1 DUP4 PUSH20 0xFFFFFFFFFFFFFFFFFFFFFFFFFFFFFFFFFFFFFFFF AND MUL OR SWAP1 SSTORE POP PUSH1 0x4 PUSH1 0x0 SWAP1 SLOAD SWAP1 PUSH2 0x100 EXP SWAP1 DIV PUSH20 0xFFFFFFFFFFFFFFFFFFFFFFFFFFFFFFFFFFFFFFFF AND PUSH1 0x5 PUSH1 0x0 PUSH2 0x100 EXP DUP2 SLOAD DUP2 PUSH20 0xFFFFFFFFFFFFFFFFFFFFFFFFFFFFFFFFFFFFFFFF MUL NOT AND SWAP1 DUP4 PUSH20 0xFFFFFFFFFFFFFFFFFFFFFFFFFFFFFFFFFFFFFFFF AND MUL OR SWAP1 SSTORE POP PUSH20 0x7B76DBF7F01EBA3EE2FA1339C8C29FA6949B1BE4 PUSH1 0x6 PUSH1 0x0 PUSH2 0x100 EXP DUP2 SLOAD DUP2 PUSH20 0xFFFFFFFFFFFFFFFFFFFFFFFFFFFFFFFFFFFFFFFF MUL NOT AND SWAP1 DUP4 PUSH20 0xFFFFFFFFFFFFFFFFFFFFFFFFFFFFFFFFFFFFFFFF AND MUL OR SWAP1 SSTORE POP PUSH20 0x7B76DBF7F01EBA3EE2FA1339C8C29FA6949B1BE4 PUSH1 0x7 PUSH1 0x0 PUSH2 0x100 EXP DUP2 SLOAD DUP2 PUSH20 0xFFFFFFFFFFFFFFFFFFFFFFFFFFFFFFFFFFFFFFFF MUL NOT AND SWAP1 DUP4 PUSH20 0xFFFFFFFFFFFFFFFFFFFFFFFFFFFFFFFFFFFFFFFF AND MUL OR SWAP1 SSTORE POP PUSH9 0x2B5E3AF16B1880000 PUSH1 0x8 SSTORE CALLVALUE DUP1 ISZERO PUSH3 0x238 JUMPI PUSH1 0x0 DUP1 REVERT JUMPDEST POP PUSH3 0x259 PUSH3 0x24D PUSH3 0x4DB PUSH1 0x20 SHL PUSH1 0x20 SHR JUMP JUMPDEST PUSH3 0x4E3 PUSH1 0x20 SHL PUSH1 0x20 SHR JUMP JUMPDEST PUSH1 0x0 DUP1 PUSH1 0x14 PUSH2 0x100 EXP DUP2 SLOAD DUP2 PUSH1 0xFF MUL NOT AND SWAP1 DUP4 ISZERO ISZERO MUL OR SWAP1 SSTORE POP PUSH1 0x1 PUSH1 0x40 MLOAD DUP1 PUSH1 0xA0 ADD PUSH1 0x40 MSTORE DUP1 PUSH4 0x6447B424 DUP2 MSTORE PUSH1 0x20 ADD PUSH4 0x645897CE DUP2 MSTORE PUSH1 0x20 ADD PUSH1 0x3C DUP2 MSTORE PUSH1 0x20 ADD PUSH1 0x5 DUP2 MSTORE PUSH1 0x20 ADD PUSH4 0x121EAC0 DUP2 MSTORE POP SWAP1 DUP1 PUSH1 0x1 DUP2 SLOAD ADD DUP1 DUP3 SSTORE DUP1 SWAP2 POP POP PUSH1 0x1 SWAP1 SUB SWAP1 PUSH1 0x0 MSTORE PUSH1 0x20 PUSH1 0x0 KECCAK256 SWAP1 PUSH1 0x5 MUL ADD PUSH1 0x0 SWAP1 SWAP2 SWAP1 SWAP2 SWAP1 SWAP2 POP PUSH1 0x0 DUP3 ADD MLOAD DUP2 PUSH1 0x0 ADD SSTORE PUSH1 0x20 DUP3 ADD MLOAD DUP2 PUSH1 0x1 ADD SSTORE PUSH1 0x40 DUP3 ADD MLOAD DUP2 PUSH1 0x2 ADD SSTORE PUSH1 0x60 DUP3 ADD MLOAD DUP2 PUSH1 0x3 ADD SSTORE PUSH1 0x80 DUP3 ADD MLOAD DUP2 PUSH1 0x4 ADD SSTORE POP POP PUSH1 0x1 PUSH1 0x40 MLOAD DUP1 PUSH1 0xA0 ADD PUSH1 0x40 MSTORE DUP1 PUSH4 0x645897CE DUP2 MSTORE PUSH1 0x20 ADD PUSH4 0x6468DBA4 DUP2 MSTORE PUSH1 0x20 ADD PUSH1 0x3C DUP2 MSTORE PUSH1 0x20 ADD PUSH1 0x7 DUP2 MSTORE PUSH1 0x20 ADD PUSH4 0x121EAC0 DUP2 MSTORE POP SWAP1 DUP1 PUSH1 0x1 DUP2 SLOAD ADD DUP1 DUP3 SSTORE DUP1 SWAP2 POP POP PUSH1 0x1 SWAP1 SUB SWAP1 PUSH1 0x0 MSTORE PUSH1 0x20 PUSH1 0x0 KECCAK256 SWAP1 PUSH1 0x5 MUL ADD PUSH1 0x0 SWAP1 SWAP2 SWAP1 SWAP2 SWAP1 SWAP2 POP PUSH1 0x0 DUP3 ADD MLOAD DUP2 PUSH1 0x0 ADD SSTORE PUSH1 0x20 DUP3 ADD MLOAD DUP2 PUSH1 0x1 ADD SSTORE PUSH1 0x40 DUP3 ADD MLOAD DUP2 PUSH1 0x2 ADD SSTORE PUSH1 0x60 DUP3 ADD MLOAD DUP2 PUSH1 0x3 ADD SSTORE PUSH1 0x80 DUP3 ADD MLOAD DUP2 PUSH1 0x4 ADD SSTORE POP POP PUSH1 0x1 PUSH1 0x40 MLOAD DUP1 PUSH1 0xA0 ADD PUSH1 0x40 MSTORE DUP1 PUSH4 0x6468DBA4 DUP2 MSTORE PUSH1 0x20 ADD PUSH4 0x6468DBA4 DUP2 MSTORE PUSH1 0x20 ADD PUSH2 0x1388 DUP2 MSTORE PUSH1 0x20 ADD PUSH1 0xA DUP2 MSTORE PUSH1 0x20 ADD PUSH4 0x121EAC0 DUP2 MSTORE POP SWAP1 DUP1 PUSH1 0x1 DUP2 SLOAD ADD DUP1 DUP3 SSTORE DUP1 SWAP2 POP POP PUSH1 0x1 SWAP1 SUB SWAP1 PUSH1 0x0 MSTORE PUSH1 0x20 PUSH1 0x0 KECCAK256 SWAP1 PUSH1 0x5 MUL ADD PUSH1 0x0 SWAP1 SWAP2 SWAP1 SWAP2 SWAP1 SWAP2 POP PUSH1 0x0 DUP3 ADD MLOAD DUP2 PUSH1 0x0 ADD SSTORE PUSH1 0x20 DUP3 ADD MLOAD DUP2 PUSH1 0x1 ADD SSTORE PUSH1 0x40 DUP3 ADD MLOAD DUP2 PUSH1 0x2 ADD SSTORE PUSH1 0x60 DUP3 ADD MLOAD DUP2 PUSH1 0x3 ADD SSTORE PUSH1 0x80 DUP3 ADD MLOAD DUP2 PUSH1 0x4 ADD SSTORE POP POP PUSH1 0x1 PUSH1 0x40 MLOAD DUP1 PUSH1 0xA0 ADD PUSH1 0x40 MSTORE DUP1 PUSH4 0x6468DBA4 DUP2 MSTORE PUSH1 0x20 ADD PUSH4 0x6468DBA4 DUP2 MSTORE PUSH1 0x20 ADD PUSH2 0x1388 DUP2 MSTORE PUSH1 0x20 ADD PUSH1 0xF DUP2 MSTORE PUSH1 0x20 ADD PUSH4 0x121EAC0 DUP2 MSTORE POP SWAP1 DUP1 PUSH1 0x1 DUP2 SLOAD ADD DUP1 DUP3 SSTORE DUP1 SWAP2 POP POP PUSH1 0x1 SWAP1 SUB SWAP1 PUSH1 0x0 MSTORE PUSH1 0x20 PUSH1 0x0 KECCAK256 SWAP1 PUSH1 0x5 MUL ADD PUSH1 0x0 SWAP1 SWAP2 SWAP1 SWAP2 SWAP1 SWAP2 POP PUSH1 0x0 DUP3 ADD MLOAD DUP2 PUSH1 0x0 ADD SSTORE PUSH1 0x20 DUP3 ADD MLOAD DUP2 PUSH1 0x1 ADD SSTORE PUSH1 0x40 DUP3 ADD MLOAD DUP2 PUSH1 0x2 ADD SSTORE PUSH1 0x60 DUP3 ADD MLOAD DUP2 PUSH1 0x3 ADD SSTORE PUSH1 0x80 DUP3 ADD MLOAD DUP2 PUSH1 0x4 ADD SSTORE POP POP PUSH3 0x4D5 PUSH3 0x5A7 PUSH1 0x20 SHL PUSH1 0x20 SHR JUMP JUMPDEST PUSH3 0x8BA JUMP JUMPDEST PUSH1 0x0 CALLER SWAP1 POP SWAP1 JUMP JUMPDEST PUSH1 0x0 DUP1 PUSH1 0x0 SWAP1 SLOAD SWAP1 PUSH2 0x100 EXP SWAP1 DIV PUSH20 0xFFFFFFFFFFFFFFFFFFFFFFFFFFFFFFFFFFFFFFFF AND SWAP1 POP DUP2 PUSH1 0x0 DUP1 PUSH2 0x100 EXP DUP2 SLOAD DUP2 PUSH20 0xFFFFFFFFFFFFFFFFFFFFFFFFFFFFFFFFFFFFFFFF MUL NOT AND SWAP1 DUP4 PUSH20 0xFFFFFFFFFFFFFFFFFFFFFFFFFFFFFFFFFFFFFFFF AND MUL OR SWAP1 SSTORE POP DUP2 PUSH20 0xFFFFFFFFFFFFFFFFFFFFFFFFFFFFFFFFFFFFFFFF AND DUP2 PUSH20 0xFFFFFFFFFFFFFFFFFFFFFFFFFFFFFFFFFFFFFFFF AND PUSH32 0x8BE0079C531659141344CD1FD0A4F28419497F9722A3DAAFE3B4186F6B6457E0 PUSH1 0x40 MLOAD PUSH1 0x40 MLOAD DUP1 SWAP2 SUB SWAP1 LOG3 POP POP JUMP JUMPDEST PUSH3 0x5B7 PUSH3 0x5C9 PUSH1 0x20 SHL PUSH1 0x20 SHR JUMP JUMPDEST PUSH3 0x5C7 PUSH3 0x65A PUSH1 0x20 SHL PUSH1 0x20 SHR JUMP JUMPDEST JUMP JUMPDEST PUSH3 0x5D9 PUSH3 0x4DB PUSH1 0x20 SHL PUSH1 0x20 SHR JUMP JUMPDEST PUSH20 0xFFFFFFFFFFFFFFFFFFFFFFFFFFFFFFFFFFFFFFFF AND PUSH3 0x5FF PUSH3 0x6CF PUSH1 0x20 SHL PUSH1 0x20 SHR JUMP JUMPDEST PUSH20 0xFFFFFFFFFFFFFFFFFFFFFFFFFFFFFFFFFFFFFFFF AND EQ PUSH3 0x658 JUMPI PUSH1 0x40 MLOAD PUSH32 0x8C379A000000000000000000000000000000000000000000000000000000000 DUP2 MSTORE PUSH1 0x4 ADD PUSH3 0x64F SWAP1 PUSH3 0x801 JUMP JUMPDEST PUSH1 0x40 MLOAD DUP1 SWAP2 SUB SWAP1 REVERT JUMPDEST JUMP JUMPDEST PUSH3 0x66A PUSH3 0x6F8 PUSH1 0x20 SHL PUSH1 0x20 SHR JUMP JUMPDEST PUSH1 0x1 PUSH1 0x0 PUSH1 0x14 PUSH2 0x100 EXP DUP2 SLOAD DUP2 PUSH1 0xFF MUL NOT AND SWAP1 DUP4 ISZERO ISZERO MUL OR SWAP1 SSTORE POP PUSH32 0x62E78CEA01BEE320CD4E420270B5EA74000D11B0C9F74754EBDBFC544B05A258 PUSH3 0x6B6 PUSH3 0x4DB PUSH1 0x20 SHL PUSH1 0x20 SHR JUMP JUMPDEST PUSH1 0x40 MLOAD PUSH3 0x6C5 SWAP2 SWAP1 PUSH3 0x7C2 JUMP JUMPDEST PUSH1 0x40 MLOAD DUP1 SWAP2 SUB SWAP1 LOG1 JUMP JUMPDEST PUSH1 0x0 DUP1 PUSH1 0x0 SWAP1 SLOAD SWAP1 PUSH2 0x100 EXP SWAP1 DIV PUSH20 0xFFFFFFFFFFFFFFFFFFFFFFFFFFFFFFFFFFFFFFFF AND SWAP1 POP SWAP1 JUMP JUMPDEST PUSH3 0x708 PUSH3 0x74D PUSH1 0x20 SHL PUSH1 0x20 SHR JUMP JUMPDEST ISZERO PUSH3 0x74B JUMPI PUSH1 0x40 MLOAD PUSH32 0x8C379A000000000000000000000000000000000000000000000000000000000 DUP2 MSTORE PUSH1 0x4 ADD PUSH3 0x742 SWAP1 PUSH3 0x7DF JUMP JUMPDEST PUSH1 0x40 MLOAD DUP1 SWAP2 SUB SWAP1 REVERT JUMPDEST JUMP JUMPDEST PUSH1 0x0 DUP1 PUSH1 0x14 SWAP1 SLOAD SWAP1 PUSH2 0x100 EXP SWAP1 DIV PUSH1 0xFF AND SWAP1 POP SWAP1 JUMP JUMPDEST PUSH3 0x76E DUP2 PUSH3 0x834 JUMP JUMPDEST DUP3 MSTORE POP POP JUMP JUMPDEST PUSH1 0x0 PUSH3 0x783 PUSH1 0x10 DUP4 PUSH3 0x823 JUMP JUMPDEST SWAP2 POP PUSH3 0x790 DUP3 PUSH3 0x868 JUMP JUMPDEST PUSH1 0x20 DUP3 ADD SWAP1 POP SWAP2 SWAP1 POP JUMP JUMPDEST PUSH1 0x0 PUSH3 0x7AA PUSH1 0x20 DUP4 PUSH3 0x823 JUMP JUMPDEST SWAP2 POP PUSH3 0x7B7 DUP3 PUSH3 0x891 JUMP JUMPDEST PUSH1 0x20 DUP3 ADD SWAP1 POP SWAP2 SWAP1 POP JUMP JUMPDEST PUSH1 0x0 PUSH1 0x20 DUP3 ADD SWAP1 POP PUSH3 0x7D9 PUSH1 0x0 DUP4 ADD DUP5 PUSH3 0x763 JUMP JUMPDEST SWAP3 SWAP2 POP POP JUMP JUMPDEST PUSH1 0x0 PUSH1 0x20 DUP3 ADD SWAP1 POP DUP2 DUP2 SUB PUSH1 0x0 DUP4 ADD MSTORE PUSH3 0x7FA DUP2 PUSH3 0x774 JUMP JUMPDEST SWAP1 POP SWAP2 SWAP1 POP JUMP JUMPDEST PUSH1 0x0 PUSH1 0x20 DUP3 ADD SWAP1 POP DUP2 DUP2 SUB PUSH1 0x0 DUP4 ADD MSTORE PUSH3 0x81C DUP2 PUSH3 0x79B JUMP JUMPDEST SWAP1 POP SWAP2 SWAP1 POP JUMP JUMPDEST PUSH1 0x0 DUP3 DUP3 MSTORE PUSH1 0x20 DUP3 ADD SWAP1 POP SWAP3 SWAP2 POP POP JUMP JUMPDEST PUSH1 0x0 PUSH3 0x841 DUP3 PUSH3 0x848 JUMP JUMPDEST SWAP1 POP SWAP2 SWAP1 POP JUMP JUMPDEST PUSH1 0x0 PUSH20 0xFFFFFFFFFFFFFFFFFFFFFFFFFFFFFFFFFFFFFFFF DUP3 AND SWAP1 POP SWAP2 SWAP1 POP JUMP JUMPDEST PUSH32 0x5061757361626C653A2070617573656400000000000000000000000000000000 PUSH1 0x0 DUP3 ADD MSTORE POP JUMP JUMPDEST PUSH32 0x4F776E61626C653A2063616C6C6572206973206E6F7420746865206F776E6572 PUSH1 0x0 DUP3 ADD MSTORE POP JUMP JUMPDEST PUSH2 0x2B28 DUP1 PUSH3 0x8CA PUSH1 0x0 CODECOPY PUSH1 0x0 RETURN INVALID PUSH1 0x80 PUSH1 0x40 MSTORE CALLVALUE DUP1 ISZERO PUSH2 0x10 JUMPI PUSH1 0x0 DUP1 REVERT JUMPDEST POP PUSH1 0x4 CALLDATASIZE LT PUSH2 0x1FB JUMPI PUSH1 0x0 CALLDATALOAD PUSH1 0xE0 SHR DUP1 PUSH4 0x8456CB59 GT PUSH2 0x11A JUMPI DUP1 PUSH4 0xA32BF597 GT PUSH2 0xAD JUMPI DUP1 PUSH4 0xC411FCD8 GT PUSH2 0x7C JUMPI DUP1 PUSH4 0xC411FCD8 EQ PUSH2 0x52E JUMPI DUP1 PUSH4 0xDAF4F5FD EQ PUSH2 0x54C JUMPI DUP1 PUSH4 0xE5066BBF EQ PUSH2 0x56A JUMPI DUP1 PUSH4 0xF2FDE38B EQ PUSH2 0x588 JUMPI DUP1 PUSH4 0xFED6B1EF EQ PUSH2 0x5A4 JUMPI PUSH2 0x1FB JUMP JUMPDEST DUP1 PUSH4 0xA32BF597 EQ PUSH2 0x4BA JUMPI DUP1 PUSH4 0xB5F5935C EQ PUSH2 0x4D8 JUMPI DUP1 PUSH4 0xB60181C7 EQ PUSH2 0x4F6 JUMPI DUP1 PUSH4 0xB67D9530 EQ PUSH2 0x512 JUMPI PUSH2 0x1FB JUMP JUMPDEST DUP1 PUSH4 0x9309F8F3 GT PUSH2 0xE9 JUMPI DUP1 PUSH4 0x9309F8F3 EQ PUSH2 0x446 JUMPI DUP1 PUSH4 0x96032702 EQ PUSH2 0x464 JUMPI DUP1 PUSH4 0x9788F555 EQ PUSH2 0x480 JUMPI DUP1 PUSH4 0xA2059BE2 EQ PUSH2 0x49E JUMPI PUSH2 0x1FB JUMP JUMPDEST DUP1 PUSH4 0x8456CB59 EQ PUSH2 0x3E4 JUMPI DUP1 PUSH4 0x8BBF9B07 EQ PUSH2 0x3EE JUMPI DUP1 PUSH4 0x8DA5CB5B EQ PUSH2 0x40A JUMPI DUP1 PUSH4 0x9106D7BA EQ PUSH2 0x428 JUMPI PUSH2 0x1FB JUMP JUMPDEST DUP1 PUSH4 0x427C7F38 GT PUSH2 0x192 JUMPI DUP1 PUSH4 0x523C69E6 GT PUSH2 0x161 JUMPI DUP1 PUSH4 0x523C69E6 EQ PUSH2 0x35C JUMPI DUP1 PUSH4 0x5C975ABB EQ PUSH2 0x38C JUMPI DUP1 PUSH4 0x705BA605 EQ PUSH2 0x3AA JUMPI DUP1 PUSH4 0x715018A6 EQ PUSH2 0x3DA JUMPI PUSH2 0x1FB JUMP JUMPDEST DUP1 PUSH4 0x427C7F38 EQ PUSH2 0x2D4 JUMPI DUP1 PUSH4 0x46C3FA70 EQ PUSH2 0x2F2 JUMPI DUP1 PUSH4 0x48148A80 EQ PUSH2 0x30E JUMPI DUP1 PUSH4 0x4867E444 EQ PUSH2 0x32C JUMPI PUSH2 0x1FB JUMP JUMPDEST DUP1 PUSH4 0x3B9C0FDC GT PUSH2 0x1CE JUMPI DUP1 PUSH4 0x3B9C0FDC EQ PUSH2 0x286 JUMPI DUP1 PUSH4 0x3CCFD60B EQ PUSH2 0x2A2 JUMPI DUP1 PUSH4 0x3F4BA83A EQ PUSH2 0x2AC JUMPI DUP1 PUSH4 0x3F9A16A8 EQ PUSH2 0x2B6 JUMPI PUSH2 0x1FB JUMP JUMPDEST DUP1 PUSH4 0x1A65B563 EQ PUSH2 0x200 JUMPI DUP1 PUSH4 0x1D65ABB0 EQ PUSH2 0x21C JUMPI DUP1 PUSH4 0x2D2C4158 EQ PUSH2 0x238 JUMPI DUP1 PUSH4 0x39F83026 EQ PUSH2 0x256 JUMPI JUMPDEST PUSH1 0x0 DUP1 REVERT JUMPDEST PUSH2 0x21A PUSH1 0x4 DUP1 CALLDATASIZE SUB DUP2 ADD SWAP1 PUSH2 0x215 SWAP2 SWAP1 PUSH2 0x2177 JUMP JUMPDEST PUSH2 0x5C2 JUMP JUMPDEST STOP JUMPDEST PUSH2 0x236 PUSH1 0x4 DUP1 CALLDATASIZE SUB DUP2 ADD SWAP1 PUSH2 0x231 SWAP2 SWAP1 PUSH2 0x2075 JUMP JUMPDEST PUSH2 0x650 JUMP JUMPDEST STOP JUMPDEST PUSH2 0x240 PUSH2 0x69C JUMP JUMPDEST PUSH1 0x40 MLOAD PUSH2 0x24D SWAP2 SWAP1 PUSH2 0x2630 JUMP JUMPDEST PUSH1 0x40 MLOAD DUP1 SWAP2 SUB SWAP1 RETURN JUMPDEST PUSH2 0x270 PUSH1 0x4 DUP1 CALLDATASIZE SUB DUP2 ADD SWAP1 PUSH2 0x26B SWAP2 SWAP1 PUSH2 0x2075 JUMP JUMPDEST PUSH2 0x755 JUMP JUMPDEST PUSH1 0x40 MLOAD PUSH2 0x27D SWAP2 SWAP1 PUSH2 0x2630 JUMP JUMPDEST PUSH1 0x40 MLOAD DUP1 SWAP2 SUB SWAP1 RETURN JUMPDEST PUSH2 0x2A0 PUSH1 0x4 DUP1 CALLDATASIZE SUB DUP2 ADD SWAP1 PUSH2 0x29B SWAP2 SWAP1 PUSH2 0x20CF JUMP JUMPDEST PUSH2 0x9D4 JUMP JUMPDEST STOP JUMPDEST PUSH2 0x2AA PUSH2 0xAC9 JUMP JUMPDEST STOP JUMPDEST PUSH2 0x2B4 PUSH2 0xE70 JUMP JUMPDEST STOP JUMPDEST PUSH2 0x2BE PUSH2 0xE82 JUMP JUMPDEST PUSH1 0x40 MLOAD PUSH2 0x2CB SWAP2 SWAP1 PUSH2 0x2630 JUMP JUMPDEST PUSH1 0x40 MLOAD DUP1 SWAP2 SUB SWAP1 RETURN JUMPDEST PUSH2 0x2DC PUSH2 0xF3B JUMP JUMPDEST PUSH1 0x40 MLOAD PUSH2 0x2E9 SWAP2 SWAP1 PUSH2 0x2630 JUMP JUMPDEST PUSH1 0x40 MLOAD DUP1 SWAP2 SUB SWAP1 RETURN JUMPDEST PUSH2 0x30C PUSH1 0x4 DUP1 CALLDATASIZE SUB DUP2 ADD SWAP1 PUSH2 0x307 SWAP2 SWAP1 PUSH2 0x2075 JUMP JUMPDEST PUSH2 0x10CC JUMP JUMPDEST STOP JUMPDEST PUSH2 0x316 PUSH2 0x1118 JUMP JUMPDEST PUSH1 0x40 MLOAD PUSH2 0x323 SWAP2 SWAP1 PUSH2 0x24A4 JUMP JUMPDEST PUSH1 0x40 MLOAD DUP1 SWAP2 SUB SWAP1 RETURN JUMPDEST PUSH2 0x346 PUSH1 0x4 DUP1 CALLDATASIZE SUB DUP2 ADD SWAP1 PUSH2 0x341 SWAP2 SWAP1 PUSH2 0x2075 JUMP JUMPDEST PUSH2 0x113E JUMP JUMPDEST PUSH1 0x40 MLOAD PUSH2 0x353 SWAP2 SWAP1 PUSH2 0x2518 JUMP JUMPDEST PUSH1 0x40 MLOAD DUP1 SWAP2 SUB SWAP1 RETURN JUMPDEST PUSH2 0x376 PUSH1 0x4 DUP1 CALLDATASIZE SUB DUP2 ADD SWAP1 PUSH2 0x371 SWAP2 SWAP1 PUSH2 0x20CF JUMP JUMPDEST PUSH2 0x11F8 JUMP JUMPDEST PUSH1 0x40 MLOAD PUSH2 0x383 SWAP2 SWAP1 PUSH2 0x2630 JUMP JUMPDEST PUSH1 0x40 MLOAD DUP1 SWAP2 SUB SWAP1 RETURN JUMPDEST PUSH2 0x394 PUSH2 0x12B3 JUMP JUMPDEST PUSH1 0x40 MLOAD PUSH2 0x3A1 SWAP2 SWAP1 PUSH2 0x253A JUMP JUMPDEST PUSH1 0x40 MLOAD DUP1 SWAP2 SUB SWAP1 RETURN JUMPDEST PUSH2 0x3C4 PUSH1 0x4 DUP1 CALLDATASIZE SUB DUP2 ADD SWAP1 PUSH2 0x3BF SWAP2 SWAP1 PUSH2 0x2075 JUMP JUMPDEST PUSH2 0x12C9 JUMP JUMPDEST PUSH1 0x40 MLOAD PUSH2 0x3D1 SWAP2 SWAP1 PUSH2 0x2630 JUMP JUMPDEST PUSH1 0x40 MLOAD DUP1 SWAP2 SUB SWAP1 RETURN JUMPDEST PUSH2 0x3E2 PUSH2 0x1464 JUMP JUMPDEST STOP JUMPDEST PUSH2 0x3EC PUSH2 0x1478 JUMP JUMPDEST STOP JUMPDEST PUSH2 0x408 PUSH1 0x4 DUP1 CALLDATASIZE SUB DUP2 ADD SWAP1 PUSH2 0x403 SWAP2 SWAP1 PUSH2 0x20FC JUMP JUMPDEST PUSH2 0x148A JUMP JUMPDEST STOP JUMPDEST PUSH2 0x412 PUSH2 0x151F JUMP JUMPDEST PUSH1 0x40 MLOAD PUSH2 0x41F SWAP2 SWAP1 PUSH2 0x24A4 JUMP JUMPDEST PUSH1 0x40 MLOAD DUP1 SWAP2 SUB SWAP1 RETURN JUMPDEST PUSH2 0x430 PUSH2 0x1548 JUMP JUMPDEST PUSH1 0x40 MLOAD PUSH2 0x43D SWAP2 SWAP1 PUSH2 0x2630 JUMP JUMPDEST PUSH1 0x40 MLOAD DUP1 SWAP2 SUB SWAP1 RETURN JUMPDEST PUSH2 0x44E PUSH2 0x154E JUMP JUMPDEST PUSH1 0x40 MLOAD PUSH2 0x45B SWAP2 SWAP1 PUSH2 0x2518 JUMP JUMPDEST PUSH1 0x40 MLOAD DUP1 SWAP2 SUB SWAP1 RETURN JUMPDEST PUSH2 0x47E PUSH1 0x4 DUP1 CALLDATASIZE SUB DUP2 ADD SWAP1 PUSH2 0x479 SWAP2 SWAP1 PUSH2 0x20CF JUMP JUMPDEST PUSH2 0x15FE JUMP JUMPDEST STOP JUMPDEST PUSH2 0x488 PUSH2 0x17BD JUMP JUMPDEST PUSH1 0x40 MLOAD PUSH2 0x495 SWAP2 SWAP1 PUSH2 0x2630 JUMP JUMPDEST PUSH1 0x40 MLOAD DUP1 SWAP2 SUB SWAP1 RETURN JUMPDEST PUSH2 0x4B8 PUSH1 0x4 DUP1 CALLDATASIZE SUB DUP2 ADD SWAP1 PUSH2 0x4B3 SWAP2 SWAP1 PUSH2 0x2075 JUMP JUMPDEST PUSH2 0x17C3 JUMP JUMPDEST STOP JUMPDEST PUSH2 0x4C2 PUSH2 0x180F JUMP JUMPDEST PUSH1 0x40 MLOAD PUSH2 0x4CF SWAP2 SWAP1 PUSH2 0x2630 JUMP JUMPDEST PUSH1 0x40 MLOAD DUP1 SWAP2 SUB SWAP1 RETURN JUMPDEST PUSH2 0x4E0 PUSH2 0x18A3 JUMP JUMPDEST PUSH1 0x40 MLOAD PUSH2 0x4ED SWAP2 SWAP1 PUSH2 0x24A4 JUMP JUMPDEST PUSH1 0x40 MLOAD DUP1 SWAP2 SUB SWAP1 RETURN JUMPDEST PUSH2 0x510 PUSH1 0x4 DUP1 CALLDATASIZE SUB DUP2 ADD SWAP1 PUSH2 0x50B SWAP2 SWAP1 PUSH2 0x20CF JUMP JUMPDEST PUSH2 0x18C9 JUMP JUMPDEST STOP JUMPDEST PUSH2 0x52C PUSH1 0x4 DUP1 CALLDATASIZE SUB DUP2 ADD SWAP1 PUSH2 0x527 SWAP2 SWAP1 PUSH2 0x2075 JUMP JUMPDEST PUSH2 0x18DB JUMP JUMPDEST STOP JUMPDEST PUSH2 0x536 PUSH2 0x1927 JUMP JUMPDEST PUSH1 0x40 MLOAD PUSH2 0x543 SWAP2 SWAP1 PUSH2 0x2555 JUMP JUMPDEST PUSH1 0x40 MLOAD DUP1 SWAP2 SUB SWAP1 RETURN JUMPDEST PUSH2 0x554 PUSH2 0x194D JUMP JUMPDEST PUSH1 0x40 MLOAD PUSH2 0x561 SWAP2 SWAP1 PUSH2 0x2555 JUMP JUMPDEST PUSH1 0x40 MLOAD DUP1 SWAP2 SUB SWAP1 RETURN JUMPDEST PUSH2 0x572 PUSH2 0x1973 JUMP JUMPDEST PUSH1 0x40 MLOAD PUSH2 0x57F SWAP2 SWAP1 PUSH2 0x24F6 JUMP JUMPDEST PUSH1 0x40 MLOAD DUP1 SWAP2 SUB SWAP1 RETURN JUMPDEST PUSH2 0x5A2 PUSH1 0x4 DUP1 CALLDATASIZE SUB DUP2 ADD SWAP1 PUSH2 0x59D SWAP2 SWAP1 PUSH2 0x2075 JUMP JUMPDEST PUSH2 0x1A04 JUMP JUMPDEST STOP JUMPDEST PUSH2 0x5AC PUSH2 0x1A88 JUMP JUMPDEST PUSH1 0x40 MLOAD PUSH2 0x5B9 SWAP2 SWAP1 PUSH2 0x2630 JUMP JUMPDEST PUSH1 0x40 MLOAD DUP1 SWAP2 SUB SWAP1 RETURN JUMPDEST PUSH2 0x5CA PUSH2 0x1CFD JUMP JUMPDEST PUSH1 0x40 MLOAD DUP1 PUSH1 0xA0 ADD PUSH1 0x40 MSTORE DUP1 DUP7 DUP2 MSTORE PUSH1 0x20 ADD DUP6 DUP2 MSTORE PUSH1 0x20 ADD DUP5 DUP2 MSTORE PUSH1 0x20 ADD DUP4 DUP2 MSTORE PUSH1 0x20 ADD DUP3 DUP2 MSTORE POP PUSH1 0x1 DUP8 DUP2 SLOAD DUP2 LT PUSH2 0x605 JUMPI PUSH2 0x604 PUSH2 0x2937 JUMP JUMPDEST JUMPDEST SWAP1 PUSH1 0x0 MSTORE PUSH1 0x20 PUSH1 0x0 KECCAK256 SWAP1 PUSH1 0x5 MUL ADD PUSH1 0x0 DUP3 ADD MLOAD DUP2 PUSH1 0x0 ADD SSTORE PUSH1 0x20 DUP3 ADD MLOAD DUP2 PUSH1 0x1 ADD SSTORE PUSH1 0x40 DUP3 ADD MLOAD DUP2 PUSH1 0x2 ADD SSTORE PUSH1 0x60 DUP3 ADD MLOAD DUP2 PUSH1 0x3 ADD SSTORE PUSH1 0x80 DUP3 ADD MLOAD DUP2 PUSH1 0x4 ADD SSTORE SWAP1 POP POP POP POP POP POP POP POP JUMP JUMPDEST PUSH2 0x658 PUSH2 0x1CFD JUMP JUMPDEST DUP1 PUSH1 0x6 PUSH1 0x0 PUSH2 0x100 EXP DUP2 SLOAD DUP2 PUSH20 0xFFFFFFFFFFFFFFFFFFFFFFFFFFFFFFFFFFFFFFFF MUL NOT AND SWAP1 DUP4 PUSH20 0xFFFFFFFFFFFFFFFFFFFFFFFFFFFFFFFFFFFFFFFF AND MUL OR SWAP1 SSTORE POP POP JUMP JUMPDEST PUSH1 0x0 DUP1 PUSH1 0x0 JUMPDEST PUSH1 0x1 DUP1 SLOAD SWAP1 POP DUP2 LT ISZERO PUSH2 0x74D JUMPI PUSH1 0x1 DUP2 DUP2 SLOAD DUP2 LT PUSH2 0x6C3 JUMPI PUSH2 0x6C2 PUSH2 0x2937 JUMP JUMPDEST JUMPDEST SWAP1 PUSH1 0x0 MSTORE PUSH1 0x20 PUSH1 0x0 KECCAK256 SWAP1 PUSH1 0x5 MUL ADD PUSH1 0x0 ADD SLOAD TIMESTAMP LT ISZERO DUP1 ISZERO PUSH2 0x708 JUMPI POP PUSH1 0x1 DUP2 DUP2 SLOAD DUP2 LT PUSH2 0x6F3 JUMPI PUSH2 0x6F2 PUSH2 0x2937 JUMP JUMPDEST JUMPDEST SWAP1 PUSH1 0x0 MSTORE PUSH1 0x20 PUSH1 0x0 KECCAK256 SWAP1 PUSH1 0x5 MUL ADD PUSH1 0x1 ADD SLOAD TIMESTAMP LT JUMPDEST ISZERO PUSH2 0x73A JUMPI PUSH1 0x1 DUP2 DUP2 SLOAD DUP2 LT PUSH2 0x721 JUMPI PUSH2 0x720 PUSH2 0x2937 JUMP JUMPDEST JUMPDEST SWAP1 PUSH1 0x0 MSTORE PUSH1 0x20 PUSH1 0x0 KECCAK256 SWAP1 PUSH1 0x5 MUL ADD PUSH1 0x3 ADD SLOAD SWAP2 POP PUSH2 0x74D JUMP JUMPDEST DUP1 DUP1 PUSH2 0x745 SWAP1 PUSH2 0x2861 JUMP JUMPDEST SWAP2 POP POP PUSH2 0x6A2 JUMP JUMPDEST POP DUP1 SWAP2 POP POP SWAP1 JUMP JUMPDEST PUSH1 0x0 PUSH2 0x75F PUSH2 0x1CFD JUMP JUMPDEST PUSH1 0x0 DUP1 PUSH1 0xA PUSH1 0x0 DUP6 PUSH20 0xFFFFFFFFFFFFFFFFFFFFFFFFFFFFFFFFFFFFFFFF AND PUSH20 0xFFFFFFFFFFFFFFFFFFFFFFFFFFFFFFFFFFFFFFFF AND DUP2 MSTORE PUSH1 0x20 ADD SWAP1 DUP2 MSTORE PUSH1 0x20 ADD PUSH1 0x0 KECCAK256 DUP1 SLOAD SWAP1 POP EQ PUSH2 0x9CB JUMPI PUSH1 0x0 JUMPDEST PUSH1 0xA PUSH1 0x0 DUP6 PUSH20 0xFFFFFFFFFFFFFFFFFFFFFFFFFFFFFFFFFFFFFFFF AND PUSH20 0xFFFFFFFFFFFFFFFFFFFFFFFFFFFFFFFFFFFFFFFF AND DUP2 MSTORE PUSH1 0x20 ADD SWAP1 DUP2 MSTORE PUSH1 0x20 ADD PUSH1 0x0 KECCAK256 DUP1 SLOAD SWAP1 POP DUP2 LT ISZERO PUSH2 0x9C9 JUMPI TIMESTAMP PUSH2 0x863 PUSH1 0xA PUSH1 0x0 DUP8 PUSH20 0xFFFFFFFFFFFFFFFFFFFFFFFFFFFFFFFFFFFFFFFF AND PUSH20 0xFFFFFFFFFFFFFFFFFFFFFFFFFFFFFFFFFFFFFFFF AND DUP2 MSTORE PUSH1 0x20 ADD SWAP1 DUP2 MSTORE PUSH1 0x20 ADD PUSH1 0x0 KECCAK256 DUP4 DUP2 SLOAD DUP2 LT PUSH2 0x84C JUMPI PUSH2 0x84B PUSH2 0x2937 JUMP JUMPDEST JUMPDEST SWAP1 PUSH1 0x0 MSTORE PUSH1 0x20 PUSH1 0x0 KECCAK256 SWAP1 PUSH1 0x2 MUL ADD PUSH1 0x0 ADD SLOAD PUSH2 0x11F8 JUMP JUMPDEST PUSH1 0xA PUSH1 0x0 DUP8 PUSH20 0xFFFFFFFFFFFFFFFFFFFFFFFFFFFFFFFFFFFFFFFF AND PUSH20 0xFFFFFFFFFFFFFFFFFFFFFFFFFFFFFFFFFFFFFFFF AND DUP2 MSTORE PUSH1 0x20 ADD SWAP1 DUP2 MSTORE PUSH1 0x20 ADD PUSH1 0x0 KECCAK256 DUP4 DUP2 SLOAD DUP2 LT PUSH2 0x8B4 JUMPI PUSH2 0x8B3 PUSH2 0x2937 JUMP JUMPDEST JUMPDEST SWAP1 PUSH1 0x0 MSTORE PUSH1 0x20 PUSH1 0x0 KECCAK256 SWAP1 PUSH1 0x2 MUL ADD PUSH1 0x0 ADD SLOAD PUSH2 0x8D0 SWAP2 SWAP1 PUSH2 0x26CE JUMP JUMPDEST LT DUP1 ISZERO PUSH2 0x940 JUMPI POP PUSH1 0x0 PUSH1 0xA PUSH1 0x0 DUP7 PUSH20 0xFFFFFFFFFFFFFFFFFFFFFFFFFFFFFFFFFFFFFFFF AND PUSH20 0xFFFFFFFFFFFFFFFFFFFFFFFFFFFFFFFFFFFFFFFF AND DUP2 MSTORE PUSH1 0x20 ADD SWAP1 DUP2 MSTORE PUSH1 0x20 ADD PUSH1 0x0 KECCAK256 DUP3 DUP2 SLOAD DUP2 LT PUSH2 0x92B JUMPI PUSH2 0x92A PUSH2 0x2937 JUMP JUMPDEST JUMPDEST SWAP1 PUSH1 0x0 MSTORE PUSH1 0x20 PUSH1 0x0 KECCAK256 SWAP1 PUSH1 0x2 MUL ADD PUSH1 0x1 ADD SLOAD EQ ISZERO JUMPDEST ISZERO PUSH2 0x9B6 JUMPI PUSH1 0xA PUSH1 0x0 DUP6 PUSH20 0xFFFFFFFFFFFFFFFFFFFFFFFFFFFFFFFFFFFFFFFF AND PUSH20 0xFFFFFFFFFFFFFFFFFFFFFFFFFFFFFFFFFFFFFFFF AND DUP2 MSTORE PUSH1 0x20 ADD SWAP1 DUP2 MSTORE PUSH1 0x20 ADD PUSH1 0x0 KECCAK256 DUP2 DUP2 SLOAD DUP2 LT PUSH2 0x996 JUMPI PUSH2 0x995 PUSH2 0x2937 JUMP JUMPDEST JUMPDEST SWAP1 PUSH1 0x0 MSTORE PUSH1 0x20 PUSH1 0x0 KECCAK256 SWAP1 PUSH1 0x2 MUL ADD PUSH1 0x1 ADD SLOAD DUP3 PUSH2 0x9B3 SWAP2 SWAP1 PUSH2 0x26CE JUMP JUMPDEST SWAP2 POP JUMPDEST DUP1 DUP1 PUSH2 0x9C1 SWAP1 PUSH2 0x2861 JUMP JUMPDEST SWAP2 POP POP PUSH2 0x7AD JUMP JUMPDEST POP JUMPDEST DUP1 SWAP2 POP POP SWAP2 SWAP1 POP JUMP JUMPDEST PUSH2 0x9DC PUSH2 0x1CFD JUMP JUMPDEST PUSH1 0x0 PUSH1 0x1 DUP1 DUP1 SLOAD SWAP1 POP PUSH2 0x9EF SWAP2 SWAP1 PUSH2 0x27AF JUMP JUMPDEST SWAP1 POP DUP1 DUP3 EQ PUSH2 0xA72 JUMPI PUSH1 0x1 DUP2 DUP2 SLOAD DUP2 LT PUSH2 0xA0C JUMPI PUSH2 0xA0B PUSH2 0x2937 JUMP JUMPDEST JUMPDEST SWAP1 PUSH1 0x0 MSTORE PUSH1 0x20 PUSH1 0x0 KECCAK256 SWAP1 PUSH1 0x5 MUL ADD PUSH1 0x1 DUP4 DUP2 SLOAD DUP2 LT PUSH2 0xA2E JUMPI PUSH2 0xA2D PUSH2 0x2937 JUMP JUMPDEST JUMPDEST SWAP1 PUSH1 0x0 MSTORE PUSH1 0x20 PUSH1 0x0 KECCAK256 SWAP1 PUSH1 0x5 MUL ADD PUSH1 0x0 DUP3 ADD SLOAD DUP2 PUSH1 0x0 ADD SSTORE PUSH1 0x1 DUP3 ADD SLOAD DUP2 PUSH1 0x1 ADD SSTORE PUSH1 0x2 DUP3 ADD SLOAD DUP2 PUSH1 0x2 ADD SSTORE PUSH1 0x3 DUP3 ADD SLOAD DUP2 PUSH1 0x3 ADD SSTORE PUSH1 0x4 DUP3 ADD SLOAD DUP2 PUSH1 0x4 ADD SSTORE SWAP1 POP POP JUMPDEST PUSH1 0x1 DUP1 SLOAD DUP1 PUSH2 0xA84 JUMPI PUSH2 0xA83 PUSH2 0x2908 JUMP JUMPDEST JUMPDEST PUSH1 0x1 SWAP1 SUB DUP2 DUP2 SWAP1 PUSH1 0x0 MSTORE PUSH1 0x20 PUSH1 0x0 KECCAK256 SWAP1 PUSH1 0x5 MUL ADD PUSH1 0x0 DUP1 DUP3 ADD PUSH1 0x0 SWAP1 SSTORE PUSH1 0x1 DUP3 ADD PUSH1 0x0 SWAP1 SSTORE PUSH1 0x2 DUP3 ADD PUSH1 0x0 SWAP1 SSTORE PUSH1 0x3 DUP3 ADD PUSH1 0x0 SWAP1 SSTORE PUSH1 0x4 DUP3 ADD PUSH1 0x0 SWAP1 SSTORE POP POP SWAP1 SSTORE POP POP JUMP JUMPDEST PUSH1 0x0 DUP1 PUSH1 0x0 SWAP1 POP JUMPDEST PUSH1 0xA PUSH1 0x0 CALLER PUSH20 0xFFFFFFFFFFFFFFFFFFFFFFFFFFFFFFFFFFFFFFFF AND PUSH20 0xFFFFFFFFFFFFFFFFFFFFFFFFFFFFFFFFFFFFFFFF AND DUP2 MSTORE PUSH1 0x20 ADD SWAP1 DUP2 MSTORE PUSH1 0x20 ADD PUSH1 0x0 KECCAK256 DUP1 SLOAD SWAP1 POP DUP2 LT ISZERO PUSH2 0xD55 JUMPI TIMESTAMP PUSH2 0xB87 PUSH1 0xA PUSH1 0x0 CALLER PUSH20 0xFFFFFFFFFFFFFFFFFFFFFFFFFFFFFFFFFFFFFFFF AND PUSH20 0xFFFFFFFFFFFFFFFFFFFFFFFFFFFFFFFFFFFFFFFF AND DUP2 MSTORE PUSH1 0x20 ADD SWAP1 DUP2 MSTORE PUSH1 0x20 ADD PUSH1 0x0 KECCAK256 DUP4 DUP2 SLOAD DUP2 LT PUSH2 0xB70 JUMPI PUSH2 0xB6F PUSH2 0x2937 JUMP JUMPDEST JUMPDEST SWAP1 PUSH1 0x0 MSTORE PUSH1 0x20 PUSH1 0x0 KECCAK256 SWAP1 PUSH1 0x2 MUL ADD PUSH1 0x0 ADD SLOAD PUSH2 0x11F8 JUMP JUMPDEST PUSH1 0xA PUSH1 0x0 CALLER PUSH20 0xFFFFFFFFFFFFFFFFFFFFFFFFFFFFFFFFFFFFFFFF AND PUSH20 0xFFFFFFFFFFFFFFFFFFFFFFFFFFFFFFFFFFFFFFFF AND DUP2 MSTORE PUSH1 0x20 ADD SWAP1 DUP2 MSTORE PUSH1 0x20 ADD PUSH1 0x0 KECCAK256 DUP4 DUP2 SLOAD DUP2 LT PUSH2 0xBD8 JUMPI PUSH2 0xBD7 PUSH2 0x2937 JUMP JUMPDEST JUMPDEST SWAP1 PUSH1 0x0 MSTORE PUSH1 0x20 PUSH1 0x0 KECCAK256 SWAP1 PUSH1 0x2 MUL ADD PUSH1 0x0 ADD SLOAD PUSH2 0xBF4 SWAP2 SWAP1 PUSH2 0x26CE JUMP JUMPDEST LT DUP1 ISZERO PUSH2 0xC64 JUMPI POP PUSH1 0x0 PUSH1 0xA PUSH1 0x0 CALLER PUSH20 0xFFFFFFFFFFFFFFFFFFFFFFFFFFFFFFFFFFFFFFFF AND PUSH20 0xFFFFFFFFFFFFFFFFFFFFFFFFFFFFFFFFFFFFFFFF AND DUP2 MSTORE PUSH1 0x20 ADD SWAP1 DUP2 MSTORE PUSH1 0x20 ADD PUSH1 0x0 KECCAK256 DUP3 DUP2 SLOAD DUP2 LT PUSH2 0xC4F JUMPI PUSH2 0xC4E PUSH2 0x2937 JUMP JUMPDEST JUMPDEST SWAP1 PUSH1 0x0 MSTORE PUSH1 0x20 PUSH1 0x0 KECCAK256 SWAP1 PUSH1 0x2 MUL ADD PUSH1 0x1 ADD SLOAD EQ ISZERO JUMPDEST ISZERO PUSH2 0xD42 JUMPI PUSH1 0xA PUSH1 0x0 CALLER PUSH20 0xFFFFFFFFFFFFFFFFFFFFFFFFFFFFFFFFFFFFFFFF AND PUSH20 0xFFFFFFFFFFFFFFFFFFFFFFFFFFFFFFFFFFFFFFFF AND DUP2 MSTORE PUSH1 0x20 ADD SWAP1 DUP2 MSTORE PUSH1 0x20 ADD PUSH1 0x0 KECCAK256 DUP2 DUP2 SLOAD DUP2 LT PUSH2 0xCBA JUMPI PUSH2 0xCB9 PUSH2 0x2937 JUMP JUMPDEST JUMPDEST SWAP1 PUSH1 0x0 MSTORE PUSH1 0x20 PUSH1 0x0 KECCAK256 SWAP1 PUSH1 0x2 MUL ADD PUSH1 0x1 ADD SLOAD DUP3 PUSH2 0xCD7 SWAP2 SWAP1 PUSH2 0x26CE JUMP JUMPDEST SWAP2 POP PUSH1 0x0 PUSH1 0xA PUSH1 0x0 CALLER PUSH20 0xFFFFFFFFFFFFFFFFFFFFFFFFFFFFFFFFFFFFFFFF AND PUSH20 0xFFFFFFFFFFFFFFFFFFFFFFFFFFFFFFFFFFFFFFFF AND DUP2 MSTORE PUSH1 0x20 ADD SWAP1 DUP2 MSTORE PUSH1 0x20 ADD PUSH1 0x0 KECCAK256 DUP3 DUP2 SLOAD DUP2 LT PUSH2 0xD2C JUMPI PUSH2 0xD2B PUSH2 0x2937 JUMP JUMPDEST JUMPDEST SWAP1 PUSH1 0x0 MSTORE PUSH1 0x20 PUSH1 0x0 KECCAK256 SWAP1 PUSH1 0x2 MUL ADD PUSH1 0x1 ADD DUP2 SWAP1 SSTORE POP JUMPDEST DUP1 DUP1 PUSH2 0xD4D SWAP1 PUSH2 0x2861 JUMP JUMPDEST SWAP2 POP POP PUSH2 0xAD1 JUMP JUMPDEST POP PUSH1 0x3 PUSH1 0x0 SWAP1 SLOAD SWAP1 PUSH2 0x100 EXP SWAP1 DIV PUSH20 0xFFFFFFFFFFFFFFFFFFFFFFFFFFFFFFFFFFFFFFFF AND PUSH20 0xFFFFFFFFFFFFFFFFFFFFFFFFFFFFFFFFFFFFFFFF AND PUSH4 0x23B872DD PUSH1 0x7 PUSH1 0x0 SWAP1 SLOAD SWAP1 PUSH2 0x100 EXP SWAP1 DIV PUSH20 0xFFFFFFFFFFFFFFFFFFFFFFFFFFFFFFFFFFFFFFFF AND CALLER DUP5 PUSH1 0x40 MLOAD DUP5 PUSH4 0xFFFFFFFF AND PUSH1 0xE0 SHL DUP2 MSTORE PUSH1 0x4 ADD PUSH2 0xDD7 SWAP4 SWAP3 SWAP2 SWAP1 PUSH2 0x24BF JUMP JUMPDEST PUSH1 0x20 PUSH1 0x40 MLOAD DUP1 DUP4 SUB DUP2 PUSH1 0x0 DUP8 DUP1 EXTCODESIZE ISZERO DUP1 ISZERO PUSH2 0xDF1 JUMPI PUSH1 0x0 DUP1 REVERT JUMPDEST POP GAS CALL ISZERO DUP1 ISZERO PUSH2 0xE05 JUMPI RETURNDATASIZE PUSH1 0x0 DUP1 RETURNDATACOPY RETURNDATASIZE PUSH1 0x0 REVERT JUMPDEST POP POP POP POP PUSH1 0x40 MLOAD RETURNDATASIZE PUSH1 0x1F NOT PUSH1 0x1F DUP3 ADD AND DUP3 ADD DUP1 PUSH1 0x40 MSTORE POP DUP2 ADD SWAP1 PUSH2 0xE29 SWAP2 SWAP1 PUSH2 0x20A2 JUMP JUMPDEST POP PUSH1 0x0 DUP2 GT PUSH2 0xE6D JUMPI PUSH1 0x40 MLOAD PUSH32 0x8C379A000000000000000000000000000000000000000000000000000000000 DUP2 MSTORE PUSH1 0x4 ADD PUSH2 0xE64 SWAP1 PUSH2 0x25F0 JUMP JUMPDEST PUSH1 0x40 MLOAD DUP1 SWAP2 SUB SWAP1 REVERT JUMPDEST POP JUMP JUMPDEST PUSH2 0xE78 PUSH2 0x1CFD JUMP JUMPDEST PUSH2 0xE80 PUSH2 0x1D7B JUMP JUMPDEST JUMP JUMPDEST PUSH1 0x0 DUP1 PUSH1 0x0 JUMPDEST PUSH1 0x1 DUP1 SLOAD SWAP1 POP DUP2 LT ISZERO PUSH2 0xF33 JUMPI PUSH1 0x1 DUP2 DUP2 SLOAD DUP2 LT PUSH2 0xEA9 JUMPI PUSH2 0xEA8 PUSH2 0x2937 JUMP JUMPDEST JUMPDEST SWAP1 PUSH1 0x0 MSTORE PUSH1 0x20 PUSH1 0x0 KECCAK256 SWAP1 PUSH1 0x5 MUL ADD PUSH1 0x0 ADD SLOAD TIMESTAMP LT ISZERO DUP1 ISZERO PUSH2 0xEEE JUMPI POP PUSH1 0x1 DUP2 DUP2 SLOAD DUP2 LT PUSH2 0xED9 JUMPI PUSH2 0xED8 PUSH2 0x2937 JUMP JUMPDEST JUMPDEST SWAP1 PUSH1 0x0 MSTORE PUSH1 0x20 PUSH1 0x0 KECCAK256 SWAP1 PUSH1 0x5 MUL ADD PUSH1 0x1 ADD SLOAD TIMESTAMP LT JUMPDEST ISZERO PUSH2 0xF20 JUMPI PUSH1 0x1 DUP2 DUP2 SLOAD DUP2 LT PUSH2 0xF07 JUMPI PUSH2 0xF06 PUSH2 0x2937 JUMP JUMPDEST JUMPDEST SWAP1 PUSH1 0x0 MSTORE PUSH1 0x20 PUSH1 0x0 KECCAK256 SWAP1 PUSH1 0x5 MUL ADD PUSH1 0x4 ADD SLOAD SWAP2 POP PUSH2 0xF33 JUMP JUMPDEST DUP1 DUP1 PUSH2 0xF2B SWAP1 PUSH2 0x2861 JUMP JUMPDEST SWAP2 POP POP PUSH2 0xE88 JUMP JUMPDEST POP DUP1 SWAP2 POP POP SWAP1 JUMP JUMPDEST PUSH1 0x0 DUP1 PUSH1 0x0 PUSH1 0xA PUSH1 0x0 CALLER PUSH20 0xFFFFFFFFFFFFFFFFFFFFFFFFFFFFFFFFFFFFFFFF AND PUSH20 0xFFFFFFFFFFFFFFFFFFFFFFFFFFFFFFFFFFFFFFFF AND DUP2 MSTORE PUSH1 0x20 ADD SWAP1 DUP2 MSTORE PUSH1 0x20 ADD PUSH1 0x0 KECCAK256 DUP1 SLOAD SWAP1 POP EQ PUSH2 0x10C5 JUMPI PUSH1 0x0 JUMPDEST PUSH1 0xA PUSH1 0x0 CALLER PUSH20 0xFFFFFFFFFFFFFFFFFFFFFFFFFFFFFFFFFFFFFFFF AND PUSH20 0xFFFFFFFFFFFFFFFFFFFFFFFFFFFFFFFFFFFFFFFF AND DUP2 MSTORE PUSH1 0x20 ADD SWAP1 DUP2 MSTORE PUSH1 0x20 ADD PUSH1 0x0 KECCAK256 DUP1 SLOAD SWAP1 POP DUP2 LT ISZERO PUSH2 0x10C3 JUMPI PUSH1 0x0 PUSH1 0xA PUSH1 0x0 CALLER PUSH20 0xFFFFFFFFFFFFFFFFFFFFFFFFFFFFFFFFFFFFFFFF AND PUSH20 0xFFFFFFFFFFFFFFFFFFFFFFFFFFFFFFFFFFFFFFFF AND DUP2 MSTORE PUSH1 0x20 ADD SWAP1 DUP2 MSTORE PUSH1 0x20 ADD PUSH1 0x0 KECCAK256 DUP3 DUP2 SLOAD DUP2 LT PUSH2 0x1028 JUMPI PUSH2 0x1027 PUSH2 0x2937 JUMP JUMPDEST JUMPDEST SWAP1 PUSH1 0x0 MSTORE PUSH1 0x20 PUSH1 0x0 KECCAK256 SWAP1 PUSH1 0x2 MUL ADD PUSH1 0x1 ADD SLOAD EQ PUSH2 0x10B0 JUMPI PUSH1 0xA PUSH1 0x0 CALLER PUSH20 0xFFFFFFFFFFFFFFFFFFFFFFFFFFFFFFFFFFFFFFFF AND PUSH20 0xFFFFFFFFFFFFFFFFFFFFFFFFFFFFFFFFFFFFFFFF AND DUP2 MSTORE PUSH1 0x20 ADD SWAP1 DUP2 MSTORE PUSH1 0x20 ADD PUSH1 0x0 KECCAK256 DUP2 DUP2 SLOAD DUP2 LT PUSH2 0x1090 JUMPI PUSH2 0x108F PUSH2 0x2937 JUMP JUMPDEST JUMPDEST SWAP1 PUSH1 0x0 MSTORE PUSH1 0x20 PUSH1 0x0 KECCAK256 SWAP1 PUSH1 0x2 MUL ADD PUSH1 0x1 ADD SLOAD DUP3 PUSH2 0x10AD SWAP2 SWAP1 PUSH2 0x26CE JUMP JUMPDEST SWAP2 POP JUMPDEST DUP1 DUP1 PUSH2 0x10BB SWAP1 PUSH2 0x2861 JUMP JUMPDEST SWAP2 POP POP PUSH2 0xF8B JUMP JUMPDEST POP JUMPDEST DUP1 SWAP2 POP POP SWAP1 JUMP JUMPDEST PUSH2 0x10D4 PUSH2 0x1CFD JUMP JUMPDEST DUP1 PUSH1 0x7 PUSH1 0x0 PUSH2 0x100 EXP DUP2 SLOAD DUP2 PUSH20 0xFFFFFFFFFFFFFFFFFFFFFFFFFFFFFFFFFFFFFFFF MUL NOT AND SWAP1 DUP4 PUSH20 0xFFFFFFFFFFFFFFFFFFFFFFFFFFFFFFFFFFFFFFFF AND MUL OR SWAP1 SSTORE POP POP JUMP JUMPDEST PUSH1 0x7 PUSH1 0x0 SWAP1 SLOAD SWAP1 PUSH2 0x100 EXP SWAP1 DIV PUSH20 0xFFFFFFFFFFFFFFFFFFFFFFFFFFFFFFFFFFFFFFFF AND DUP2 JUMP JUMPDEST PUSH1 0x60 PUSH2 0x1148 PUSH2 0x1CFD JUMP JUMPDEST PUSH1 0xA PUSH1 0x0 DUP4 PUSH20 0xFFFFFFFFFFFFFFFFFFFFFFFFFFFFFFFFFFFFFFFF AND PUSH20 0xFFFFFFFFFFFFFFFFFFFFFFFFFFFFFFFFFFFFFFFF AND DUP2 MSTORE PUSH1 0x20 ADD SWAP1 DUP2 MSTORE PUSH1 0x20 ADD PUSH1 0x0 KECCAK256 DUP1 SLOAD DUP1 PUSH1 0x20 MUL PUSH1 0x20 ADD PUSH1 0x40 MLOAD SWAP1 DUP2 ADD PUSH1 0x40 MSTORE DUP1 SWAP3 SWAP2 SWAP1 DUP2 DUP2 MSTORE PUSH1 0x20 ADD PUSH1 0x0 SWAP1 JUMPDEST DUP3 DUP3 LT ISZERO PUSH2 0x11ED JUMPI DUP4 DUP3 SWAP1 PUSH1 0x0 MSTORE PUSH1 0x20 PUSH1 0x0 KECCAK256 SWAP1 PUSH1 0x2 MUL ADD PUSH1 0x40 MLOAD DUP1 PUSH1 0x40 ADD PUSH1 0x40 MSTORE SWAP1 DUP2 PUSH1 0x0 DUP3 ADD SLOAD DUP2 MSTORE PUSH1 0x20 ADD PUSH1 0x1 DUP3 ADD SLOAD DUP2 MSTORE POP POP DUP2 MSTORE PUSH1 0x20 ADD SWAP1 PUSH1 0x1 ADD SWAP1 PUSH2 0x11A7 JUMP JUMPDEST POP POP POP POP SWAP1 POP SWAP2 SWAP1 POP JUMP JUMPDEST PUSH1 0x0 DUP1 PUSH1 0x0 JUMPDEST PUSH1 0x1 DUP1 SLOAD SWAP1 POP DUP2 LT ISZERO PUSH2 0x12A9 JUMPI PUSH1 0x1 DUP2 DUP2 SLOAD DUP2 LT PUSH2 0x121F JUMPI PUSH2 0x121E PUSH2 0x2937 JUMP JUMPDEST JUMPDEST SWAP1 PUSH1 0x0 MSTORE PUSH1 0x20 PUSH1 0x0 KECCAK256 SWAP1 PUSH1 0x5 MUL ADD PUSH1 0x0 ADD SLOAD DUP5 LT ISZERO DUP1 ISZERO PUSH2 0x1264 JUMPI POP PUSH1 0x1 DUP2 DUP2 SLOAD DUP2 LT PUSH2 0x124F JUMPI PUSH2 0x124E PUSH2 0x2937 JUMP JUMPDEST JUMPDEST SWAP1 PUSH1 0x0 MSTORE PUSH1 0x20 PUSH1 0x0 KECCAK256 SWAP1 PUSH1 0x5 MUL ADD PUSH1 0x1 ADD SLOAD DUP5 LT JUMPDEST ISZERO PUSH2 0x1296 JUMPI PUSH1 0x1 DUP2 DUP2 SLOAD DUP2 LT PUSH2 0x127D JUMPI PUSH2 0x127C PUSH2 0x2937 JUMP JUMPDEST JUMPDEST SWAP1 PUSH1 0x0 MSTORE PUSH1 0x20 PUSH1 0x0 KECCAK256 SWAP1 PUSH1 0x5 MUL ADD PUSH1 0x2 ADD SLOAD SWAP2 POP PUSH2 0x12A9 JUMP JUMPDEST DUP1 DUP1 PUSH2 0x12A1 SWAP1 PUSH2 0x2861 JUMP JUMPDEST SWAP2 POP POP PUSH2 0x11FE JUMP JUMPDEST POP DUP1 SWAP2 POP POP SWAP2 SWAP1 POP JUMP JUMPDEST PUSH1 0x0 DUP1 PUSH1 0x14 SWAP1 SLOAD SWAP1 PUSH2 0x100 EXP SWAP1 DIV PUSH1 0xFF AND SWAP1 POP SWAP1 JUMP JUMPDEST PUSH1 0x0 PUSH2 0x12D3 PUSH2 0x1CFD JUMP JUMPDEST PUSH1 0x0 DUP1 PUSH1 0xA PUSH1 0x0 DUP6 PUSH20 0xFFFFFFFFFFFFFFFFFFFFFFFFFFFFFFFFFFFFFFFF AND PUSH20 0xFFFFFFFFFFFFFFFFFFFFFFFFFFFFFFFFFFFFFFFF AND DUP2 MSTORE PUSH1 0x20 ADD SWAP1 DUP2 MSTORE PUSH1 0x20 ADD PUSH1 0x0 KECCAK256 DUP1 SLOAD SWAP1 POP EQ PUSH2 0x145B JUMPI PUSH1 0x0 JUMPDEST PUSH1 0xA PUSH1 0x0 DUP6 PUSH20 0xFFFFFFFFFFFFFFFFFFFFFFFFFFFFFFFFFFFFFFFF AND PUSH20 0xFFFFFFFFFFFFFFFFFFFFFFFFFFFFFFFFFFFFFFFF AND DUP2 MSTORE PUSH1 0x20 ADD SWAP1 DUP2 MSTORE PUSH1 0x20 ADD PUSH1 0x0 KECCAK256 DUP1 SLOAD SWAP1 POP DUP2 LT ISZERO PUSH2 0x1459 JUMPI PUSH1 0x0 PUSH1 0xA PUSH1 0x0 DUP7 PUSH20 0xFFFFFFFFFFFFFFFFFFFFFFFFFFFFFFFFFFFFFFFF AND PUSH20 0xFFFFFFFFFFFFFFFFFFFFFFFFFFFFFFFFFFFFFFFF AND DUP2 MSTORE PUSH1 0x20 ADD SWAP1 DUP2 MSTORE PUSH1 0x20 ADD PUSH1 0x0 KECCAK256 DUP3 DUP2 SLOAD DUP2 LT PUSH2 0x13BE JUMPI PUSH2 0x13BD PUSH2 0x2937 JUMP JUMPDEST JUMPDEST SWAP1 PUSH1 0x0 MSTORE PUSH1 0x20 PUSH1 0x0 KECCAK256 SWAP1 PUSH1 0x2 MUL ADD PUSH1 0x1 ADD SLOAD EQ PUSH2 0x1446 JUMPI PUSH1 0xA PUSH1 0x0 DUP6 PUSH20 0xFFFFFFFFFFFFFFFFFFFFFFFFFFFFFFFFFFFFFFFF AND PUSH20 0xFFFFFFFFFFFFFFFFFFFFFFFFFFFFFFFFFFFFFFFF AND DUP2 MSTORE PUSH1 0x20 ADD SWAP1 DUP2 MSTORE PUSH1 0x20 ADD PUSH1 0x0 KECCAK256 DUP2 DUP2 SLOAD DUP2 LT PUSH2 0x1426 JUMPI PUSH2 0x1425 PUSH2 0x2937 JUMP JUMPDEST JUMPDEST SWAP1 PUSH1 0x0 MSTORE PUSH1 0x20 PUSH1 0x0 KECCAK256 SWAP1 PUSH1 0x2 MUL ADD PUSH1 0x1 ADD SLOAD DUP3 PUSH2 0x1443 SWAP2 SWAP1 PUSH2 0x26CE JUMP JUMPDEST SWAP2 POP JUMPDEST DUP1 DUP1 PUSH2 0x1451 SWAP1 PUSH2 0x2861 JUMP JUMPDEST SWAP2 POP POP PUSH2 0x1321 JUMP JUMPDEST POP JUMPDEST DUP1 SWAP2 POP POP SWAP2 SWAP1 POP JUMP JUMPDEST PUSH2 0x146C PUSH2 0x1CFD JUMP JUMPDEST PUSH2 0x1476 PUSH1 0x0 PUSH2 0x1DDD JUMP JUMPDEST JUMP JUMPDEST PUSH2 0x1480 PUSH2 0x1CFD JUMP JUMPDEST PUSH2 0x1488 PUSH2 0x1EA1 JUMP JUMPDEST JUMP JUMPDEST PUSH2 0x1492 PUSH2 0x1CFD JUMP JUMPDEST PUSH1 0x1 PUSH1 0x40 MLOAD DUP1 PUSH1 0xA0 ADD PUSH1 0x40 MSTORE DUP1 DUP8 DUP2 MSTORE PUSH1 0x20 ADD DUP7 DUP2 MSTORE PUSH1 0x20 ADD DUP6 DUP2 MSTORE PUSH1 0x20 ADD DUP5 DUP2 MSTORE PUSH1 0x20 ADD DUP4 DUP2 MSTORE POP SWAP1 DUP1 PUSH1 0x1 DUP2 SLOAD ADD DUP1 DUP3 SSTORE DUP1 SWAP2 POP POP PUSH1 0x1 SWAP1 SUB SWAP1 PUSH1 0x0 MSTORE PUSH1 0x20 PUSH1 0x0 KECCAK256 SWAP1 PUSH1 0x5 MUL ADD PUSH1 0x0 SWAP1 SWAP2 SWAP1 SWAP2 SWAP1 SWAP2 POP PUSH1 0x0 DUP3 ADD MLOAD DUP2 PUSH1 0x0 ADD SSTORE PUSH1 0x20 DUP3 ADD MLOAD DUP2 PUSH1 0x1 ADD SSTORE PUSH1 0x40 DUP3 ADD MLOAD DUP2 PUSH1 0x2 ADD SSTORE PUSH1 0x60 DUP3 ADD MLOAD DUP2 PUSH1 0x3 ADD SSTORE PUSH1 0x80 DUP3 ADD MLOAD DUP2 PUSH1 0x4 ADD SSTORE POP POP POP POP POP POP POP JUMP JUMPDEST PUSH1 0x0 DUP1 PUSH1 0x0 SWAP1 SLOAD SWAP1 PUSH2 0x100 EXP SWAP1 DIV PUSH20 0xFFFFFFFFFFFFFFFFFFFFFFFFFFFFFFFFFFFFFFFF AND SWAP1 POP SWAP1 JUMP JUMPDEST PUSH1 0x9 SLOAD DUP2 JUMP JUMPDEST PUSH1 0x60 PUSH1 0xA PUSH1 0x0 CALLER PUSH20 0xFFFFFFFFFFFFFFFFFFFFFFFFFFFFFFFFFFFFFFFF AND PUSH20 0xFFFFFFFFFFFFFFFFFFFFFFFFFFFFFFFFFFFFFFFF AND DUP2 MSTORE PUSH1 0x20 ADD SWAP1 DUP2 MSTORE PUSH1 0x20 ADD PUSH1 0x0 KECCAK256 DUP1 SLOAD DUP1 PUSH1 0x20 MUL PUSH1 0x20 ADD PUSH1 0x40 MLOAD SWAP1 DUP2 ADD PUSH1 0x40 MSTORE DUP1 SWAP3 SWAP2 SWAP1 DUP2 DUP2 MSTORE PUSH1 0x20 ADD PUSH1 0x0 SWAP1 JUMPDEST DUP3 DUP3 LT ISZERO PUSH2 0x15F5 JUMPI DUP4 DUP3 SWAP1 PUSH1 0x0 MSTORE PUSH1 0x20 PUSH1 0x0 KECCAK256 SWAP1 PUSH1 0x2 MUL ADD PUSH1 0x40 MLOAD DUP1 PUSH1 0x40 ADD PUSH1 0x40 MSTORE SWAP1 DUP2 PUSH1 0x0 DUP3 ADD SLOAD DUP2 MSTORE PUSH1 0x20 ADD PUSH1 0x1 DUP3 ADD SLOAD DUP2 MSTORE POP POP DUP2 MSTORE PUSH1 0x20 ADD SWAP1 PUSH1 0x1 ADD SWAP1 PUSH2 0x15AF JUMP JUMPDEST POP POP POP POP SWAP1 POP SWAP1 JUMP JUMPDEST PUSH2 0x1606 PUSH2 0x1F04 JUMP JUMPDEST PUSH1 0x0 PUSH1 0x64 PUSH2 0x1612 PUSH2 0x69C JUMP JUMPDEST DUP4 PUSH2 0x161D SWAP2 SWAP1 PUSH2 0x2755 JUMP JUMPDEST PUSH2 0x1627 SWAP2 SWAP1 PUSH2 0x2724 JUMP JUMPDEST SWAP1 POP PUSH1 0x8 SLOAD DUP2 LT ISZERO PUSH2 0x166E JUMPI PUSH1 0x40 MLOAD PUSH32 0x8C379A000000000000000000000000000000000000000000000000000000000 DUP2 MSTORE PUSH1 0x4 ADD PUSH2 0x1665 SWAP1 PUSH2 0x2610 JUMP JUMPDEST PUSH1 0x40 MLOAD DUP1 SWAP2 SUB SWAP1 REVERT JUMPDEST DUP2 PUSH1 0x9 SLOAD PUSH2 0x167C SWAP2 SWAP1 PUSH2 0x26CE JUMP JUMPDEST PUSH2 0x1684 PUSH2 0xE82 JUMP JUMPDEST LT ISZERO PUSH2 0x168F JUMPI PUSH1 0x0 DUP1 REVERT JUMPDEST PUSH2 0x1699 DUP3 CALLER PUSH2 0x1F4E JUMP JUMPDEST DUP2 PUSH1 0x9 SLOAD PUSH2 0x16A7 SWAP2 SWAP1 PUSH2 0x26CE JUMP JUMPDEST PUSH1 0x9 DUP2 SWAP1 SSTORE POP PUSH1 0x5 PUSH1 0x0 SWAP1 SLOAD SWAP1 PUSH2 0x100 EXP SWAP1 DIV PUSH20 0xFFFFFFFFFFFFFFFFFFFFFFFFFFFFFFFFFFFFFFFF AND PUSH20 0xFFFFFFFFFFFFFFFFFFFFFFFFFFFFFFFFFFFFFFFF AND PUSH4 0x23B872DD CALLER PUSH1 0x6 PUSH1 0x0 SWAP1 SLOAD SWAP1 PUSH2 0x100 EXP SWAP1 DIV PUSH20 0xFFFFFFFFFFFFFFFFFFFFFFFFFFFFFFFFFFFFFFFF AND DUP5 PUSH1 0x40 MLOAD DUP5 PUSH4 0xFFFFFFFF AND PUSH1 0xE0 SHL DUP2 MSTORE PUSH1 0x4 ADD PUSH2 0x172E SWAP4 SWAP3 SWAP2 SWAP1 PUSH2 0x24BF JUMP JUMPDEST PUSH1 0x20 PUSH1 0x40 MLOAD DUP1 DUP4 SUB DUP2 PUSH1 0x0 DUP8 DUP1 EXTCODESIZE ISZERO DUP1 ISZERO PUSH2 0x1748 JUMPI PUSH1 0x0 DUP1 REVERT JUMPDEST POP GAS CALL ISZERO DUP1 ISZERO PUSH2 0x175C JUMPI RETURNDATASIZE PUSH1 0x0 DUP1 RETURNDATACOPY RETURNDATASIZE PUSH1 0x0 REVERT JUMPDEST POP POP POP POP PUSH1 0x40 MLOAD RETURNDATASIZE PUSH1 0x1F NOT PUSH1 0x1F DUP3 ADD AND DUP3 ADD DUP1 PUSH1 0x40 MSTORE POP DUP2 ADD SWAP1 PUSH2 0x1780 SWAP2 SWAP1 PUSH2 0x20A2 JUMP JUMPDEST POP PUSH31 0xF80EE73BDAED5CCA4B962C19EEF79F415EF61EB13BD1145AA0F1A4B188BB8B PUSH1 0x9 SLOAD PUSH1 0x40 MLOAD PUSH2 0x17B1 SWAP2 SWAP1 PUSH2 0x2630 JUMP JUMPDEST PUSH1 0x40 MLOAD DUP1 SWAP2 SUB SWAP1 LOG1 POP POP JUMP JUMPDEST PUSH1 0x8 SLOAD DUP2 JUMP JUMPDEST PUSH2 0x17CB PUSH2 0x1CFD JUMP JUMPDEST DUP1 PUSH1 0x2 PUSH1 0x0 PUSH2 0x100 EXP DUP2 SLOAD DUP2 PUSH20 0xFFFFFFFFFFFFFFFFFFFFFFFFFFFFFFFFFFFFFFFF MUL NOT AND SWAP1 DUP4 PUSH20 0xFFFFFFFFFFFFFFFFFFFFFFFFFFFFFFFFFFFFFFFF AND MUL OR SWAP1 SSTORE POP POP JUMP JUMPDEST PUSH1 0x0 DUP1 PUSH1 0x0 JUMPDEST PUSH1 0x1 DUP1 SLOAD SWAP1 POP DUP2 LT ISZERO PUSH2 0x189B JUMPI PUSH1 0x1 DUP2 DUP2 SLOAD DUP2 LT PUSH2 0x1836 JUMPI PUSH2 0x1835 PUSH2 0x2937 JUMP JUMPDEST JUMPDEST SWAP1 PUSH1 0x0 MSTORE PUSH1 0x20 PUSH1 0x0 KECCAK256 SWAP1 PUSH1 0x5 MUL ADD PUSH1 0x0 ADD SLOAD TIMESTAMP LT ISZERO DUP1 ISZERO PUSH2 0x187B JUMPI POP PUSH1 0x1 DUP2 DUP2 SLOAD DUP2 LT PUSH2 0x1866 JUMPI PUSH2 0x1865 PUSH2 0x2937 JUMP JUMPDEST JUMPDEST SWAP1 PUSH1 0x0 MSTORE PUSH1 0x20 PUSH1 0x0 KECCAK256 SWAP1 PUSH1 0x5 MUL ADD PUSH1 0x1 ADD SLOAD TIMESTAMP LT JUMPDEST ISZERO PUSH2 0x1888 JUMPI DUP1 SWAP2 POP PUSH2 0x189B JUMP JUMPDEST DUP1 DUP1 PUSH2 0x1893 SWAP1 PUSH2 0x2861 JUMP JUMPDEST SWAP2 POP POP PUSH2 0x1815 JUMP JUMPDEST POP DUP1 SWAP2 POP POP SWAP1 JUMP JUMPDEST PUSH1 0x6 PUSH1 0x0 SWAP1 SLOAD SWAP1 PUSH2 0x100 EXP SWAP1 DIV PUSH20 0xFFFFFFFFFFFFFFFFFFFFFFFFFFFFFFFFFFFFFFFF AND DUP2 JUMP JUMPDEST PUSH2 0x18D1 PUSH2 0x1CFD JUMP JUMPDEST DUP1 PUSH1 0x8 DUP2 SWAP1 SSTORE POP POP JUMP JUMPDEST PUSH2 0x18E3 PUSH2 0x1CFD JUMP JUMPDEST DUP1 PUSH1 0x4 PUSH1 0x0 PUSH2 0x100 EXP DUP2 SLOAD DUP2 PUSH20 0xFFFFFFFFFFFFFFFFFFFFFFFFFFFFFFFFFFFFFFFF MUL NOT AND SWAP1 DUP4 PUSH20 0xFFFFFFFFFFFFFFFFFFFFFFFFFFFFFFFFFFFFFFFF AND MUL OR SWAP1 SSTORE POP POP JUMP JUMPDEST PUSH1 0x5 PUSH1 0x0 SWAP1 SLOAD SWAP1 PUSH2 0x100 EXP SWAP1 DIV PUSH20 0xFFFFFFFFFFFFFFFFFFFFFFFFFFFFFFFFFFFFFFFF AND DUP2 JUMP JUMPDEST PUSH1 0x3 PUSH1 0x0 SWAP1 SLOAD SWAP1 PUSH2 0x100 EXP SWAP1 DIV PUSH20 0xFFFFFFFFFFFFFFFFFFFFFFFFFFFFFFFFFFFFFFFF AND DUP2 JUMP JUMPDEST PUSH1 0x60 PUSH1 0x1 DUP1 SLOAD DUP1 PUSH1 0x20 MUL PUSH1 0x20 ADD PUSH1 0x40 MLOAD SWAP1 DUP2 ADD PUSH1 0x40 MSTORE DUP1 SWAP3 SWAP2 SWAP1 DUP2 DUP2 MSTORE PUSH1 0x20 ADD PUSH1 0x0 SWAP1 JUMPDEST DUP3 DUP3 LT ISZERO PUSH2 0x19FB JUMPI DUP4 DUP3 SWAP1 PUSH1 0x0 MSTORE PUSH1 0x20 PUSH1 0x0 KECCAK256 SWAP1 PUSH1 0x5 MUL ADD PUSH1 0x40 MLOAD DUP1 PUSH1 0xA0 ADD PUSH1 0x40 MSTORE SWAP1 DUP2 PUSH1 0x0 DUP3 ADD SLOAD DUP2 MSTORE PUSH1 0x20 ADD PUSH1 0x1 DUP3 ADD SLOAD DUP2 MSTORE PUSH1 0x20 ADD PUSH1 0x2 DUP3 ADD SLOAD DUP2 MSTORE PUSH1 0x20 ADD PUSH1 0x3 DUP3 ADD SLOAD DUP2 MSTORE PUSH1 0x20 ADD PUSH1 0x4 DUP3 ADD SLOAD DUP2 MSTORE POP POP DUP2 MSTORE PUSH1 0x20 ADD SWAP1 PUSH1 0x1 ADD SWAP1 PUSH2 0x1997 JUMP JUMPDEST POP POP POP POP SWAP1 POP SWAP1 JUMP JUMPDEST PUSH2 0x1A0C PUSH2 0x1CFD JUMP JUMPDEST PUSH1 0x0 PUSH20 0xFFFFFFFFFFFFFFFFFFFFFFFFFFFFFFFFFFFFFFFF AND DUP2 PUSH20 0xFFFFFFFFFFFFFFFFFFFFFFFFFFFFFFFFFFFFFFFF AND EQ ISZERO PUSH2 0x1A7C JUMPI PUSH1 0x40 MLOAD PUSH32 0x8C379A000000000000000000000000000000000000000000000000000000000 DUP2 MSTORE PUSH1 0x4 ADD PUSH2 0x1A73 SWAP1 PUSH2 0x2590 JUMP JUMPDEST PUSH1 0x40 MLOAD DUP1 SWAP2 SUB SWAP1 REVERT JUMPDEST PUSH2 0x1A85 DUP2 PUSH2 0x1DDD JUMP JUMPDEST POP JUMP JUMPDEST PUSH1 0x0 DUP1 PUSH1 0x0 PUSH1 0xA PUSH1 0x0 CALLER PUSH20 0xFFFFFFFFFFFFFFFFFFFFFFFFFFFFFFFFFFFFFFFF AND PUSH20 0xFFFFFFFFFFFFFFFFFFFFFFFFFFFFFFFFFFFFFFFF AND DUP2 MSTORE PUSH1 0x20 ADD SWAP1 DUP2 MSTORE PUSH1 0x20 ADD PUSH1 0x0 KECCAK256 DUP1 SLOAD SWAP1 POP EQ PUSH2 0x1CF6 JUMPI PUSH1 0x0 JUMPDEST PUSH1 0xA PUSH1 0x0 CALLER PUSH20 0xFFFFFFFFFFFFFFFFFFFFFFFFFFFFFFFFFFFFFFFF AND PUSH20 0xFFFFFFFFFFFFFFFFFFFFFFFFFFFFFFFFFFFFFFFF AND DUP2 MSTORE PUSH1 0x20 ADD SWAP1 DUP2 MSTORE PUSH1 0x20 ADD PUSH1 0x0 KECCAK256 DUP1 SLOAD SWAP1 POP DUP2 LT ISZERO PUSH2 0x1CF4 JUMPI TIMESTAMP PUSH2 0x1B8E PUSH1 0xA PUSH1 0x0 CALLER PUSH20 0xFFFFFFFFFFFFFFFFFFFFFFFFFFFFFFFFFFFFFFFF AND PUSH20 0xFFFFFFFFFFFFFFFFFFFFFFFFFFFFFFFFFFFFFFFF AND DUP2 MSTORE PUSH1 0x20 ADD SWAP1 DUP2 MSTORE PUSH1 0x20 ADD PUSH1 0x0 KECCAK256 DUP4 DUP2 SLOAD DUP2 LT PUSH2 0x1B77 JUMPI PUSH2 0x1B76 PUSH2 0x2937 JUMP JUMPDEST JUMPDEST SWAP1 PUSH1 0x0 MSTORE PUSH1 0x20 PUSH1 0x0 KECCAK256 SWAP1 PUSH1 0x2 MUL ADD PUSH1 0x0 ADD SLOAD PUSH2 0x11F8 JUMP JUMPDEST PUSH1 0xA PUSH1 0x0 CALLER PUSH20 0xFFFFFFFFFFFFFFFFFFFFFFFFFFFFFFFFFFFFFFFF AND PUSH20 0xFFFFFFFFFFFFFFFFFFFFFFFFFFFFFFFFFFFFFFFF AND DUP2 MSTORE PUSH1 0x20 ADD SWAP1 DUP2 MSTORE PUSH1 0x20 ADD PUSH1 0x0 KECCAK256 DUP4 DUP2 SLOAD DUP2 LT PUSH2 0x1BDF JUMPI PUSH2 0x1BDE PUSH2 0x2937 JUMP JUMPDEST JUMPDEST SWAP1 PUSH1 0x0 MSTORE PUSH1 0x20 PUSH1 0x0 KECCAK256 SWAP1 PUSH1 0x2 MUL ADD PUSH1 0x0 ADD SLOAD PUSH2 0x1BFB SWAP2 SWAP1 PUSH2 0x26CE JUMP JUMPDEST LT DUP1 ISZERO PUSH2 0x1C6B JUMPI POP PUSH1 0x0 PUSH1 0xA PUSH1 0x0 CALLER PUSH20 0xFFFFFFFFFFFFFFFFFFFFFFFFFFFFFFFFFFFFFFFF AND PUSH20 0xFFFFFFFFFFFFFFFFFFFFFFFFFFFFFFFFFFFFFFFF AND DUP2 MSTORE PUSH1 0x20 ADD SWAP1 DUP2 MSTORE PUSH1 0x20 ADD PUSH1 0x0 KECCAK256 DUP3 DUP2 SLOAD DUP2 LT PUSH2 0x1C56 JUMPI PUSH2 0x1C55 PUSH2 0x2937 JUMP JUMPDEST JUMPDEST SWAP1 PUSH1 0x0 MSTORE PUSH1 0x20 PUSH1 0x0 KECCAK256 SWAP1 PUSH1 0x2 MUL ADD PUSH1 0x1 ADD SLOAD EQ ISZERO JUMPDEST ISZERO PUSH2 0x1CE1 JUMPI PUSH1 0xA PUSH1 0x0 CALLER PUSH20 0xFFFFFFFFFFFFFFFFFFFFFFFFFFFFFFFFFFFFFFFF AND PUSH20 0xFFFFFFFFFFFFFFFFFFFFFFFFFFFFFFFFFFFFFFFF AND DUP2 MSTORE PUSH1 0x20 ADD SWAP1 DUP2 MSTORE PUSH1 0x20 ADD PUSH1 0x0 KECCAK256 DUP2 DUP2 SLOAD DUP2 LT PUSH2 0x1CC1 JUMPI PUSH2 0x1CC0 PUSH2 0x2937 JUMP JUMPDEST JUMPDEST SWAP1 PUSH1 0x0 MSTORE PUSH1 0x20 PUSH1 0x0 KECCAK256 SWAP1 PUSH1 0x2 MUL ADD PUSH1 0x1 ADD SLOAD DUP3 PUSH2 0x1CDE SWAP2 SWAP1 PUSH2 0x26CE JUMP JUMPDEST SWAP2 POP JUMPDEST DUP1 DUP1 PUSH2 0x1CEC SWAP1 PUSH2 0x2861 JUMP JUMPDEST SWAP2 POP POP PUSH2 0x1AD8 JUMP JUMPDEST POP JUMPDEST DUP1 SWAP2 POP POP SWAP1 JUMP JUMPDEST PUSH2 0x1D05 PUSH2 0x1FE5 JUMP JUMPDEST PUSH20 0xFFFFFFFFFFFFFFFFFFFFFFFFFFFFFFFFFFFFFFFF AND PUSH2 0x1D23 PUSH2 0x151F JUMP JUMPDEST PUSH20 0xFFFFFFFFFFFFFFFFFFFFFFFFFFFFFFFFFFFFFFFF AND EQ PUSH2 0x1D79 JUMPI PUSH1 0x40 MLOAD PUSH32 0x8C379A000000000000000000000000000000000000000000000000000000000 DUP2 MSTORE PUSH1 0x4 ADD PUSH2 0x1D70 SWAP1 PUSH2 0x25D0 JUMP JUMPDEST PUSH1 0x40 MLOAD DUP1 SWAP2 SUB SWAP1 REVERT JUMPDEST JUMP JUMPDEST PUSH2 0x1D83 PUSH2 0x1FED JUMP JUMPDEST PUSH1 0x0 DUP1 PUSH1 0x14 PUSH2 0x100 EXP DUP2 SLOAD DUP2 PUSH1 0xFF MUL NOT AND SWAP1 DUP4 ISZERO ISZERO MUL OR SWAP1 SSTORE POP PUSH32 0x5DB9EE0A495BF2E6FF9C91A7834C1BA4FDD244A5E8AA4E537BD38AEAE4B073AA PUSH2 0x1DC6 PUSH2 0x1FE5 JUMP JUMPDEST PUSH1 0x40 MLOAD PUSH2 0x1DD3 SWAP2 SWAP1 PUSH2 0x24A4 JUMP JUMPDEST PUSH1 0x40 MLOAD DUP1 SWAP2 SUB SWAP1 LOG1 JUMP JUMPDEST PUSH1 0x0 DUP1 PUSH1 0x0 SWAP1 SLOAD SWAP1 PUSH2 0x100 EXP SWAP1 DIV PUSH20 0xFFFFFFFFFFFFFFFFFFFFFFFFFFFFFFFFFFFFFFFF AND SWAP1 POP DUP2 PUSH1 0x0 DUP1 PUSH2 0x100 EXP DUP2 SLOAD DUP2 PUSH20 0xFFFFFFFFFFFFFFFFFFFFFFFFFFFFFFFFFFFFFFFF MUL NOT AND SWAP1 DUP4 PUSH20 0xFFFFFFFFFFFFFFFFFFFFFFFFFFFFFFFFFFFFFFFF AND MUL OR SWAP1 SSTORE POP DUP2 PUSH20 0xFFFFFFFFFFFFFFFFFFFFFFFFFFFFFFFFFFFFFFFF AND DUP2 PUSH20 0xFFFFFFFFFFFFFFFFFFFFFFFFFFFFFFFFFFFFFFFF AND PUSH32 0x8BE0079C531659141344CD1FD0A4F28419497F9722A3DAAFE3B4186F6B6457E0 PUSH1 0x40 MLOAD PUSH1 0x40 MLOAD DUP1 SWAP2 SUB SWAP1 LOG3 POP POP JUMP JUMPDEST PUSH2 0x1EA9 PUSH2 0x1F04 JUMP JUMPDEST PUSH1 0x1 PUSH1 0x0 PUSH1 0x14 PUSH2 0x100 EXP DUP2 SLOAD DUP2 PUSH1 0xFF MUL NOT AND SWAP1 DUP4 ISZERO ISZERO MUL OR SWAP1 SSTORE POP PUSH32 0x62E78CEA01BEE320CD4E420270B5EA74000D11B0C9F74754EBDBFC544B05A258 PUSH2 0x1EED PUSH2 0x1FE5 JUMP JUMPDEST PUSH1 0x40 MLOAD PUSH2 0x1EFA SWAP2 SWAP1 PUSH2 0x24A4 JUMP JUMPDEST PUSH1 0x40 MLOAD DUP1 SWAP2 SUB SWAP1 LOG1 JUMP JUMPDEST PUSH2 0x1F0C PUSH2 0x12B3 JUMP JUMPDEST ISZERO PUSH2 0x1F4C JUMPI PUSH1 0x40 MLOAD PUSH32 0x8C379A000000000000000000000000000000000000000000000000000000000 DUP2 MSTORE PUSH1 0x4 ADD PUSH2 0x1F43 SWAP1 PUSH2 0x25B0 JUMP JUMPDEST PUSH1 0x40 MLOAD DUP1 SWAP2 SUB SWAP1 REVERT JUMPDEST JUMP JUMPDEST PUSH1 0xA PUSH1 0x0 DUP3 PUSH20 0xFFFFFFFFFFFFFFFFFFFFFFFFFFFFFFFFFFFFFFFF AND PUSH20 0xFFFFFFFFFFFFFFFFFFFFFFFFFFFFFFFFFFFFFFFF AND DUP2 MSTORE PUSH1 0x20 ADD SWAP1 DUP2 MSTORE PUSH1 0x20 ADD PUSH1 0x0 KECCAK256 PUSH1 0x40 MLOAD DUP1 PUSH1 0x40 ADD PUSH1 0x40 MSTORE DUP1 TIMESTAMP DUP2 MSTORE PUSH1 0x20 ADD DUP5 DUP2 MSTORE POP SWAP1 DUP1 PUSH1 0x1 DUP2 SLOAD ADD DUP1 DUP3 SSTORE DUP1 SWAP2 POP POP PUSH1 0x1 SWAP1 SUB SWAP1 PUSH1 0x0 MSTORE PUSH1 0x20 PUSH1 0x0 KECCAK256 SWAP1 PUSH1 0x2 MUL ADD PUSH1 0x0 SWAP1 SWAP2 SWAP1 SWAP2 SWAP1 SWAP2 POP PUSH1 0x0 DUP3 ADD MLOAD DUP2 PUSH1 0x0 ADD SSTORE PUSH1 0x20 DUP3 ADD MLOAD DUP2 PUSH1 0x1 ADD SSTORE POP POP POP POP JUMP JUMPDEST PUSH1 0x0 CALLER SWAP1 POP SWAP1 JUMP JUMPDEST PUSH2 0x1FF5 PUSH2 0x12B3 JUMP JUMPDEST PUSH2 0x2034 JUMPI PUSH1 0x40 MLOAD PUSH32 0x8C379A000000000000000000000000000000000000000000000000000000000 DUP2 MSTORE PUSH1 0x4 ADD PUSH2 0x202B SWAP1 PUSH2 0x2570 JUMP JUMPDEST PUSH1 0x40 MLOAD DUP1 SWAP2 SUB SWAP1 REVERT JUMPDEST JUMP JUMPDEST PUSH1 0x0 DUP2 CALLDATALOAD SWAP1 POP PUSH2 0x2045 DUP2 PUSH2 0x2AAD JUMP JUMPDEST SWAP3 SWAP2 POP POP JUMP JUMPDEST PUSH1 0x0 DUP2 MLOAD SWAP1 POP PUSH2 0x205A DUP2 PUSH2 0x2AC4 JUMP JUMPDEST SWAP3 SWAP2 POP POP JUMP JUMPDEST PUSH1 0x0 DUP2 CALLDATALOAD SWAP1 POP PUSH2 0x206F DUP2 PUSH2 0x2ADB JUMP JUMPDEST SWAP3 SWAP2 POP POP JUMP JUMPDEST PUSH1 0x0 PUSH1 0x20 DUP3 DUP5 SUB SLT ISZERO PUSH2 0x208B JUMPI PUSH2 0x208A PUSH2 0x2966 JUMP JUMPDEST JUMPDEST PUSH1 0x0 PUSH2 0x2099 DUP5 DUP3 DUP6 ADD PUSH2 0x2036 JUMP JUMPDEST SWAP2 POP POP SWAP3 SWAP2 POP POP JUMP JUMPDEST PUSH1 0x0 PUSH1 0x20 DUP3 DUP5 SUB SLT ISZERO PUSH2 0x20B8 JUMPI PUSH2 0x20B7 PUSH2 0x2966 JUMP JUMPDEST JUMPDEST PUSH1 0x0 PUSH2 0x20C6 DUP5 DUP3 DUP6 ADD PUSH2 0x204B JUMP JUMPDEST SWAP2 POP POP SWAP3 SWAP2 POP POP JUMP JUMPDEST PUSH1 0x0 PUSH1 0x20 DUP3 DUP5 SUB SLT ISZERO PUSH2 0x20E5 JUMPI PUSH2 0x20E4 PUSH2 0x2966 JUMP JUMPDEST JUMPDEST PUSH1 0x0 PUSH2 0x20F3 DUP5 DUP3 DUP6 ADD PUSH2 0x2060 JUMP JUMPDEST SWAP2 POP POP SWAP3 SWAP2 POP POP JUMP JUMPDEST PUSH1 0x0 DUP1 PUSH1 0x0 DUP1 PUSH1 0x0 PUSH1 0xA0 DUP7 DUP9 SUB SLT ISZERO PUSH2 0x2118 JUMPI PUSH2 0x2117 PUSH2 0x2966 JUMP JUMPDEST JUMPDEST PUSH1 0x0 PUSH2 0x2126 DUP9 DUP3 DUP10 ADD PUSH2 0x2060 JUMP JUMPDEST SWAP6 POP POP PUSH1 0x20 PUSH2 0x2137 DUP9 DUP3 DUP10 ADD PUSH2 0x2060 JUMP JUMPDEST SWAP5 POP POP PUSH1 0x40 PUSH2 0x2148 DUP9 DUP3 DUP10 ADD PUSH2 0x2060 JUMP JUMPDEST SWAP4 POP POP PUSH1 0x60 PUSH2 0x2159 DUP9 DUP3 DUP10 ADD PUSH2 0x2060 JUMP JUMPDEST SWAP3 POP POP PUSH1 0x80 PUSH2 0x216A DUP9 DUP3 DUP10 ADD PUSH2 0x2060 JUMP JUMPDEST SWAP2 POP POP SWAP3 SWAP6 POP SWAP3 SWAP6 SWAP1 SWAP4 POP JUMP JUMPDEST PUSH1 0x0 DUP1 PUSH1 0x0 DUP1 PUSH1 0x0 DUP1 PUSH1 0xC0 DUP8 DUP10 SUB SLT ISZERO PUSH2 0x2194 JUMPI PUSH2 0x2193 PUSH2 0x2966 JUMP JUMPDEST JUMPDEST PUSH1 0x0 PUSH2 0x21A2 DUP10 DUP3 DUP11 ADD PUSH2 0x2060 JUMP JUMPDEST SWAP7 POP POP PUSH1 0x20 PUSH2 0x21B3 DUP10 DUP3 DUP11 ADD PUSH2 0x2060 JUMP JUMPDEST SWAP6 POP POP PUSH1 0x40 PUSH2 0x21C4 DUP10 DUP3 DUP11 ADD PUSH2 0x2060 JUMP JUMPDEST SWAP5 POP POP PUSH1 0x60 PUSH2 0x21D5 DUP10 DUP3 DUP11 ADD PUSH2 0x2060 JUMP JUMPDEST SWAP4 POP POP PUSH1 0x80 PUSH2 0x21E6 DUP10 DUP3 DUP11 ADD PUSH2 0x2060 JUMP JUMPDEST SWAP3 POP POP PUSH1 0xA0 PUSH2 0x21F7 DUP10 DUP3 DUP11 ADD PUSH2 0x2060 JUMP JUMPDEST SWAP2 POP POP SWAP3 SWAP6 POP SWAP3 SWAP6 POP SWAP3 SWAP6 JUMP JUMPDEST PUSH1 0x0 PUSH2 0x2210 DUP4 DUP4 PUSH2 0x23EF JUMP JUMPDEST PUSH1 0xA0 DUP4 ADD SWAP1 POP SWAP3 SWAP2 POP POP JUMP JUMPDEST PUSH1 0x0 PUSH2 0x2228 DUP4 DUP4 PUSH2 0x2457 JUMP JUMPDEST PUSH1 0x40 DUP4 ADD SWAP1 POP SWAP3 SWAP2 POP POP JUMP JUMPDEST PUSH2 0x223D DUP2 PUSH2 0x27E3 JUMP JUMPDEST DUP3 MSTORE POP POP JUMP JUMPDEST PUSH1 0x0 PUSH2 0x224E DUP3 PUSH2 0x266B JUMP JUMPDEST PUSH2 0x2258 DUP2 DUP6 PUSH2 0x269B JUMP JUMPDEST SWAP4 POP PUSH2 0x2263 DUP4 PUSH2 0x264B JUMP JUMPDEST DUP1 PUSH1 0x0 JUMPDEST DUP4 DUP2 LT ISZERO PUSH2 0x2294 JUMPI DUP2 MLOAD PUSH2 0x227B DUP9 DUP3 PUSH2 0x2204 JUMP JUMPDEST SWAP8 POP PUSH2 0x2286 DUP4 PUSH2 0x2681 JUMP JUMPDEST SWAP3 POP POP PUSH1 0x1 DUP2 ADD SWAP1 POP PUSH2 0x2267 JUMP JUMPDEST POP DUP6 SWAP4 POP POP POP POP SWAP3 SWAP2 POP POP JUMP JUMPDEST PUSH1 0x0 PUSH2 0x22AC DUP3 PUSH2 0x2676 JUMP JUMPDEST PUSH2 0x22B6 DUP2 DUP6 PUSH2 0x26AC JUMP JUMPDEST SWAP4 POP PUSH2 0x22C1 DUP4 PUSH2 0x265B JUMP JUMPDEST DUP1 PUSH1 0x0 JUMPDEST DUP4 DUP2 LT ISZERO PUSH2 0x22F2 JUMPI DUP2 MLOAD PUSH2 0x22D9 DUP9 DUP3 PUSH2 0x221C JUMP JUMPDEST SWAP8 POP PUSH2 0x22E4 DUP4 PUSH2 0x268E JUMP JUMPDEST SWAP3 POP POP PUSH1 0x1 DUP2 ADD SWAP1 POP PUSH2 0x22C5 JUMP JUMPDEST POP DUP6 SWAP4 POP POP POP POP SWAP3 SWAP2 POP POP JUMP JUMPDEST PUSH2 0x2308 DUP2 PUSH2 0x27F5 JUMP JUMPDEST DUP3 MSTORE POP POP JUMP JUMPDEST PUSH2 0x2317 DUP2 PUSH2 0x282B JUMP JUMPDEST DUP3 MSTORE POP POP JUMP JUMPDEST PUSH1 0x0 PUSH2 0x232A PUSH1 0x14 DUP4 PUSH2 0x26BD JUMP JUMPDEST SWAP2 POP PUSH2 0x2335 DUP3 PUSH2 0x296B JUMP JUMPDEST PUSH1 0x20 DUP3 ADD SWAP1 POP SWAP2 SWAP1 POP JUMP JUMPDEST PUSH1 0x0 PUSH2 0x234D PUSH1 0x26 DUP4 PUSH2 0x26BD JUMP JUMPDEST SWAP2 POP PUSH2 0x2358 DUP3 PUSH2 0x2994 JUMP JUMPDEST PUSH1 0x40 DUP3 ADD SWAP1 POP SWAP2 SWAP1 POP JUMP JUMPDEST PUSH1 0x0 PUSH2 0x2370 PUSH1 0x10 DUP4 PUSH2 0x26BD JUMP JUMPDEST SWAP2 POP PUSH2 0x237B DUP3 PUSH2 0x29E3 JUMP JUMPDEST PUSH1 0x20 DUP3 ADD SWAP1 POP SWAP2 SWAP1 POP JUMP JUMPDEST PUSH1 0x0 PUSH2 0x2393 PUSH1 0x20 DUP4 PUSH2 0x26BD JUMP JUMPDEST SWAP2 POP PUSH2 0x239E DUP3 PUSH2 0x2A0C JUMP JUMPDEST PUSH1 0x20 DUP3 ADD SWAP1 POP SWAP2 SWAP1 POP JUMP JUMPDEST PUSH1 0x0 PUSH2 0x23B6 PUSH1 0x1E DUP4 PUSH2 0x26BD JUMP JUMPDEST SWAP2 POP PUSH2 0x23C1 DUP3 PUSH2 0x2A35 JUMP JUMPDEST PUSH1 0x20 DUP3 ADD SWAP1 POP SWAP2 SWAP1 POP JUMP JUMPDEST PUSH1 0x0 PUSH2 0x23D9 PUSH1 0x39 DUP4 PUSH2 0x26BD JUMP JUMPDEST SWAP2 POP PUSH2 0x23E4 DUP3 PUSH2 0x2A5E JUMP JUMPDEST PUSH1 0x40 DUP3 ADD SWAP1 POP SWAP2 SWAP1 POP JUMP JUMPDEST PUSH1 0xA0 DUP3 ADD PUSH1 0x0 DUP3 ADD MLOAD PUSH2 0x2405 PUSH1 0x0 DUP6 ADD DUP3 PUSH2 0x2486 JUMP JUMPDEST POP PUSH1 0x20 DUP3 ADD MLOAD PUSH2 0x2418 PUSH1 0x20 DUP6 ADD DUP3 PUSH2 0x2486 JUMP JUMPDEST POP PUSH1 0x40 DUP3 ADD MLOAD PUSH2 0x242B PUSH1 0x40 DUP6 ADD DUP3 PUSH2 0x2486 JUMP JUMPDEST POP PUSH1 0x60 DUP3 ADD MLOAD PUSH2 0x243E PUSH1 0x60 DUP6 ADD DUP3 PUSH2 0x2486 JUMP JUMPDEST POP PUSH1 0x80 DUP3 ADD MLOAD PUSH2 0x2451 PUSH1 0x80 DUP6 ADD DUP3 PUSH2 0x2486 JUMP JUMPDEST POP POP POP POP JUMP JUMPDEST PUSH1 0x40 DUP3 ADD PUSH1 0x0 DUP3 ADD MLOAD PUSH2 0x246D PUSH1 0x0 DUP6 ADD DUP3 PUSH2 0x2486 JUMP JUMPDEST POP PUSH1 0x20 DUP3 ADD MLOAD PUSH2 0x2480 PUSH1 0x20 DUP6 ADD DUP3 PUSH2 0x2486 JUMP JUMPDEST POP POP POP POP JUMP JUMPDEST PUSH2 0x248F DUP2 PUSH2 0x2821 JUMP JUMPDEST DUP3 MSTORE POP POP JUMP JUMPDEST PUSH2 0x249E DUP2 PUSH2 0x2821 JUMP JUMPDEST DUP3 MSTORE POP POP JUMP JUMPDEST PUSH1 0x0 PUSH1 0x20 DUP3 ADD SWAP1 POP PUSH2 0x24B9 PUSH1 0x0 DUP4 ADD DUP5 PUSH2 0x2234 JUMP JUMPDEST SWAP3 SWAP2 POP POP JUMP JUMPDEST PUSH1 0x0 PUSH1 0x60 DUP3 ADD SWAP1 POP PUSH2 0x24D4 PUSH1 0x0 DUP4 ADD DUP7 PUSH2 0x2234 JUMP JUMPDEST PUSH2 0x24E1 PUSH1 0x20 DUP4 ADD DUP6 PUSH2 0x2234 JUMP JUMPDEST PUSH2 0x24EE PUSH1 0x40 DUP4 ADD DUP5 PUSH2 0x2495 JUMP JUMPDEST SWAP5 SWAP4 POP POP POP POP JUMP JUMPDEST PUSH1 0x0 PUSH1 0x20 DUP3 ADD SWAP1 POP DUP2 DUP2 SUB PUSH1 0x0 DUP4 ADD MSTORE PUSH2 0x2510 DUP2 DUP5 PUSH2 0x2243 JUMP JUMPDEST SWAP1 POP SWAP3 SWAP2 POP POP JUMP JUMPDEST PUSH1 0x0 PUSH1 0x20 DUP3 ADD SWAP1 POP DUP2 DUP2 SUB PUSH1 0x0 DUP4 ADD MSTORE PUSH2 0x2532 DUP2 DUP5 PUSH2 0x22A1 JUMP JUMPDEST SWAP1 POP SWAP3 SWAP2 POP POP JUMP JUMPDEST PUSH1 0x0 PUSH1 0x20 DUP3 ADD SWAP1 POP PUSH2 0x254F PUSH1 0x0 DUP4 ADD DUP5 PUSH2 0x22FF JUMP JUMPDEST SWAP3 SWAP2 POP POP JUMP JUMPDEST PUSH1 0x0 PUSH1 0x20 DUP3 ADD SWAP1 POP PUSH2 0x256A PUSH1 0x0 DUP4 ADD DUP5 PUSH2 0x230E JUMP JUMPDEST SWAP3 SWAP2 POP POP JUMP JUMPDEST PUSH1 0x0 PUSH1 0x20 DUP3 ADD SWAP1 POP DUP2 DUP2 SUB PUSH1 0x0 DUP4 ADD MSTORE PUSH2 0x2589 DUP2 PUSH2 0x231D JUMP JUMPDEST SWAP1 POP SWAP2 SWAP1 POP JUMP JUMPDEST PUSH1 0x0 PUSH1 0x20 DUP3 ADD SWAP1 POP DUP2 DUP2 SUB PUSH1 0x0 DUP4 ADD MSTORE PUSH2 0x25A9 DUP2 PUSH2 0x2340 JUMP JUMPDEST SWAP1 POP SWAP2 SWAP1 POP JUMP JUMPDEST PUSH1 0x0 PUSH1 0x20 DUP3 ADD SWAP1 POP DUP2 DUP2 SUB PUSH1 0x0 DUP4 ADD MSTORE PUSH2 0x25C9 DUP2 PUSH2 0x2363 JUMP JUMPDEST SWAP1 POP SWAP2 SWAP1 POP JUMP JUMPDEST PUSH1 0x0 PUSH1 0x20 DUP3 ADD SWAP1 POP DUP2 DUP2 SUB PUSH1 0x0 DUP4 ADD MSTORE PUSH2 0x25E9 DUP2 PUSH2 0x2386 JUMP JUMPDEST SWAP1 POP SWAP2 SWAP1 POP JUMP JUMPDEST PUSH1 0x0 PUSH1 0x20 DUP3 ADD SWAP1 POP DUP2 DUP2 SUB PUSH1 0x0 DUP4 ADD MSTORE PUSH2 0x2609 DUP2 PUSH2 0x23A9 JUMP JUMPDEST SWAP1 POP SWAP2 SWAP1 POP JUMP JUMPDEST PUSH1 0x0 PUSH1 0x20 DUP3 ADD SWAP1 POP DUP2 DUP2 SUB PUSH1 0x0 DUP4 ADD MSTORE PUSH2 0x2629 DUP2 PUSH2 0x23CC JUMP JUMPDEST SWAP1 POP SWAP2 SWAP1 POP JUMP JUMPDEST PUSH1 0x0 PUSH1 0x20 DUP3 ADD SWAP1 POP PUSH2 0x2645 PUSH1 0x0 DUP4 ADD DUP5 PUSH2 0x2495 JUMP JUMPDEST SWAP3 SWAP2 POP POP JUMP JUMPDEST PUSH1 0x0 DUP2 SWAP1 POP PUSH1 0x20 DUP3 ADD SWAP1 POP SWAP2 SWAP1 POP JUMP JUMPDEST PUSH1 0x0 DUP2 SWAP1 POP PUSH1 0x20 DUP3 ADD SWAP1 POP SWAP2 SWAP1 POP JUMP JUMPDEST PUSH1 0x0 DUP2 MLOAD SWAP1 POP SWAP2 SWAP1 POP JUMP JUMPDEST PUSH1 0x0 DUP2 MLOAD SWAP1 POP SWAP2 SWAP1 POP JUMP JUMPDEST PUSH1 0x0 PUSH1 0x20 DUP3 ADD SWAP1 POP SWAP2 SWAP1 POP JUMP JUMPDEST PUSH1 0x0 PUSH1 0x20 DUP3 ADD SWAP1 POP SWAP2 SWAP1 POP JUMP JUMPDEST PUSH1 0x0 DUP3 DUP3 MSTORE PUSH1 0x20 DUP3 ADD SWAP1 POP SWAP3 SWAP2 POP POP JUMP JUMPDEST PUSH1 0x0 DUP3 DUP3 MSTORE PUSH1 0x20 DUP3 ADD SWAP1 POP SWAP3 SWAP2 POP POP JUMP JUMPDEST PUSH1 0x0 DUP3 DUP3 MSTORE PUSH1 0x20 DUP3 ADD SWAP1 POP SWAP3 SWAP2 POP POP JUMP JUMPDEST PUSH1 0x0 PUSH2 0x26D9 DUP3 PUSH2 0x2821 JUMP JUMPDEST SWAP2 POP PUSH2 0x26E4 DUP4 PUSH2 0x2821 JUMP JUMPDEST SWAP3 POP DUP3 PUSH32 0xFFFFFFFFFFFFFFFFFFFFFFFFFFFFFFFFFFFFFFFFFFFFFFFFFFFFFFFFFFFFFFFF SUB DUP3 GT ISZERO PUSH2 0x2719 JUMPI PUSH2 0x2718 PUSH2 0x28AA JUMP JUMPDEST JUMPDEST DUP3 DUP3 ADD SWAP1 POP SWAP3 SWAP2 POP POP JUMP JUMPDEST PUSH1 0x0 PUSH2 0x272F DUP3 PUSH2 0x2821 JUMP JUMPDEST SWAP2 POP PUSH2 0x273A DUP4 PUSH2 0x2821 JUMP JUMPDEST SWAP3 POP DUP3 PUSH2 0x274A JUMPI PUSH2 0x2749 PUSH2 0x28D9 JUMP JUMPDEST JUMPDEST DUP3 DUP3 DIV SWAP1 POP SWAP3 SWAP2 POP POP JUMP JUMPDEST PUSH1 0x0 PUSH2 0x2760 DUP3 PUSH2 0x2821 JUMP JUMPDEST SWAP2 POP PUSH2 0x276B DUP4 PUSH2 0x2821 JUMP JUMPDEST SWAP3 POP DUP2 PUSH32 0xFFFFFFFFFFFFFFFFFFFFFFFFFFFFFFFFFFFFFFFFFFFFFFFFFFFFFFFFFFFFFFFF DIV DUP4 GT DUP3 ISZERO ISZERO AND ISZERO PUSH2 0x27A4 JUMPI PUSH2 0x27A3 PUSH2 0x28AA JUMP JUMPDEST JUMPDEST DUP3 DUP3 MUL SWAP1 POP SWAP3 SWAP2 POP POP JUMP JUMPDEST PUSH1 0x0 PUSH2 0x27BA DUP3 PUSH2 0x2821 JUMP JUMPDEST SWAP2 POP PUSH2 0x27C5 DUP4 PUSH2 0x2821 JUMP JUMPDEST SWAP3 POP DUP3 DUP3 LT ISZERO PUSH2 0x27D8 JUMPI PUSH2 0x27D7 PUSH2 0x28AA JUMP JUMPDEST JUMPDEST DUP3 DUP3 SUB SWAP1 POP SWAP3 SWAP2 POP POP JUMP JUMPDEST PUSH1 0x0 PUSH2 0x27EE DUP3 PUSH2 0x2801 JUMP JUMPDEST SWAP1 POP SWAP2 SWAP1 POP JUMP JUMPDEST PUSH1 0x0 DUP2 ISZERO ISZERO SWAP1 POP SWAP2 SWAP1 POP JUMP JUMPDEST PUSH1 0x0 PUSH20 0xFFFFFFFFFFFFFFFFFFFFFFFFFFFFFFFFFFFFFFFF DUP3 AND SWAP1 POP SWAP2 SWAP1 POP JUMP JUMPDEST PUSH1 0x0 DUP2 SWAP1 POP SWAP2 SWAP1 POP JUMP JUMPDEST PUSH1 0x0 PUSH2 0x2836 DUP3 PUSH2 0x283D JUMP JUMPDEST SWAP1 POP SWAP2 SWAP1 POP JUMP JUMPDEST PUSH1 0x0 PUSH2 0x2848 DUP3 PUSH2 0x284F JUMP JUMPDEST SWAP1 POP SWAP2 SWAP1 POP JUMP JUMPDEST PUSH1 0x0 PUSH2 0x285A DUP3 PUSH2 0x2801 JUMP JUMPDEST SWAP1 POP SWAP2 SWAP1 POP JUMP JUMPDEST PUSH1 0x0 PUSH2 0x286C DUP3 PUSH2 0x2821 JUMP JUMPDEST SWAP2 POP PUSH32 0xFFFFFFFFFFFFFFFFFFFFFFFFFFFFFFFFFFFFFFFFFFFFFFFFFFFFFFFFFFFFFFFF DUP3 EQ ISZERO PUSH2 0x289F JUMPI PUSH2 0x289E PUSH2 0x28AA JUMP JUMPDEST JUMPDEST PUSH1 0x1 DUP3 ADD SWAP1 POP SWAP2 SWAP1 POP JUMP JUMPDEST PUSH32 0x4E487B7100000000000000000000000000000000000000000000000000000000 PUSH1 0x0 MSTORE PUSH1 0x11 PUSH1 0x4 MSTORE PUSH1 0x24 PUSH1 0x0 REVERT JUMPDEST PUSH32 0x4E487B7100000000000000000000000000000000000000000000000000000000 PUSH1 0x0 MSTORE PUSH1 0x12 PUSH1 0x4 MSTORE PUSH1 0x24 PUSH1 0x0 REVERT JUMPDEST PUSH32 0x4E487B7100000000000000000000000000000000000000000000000000000000 PUSH1 0x0 MSTORE PUSH1 0x31 PUSH1 0x4 MSTORE PUSH1 0x24 PUSH1 0x0 REVERT JUMPDEST PUSH32 0x4E487B7100000000000000000000000000000000000000000000000000000000 PUSH1 0x0 MSTORE PUSH1 0x32 PUSH1 0x4 MSTORE PUSH1 0x24 PUSH1 0x0 REVERT JUMPDEST PUSH1 0x0 DUP1 REVERT JUMPDEST PUSH32 0x5061757361626C653A206E6F7420706175736564000000000000000000000000 PUSH1 0x0 DUP3 ADD MSTORE POP JUMP JUMPDEST PUSH32 0x4F776E61626C653A206E6577206F776E657220697320746865207A65726F2061 PUSH1 0x0 DUP3 ADD MSTORE PUSH32 0x6464726573730000000000000000000000000000000000000000000000000000 PUSH1 0x20 DUP3 ADD MSTORE POP JUMP JUMPDEST PUSH32 0x5061757361626C653A2070617573656400000000000000000000000000000000 PUSH1 0x0 DUP3 ADD MSTORE POP JUMP JUMPDEST PUSH32 0x4F776E61626C653A2063616C6C6572206973206E6F7420746865206F776E6572 PUSH1 0x0 DUP3 ADD MSTORE POP JUMP JUMPDEST PUSH32 0x417661696C61626C6520666F72207769746864726177616C2030205850500000 PUSH1 0x0 DUP3 ADD MSTORE POP JUMP JUMPDEST PUSH32 0x546865206D696E696D756D20707572636861736520616D6F756E7420666F7220 PUSH1 0x0 DUP3 ADD MSTORE PUSH32 0x746865205850414420746F6B656E206973203530204255534400000000000000 PUSH1 0x20 DUP3 ADD MSTORE POP JUMP JUMPDEST PUSH2 0x2AB6 DUP2 PUSH2 0x27E3 JUMP JUMPDEST DUP2 EQ PUSH2 0x2AC1 JUMPI PUSH1 0x0 DUP1 REVERT JUMPDEST POP JUMP JUMPDEST PUSH2 0x2ACD DUP2 PUSH2 0x27F5 JUMP JUMPDEST DUP2 EQ PUSH2 0x2AD8 JUMPI PUSH1 0x0 DUP1 REVERT JUMPDEST POP JUMP JUMPDEST PUSH2 0x2AE4 DUP2 PUSH2 0x2821 JUMP JUMPDEST DUP2 EQ PUSH2 0x2AEF JUMPI PUSH1 0x0 DUP1 REVERT JUMPDEST POP JUMP INVALID LOG2 PUSH5 0x6970667358 0x22 SLT KECCAK256 0x21 PUSH3 0x1F9A3A 0xF9 MLOAD EQ LOG3 PUSH24 0xA7AB080BD57E816304D7171B5C48B550517649202F806473 PUSH16 0x6C634300080700330000000000000000 "
				},
				"gasEstimates": {
					"creation": {
						"codeDepositCost": "2209600",
						"executionCost": "infinite",
						"totalCost": "infinite"
					},
					"external": {
						"BUSDRecipient()": "2581",
						"BUSDToken()": "2644",
						"XPADToken()": "2666",
						"XPADTokenHolder()": "2604",
						"addRound(uint256,uint256,uint256,uint256,uint256)": "infinite",
						"changeRound(uint256,uint256,uint256,uint256,uint256,uint256)": "infinite",
						"deleteRound(uint256)": "infinite",
						"getAllRounds()": "infinite",
						"getAmountXPPAvailebleToWithdraw()": "infinite",
						"getAmountXPPAvailebleToWithdrawOwner(address)": "infinite",
						"getCurrentMaxTotalAmount()": "infinite",
						"getCurrentRound()": "infinite",
						"getPriceXPAD()": "infinite",
						"getStakeBalance()": "infinite",
						"getStakeBalanceOwner(address)": "infinite",
						"getStakerData()": "infinite",
						"getStakerDataOwner(address)": "infinite",
						"getVestingXPAD(uint256)": "infinite",
						"minBUSD()": "2518",
						"owner()": "2612",
						"pause()": "infinite",
						"paused()": "2596",
						"renounceOwnership()": "30509",
						"sale(uint256)": "infinite",
						"setBUSDRecipient(address)": "27055",
						"setBUSDTokenAddress(address)": "27097",
						"setXPADTokenAddress(address)": "27097",
						"setXPADTokenHolder(address)": "27054",
						"setminBUSD(uint256)": "24873",
						"totalSold()": "2541",
						"transferOwnership(address)": "30857",
						"unpause()": "infinite",
						"withdraw()": "infinite"
					},
					"internal": {
						"fund(uint256,address)": "infinite"
					}
				},
				"methodIdentifiers": {
					"BUSDRecipient()": "b5f5935c",
					"BUSDToken()": "c411fcd8",
					"XPADToken()": "daf4f5fd",
					"XPADTokenHolder()": "48148a80",
					"addRound(uint256,uint256,uint256,uint256,uint256)": "8bbf9b07",
					"changeRound(uint256,uint256,uint256,uint256,uint256,uint256)": "1a65b563",
					"deleteRound(uint256)": "3b9c0fdc",
					"getAllRounds()": "e5066bbf",
					"getAmountXPPAvailebleToWithdraw()": "fed6b1ef",
					"getAmountXPPAvailebleToWithdrawOwner(address)": "39f83026",
					"getCurrentMaxTotalAmount()": "3f9a16a8",
					"getCurrentRound()": "a32bf597",
					"getPriceXPAD()": "2d2c4158",
					"getStakeBalance()": "427c7f38",
					"getStakeBalanceOwner(address)": "705ba605",
					"getStakerData()": "9309f8f3",
					"getStakerDataOwner(address)": "4867e444",
					"getVestingXPAD(uint256)": "523c69e6",
					"minBUSD()": "9788f555",
					"owner()": "8da5cb5b",
					"pause()": "8456cb59",
					"paused()": "5c975abb",
					"renounceOwnership()": "715018a6",
					"sale(uint256)": "96032702",
					"setBUSDRecipient(address)": "1d65abb0",
					"setBUSDTokenAddress(address)": "b67d9530",
					"setXPADTokenAddress(address)": "a2059be2",
					"setXPADTokenHolder(address)": "46c3fa70",
					"setminBUSD(uint256)": "b60181c7",
					"totalSold()": "9106d7ba",
					"transferOwnership(address)": "f2fde38b",
					"unpause()": "3f4ba83a",
					"withdraw()": "3ccfd60b"
				}
			},
			"storageLayout": {
				"storage": [
					{
						"astId": 7,
						"contract": "contracts/crowdsale.sol:crowdsale",
						"label": "_owner",
						"offset": 0,
						"slot": "0",
						"type": "t_address"
					},
					{
						"astId": 130,
						"contract": "contracts/crowdsale.sol:crowdsale",
						"label": "_paused",
						"offset": 20,
						"slot": "0",
						"type": "t_bool"
					},
					{
						"astId": 1047,
						"contract": "contracts/crowdsale.sol:crowdsale",
						"label": "allRounds",
						"offset": 0,
						"slot": "1",
						"type": "t_array(t_struct(Round)1043_storage)dyn_storage"
					},
					{
						"astId": 335,
						"contract": "contracts/crowdsale.sol:crowdsale",
						"label": "XPADTokenAddress",
						"offset": 0,
						"slot": "2",
						"type": "t_address"
					},
					{
						"astId": 341,
						"contract": "contracts/crowdsale.sol:crowdsale",
						"label": "XPADToken",
						"offset": 0,
						"slot": "3",
						"type": "t_contract(IERC20)298"
					},
					{
						"astId": 344,
						"contract": "contracts/crowdsale.sol:crowdsale",
						"label": "BUSDTokenAddress",
						"offset": 0,
						"slot": "4",
						"type": "t_address"
					},
					{
						"astId": 350,
						"contract": "contracts/crowdsale.sol:crowdsale",
						"label": "BUSDToken",
						"offset": 0,
						"slot": "5",
						"type": "t_contract(IERC20)298"
					},
					{
						"astId": 353,
						"contract": "contracts/crowdsale.sol:crowdsale",
						"label": "BUSDRecipient",
						"offset": 0,
						"slot": "6",
						"type": "t_address"
					},
					{
						"astId": 356,
						"contract": "contracts/crowdsale.sol:crowdsale",
						"label": "XPADTokenHolder",
						"offset": 0,
						"slot": "7",
						"type": "t_address"
					},
					{
						"astId": 359,
						"contract": "contracts/crowdsale.sol:crowdsale",
						"label": "minBUSD",
						"offset": 0,
						"slot": "8",
						"type": "t_uint256"
					},
					{
						"astId": 361,
						"contract": "contracts/crowdsale.sol:crowdsale",
						"label": "totalSold",
						"offset": 0,
						"slot": "9",
						"type": "t_uint256"
					},
					{
						"astId": 367,
						"contract": "contracts/crowdsale.sol:crowdsale",
						"label": "addressToS",
						"offset": 0,
						"slot": "10",
						"type": "t_mapping(t_address,t_array(t_struct(Staker)372_storage)dyn_storage)"
					}
				],
				"types": {
					"t_address": {
						"encoding": "inplace",
						"label": "address",
						"numberOfBytes": "20"
					},
					"t_array(t_struct(Round)1043_storage)dyn_storage": {
						"base": "t_struct(Round)1043_storage",
						"encoding": "dynamic_array",
						"label": "struct Data.Round[]",
						"numberOfBytes": "32"
					},
					"t_array(t_struct(Staker)372_storage)dyn_storage": {
						"base": "t_struct(Staker)372_storage",
						"encoding": "dynamic_array",
						"label": "struct crowdsale.Staker[]",
						"numberOfBytes": "32"
					},
					"t_bool": {
						"encoding": "inplace",
						"label": "bool",
						"numberOfBytes": "1"
					},
					"t_contract(IERC20)298": {
						"encoding": "inplace",
						"label": "contract IERC20",
						"numberOfBytes": "20"
					},
					"t_mapping(t_address,t_array(t_struct(Staker)372_storage)dyn_storage)": {
						"encoding": "mapping",
						"key": "t_address",
						"label": "mapping(address => struct crowdsale.Staker[])",
						"numberOfBytes": "32",
						"value": "t_array(t_struct(Staker)372_storage)dyn_storage"
					},
					"t_struct(Round)1043_storage": {
						"encoding": "inplace",
						"label": "struct Data.Round",
						"members": [
							{
								"astId": 1034,
								"contract": "contracts/crowdsale.sol:crowdsale",
								"label": "timeStart",
								"offset": 0,
								"slot": "0",
								"type": "t_uint256"
							},
							{
								"astId": 1036,
								"contract": "contracts/crowdsale.sol:crowdsale",
								"label": "timeEnd",
								"offset": 0,
								"slot": "1",
								"type": "t_uint256"
							},
							{
								"astId": 1038,
								"contract": "contracts/crowdsale.sol:crowdsale",
								"label": "vesting",
								"offset": 0,
								"slot": "2",
								"type": "t_uint256"
							},
							{
								"astId": 1040,
								"contract": "contracts/crowdsale.sol:crowdsale",
								"label": "price",
								"offset": 0,
								"slot": "3",
								"type": "t_uint256"
							},
							{
								"astId": 1042,
								"contract": "contracts/crowdsale.sol:crowdsale",
								"label": "maxTotalAmount",
								"offset": 0,
								"slot": "4",
								"type": "t_uint256"
							}
						],
						"numberOfBytes": "160"
					},
					"t_struct(Staker)372_storage": {
						"encoding": "inplace",
						"label": "struct crowdsale.Staker",
						"members": [
							{
								"astId": 369,
								"contract": "contracts/crowdsale.sol:crowdsale",
								"label": "timeStake",
								"offset": 0,
								"slot": "0",
								"type": "t_uint256"
							},
							{
								"astId": 371,
								"contract": "contracts/crowdsale.sol:crowdsale",
								"label": "value",
								"offset": 0,
								"slot": "1",
								"type": "t_uint256"
							}
						],
						"numberOfBytes": "64"
					},
					"t_uint256": {
						"encoding": "inplace",
						"label": "uint256",
						"numberOfBytes": "32"
					}
				}
			},
			"userdoc": {
				"kind": "user",
				"methods": {},
				"version": 1
			}
		}
	}
}