{
	"contracts/data.sol": {
		"Data": {
			"abi": [
				{
					"inputs": [],
					"stateMutability": "nonpayable",
					"type": "constructor"
				},
				{
					"inputs": [],
					"name": "getAllRounds",
					"outputs": [
						{
							"components": [
								{
									"internalType": "uint256",
									"name": "timeStart",
									"type": "uint256"
								},
								{
									"internalType": "uint256",
									"name": "timeEnd",
									"type": "uint256"
								},
								{
									"internalType": "uint256",
									"name": "vesting",
									"type": "uint256"
								},
								{
									"internalType": "uint256",
									"name": "price",
									"type": "uint256"
								},
								{
									"internalType": "uint256",
									"name": "maxTotalAmount",
									"type": "uint256"
								}
							],
							"internalType": "struct Data.Round[]",
							"name": "",
							"type": "tuple[]"
						}
					],
					"stateMutability": "view",
					"type": "function"
				},
				{
					"inputs": [],
					"name": "getCurrentMaxTotalAmount",
					"outputs": [
						{
							"internalType": "uint256",
							"name": "",
							"type": "uint256"
						}
					],
					"stateMutability": "view",
					"type": "function"
				},
				{
					"inputs": [],
					"name": "getCurrentRound",
					"outputs": [
						{
							"internalType": "uint256",
							"name": "",
							"type": "uint256"
						}
					],
					"stateMutability": "view",
					"type": "function"
				},
				{
					"inputs": [],
					"name": "getPriceXPAD",
					"outputs": [
						{
							"internalType": "uint256",
							"name": "",
							"type": "uint256"
						}
					],
					"stateMutability": "view",
					"type": "function"
				},
				{
					"inputs": [
						{
							"internalType": "uint256",
							"name": "_timeStake",
							"type": "uint256"
						}
					],
					"name": "getVestingXPAD",
					"outputs": [
						{
							"internalType": "uint256",
							"name": "",
							"type": "uint256"
						}
					],
					"stateMutability": "view",
					"type": "function"
				}
			],
			"devdoc": {
				"kind": "dev",
				"methods": {},
				"version": 1
			},
			"evm": {
				"assembly": "    /* \"contracts/data.sol\":60:2306  contract Data {\r... */\n  mstore(0x40, 0x80)\n    /* \"contracts/data.sol\":333:653  constructor() {\r... */\n  callvalue\n  dup1\n  iszero\n  tag_1\n  jumpi\n  0x00\n  dup1\n  revert\ntag_1:\n  pop\n    /* \"contracts/data.sol\":358:367  allRounds */\n  0x00\n    /* \"contracts/data.sol\":373:419  Round(1682420772, 1683527630, 60, 5, 19000000) */\n  mload(0x40)\n  dup1\n  0xa0\n  add\n  0x40\n  mstore\n  dup1\n    /* \"contracts/data.sol\":379:389  1682420772 */\n  0x6447b424\n    /* \"contracts/data.sol\":373:419  Round(1682420772, 1683527630, 60, 5, 19000000) */\n  dup2\n  mstore\n  0x20\n  add\n    /* \"contracts/data.sol\":391:401  1683527630 */\n  0x645897ce\n    /* \"contracts/data.sol\":373:419  Round(1682420772, 1683527630, 60, 5, 19000000) */\n  dup2\n  mstore\n  0x20\n  add\n    /* \"contracts/data.sol\":403:405  60 */\n  0x3c\n    /* \"contracts/data.sol\":373:419  Round(1682420772, 1683527630, 60, 5, 19000000) */\n  dup2\n  mstore\n  0x20\n  add\n    /* \"contracts/data.sol\":407:408  5 */\n  0x05\n    /* \"contracts/data.sol\":373:419  Round(1682420772, 1683527630, 60, 5, 19000000) */\n  dup2\n  mstore\n  0x20\n  add\n    /* \"contracts/data.sol\":410:418  19000000 */\n  0x0121eac0\n    /* \"contracts/data.sol\":373:419  Round(1682420772, 1683527630, 60, 5, 19000000) */\n  dup2\n  mstore\n  pop\n    /* \"contracts/data.sol\":358:420  allRounds.push(Round(1682420772, 1683527630, 60, 5, 19000000)) */\n  swap1\n  dup1\n  0x01\n  dup2\n  sload\n  add\n  dup1\n  dup3\n  sstore\n  dup1\n  swap2\n  pop\n  pop\n  0x01\n  swap1\n  sub\n  swap1\n  0x00\n  mstore\n  keccak256(0x00, 0x20)\n  swap1\n  0x05\n  mul\n  add\n  0x00\n  swap1\n  swap2\n  swap1\n  swap2\n  swap1\n  swap2\n  pop\n  0x00\n  dup3\n  add\n  mload\n  dup2\n  0x00\n  add\n  sstore\n  0x20\n  dup3\n  add\n  mload\n  dup2\n  0x01\n  add\n  sstore\n  0x40\n  dup3\n  add\n  mload\n  dup2\n  0x02\n  add\n  sstore\n  0x60\n  dup3\n  add\n  mload\n  dup2\n  0x03\n  add\n  sstore\n  0x80\n  dup3\n  add\n  mload\n  dup2\n  0x04\n  add\n  sstore\n  pop\n  pop\n    /* \"contracts/data.sol\":431:440  allRounds */\n  0x00\n    /* \"contracts/data.sol\":446:492  Round(1683527630, 1684593572, 60, 7, 19000000) */\n  mload(0x40)\n  dup1\n  0xa0\n  add\n  0x40\n  mstore\n  dup1\n    /* \"contracts/data.sol\":452:462  1683527630 */\n  0x645897ce\n    /* \"contracts/data.sol\":446:492  Round(1683527630, 1684593572, 60, 7, 19000000) */\n  dup2\n  mstore\n  0x20\n  add\n    /* \"contracts/data.sol\":464:474  1684593572 */\n  0x6468dba4\n    /* \"contracts/data.sol\":446:492  Round(1683527630, 1684593572, 60, 7, 19000000) */\n  dup2\n  mstore\n  0x20\n  add\n    /* \"contracts/data.sol\":476:478  60 */\n  0x3c\n    /* \"contracts/data.sol\":446:492  Round(1683527630, 1684593572, 60, 7, 19000000) */\n  dup2\n  mstore\n  0x20\n  add\n    /* \"contracts/data.sol\":480:481  7 */\n  0x07\n    /* \"contracts/data.sol\":446:492  Round(1683527630, 1684593572, 60, 7, 19000000) */\n  dup2\n  mstore\n  0x20\n  add\n    /* \"contracts/data.sol\":483:491  19000000 */\n  0x0121eac0\n    /* \"contracts/data.sol\":446:492  Round(1683527630, 1684593572, 60, 7, 19000000) */\n  dup2\n  mstore\n  pop\n    /* \"contracts/data.sol\":431:493  allRounds.push(Round(1683527630, 1684593572, 60, 7, 19000000)) */\n  swap1\n  dup1\n  0x01\n  dup2\n  sload\n  add\n  dup1\n  dup3\n  sstore\n  dup1\n  swap2\n  pop\n  pop\n  0x01\n  swap1\n  sub\n  swap1\n  0x00\n  mstore\n  keccak256(0x00, 0x20)\n  swap1\n  0x05\n  mul\n  add\n  0x00\n  swap1\n  swap2\n  swap1\n  swap2\n  swap1\n  swap2\n  pop\n  0x00\n  dup3\n  add\n  mload\n  dup2\n  0x00\n  add\n  sstore\n  0x20\n  dup3\n  add\n  mload\n  dup2\n  0x01\n  add\n  sstore\n  0x40\n  dup3\n  add\n  mload\n  dup2\n  0x02\n  add\n  sstore\n  0x60\n  dup3\n  add\n  mload\n  dup2\n  0x03\n  add\n  sstore\n  0x80\n  dup3\n  add\n  mload\n  dup2\n  0x04\n  add\n  sstore\n  pop\n  pop\n    /* \"contracts/data.sol\":504:513  allRounds */\n  0x00\n    /* \"contracts/data.sol\":519:568  Round(1684593572, 1684593572, 5000, 10, 19000000) */\n  mload(0x40)\n  dup1\n  0xa0\n  add\n  0x40\n  mstore\n  dup1\n    /* \"contracts/data.sol\":525:535  1684593572 */\n  0x6468dba4\n    /* \"contracts/data.sol\":519:568  Round(1684593572, 1684593572, 5000, 10, 19000000) */\n  dup2\n  mstore\n  0x20\n  add\n    /* \"contracts/data.sol\":537:547  1684593572 */\n  0x6468dba4\n    /* \"contracts/data.sol\":519:568  Round(1684593572, 1684593572, 5000, 10, 19000000) */\n  dup2\n  mstore\n  0x20\n  add\n    /* \"contracts/data.sol\":549:553  5000 */\n  0x1388\n    /* \"contracts/data.sol\":519:568  Round(1684593572, 1684593572, 5000, 10, 19000000) */\n  dup2\n  mstore\n  0x20\n  add\n    /* \"contracts/data.sol\":555:557  10 */\n  0x0a\n    /* \"contracts/data.sol\":519:568  Round(1684593572, 1684593572, 5000, 10, 19000000) */\n  dup2\n  mstore\n  0x20\n  add\n    /* \"contracts/data.sol\":559:567  19000000 */\n  0x0121eac0\n    /* \"contracts/data.sol\":519:568  Round(1684593572, 1684593572, 5000, 10, 19000000) */\n  dup2\n  mstore\n  pop\n    /* \"contracts/data.sol\":504:569  allRounds.push(Round(1684593572, 1684593572, 5000, 10, 19000000)) */\n  swap1\n  dup1\n  0x01\n  dup2\n  sload\n  add\n  dup1\n  dup3\n  sstore\n  dup1\n  swap2\n  pop\n  pop\n  0x01\n  swap1\n  sub\n  swap1\n  0x00\n  mstore\n  keccak256(0x00, 0x20)\n  swap1\n  0x05\n  mul\n  add\n  0x00\n  swap1\n  swap2\n  swap1\n  swap2\n  swap1\n  swap2\n  pop\n  0x00\n  dup3\n  add\n  mload\n  dup2\n  0x00\n  add\n  sstore\n  0x20\n  dup3\n  add\n  mload\n  dup2\n  0x01\n  add\n  sstore\n  0x40\n  dup3\n  add\n  mload\n  dup2\n  0x02\n  add\n  sstore\n  0x60\n  dup3\n  add\n  mload\n  dup2\n  0x03\n  add\n  sstore\n  0x80\n  dup3\n  add\n  mload\n  dup2\n  0x04\n  add\n  sstore\n  pop\n  pop\n    /* \"contracts/data.sol\":580:589  allRounds */\n  0x00\n    /* \"contracts/data.sol\":595:644  Round(1684593572, 1684593572, 5000, 15, 19000000) */\n  mload(0x40)\n  dup1\n  0xa0\n  add\n  0x40\n  mstore\n  dup1\n    /* \"contracts/data.sol\":601:611  1684593572 */\n  0x6468dba4\n    /* \"contracts/data.sol\":595:644  Round(1684593572, 1684593572, 5000, 15, 19000000) */\n  dup2\n  mstore\n  0x20\n  add\n    /* \"contracts/data.sol\":613:623  1684593572 */\n  0x6468dba4\n    /* \"contracts/data.sol\":595:644  Round(1684593572, 1684593572, 5000, 15, 19000000) */\n  dup2\n  mstore\n  0x20\n  add\n    /* \"contracts/data.sol\":625:629  5000 */\n  0x1388\n    /* \"contracts/data.sol\":595:644  Round(1684593572, 1684593572, 5000, 15, 19000000) */\n  dup2\n  mstore\n  0x20\n  add\n    /* \"contracts/data.sol\":631:633  15 */\n  0x0f\n    /* \"contracts/data.sol\":595:644  Round(1684593572, 1684593572, 5000, 15, 19000000) */\n  dup2\n  mstore\n  0x20\n  add\n    /* \"contracts/data.sol\":635:643  19000000 */\n  0x0121eac0\n    /* \"contracts/data.sol\":595:644  Round(1684593572, 1684593572, 5000, 15, 19000000) */\n  dup2\n  mstore\n  pop\n    /* \"contracts/data.sol\":580:645  allRounds.push(Round(1684593572, 1684593572, 5000, 15, 19000000)) */\n  swap1\n  dup1\n  0x01\n  dup2\n  sload\n  add\n  dup1\n  dup3\n  sstore\n  dup1\n  swap2\n  pop\n  pop\n  0x01\n  swap1\n  sub\n  swap1\n  0x00\n  mstore\n  keccak256(0x00, 0x20)\n  swap1\n  0x05\n  mul\n  add\n  0x00\n  swap1\n  swap2\n  swap1\n  swap2\n  swap1\n  swap2\n  pop\n  0x00\n  dup3\n  add\n  mload\n  dup2\n  0x00\n  add\n  sstore\n  0x20\n  dup3\n  add\n  mload\n  dup2\n  0x01\n  add\n  sstore\n  0x40\n  dup3\n  add\n  mload\n  dup2\n  0x02\n  add\n  sstore\n  0x60\n  dup3\n  add\n  mload\n  dup2\n  0x03\n  add\n  sstore\n  0x80\n  dup3\n  add\n  mload\n  dup2\n  0x04\n  add\n  sstore\n  pop\n  pop\n    /* \"contracts/data.sol\":60:2306  contract Data {\r... */\n  dataSize(sub_0)\n  dup1\n  dataOffset(sub_0)\n  0x00\n  codecopy\n  0x00\n  return\nstop\n\nsub_0: assembly {\n        /* \"contracts/data.sol\":60:2306  contract Data {\r... */\n      mstore(0x40, 0x80)\n      callvalue\n      dup1\n      iszero\n      tag_1\n      jumpi\n      0x00\n      dup1\n      revert\n    tag_1:\n      pop\n      jumpi(tag_2, lt(calldatasize, 0x04))\n      shr(0xe0, calldataload(0x00))\n      dup1\n      0x2d2c4158\n      eq\n      tag_3\n      jumpi\n      dup1\n      0x3f9a16a8\n      eq\n      tag_4\n      jumpi\n      dup1\n      0x523c69e6\n      eq\n      tag_5\n      jumpi\n      dup1\n      0xa32bf597\n      eq\n      tag_6\n      jumpi\n      dup1\n      0xe5066bbf\n      eq\n      tag_7\n      jumpi\n    tag_2:\n      0x00\n      dup1\n      revert\n        /* \"contracts/data.sol\":661:1033  function getPriceXPAD() public view returns (uint){\r... */\n    tag_3:\n      tag_8\n      tag_9\n      jump\t// in\n    tag_8:\n      mload(0x40)\n      tag_10\n      swap2\n      swap1\n      tag_11\n      jump\t// in\n    tag_10:\n      mload(0x40)\n      dup1\n      swap2\n      sub\n      swap1\n      return\n        /* \"contracts/data.sol\":1893:2301  function getCurrentMaxTotalAmount() public view returns(uint) {\r... */\n    tag_4:\n      tag_12\n      tag_13\n      jump\t// in\n    tag_12:\n      mload(0x40)\n      tag_14\n      swap2\n      swap1\n      tag_11\n      jump\t// in\n    tag_14:\n      mload(0x40)\n      dup1\n      swap2\n      sub\n      swap1\n      return\n        /* \"contracts/data.sol\":1041:1428  function getVestingXPAD(uint _timeStake) public view returns (uint){\r... */\n    tag_5:\n      tag_15\n      0x04\n      dup1\n      calldatasize\n      sub\n      dup2\n      add\n      swap1\n      tag_16\n      swap2\n      swap1\n      tag_17\n      jump\t// in\n    tag_16:\n      tag_18\n      jump\t// in\n    tag_15:\n      mload(0x40)\n      tag_19\n      swap2\n      swap1\n      tag_11\n      jump\t// in\n    tag_19:\n      mload(0x40)\n      dup1\n      swap2\n      sub\n      swap1\n      return\n        /* \"contracts/data.sol\":1539:1885  function getCurrentRound() public view returns(uint) {\r... */\n    tag_6:\n      tag_20\n      tag_21\n      jump\t// in\n    tag_20:\n      mload(0x40)\n      tag_22\n      swap2\n      swap1\n      tag_11\n      jump\t// in\n    tag_22:\n      mload(0x40)\n      dup1\n      swap2\n      sub\n      swap1\n      return\n        /* \"contracts/data.sol\":1436:1531  function getAllRounds() public view returns(Round[] memory) {\r... */\n    tag_7:\n      tag_23\n      tag_24\n      jump\t// in\n    tag_23:\n      mload(0x40)\n      tag_25\n      swap2\n      swap1\n      tag_26\n      jump\t// in\n    tag_25:\n      mload(0x40)\n      dup1\n      swap2\n      sub\n      swap1\n      return\n        /* \"contracts/data.sol\":661:1033  function getPriceXPAD() public view returns (uint){\r... */\n    tag_9:\n        /* \"contracts/data.sol\":706:710  uint */\n      0x00\n        /* \"contracts/data.sol\":722:736  uint priceXPAD */\n      dup1\n        /* \"contracts/data.sol\":754:760  uint i */\n      0x00\n        /* \"contracts/data.sol\":749:997  for (uint i = 0; i < allRounds.length; i++) {\r... */\n    tag_28:\n        /* \"contracts/data.sol\":770:779  allRounds */\n      0x00\n        /* \"contracts/data.sol\":770:786  allRounds.length */\n      dup1\n      sload\n      swap1\n      pop\n        /* \"contracts/data.sol\":766:767  i */\n      dup2\n        /* \"contracts/data.sol\":766:786  i < allRounds.length */\n      lt\n        /* \"contracts/data.sol\":749:997  for (uint i = 0; i < allRounds.length; i++) {\r... */\n      iszero\n      tag_29\n      jumpi\n        /* \"contracts/data.sol\":831:840  allRounds */\n      0x00\n        /* \"contracts/data.sol\":841:842  i */\n      dup2\n        /* \"contracts/data.sol\":831:843  allRounds[i] */\n      dup2\n      sload\n      dup2\n      lt\n      tag_31\n      jumpi\n      tag_32\n      tag_33\n      jump\t// in\n    tag_32:\n    tag_31:\n      swap1\n      0x00\n      mstore\n      keccak256(0x00, 0x20)\n      swap1\n      0x05\n      mul\n      add\n        /* \"contracts/data.sol\":831:853  allRounds[i].timeStart */\n      0x00\n      add\n      sload\n        /* \"contracts/data.sol\":812:827  block.timestamp */\n      timestamp\n        /* \"contracts/data.sol\":812:853  block.timestamp >= allRounds[i].timeStart */\n      lt\n      iszero\n        /* \"contracts/data.sol\":812:895  block.timestamp >= allRounds[i].timeStart && block.timestamp < allRounds[i].timeEnd */\n      dup1\n      iszero\n      tag_35\n      jumpi\n      pop\n        /* \"contracts/data.sol\":875:884  allRounds */\n      0x00\n        /* \"contracts/data.sol\":885:886  i */\n      dup2\n        /* \"contracts/data.sol\":875:887  allRounds[i] */\n      dup2\n      sload\n      dup2\n      lt\n      tag_36\n      jumpi\n      tag_37\n      tag_33\n      jump\t// in\n    tag_37:\n    tag_36:\n      swap1\n      0x00\n      mstore\n      keccak256(0x00, 0x20)\n      swap1\n      0x05\n      mul\n      add\n        /* \"contracts/data.sol\":875:895  allRounds[i].timeEnd */\n      0x01\n      add\n      sload\n        /* \"contracts/data.sol\":857:872  block.timestamp */\n      timestamp\n        /* \"contracts/data.sol\":857:895  block.timestamp < allRounds[i].timeEnd */\n      lt\n        /* \"contracts/data.sol\":812:895  block.timestamp >= allRounds[i].timeStart && block.timestamp < allRounds[i].timeEnd */\n    tag_35:\n        /* \"contracts/data.sol\":808:986  if (block.timestamp >= allRounds[i].timeStart && block.timestamp < allRounds[i].timeEnd) {\r... */\n      iszero\n      tag_39\n      jumpi\n        /* \"contracts/data.sol\":928:937  allRounds */\n      0x00\n        /* \"contracts/data.sol\":938:939  i */\n      dup2\n        /* \"contracts/data.sol\":928:940  allRounds[i] */\n      dup2\n      sload\n      dup2\n      lt\n      tag_40\n      jumpi\n      tag_41\n      tag_33\n      jump\t// in\n    tag_41:\n    tag_40:\n      swap1\n      0x00\n      mstore\n      keccak256(0x00, 0x20)\n      swap1\n      0x05\n      mul\n      add\n        /* \"contracts/data.sol\":928:946  allRounds[i].price */\n      0x03\n      add\n      sload\n        /* \"contracts/data.sol\":916:946  priceXPAD = allRounds[i].price */\n      swap2\n      pop\n        /* \"contracts/data.sol\":965:970  break */\n      jump(tag_29)\n        /* \"contracts/data.sol\":808:986  if (block.timestamp >= allRounds[i].timeStart && block.timestamp < allRounds[i].timeEnd) {\r... */\n    tag_39:\n        /* \"contracts/data.sol\":788:791  i++ */\n      dup1\n      dup1\n      tag_43\n      swap1\n      tag_44\n      jump\t// in\n    tag_43:\n      swap2\n      pop\n      pop\n        /* \"contracts/data.sol\":749:997  for (uint i = 0; i < allRounds.length; i++) {\r... */\n      jump(tag_28)\n    tag_29:\n      pop\n        /* \"contracts/data.sol\":1016:1025  priceXPAD */\n      dup1\n        /* \"contracts/data.sol\":1009:1025  return priceXPAD */\n      swap2\n      pop\n      pop\n        /* \"contracts/data.sol\":661:1033  function getPriceXPAD() public view returns (uint){\r... */\n      swap1\n      jump\t// out\n        /* \"contracts/data.sol\":1893:2301  function getCurrentMaxTotalAmount() public view returns(uint) {\r... */\n    tag_13:\n        /* \"contracts/data.sol\":1949:1953  uint */\n      0x00\n        /* \"contracts/data.sol\":1966:1985  uint maxTotalAmount */\n      dup1\n        /* \"contracts/data.sol\":2003:2009  uint i */\n      0x00\n        /* \"contracts/data.sol\":1998:2260  for (uint i = 0; i < allRounds.length; i++) {\r... */\n    tag_46:\n        /* \"contracts/data.sol\":2019:2028  allRounds */\n      0x00\n        /* \"contracts/data.sol\":2019:2035  allRounds.length */\n      dup1\n      sload\n      swap1\n      pop\n        /* \"contracts/data.sol\":2015:2016  i */\n      dup2\n        /* \"contracts/data.sol\":2015:2035  i < allRounds.length */\n      lt\n        /* \"contracts/data.sol\":1998:2260  for (uint i = 0; i < allRounds.length; i++) {\r... */\n      iszero\n      tag_47\n      jumpi\n        /* \"contracts/data.sol\":2080:2089  allRounds */\n      0x00\n        /* \"contracts/data.sol\":2090:2091  i */\n      dup2\n        /* \"contracts/data.sol\":2080:2092  allRounds[i] */\n      dup2\n      sload\n      dup2\n      lt\n      tag_49\n      jumpi\n      tag_50\n      tag_33\n      jump\t// in\n    tag_50:\n    tag_49:\n      swap1\n      0x00\n      mstore\n      keccak256(0x00, 0x20)\n      swap1\n      0x05\n      mul\n      add\n        /* \"contracts/data.sol\":2080:2102  allRounds[i].timeStart */\n      0x00\n      add\n      sload\n        /* \"contracts/data.sol\":2061:2076  block.timestamp */\n      timestamp\n        /* \"contracts/data.sol\":2061:2102  block.timestamp >= allRounds[i].timeStart */\n      lt\n      iszero\n        /* \"contracts/data.sol\":2061:2144  block.timestamp >= allRounds[i].timeStart && block.timestamp < allRounds[i].timeEnd */\n      dup1\n      iszero\n      tag_52\n      jumpi\n      pop\n        /* \"contracts/data.sol\":2124:2133  allRounds */\n      0x00\n        /* \"contracts/data.sol\":2134:2135  i */\n      dup2\n        /* \"contracts/data.sol\":2124:2136  allRounds[i] */\n      dup2\n      sload\n      dup2\n      lt\n      tag_53\n      jumpi\n      tag_54\n      tag_33\n      jump\t// in\n    tag_54:\n    tag_53:\n      swap1\n      0x00\n      mstore\n      keccak256(0x00, 0x20)\n      swap1\n      0x05\n      mul\n      add\n        /* \"contracts/data.sol\":2124:2144  allRounds[i].timeEnd */\n      0x01\n      add\n      sload\n        /* \"contracts/data.sol\":2106:2121  block.timestamp */\n      timestamp\n        /* \"contracts/data.sol\":2106:2144  block.timestamp < allRounds[i].timeEnd */\n      lt\n        /* \"contracts/data.sol\":2061:2144  block.timestamp >= allRounds[i].timeStart && block.timestamp < allRounds[i].timeEnd */\n    tag_52:\n        /* \"contracts/data.sol\":2057:2249  if (block.timestamp >= allRounds[i].timeStart && block.timestamp < allRounds[i].timeEnd) {\r... */\n      iszero\n      tag_56\n      jumpi\n        /* \"contracts/data.sol\":2182:2191  allRounds */\n      0x00\n        /* \"contracts/data.sol\":2192:2193  i */\n      dup2\n        /* \"contracts/data.sol\":2182:2194  allRounds[i] */\n      dup2\n      sload\n      dup2\n      lt\n      tag_57\n      jumpi\n      tag_58\n      tag_33\n      jump\t// in\n    tag_58:\n    tag_57:\n      swap1\n      0x00\n      mstore\n      keccak256(0x00, 0x20)\n      swap1\n      0x05\n      mul\n      add\n        /* \"contracts/data.sol\":2182:2209  allRounds[i].maxTotalAmount */\n      0x04\n      add\n      sload\n        /* \"contracts/data.sol\":2165:2209  maxTotalAmount = allRounds[i].maxTotalAmount */\n      swap2\n      pop\n        /* \"contracts/data.sol\":2228:2233  break */\n      jump(tag_47)\n        /* \"contracts/data.sol\":2057:2249  if (block.timestamp >= allRounds[i].timeStart && block.timestamp < allRounds[i].timeEnd) {\r... */\n    tag_56:\n        /* \"contracts/data.sol\":2037:2040  i++ */\n      dup1\n      dup1\n      tag_60\n      swap1\n      tag_44\n      jump\t// in\n    tag_60:\n      swap2\n      pop\n      pop\n        /* \"contracts/data.sol\":1998:2260  for (uint i = 0; i < allRounds.length; i++) {\r... */\n      jump(tag_46)\n    tag_47:\n      pop\n        /* \"contracts/data.sol\":2279:2293  maxTotalAmount */\n      dup1\n        /* \"contracts/data.sol\":2272:2293  return maxTotalAmount */\n      swap2\n      pop\n      pop\n        /* \"contracts/data.sol\":1893:2301  function getCurrentMaxTotalAmount() public view returns(uint) {\r... */\n      swap1\n      jump\t// out\n        /* \"contracts/data.sol\":1041:1428  function getVestingXPAD(uint _timeStake) public view returns (uint){\r... */\n    tag_18:\n        /* \"contracts/data.sol\":1103:1107  uint */\n      0x00\n        /* \"contracts/data.sol\":1119:1135  uint vestingXPAD */\n      dup1\n        /* \"contracts/data.sol\":1153:1159  uint i */\n      0x00\n        /* \"contracts/data.sol\":1148:1390  for (uint i = 0; i < allRounds.length; i++) {\r... */\n    tag_62:\n        /* \"contracts/data.sol\":1169:1178  allRounds */\n      0x00\n        /* \"contracts/data.sol\":1169:1185  allRounds.length */\n      dup1\n      sload\n      swap1\n      pop\n        /* \"contracts/data.sol\":1165:1166  i */\n      dup2\n        /* \"contracts/data.sol\":1165:1185  i < allRounds.length */\n      lt\n        /* \"contracts/data.sol\":1148:1390  for (uint i = 0; i < allRounds.length; i++) {\r... */\n      iszero\n      tag_63\n      jumpi\n        /* \"contracts/data.sol\":1225:1234  allRounds */\n      0x00\n        /* \"contracts/data.sol\":1235:1236  i */\n      dup2\n        /* \"contracts/data.sol\":1225:1237  allRounds[i] */\n      dup2\n      sload\n      dup2\n      lt\n      tag_65\n      jumpi\n      tag_66\n      tag_33\n      jump\t// in\n    tag_66:\n    tag_65:\n      swap1\n      0x00\n      mstore\n      keccak256(0x00, 0x20)\n      swap1\n      0x05\n      mul\n      add\n        /* \"contracts/data.sol\":1225:1247  allRounds[i].timeStart */\n      0x00\n      add\n      sload\n        /* \"contracts/data.sol\":1211:1221  _timeStake */\n      dup5\n        /* \"contracts/data.sol\":1211:1247  _timeStake >= allRounds[i].timeStart */\n      lt\n      iszero\n        /* \"contracts/data.sol\":1211:1284  _timeStake >= allRounds[i].timeStart && _timeStake < allRounds[i].timeEnd */\n      dup1\n      iszero\n      tag_68\n      jumpi\n      pop\n        /* \"contracts/data.sol\":1264:1273  allRounds */\n      0x00\n        /* \"contracts/data.sol\":1274:1275  i */\n      dup2\n        /* \"contracts/data.sol\":1264:1276  allRounds[i] */\n      dup2\n      sload\n      dup2\n      lt\n      tag_69\n      jumpi\n      tag_70\n      tag_33\n      jump\t// in\n    tag_70:\n    tag_69:\n      swap1\n      0x00\n      mstore\n      keccak256(0x00, 0x20)\n      swap1\n      0x05\n      mul\n      add\n        /* \"contracts/data.sol\":1264:1284  allRounds[i].timeEnd */\n      0x01\n      add\n      sload\n        /* \"contracts/data.sol\":1251:1261  _timeStake */\n      dup5\n        /* \"contracts/data.sol\":1251:1284  _timeStake < allRounds[i].timeEnd */\n      lt\n        /* \"contracts/data.sol\":1211:1284  _timeStake >= allRounds[i].timeStart && _timeStake < allRounds[i].timeEnd */\n    tag_68:\n        /* \"contracts/data.sol\":1207:1379  if (_timeStake >= allRounds[i].timeStart && _timeStake < allRounds[i].timeEnd) {\r... */\n      iszero\n      tag_72\n      jumpi\n        /* \"contracts/data.sol\":1319:1328  allRounds */\n      0x00\n        /* \"contracts/data.sol\":1329:1330  i */\n      dup2\n        /* \"contracts/data.sol\":1319:1331  allRounds[i] */\n      dup2\n      sload\n      dup2\n      lt\n      tag_73\n      jumpi\n      tag_74\n      tag_33\n      jump\t// in\n    tag_74:\n    tag_73:\n      swap1\n      0x00\n      mstore\n      keccak256(0x00, 0x20)\n      swap1\n      0x05\n      mul\n      add\n        /* \"contracts/data.sol\":1319:1339  allRounds[i].vesting */\n      0x02\n      add\n      sload\n        /* \"contracts/data.sol\":1305:1339  vestingXPAD = allRounds[i].vesting */\n      swap2\n      pop\n        /* \"contracts/data.sol\":1358:1363  break */\n      jump(tag_63)\n        /* \"contracts/data.sol\":1207:1379  if (_timeStake >= allRounds[i].timeStart && _timeStake < allRounds[i].timeEnd) {\r... */\n    tag_72:\n        /* \"contracts/data.sol\":1187:1190  i++ */\n      dup1\n      dup1\n      tag_76\n      swap1\n      tag_44\n      jump\t// in\n    tag_76:\n      swap2\n      pop\n      pop\n        /* \"contracts/data.sol\":1148:1390  for (uint i = 0; i < allRounds.length; i++) {\r... */\n      jump(tag_62)\n    tag_63:\n      pop\n        /* \"contracts/data.sol\":1409:1420  vestingXPAD */\n      dup1\n        /* \"contracts/data.sol\":1402:1420  return vestingXPAD */\n      swap2\n      pop\n      pop\n        /* \"contracts/data.sol\":1041:1428  function getVestingXPAD(uint _timeStake) public view returns (uint){\r... */\n      swap2\n      swap1\n      pop\n      jump\t// out\n        /* \"contracts/data.sol\":1539:1885  function getCurrentRound() public view returns(uint) {\r... */\n    tag_21:\n        /* \"contracts/data.sol\":1586:1590  uint */\n      0x00\n        /* \"contracts/data.sol\":1603:1613  uint round */\n      dup1\n        /* \"contracts/data.sol\":1631:1637  uint i */\n      0x00\n        /* \"contracts/data.sol\":1626:1853  for (uint i = 0; i < allRounds.length; i++) {\r... */\n    tag_78:\n        /* \"contracts/data.sol\":1647:1656  allRounds */\n      0x00\n        /* \"contracts/data.sol\":1647:1663  allRounds.length */\n      dup1\n      sload\n      swap1\n      pop\n        /* \"contracts/data.sol\":1643:1644  i */\n      dup2\n        /* \"contracts/data.sol\":1643:1663  i < allRounds.length */\n      lt\n        /* \"contracts/data.sol\":1626:1853  for (uint i = 0; i < allRounds.length; i++) {\r... */\n      iszero\n      tag_79\n      jumpi\n        /* \"contracts/data.sol\":1708:1717  allRounds */\n      0x00\n        /* \"contracts/data.sol\":1718:1719  i */\n      dup2\n        /* \"contracts/data.sol\":1708:1720  allRounds[i] */\n      dup2\n      sload\n      dup2\n      lt\n      tag_81\n      jumpi\n      tag_82\n      tag_33\n      jump\t// in\n    tag_82:\n    tag_81:\n      swap1\n      0x00\n      mstore\n      keccak256(0x00, 0x20)\n      swap1\n      0x05\n      mul\n      add\n        /* \"contracts/data.sol\":1708:1730  allRounds[i].timeStart */\n      0x00\n      add\n      sload\n        /* \"contracts/data.sol\":1689:1704  block.timestamp */\n      timestamp\n        /* \"contracts/data.sol\":1689:1730  block.timestamp >= allRounds[i].timeStart */\n      lt\n      iszero\n        /* \"contracts/data.sol\":1689:1772  block.timestamp >= allRounds[i].timeStart && block.timestamp < allRounds[i].timeEnd */\n      dup1\n      iszero\n      tag_84\n      jumpi\n      pop\n        /* \"contracts/data.sol\":1752:1761  allRounds */\n      0x00\n        /* \"contracts/data.sol\":1762:1763  i */\n      dup2\n        /* \"contracts/data.sol\":1752:1764  allRounds[i] */\n      dup2\n      sload\n      dup2\n      lt\n      tag_85\n      jumpi\n      tag_86\n      tag_33\n      jump\t// in\n    tag_86:\n    tag_85:\n      swap1\n      0x00\n      mstore\n      keccak256(0x00, 0x20)\n      swap1\n      0x05\n      mul\n      add\n        /* \"contracts/data.sol\":1752:1772  allRounds[i].timeEnd */\n      0x01\n      add\n      sload\n        /* \"contracts/data.sol\":1734:1749  block.timestamp */\n      timestamp\n        /* \"contracts/data.sol\":1734:1772  block.timestamp < allRounds[i].timeEnd */\n      lt\n        /* \"contracts/data.sol\":1689:1772  block.timestamp >= allRounds[i].timeStart && block.timestamp < allRounds[i].timeEnd */\n    tag_84:\n        /* \"contracts/data.sol\":1685:1842  if (block.timestamp >= allRounds[i].timeStart && block.timestamp < allRounds[i].timeEnd) {\r... */\n      iszero\n      tag_88\n      jumpi\n        /* \"contracts/data.sol\":1801:1802  i */\n      dup1\n        /* \"contracts/data.sol\":1793:1802  round = i */\n      swap2\n      pop\n        /* \"contracts/data.sol\":1821:1826  break */\n      jump(tag_79)\n        /* \"contracts/data.sol\":1685:1842  if (block.timestamp >= allRounds[i].timeStart && block.timestamp < allRounds[i].timeEnd) {\r... */\n    tag_88:\n        /* \"contracts/data.sol\":1665:1668  i++ */\n      dup1\n      dup1\n      tag_89\n      swap1\n      tag_44\n      jump\t// in\n    tag_89:\n      swap2\n      pop\n      pop\n        /* \"contracts/data.sol\":1626:1853  for (uint i = 0; i < allRounds.length; i++) {\r... */\n      jump(tag_78)\n    tag_79:\n      pop\n        /* \"contracts/data.sol\":1872:1877  round */\n      dup1\n        /* \"contracts/data.sol\":1865:1877  return round */\n      swap2\n      pop\n      pop\n        /* \"contracts/data.sol\":1539:1885  function getCurrentRound() public view returns(uint) {\r... */\n      swap1\n      jump\t// out\n        /* \"contracts/data.sol\":1436:1531  function getAllRounds() public view returns(Round[] memory) {\r... */\n    tag_24:\n        /* \"contracts/data.sol\":1480:1494  Round[] memory */\n      0x60\n        /* \"contracts/data.sol\":1514:1523  allRounds */\n      0x00\n        /* \"contracts/data.sol\":1507:1523  return allRounds */\n      dup1\n      sload\n      dup1\n      0x20\n      mul\n      0x20\n      add\n      mload(0x40)\n      swap1\n      dup2\n      add\n      0x40\n      mstore\n      dup1\n      swap3\n      swap2\n      swap1\n      dup2\n      dup2\n      mstore\n      0x20\n      add\n      0x00\n      swap1\n    tag_91:\n      dup3\n      dup3\n      lt\n      iszero\n      tag_92\n      jumpi\n      dup4\n      dup3\n      swap1\n      0x00\n      mstore\n      keccak256(0x00, 0x20)\n      swap1\n      0x05\n      mul\n      add\n      mload(0x40)\n      dup1\n      0xa0\n      add\n      0x40\n      mstore\n      swap1\n      dup2\n      0x00\n      dup3\n      add\n      sload\n      dup2\n      mstore\n      0x20\n      add\n      0x01\n      dup3\n      add\n      sload\n      dup2\n      mstore\n      0x20\n      add\n      0x02\n      dup3\n      add\n      sload\n      dup2\n      mstore\n      0x20\n      add\n      0x03\n      dup3\n      add\n      sload\n      dup2\n      mstore\n      0x20\n      add\n      0x04\n      dup3\n      add\n      sload\n      dup2\n      mstore\n      pop\n      pop\n      dup2\n      mstore\n      0x20\n      add\n      swap1\n      0x01\n      add\n      swap1\n      jump(tag_91)\n    tag_92:\n      pop\n      pop\n      pop\n      pop\n      swap1\n      pop\n        /* \"contracts/data.sol\":1436:1531  function getAllRounds() public view returns(Round[] memory) {\r... */\n      swap1\n      jump\t// out\n        /* \"#utility.yul\":7:146   */\n    tag_95:\n        /* \"#utility.yul\":53:58   */\n      0x00\n        /* \"#utility.yul\":91:97   */\n      dup2\n        /* \"#utility.yul\":78:98   */\n      calldataload\n        /* \"#utility.yul\":69:98   */\n      swap1\n      pop\n        /* \"#utility.yul\":107:140   */\n      tag_97\n        /* \"#utility.yul\":134:139   */\n      dup2\n        /* \"#utility.yul\":107:140   */\n      tag_98\n      jump\t// in\n    tag_97:\n        /* \"#utility.yul\":7:146   */\n      swap3\n      swap2\n      pop\n      pop\n      jump\t// out\n        /* \"#utility.yul\":152:481   */\n    tag_17:\n        /* \"#utility.yul\":211:217   */\n      0x00\n        /* \"#utility.yul\":260:262   */\n      0x20\n        /* \"#utility.yul\":248:257   */\n      dup3\n        /* \"#utility.yul\":239:246   */\n      dup5\n        /* \"#utility.yul\":235:258   */\n      sub\n        /* \"#utility.yul\":231:263   */\n      slt\n        /* \"#utility.yul\":228:347   */\n      iszero\n      tag_100\n      jumpi\n        /* \"#utility.yul\":266:345   */\n      tag_101\n      tag_102\n      jump\t// in\n    tag_101:\n        /* \"#utility.yul\":228:347   */\n    tag_100:\n        /* \"#utility.yul\":386:387   */\n      0x00\n        /* \"#utility.yul\":411:464   */\n      tag_103\n        /* \"#utility.yul\":456:463   */\n      dup5\n        /* \"#utility.yul\":447:453   */\n      dup3\n        /* \"#utility.yul\":436:445   */\n      dup6\n        /* \"#utility.yul\":432:454   */\n      add\n        /* \"#utility.yul\":411:464   */\n      tag_95\n      jump\t// in\n    tag_103:\n        /* \"#utility.yul\":401:464   */\n      swap2\n      pop\n        /* \"#utility.yul\":357:474   */\n      pop\n        /* \"#utility.yul\":152:481   */\n      swap3\n      swap2\n      pop\n      pop\n      jump\t// out\n        /* \"#utility.yul\":487:750   */\n    tag_104:\n        /* \"#utility.yul\":598:608   */\n      0x00\n        /* \"#utility.yul\":619:707   */\n      tag_106\n        /* \"#utility.yul\":703:706   */\n      dup4\n        /* \"#utility.yul\":695:701   */\n      dup4\n        /* \"#utility.yul\":619:707   */\n      tag_107\n      jump\t// in\n    tag_106:\n        /* \"#utility.yul\":739:743   */\n      0xa0\n        /* \"#utility.yul\":734:737   */\n      dup4\n        /* \"#utility.yul\":730:744   */\n      add\n        /* \"#utility.yul\":716:744   */\n      swap1\n      pop\n        /* \"#utility.yul\":487:750   */\n      swap3\n      swap2\n      pop\n      pop\n      jump\t// out\n        /* \"#utility.yul\":806:1706   */\n    tag_108:\n        /* \"#utility.yul\":967:970   */\n      0x00\n        /* \"#utility.yul\":996:1071   */\n      tag_110\n        /* \"#utility.yul\":1065:1070   */\n      dup3\n        /* \"#utility.yul\":996:1071   */\n      tag_111\n      jump\t// in\n    tag_110:\n        /* \"#utility.yul\":1087:1194   */\n      tag_112\n        /* \"#utility.yul\":1187:1193   */\n      dup2\n        /* \"#utility.yul\":1182:1185   */\n      dup6\n        /* \"#utility.yul\":1087:1194   */\n      tag_113\n      jump\t// in\n    tag_112:\n        /* \"#utility.yul\":1080:1194   */\n      swap4\n      pop\n        /* \"#utility.yul\":1218:1295   */\n      tag_114\n        /* \"#utility.yul\":1289:1294   */\n      dup4\n        /* \"#utility.yul\":1218:1295   */\n      tag_115\n      jump\t// in\n    tag_114:\n        /* \"#utility.yul\":1318:1325   */\n      dup1\n        /* \"#utility.yul\":1349:1350   */\n      0x00\n        /* \"#utility.yul\":1334:1681   */\n    tag_116:\n        /* \"#utility.yul\":1359:1365   */\n      dup4\n        /* \"#utility.yul\":1356:1357   */\n      dup2\n        /* \"#utility.yul\":1353:1366   */\n      lt\n        /* \"#utility.yul\":1334:1681   */\n      iszero\n      tag_118\n      jumpi\n        /* \"#utility.yul\":1435:1441   */\n      dup2\n        /* \"#utility.yul\":1429:1442   */\n      mload\n        /* \"#utility.yul\":1462:1567   */\n      tag_119\n        /* \"#utility.yul\":1563:1566   */\n      dup9\n        /* \"#utility.yul\":1548:1561   */\n      dup3\n        /* \"#utility.yul\":1462:1567   */\n      tag_104\n      jump\t// in\n    tag_119:\n        /* \"#utility.yul\":1455:1567   */\n      swap8\n      pop\n        /* \"#utility.yul\":1590:1671   */\n      tag_120\n        /* \"#utility.yul\":1664:1670   */\n      dup4\n        /* \"#utility.yul\":1590:1671   */\n      tag_121\n      jump\t// in\n    tag_120:\n        /* \"#utility.yul\":1580:1671   */\n      swap3\n      pop\n        /* \"#utility.yul\":1394:1681   */\n      pop\n        /* \"#utility.yul\":1381:1382   */\n      0x01\n        /* \"#utility.yul\":1378:1379   */\n      dup2\n        /* \"#utility.yul\":1374:1383   */\n      add\n        /* \"#utility.yul\":1369:1383   */\n      swap1\n      pop\n        /* \"#utility.yul\":1334:1681   */\n      jump(tag_116)\n    tag_118:\n        /* \"#utility.yul\":1338:1352   */\n      pop\n        /* \"#utility.yul\":1697:1700   */\n      dup6\n        /* \"#utility.yul\":1690:1700   */\n      swap4\n      pop\n        /* \"#utility.yul\":972:1706   */\n      pop\n      pop\n      pop\n        /* \"#utility.yul\":806:1706   */\n      swap3\n      swap2\n      pop\n      pop\n      jump\t// out\n        /* \"#utility.yul\":1758:2791   */\n    tag_107:\n        /* \"#utility.yul\":1887:1891   */\n      0xa0\n        /* \"#utility.yul\":1882:1885   */\n      dup3\n        /* \"#utility.yul\":1878:1892   */\n      add\n        /* \"#utility.yul\":1979:1983   */\n      0x00\n        /* \"#utility.yul\":1972:1977   */\n      dup3\n        /* \"#utility.yul\":1968:1984   */\n      add\n        /* \"#utility.yul\":1962:1985   */\n      mload\n        /* \"#utility.yul\":1998:2061   */\n      tag_123\n        /* \"#utility.yul\":2055:2059   */\n      0x00\n        /* \"#utility.yul\":2050:2053   */\n      dup6\n        /* \"#utility.yul\":2046:2060   */\n      add\n        /* \"#utility.yul\":2032:2044   */\n      dup3\n        /* \"#utility.yul\":1998:2061   */\n      tag_124\n      jump\t// in\n    tag_123:\n        /* \"#utility.yul\":1902:2071   */\n      pop\n        /* \"#utility.yul\":2156:2160   */\n      0x20\n        /* \"#utility.yul\":2149:2154   */\n      dup3\n        /* \"#utility.yul\":2145:2161   */\n      add\n        /* \"#utility.yul\":2139:2162   */\n      mload\n        /* \"#utility.yul\":2175:2238   */\n      tag_125\n        /* \"#utility.yul\":2232:2236   */\n      0x20\n        /* \"#utility.yul\":2227:2230   */\n      dup6\n        /* \"#utility.yul\":2223:2237   */\n      add\n        /* \"#utility.yul\":2209:2221   */\n      dup3\n        /* \"#utility.yul\":2175:2238   */\n      tag_124\n      jump\t// in\n    tag_125:\n        /* \"#utility.yul\":2081:2248   */\n      pop\n        /* \"#utility.yul\":2333:2337   */\n      0x40\n        /* \"#utility.yul\":2326:2331   */\n      dup3\n        /* \"#utility.yul\":2322:2338   */\n      add\n        /* \"#utility.yul\":2316:2339   */\n      mload\n        /* \"#utility.yul\":2352:2415   */\n      tag_126\n        /* \"#utility.yul\":2409:2413   */\n      0x40\n        /* \"#utility.yul\":2404:2407   */\n      dup6\n        /* \"#utility.yul\":2400:2414   */\n      add\n        /* \"#utility.yul\":2386:2398   */\n      dup3\n        /* \"#utility.yul\":2352:2415   */\n      tag_124\n      jump\t// in\n    tag_126:\n        /* \"#utility.yul\":2258:2425   */\n      pop\n        /* \"#utility.yul\":2508:2512   */\n      0x60\n        /* \"#utility.yul\":2501:2506   */\n      dup3\n        /* \"#utility.yul\":2497:2513   */\n      add\n        /* \"#utility.yul\":2491:2514   */\n      mload\n        /* \"#utility.yul\":2527:2590   */\n      tag_127\n        /* \"#utility.yul\":2584:2588   */\n      0x60\n        /* \"#utility.yul\":2579:2582   */\n      dup6\n        /* \"#utility.yul\":2575:2589   */\n      add\n        /* \"#utility.yul\":2561:2573   */\n      dup3\n        /* \"#utility.yul\":2527:2590   */\n      tag_124\n      jump\t// in\n    tag_127:\n        /* \"#utility.yul\":2435:2600   */\n      pop\n        /* \"#utility.yul\":2692:2696   */\n      0x80\n        /* \"#utility.yul\":2685:2690   */\n      dup3\n        /* \"#utility.yul\":2681:2697   */\n      add\n        /* \"#utility.yul\":2675:2698   */\n      mload\n        /* \"#utility.yul\":2711:2774   */\n      tag_128\n        /* \"#utility.yul\":2768:2772   */\n      0x80\n        /* \"#utility.yul\":2763:2766   */\n      dup6\n        /* \"#utility.yul\":2759:2773   */\n      add\n        /* \"#utility.yul\":2745:2757   */\n      dup3\n        /* \"#utility.yul\":2711:2774   */\n      tag_124\n      jump\t// in\n    tag_128:\n        /* \"#utility.yul\":2610:2784   */\n      pop\n        /* \"#utility.yul\":1856:2791   */\n      pop\n        /* \"#utility.yul\":1758:2791   */\n      pop\n      pop\n      jump\t// out\n        /* \"#utility.yul\":2797:2905   */\n    tag_124:\n        /* \"#utility.yul\":2874:2898   */\n      tag_130\n        /* \"#utility.yul\":2892:2897   */\n      dup2\n        /* \"#utility.yul\":2874:2898   */\n      tag_131\n      jump\t// in\n    tag_130:\n        /* \"#utility.yul\":2869:2872   */\n      dup3\n        /* \"#utility.yul\":2862:2899   */\n      mstore\n        /* \"#utility.yul\":2797:2905   */\n      pop\n      pop\n      jump\t// out\n        /* \"#utility.yul\":2911:3029   */\n    tag_132:\n        /* \"#utility.yul\":2998:3022   */\n      tag_134\n        /* \"#utility.yul\":3016:3021   */\n      dup2\n        /* \"#utility.yul\":2998:3022   */\n      tag_131\n      jump\t// in\n    tag_134:\n        /* \"#utility.yul\":2993:2996   */\n      dup3\n        /* \"#utility.yul\":2986:3023   */\n      mstore\n        /* \"#utility.yul\":2911:3029   */\n      pop\n      pop\n      jump\t// out\n        /* \"#utility.yul\":3035:3492   */\n    tag_26:\n        /* \"#utility.yul\":3220:3224   */\n      0x00\n        /* \"#utility.yul\":3258:3260   */\n      0x20\n        /* \"#utility.yul\":3247:3256   */\n      dup3\n        /* \"#utility.yul\":3243:3261   */\n      add\n        /* \"#utility.yul\":3235:3261   */\n      swap1\n      pop\n        /* \"#utility.yul\":3307:3316   */\n      dup2\n        /* \"#utility.yul\":3301:3305   */\n      dup2\n        /* \"#utility.yul\":3297:3317   */\n      sub\n        /* \"#utility.yul\":3293:3294   */\n      0x00\n        /* \"#utility.yul\":3282:3291   */\n      dup4\n        /* \"#utility.yul\":3278:3295   */\n      add\n        /* \"#utility.yul\":3271:3318   */\n      mstore\n        /* \"#utility.yul\":3335:3485   */\n      tag_136\n        /* \"#utility.yul\":3480:3484   */\n      dup2\n        /* \"#utility.yul\":3471:3477   */\n      dup5\n        /* \"#utility.yul\":3335:3485   */\n      tag_108\n      jump\t// in\n    tag_136:\n        /* \"#utility.yul\":3327:3485   */\n      swap1\n      pop\n        /* \"#utility.yul\":3035:3492   */\n      swap3\n      swap2\n      pop\n      pop\n      jump\t// out\n        /* \"#utility.yul\":3498:3720   */\n    tag_11:\n        /* \"#utility.yul\":3591:3595   */\n      0x00\n        /* \"#utility.yul\":3629:3631   */\n      0x20\n        /* \"#utility.yul\":3618:3627   */\n      dup3\n        /* \"#utility.yul\":3614:3632   */\n      add\n        /* \"#utility.yul\":3606:3632   */\n      swap1\n      pop\n        /* \"#utility.yul\":3642:3713   */\n      tag_138\n        /* \"#utility.yul\":3710:3711   */\n      0x00\n        /* \"#utility.yul\":3699:3708   */\n      dup4\n        /* \"#utility.yul\":3695:3712   */\n      add\n        /* \"#utility.yul\":3686:3692   */\n      dup5\n        /* \"#utility.yul\":3642:3713   */\n      tag_132\n      jump\t// in\n    tag_138:\n        /* \"#utility.yul\":3498:3720   */\n      swap3\n      swap2\n      pop\n      pop\n      jump\t// out\n        /* \"#utility.yul\":3807:3960   */\n    tag_115:\n        /* \"#utility.yul\":3895:3899   */\n      0x00\n        /* \"#utility.yul\":3918:3921   */\n      dup2\n        /* \"#utility.yul\":3910:3921   */\n      swap1\n      pop\n        /* \"#utility.yul\":3948:3952   */\n      0x20\n        /* \"#utility.yul\":3943:3946   */\n      dup3\n        /* \"#utility.yul\":3939:3953   */\n      add\n        /* \"#utility.yul\":3931:3953   */\n      swap1\n      pop\n        /* \"#utility.yul\":3807:3960   */\n      swap2\n      swap1\n      pop\n      jump\t// out\n        /* \"#utility.yul\":3966:4101   */\n    tag_111:\n        /* \"#utility.yul\":4054:4060   */\n      0x00\n        /* \"#utility.yul\":4088:4093   */\n      dup2\n        /* \"#utility.yul\":4082:4094   */\n      mload\n        /* \"#utility.yul\":4072:4094   */\n      swap1\n      pop\n        /* \"#utility.yul\":3966:4101   */\n      swap2\n      swap1\n      pop\n      jump\t// out\n        /* \"#utility.yul\":4107:4241   */\n    tag_121:\n        /* \"#utility.yul\":4198:4202   */\n      0x00\n        /* \"#utility.yul\":4230:4234   */\n      0x20\n        /* \"#utility.yul\":4225:4228   */\n      dup3\n        /* \"#utility.yul\":4221:4235   */\n      add\n        /* \"#utility.yul\":4213:4235   */\n      swap1\n      pop\n        /* \"#utility.yul\":4107:4241   */\n      swap2\n      swap1\n      pop\n      jump\t// out\n        /* \"#utility.yul\":4247:4452   */\n    tag_113:\n        /* \"#utility.yul\":4367:4378   */\n      0x00\n        /* \"#utility.yul\":4401:4407   */\n      dup3\n        /* \"#utility.yul\":4396:4399   */\n      dup3\n        /* \"#utility.yul\":4389:4408   */\n      mstore\n        /* \"#utility.yul\":4441:4445   */\n      0x20\n        /* \"#utility.yul\":4436:4439   */\n      dup3\n        /* \"#utility.yul\":4432:4446   */\n      add\n        /* \"#utility.yul\":4417:4446   */\n      swap1\n      pop\n        /* \"#utility.yul\":4247:4452   */\n      swap3\n      swap2\n      pop\n      pop\n      jump\t// out\n        /* \"#utility.yul\":4458:4535   */\n    tag_131:\n        /* \"#utility.yul\":4495:4502   */\n      0x00\n        /* \"#utility.yul\":4524:4529   */\n      dup2\n        /* \"#utility.yul\":4513:4529   */\n      swap1\n      pop\n        /* \"#utility.yul\":4458:4535   */\n      swap2\n      swap1\n      pop\n      jump\t// out\n        /* \"#utility.yul\":4541:4774   */\n    tag_44:\n        /* \"#utility.yul\":4580:4583   */\n      0x00\n        /* \"#utility.yul\":4603:4627   */\n      tag_147\n        /* \"#utility.yul\":4621:4626   */\n      dup3\n        /* \"#utility.yul\":4603:4627   */\n      tag_131\n      jump\t// in\n    tag_147:\n        /* \"#utility.yul\":4594:4627   */\n      swap2\n      pop\n        /* \"#utility.yul\":4649:4715   */\n      0xffffffffffffffffffffffffffffffffffffffffffffffffffffffffffffffff\n        /* \"#utility.yul\":4642:4647   */\n      dup3\n        /* \"#utility.yul\":4639:4716   */\n      eq\n        /* \"#utility.yul\":4636:4739   */\n      iszero\n      tag_148\n      jumpi\n        /* \"#utility.yul\":4719:4737   */\n      tag_149\n      tag_150\n      jump\t// in\n    tag_149:\n        /* \"#utility.yul\":4636:4739   */\n    tag_148:\n        /* \"#utility.yul\":4766:4767   */\n      0x01\n        /* \"#utility.yul\":4759:4764   */\n      dup3\n        /* \"#utility.yul\":4755:4768   */\n      add\n        /* \"#utility.yul\":4748:4768   */\n      swap1\n      pop\n        /* \"#utility.yul\":4541:4774   */\n      swap2\n      swap1\n      pop\n      jump\t// out\n        /* \"#utility.yul\":4780:4960   */\n    tag_150:\n        /* \"#utility.yul\":4828:4905   */\n      0x4e487b7100000000000000000000000000000000000000000000000000000000\n        /* \"#utility.yul\":4825:4826   */\n      0x00\n        /* \"#utility.yul\":4818:4906   */\n      mstore\n        /* \"#utility.yul\":4925:4929   */\n      0x11\n        /* \"#utility.yul\":4922:4923   */\n      0x04\n        /* \"#utility.yul\":4915:4930   */\n      mstore\n        /* \"#utility.yul\":4949:4953   */\n      0x24\n        /* \"#utility.yul\":4946:4947   */\n      0x00\n        /* \"#utility.yul\":4939:4954   */\n      revert\n        /* \"#utility.yul\":4966:5146   */\n    tag_33:\n        /* \"#utility.yul\":5014:5091   */\n      0x4e487b7100000000000000000000000000000000000000000000000000000000\n        /* \"#utility.yul\":5011:5012   */\n      0x00\n        /* \"#utility.yul\":5004:5092   */\n      mstore\n        /* \"#utility.yul\":5111:5115   */\n      0x32\n        /* \"#utility.yul\":5108:5109   */\n      0x04\n        /* \"#utility.yul\":5101:5116   */\n      mstore\n        /* \"#utility.yul\":5135:5139   */\n      0x24\n        /* \"#utility.yul\":5132:5133   */\n      0x00\n        /* \"#utility.yul\":5125:5140   */\n      revert\n        /* \"#utility.yul\":5275:5392   */\n    tag_102:\n        /* \"#utility.yul\":5384:5385   */\n      0x00\n        /* \"#utility.yul\":5381:5382   */\n      dup1\n        /* \"#utility.yul\":5374:5386   */\n      revert\n        /* \"#utility.yul\":5398:5520   */\n    tag_98:\n        /* \"#utility.yul\":5471:5495   */\n      tag_157\n        /* \"#utility.yul\":5489:5494   */\n      dup2\n        /* \"#utility.yul\":5471:5495   */\n      tag_131\n      jump\t// in\n    tag_157:\n        /* \"#utility.yul\":5464:5469   */\n      dup2\n        /* \"#utility.yul\":5461:5496   */\n      eq\n        /* \"#utility.yul\":5451:5514   */\n      tag_158\n      jumpi\n        /* \"#utility.yul\":5510:5511   */\n      0x00\n        /* \"#utility.yul\":5507:5508   */\n      dup1\n        /* \"#utility.yul\":5500:5512   */\n      revert\n        /* \"#utility.yul\":5451:5514   */\n    tag_158:\n        /* \"#utility.yul\":5398:5520   */\n      pop\n      jump\t// out\n\n    auxdata: 0xa2646970667358221220d4a2f270608c2ccbbcc879c84f8e457029a44ccef8c6628156f4284bfedfbd1264736f6c63430008070033\n}\n",
				"bytecode": {
					"linkReferences": {},
					"object": "608060405234801561001057600080fd5b5060006040518060a00160405280636447b424815260200163645897ce8152602001603c815260200160058152602001630121eac081525090806001815401808255809150506001900390600052602060002090600502016000909190919091506000820151816000015560208201518160010155604082015181600201556060820151816003015560808201518160040155505060006040518060a0016040528063645897ce8152602001636468dba48152602001603c815260200160078152602001630121eac081525090806001815401808255809150506001900390600052602060002090600502016000909190919091506000820151816000015560208201518160010155604082015181600201556060820151816003015560808201518160040155505060006040518060a00160405280636468dba48152602001636468dba481526020016113888152602001600a8152602001630121eac081525090806001815401808255809150506001900390600052602060002090600502016000909190919091506000820151816000015560208201518160010155604082015181600201556060820151816003015560808201518160040155505060006040518060a00160405280636468dba48152602001636468dba481526020016113888152602001600f8152602001630121eac081525090806001815401808255809150506001900390600052602060002090600502016000909190919091506000820151816000015560208201518160010155604082015181600201556060820151816003015560808201518160040155505061070d806102726000396000f3fe608060405234801561001057600080fd5b50600436106100575760003560e01c80632d2c41581461005c5780633f9a16a81461007a578063523c69e614610098578063a32bf597146100c8578063e5066bbf146100e6575b600080fd5b610064610104565b60405161007191906105b6565b60405180910390f35b6100826101bd565b60405161008f91906105b6565b60405180910390f35b6100b260048036038101906100ad919061046b565b610276565b6040516100bf91906105b6565b60405180910390f35b6100d0610331565b6040516100dd91906105b6565b60405180910390f35b6100ee6103c5565b6040516100fb9190610594565b60405180910390f35b60008060005b6000805490508110156101b5576000818154811061012b5761012a61068c565b5b906000526020600020906005020160000154421015801561017057506000818154811061015b5761015a61068c565b5b90600052602060002090600502016001015442105b156101a257600081815481106101895761018861068c565b5b90600052602060002090600502016003015491506101b5565b80806101ad90610614565b91505061010a565b508091505090565b60008060005b60008054905081101561026e57600081815481106101e4576101e361068c565b5b90600052602060002090600502016000015442101580156102295750600081815481106102145761021361068c565b5b90600052602060002090600502016001015442105b1561025b57600081815481106102425761024161068c565b5b906000526020600020906005020160040154915061026e565b808061026690610614565b9150506101c3565b508091505090565b60008060005b600080549050811015610327576000818154811061029d5761029c61068c565b5b90600052602060002090600502016000015484101580156102e25750600081815481106102cd576102cc61068c565b5b90600052602060002090600502016001015484105b1561031457600081815481106102fb576102fa61068c565b5b9060005260206000209060050201600201549150610327565b808061031f90610614565b91505061027c565b5080915050919050565b60008060005b6000805490508110156103bd57600081815481106103585761035761068c565b5b906000526020600020906005020160000154421015801561039d5750600081815481106103885761038761068c565b5b90600052602060002090600502016001015442105b156103aa578091506103bd565b80806103b590610614565b915050610337565b508091505090565b60606000805480602002602001604051908101604052809291908181526020016000905b8282101561044d57838290600052602060002090600502016040518060a001604052908160008201548152602001600182015481526020016002820154815260200160038201548152602001600482015481525050815260200190600101906103e9565b50505050905090565b600081359050610465816106c0565b92915050565b600060208284031215610481576104806106bb565b5b600061048f84828501610456565b91505092915050565b60006104a4838361050e565b60a08301905092915050565b60006104bb826105e1565b6104c581856105f9565b93506104d0836105d1565b8060005b838110156105015781516104e88882610498565b97506104f3836105ec565b9250506001810190506104d4565b5085935050505092915050565b60a0820160008201516105246000850182610576565b5060208201516105376020850182610576565b50604082015161054a6040850182610576565b50606082015161055d6060850182610576565b5060808201516105706080850182610576565b50505050565b61057f8161060a565b82525050565b61058e8161060a565b82525050565b600060208201905081810360008301526105ae81846104b0565b905092915050565b60006020820190506105cb6000830184610585565b92915050565b6000819050602082019050919050565b600081519050919050565b6000602082019050919050565b600082825260208201905092915050565b6000819050919050565b600061061f8261060a565b91507fffffffffffffffffffffffffffffffffffffffffffffffffffffffffffffffff8214156106525761065161065d565b5b600182019050919050565b7f4e487b7100000000000000000000000000000000000000000000000000000000600052601160045260246000fd5b7f4e487b7100000000000000000000000000000000000000000000000000000000600052603260045260246000fd5b600080fd5b6106c98161060a565b81146106d457600080fd5b5056fea2646970667358221220d4a2f270608c2ccbbcc879c84f8e457029a44ccef8c6628156f4284bfedfbd1264736f6c63430008070033",
					"opcodes": "PUSH1 0x80 PUSH1 0x40 MSTORE CALLVALUE DUP1 ISZERO PUSH2 0x10 JUMPI PUSH1 0x0 DUP1 REVERT JUMPDEST POP PUSH1 0x0 PUSH1 0x40 MLOAD DUP1 PUSH1 0xA0 ADD PUSH1 0x40 MSTORE DUP1 PUSH4 0x6447B424 DUP2 MSTORE PUSH1 0x20 ADD PUSH4 0x645897CE DUP2 MSTORE PUSH1 0x20 ADD PUSH1 0x3C DUP2 MSTORE PUSH1 0x20 ADD PUSH1 0x5 DUP2 MSTORE PUSH1 0x20 ADD PUSH4 0x121EAC0 DUP2 MSTORE POP SWAP1 DUP1 PUSH1 0x1 DUP2 SLOAD ADD DUP1 DUP3 SSTORE DUP1 SWAP2 POP POP PUSH1 0x1 SWAP1 SUB SWAP1 PUSH1 0x0 MSTORE PUSH1 0x20 PUSH1 0x0 KECCAK256 SWAP1 PUSH1 0x5 MUL ADD PUSH1 0x0 SWAP1 SWAP2 SWAP1 SWAP2 SWAP1 SWAP2 POP PUSH1 0x0 DUP3 ADD MLOAD DUP2 PUSH1 0x0 ADD SSTORE PUSH1 0x20 DUP3 ADD MLOAD DUP2 PUSH1 0x1 ADD SSTORE PUSH1 0x40 DUP3 ADD MLOAD DUP2 PUSH1 0x2 ADD SSTORE PUSH1 0x60 DUP3 ADD MLOAD DUP2 PUSH1 0x3 ADD SSTORE PUSH1 0x80 DUP3 ADD MLOAD DUP2 PUSH1 0x4 ADD SSTORE POP POP PUSH1 0x0 PUSH1 0x40 MLOAD DUP1 PUSH1 0xA0 ADD PUSH1 0x40 MSTORE DUP1 PUSH4 0x645897CE DUP2 MSTORE PUSH1 0x20 ADD PUSH4 0x6468DBA4 DUP2 MSTORE PUSH1 0x20 ADD PUSH1 0x3C DUP2 MSTORE PUSH1 0x20 ADD PUSH1 0x7 DUP2 MSTORE PUSH1 0x20 ADD PUSH4 0x121EAC0 DUP2 MSTORE POP SWAP1 DUP1 PUSH1 0x1 DUP2 SLOAD ADD DUP1 DUP3 SSTORE DUP1 SWAP2 POP POP PUSH1 0x1 SWAP1 SUB SWAP1 PUSH1 0x0 MSTORE PUSH1 0x20 PUSH1 0x0 KECCAK256 SWAP1 PUSH1 0x5 MUL ADD PUSH1 0x0 SWAP1 SWAP2 SWAP1 SWAP2 SWAP1 SWAP2 POP PUSH1 0x0 DUP3 ADD MLOAD DUP2 PUSH1 0x0 ADD SSTORE PUSH1 0x20 DUP3 ADD MLOAD DUP2 PUSH1 0x1 ADD SSTORE PUSH1 0x40 DUP3 ADD MLOAD DUP2 PUSH1 0x2 ADD SSTORE PUSH1 0x60 DUP3 ADD MLOAD DUP2 PUSH1 0x3 ADD SSTORE PUSH1 0x80 DUP3 ADD MLOAD DUP2 PUSH1 0x4 ADD SSTORE POP POP PUSH1 0x0 PUSH1 0x40 MLOAD DUP1 PUSH1 0xA0 ADD PUSH1 0x40 MSTORE DUP1 PUSH4 0x6468DBA4 DUP2 MSTORE PUSH1 0x20 ADD PUSH4 0x6468DBA4 DUP2 MSTORE PUSH1 0x20 ADD PUSH2 0x1388 DUP2 MSTORE PUSH1 0x20 ADD PUSH1 0xA DUP2 MSTORE PUSH1 0x20 ADD PUSH4 0x121EAC0 DUP2 MSTORE POP SWAP1 DUP1 PUSH1 0x1 DUP2 SLOAD ADD DUP1 DUP3 SSTORE DUP1 SWAP2 POP POP PUSH1 0x1 SWAP1 SUB SWAP1 PUSH1 0x0 MSTORE PUSH1 0x20 PUSH1 0x0 KECCAK256 SWAP1 PUSH1 0x5 MUL ADD PUSH1 0x0 SWAP1 SWAP2 SWAP1 SWAP2 SWAP1 SWAP2 POP PUSH1 0x0 DUP3 ADD MLOAD DUP2 PUSH1 0x0 ADD SSTORE PUSH1 0x20 DUP3 ADD MLOAD DUP2 PUSH1 0x1 ADD SSTORE PUSH1 0x40 DUP3 ADD MLOAD DUP2 PUSH1 0x2 ADD SSTORE PUSH1 0x60 DUP3 ADD MLOAD DUP2 PUSH1 0x3 ADD SSTORE PUSH1 0x80 DUP3 ADD MLOAD DUP2 PUSH1 0x4 ADD SSTORE POP POP PUSH1 0x0 PUSH1 0x40 MLOAD DUP1 PUSH1 0xA0 ADD PUSH1 0x40 MSTORE DUP1 PUSH4 0x6468DBA4 DUP2 MSTORE PUSH1 0x20 ADD PUSH4 0x6468DBA4 DUP2 MSTORE PUSH1 0x20 ADD PUSH2 0x1388 DUP2 MSTORE PUSH1 0x20 ADD PUSH1 0xF DUP2 MSTORE PUSH1 0x20 ADD PUSH4 0x121EAC0 DUP2 MSTORE POP SWAP1 DUP1 PUSH1 0x1 DUP2 SLOAD ADD DUP1 DUP3 SSTORE DUP1 SWAP2 POP POP PUSH1 0x1 SWAP1 SUB SWAP1 PUSH1 0x0 MSTORE PUSH1 0x20 PUSH1 0x0 KECCAK256 SWAP1 PUSH1 0x5 MUL ADD PUSH1 0x0 SWAP1 SWAP2 SWAP1 SWAP2 SWAP1 SWAP2 POP PUSH1 0x0 DUP3 ADD MLOAD DUP2 PUSH1 0x0 ADD SSTORE PUSH1 0x20 DUP3 ADD MLOAD DUP2 PUSH1 0x1 ADD SSTORE PUSH1 0x40 DUP3 ADD MLOAD DUP2 PUSH1 0x2 ADD SSTORE PUSH1 0x60 DUP3 ADD MLOAD DUP2 PUSH1 0x3 ADD SSTORE PUSH1 0x80 DUP3 ADD MLOAD DUP2 PUSH1 0x4 ADD SSTORE POP POP PUSH2 0x70D DUP1 PUSH2 0x272 PUSH1 0x0 CODECOPY PUSH1 0x0 RETURN INVALID PUSH1 0x80 PUSH1 0x40 MSTORE CALLVALUE DUP1 ISZERO PUSH2 0x10 JUMPI PUSH1 0x0 DUP1 REVERT JUMPDEST POP PUSH1 0x4 CALLDATASIZE LT PUSH2 0x57 JUMPI PUSH1 0x0 CALLDATALOAD PUSH1 0xE0 SHR DUP1 PUSH4 0x2D2C4158 EQ PUSH2 0x5C JUMPI DUP1 PUSH4 0x3F9A16A8 EQ PUSH2 0x7A JUMPI DUP1 PUSH4 0x523C69E6 EQ PUSH2 0x98 JUMPI DUP1 PUSH4 0xA32BF597 EQ PUSH2 0xC8 JUMPI DUP1 PUSH4 0xE5066BBF EQ PUSH2 0xE6 JUMPI JUMPDEST PUSH1 0x0 DUP1 REVERT JUMPDEST PUSH2 0x64 PUSH2 0x104 JUMP JUMPDEST PUSH1 0x40 MLOAD PUSH2 0x71 SWAP2 SWAP1 PUSH2 0x5B6 JUMP JUMPDEST PUSH1 0x40 MLOAD DUP1 SWAP2 SUB SWAP1 RETURN JUMPDEST PUSH2 0x82 PUSH2 0x1BD JUMP JUMPDEST PUSH1 0x40 MLOAD PUSH2 0x8F SWAP2 SWAP1 PUSH2 0x5B6 JUMP JUMPDEST PUSH1 0x40 MLOAD DUP1 SWAP2 SUB SWAP1 RETURN JUMPDEST PUSH2 0xB2 PUSH1 0x4 DUP1 CALLDATASIZE SUB DUP2 ADD SWAP1 PUSH2 0xAD SWAP2 SWAP1 PUSH2 0x46B JUMP JUMPDEST PUSH2 0x276 JUMP JUMPDEST PUSH1 0x40 MLOAD PUSH2 0xBF SWAP2 SWAP1 PUSH2 0x5B6 JUMP JUMPDEST PUSH1 0x40 MLOAD DUP1 SWAP2 SUB SWAP1 RETURN JUMPDEST PUSH2 0xD0 PUSH2 0x331 JUMP JUMPDEST PUSH1 0x40 MLOAD PUSH2 0xDD SWAP2 SWAP1 PUSH2 0x5B6 JUMP JUMPDEST PUSH1 0x40 MLOAD DUP1 SWAP2 SUB SWAP1 RETURN JUMPDEST PUSH2 0xEE PUSH2 0x3C5 JUMP JUMPDEST PUSH1 0x40 MLOAD PUSH2 0xFB SWAP2 SWAP1 PUSH2 0x594 JUMP JUMPDEST PUSH1 0x40 MLOAD DUP1 SWAP2 SUB SWAP1 RETURN JUMPDEST PUSH1 0x0 DUP1 PUSH1 0x0 JUMPDEST PUSH1 0x0 DUP1 SLOAD SWAP1 POP DUP2 LT ISZERO PUSH2 0x1B5 JUMPI PUSH1 0x0 DUP2 DUP2 SLOAD DUP2 LT PUSH2 0x12B JUMPI PUSH2 0x12A PUSH2 0x68C JUMP JUMPDEST JUMPDEST SWAP1 PUSH1 0x0 MSTORE PUSH1 0x20 PUSH1 0x0 KECCAK256 SWAP1 PUSH1 0x5 MUL ADD PUSH1 0x0 ADD SLOAD TIMESTAMP LT ISZERO DUP1 ISZERO PUSH2 0x170 JUMPI POP PUSH1 0x0 DUP2 DUP2 SLOAD DUP2 LT PUSH2 0x15B JUMPI PUSH2 0x15A PUSH2 0x68C JUMP JUMPDEST JUMPDEST SWAP1 PUSH1 0x0 MSTORE PUSH1 0x20 PUSH1 0x0 KECCAK256 SWAP1 PUSH1 0x5 MUL ADD PUSH1 0x1 ADD SLOAD TIMESTAMP LT JUMPDEST ISZERO PUSH2 0x1A2 JUMPI PUSH1 0x0 DUP2 DUP2 SLOAD DUP2 LT PUSH2 0x189 JUMPI PUSH2 0x188 PUSH2 0x68C JUMP JUMPDEST JUMPDEST SWAP1 PUSH1 0x0 MSTORE PUSH1 0x20 PUSH1 0x0 KECCAK256 SWAP1 PUSH1 0x5 MUL ADD PUSH1 0x3 ADD SLOAD SWAP2 POP PUSH2 0x1B5 JUMP JUMPDEST DUP1 DUP1 PUSH2 0x1AD SWAP1 PUSH2 0x614 JUMP JUMPDEST SWAP2 POP POP PUSH2 0x10A JUMP JUMPDEST POP DUP1 SWAP2 POP POP SWAP1 JUMP JUMPDEST PUSH1 0x0 DUP1 PUSH1 0x0 JUMPDEST PUSH1 0x0 DUP1 SLOAD SWAP1 POP DUP2 LT ISZERO PUSH2 0x26E JUMPI PUSH1 0x0 DUP2 DUP2 SLOAD DUP2 LT PUSH2 0x1E4 JUMPI PUSH2 0x1E3 PUSH2 0x68C JUMP JUMPDEST JUMPDEST SWAP1 PUSH1 0x0 MSTORE PUSH1 0x20 PUSH1 0x0 KECCAK256 SWAP1 PUSH1 0x5 MUL ADD PUSH1 0x0 ADD SLOAD TIMESTAMP LT ISZERO DUP1 ISZERO PUSH2 0x229 JUMPI POP PUSH1 0x0 DUP2 DUP2 SLOAD DUP2 LT PUSH2 0x214 JUMPI PUSH2 0x213 PUSH2 0x68C JUMP JUMPDEST JUMPDEST SWAP1 PUSH1 0x0 MSTORE PUSH1 0x20 PUSH1 0x0 KECCAK256 SWAP1 PUSH1 0x5 MUL ADD PUSH1 0x1 ADD SLOAD TIMESTAMP LT JUMPDEST ISZERO PUSH2 0x25B JUMPI PUSH1 0x0 DUP2 DUP2 SLOAD DUP2 LT PUSH2 0x242 JUMPI PUSH2 0x241 PUSH2 0x68C JUMP JUMPDEST JUMPDEST SWAP1 PUSH1 0x0 MSTORE PUSH1 0x20 PUSH1 0x0 KECCAK256 SWAP1 PUSH1 0x5 MUL ADD PUSH1 0x4 ADD SLOAD SWAP2 POP PUSH2 0x26E JUMP JUMPDEST DUP1 DUP1 PUSH2 0x266 SWAP1 PUSH2 0x614 JUMP JUMPDEST SWAP2 POP POP PUSH2 0x1C3 JUMP JUMPDEST POP DUP1 SWAP2 POP POP SWAP1 JUMP JUMPDEST PUSH1 0x0 DUP1 PUSH1 0x0 JUMPDEST PUSH1 0x0 DUP1 SLOAD SWAP1 POP DUP2 LT ISZERO PUSH2 0x327 JUMPI PUSH1 0x0 DUP2 DUP2 SLOAD DUP2 LT PUSH2 0x29D JUMPI PUSH2 0x29C PUSH2 0x68C JUMP JUMPDEST JUMPDEST SWAP1 PUSH1 0x0 MSTORE PUSH1 0x20 PUSH1 0x0 KECCAK256 SWAP1 PUSH1 0x5 MUL ADD PUSH1 0x0 ADD SLOAD DUP5 LT ISZERO DUP1 ISZERO PUSH2 0x2E2 JUMPI POP PUSH1 0x0 DUP2 DUP2 SLOAD DUP2 LT PUSH2 0x2CD JUMPI PUSH2 0x2CC PUSH2 0x68C JUMP JUMPDEST JUMPDEST SWAP1 PUSH1 0x0 MSTORE PUSH1 0x20 PUSH1 0x0 KECCAK256 SWAP1 PUSH1 0x5 MUL ADD PUSH1 0x1 ADD SLOAD DUP5 LT JUMPDEST ISZERO PUSH2 0x314 JUMPI PUSH1 0x0 DUP2 DUP2 SLOAD DUP2 LT PUSH2 0x2FB JUMPI PUSH2 0x2FA PUSH2 0x68C JUMP JUMPDEST JUMPDEST SWAP1 PUSH1 0x0 MSTORE PUSH1 0x20 PUSH1 0x0 KECCAK256 SWAP1 PUSH1 0x5 MUL ADD PUSH1 0x2 ADD SLOAD SWAP2 POP PUSH2 0x327 JUMP JUMPDEST DUP1 DUP1 PUSH2 0x31F SWAP1 PUSH2 0x614 JUMP JUMPDEST SWAP2 POP POP PUSH2 0x27C JUMP JUMPDEST POP DUP1 SWAP2 POP POP SWAP2 SWAP1 POP JUMP JUMPDEST PUSH1 0x0 DUP1 PUSH1 0x0 JUMPDEST PUSH1 0x0 DUP1 SLOAD SWAP1 POP DUP2 LT ISZERO PUSH2 0x3BD JUMPI PUSH1 0x0 DUP2 DUP2 SLOAD DUP2 LT PUSH2 0x358 JUMPI PUSH2 0x357 PUSH2 0x68C JUMP JUMPDEST JUMPDEST SWAP1 PUSH1 0x0 MSTORE PUSH1 0x20 PUSH1 0x0 KECCAK256 SWAP1 PUSH1 0x5 MUL ADD PUSH1 0x0 ADD SLOAD TIMESTAMP LT ISZERO DUP1 ISZERO PUSH2 0x39D JUMPI POP PUSH1 0x0 DUP2 DUP2 SLOAD DUP2 LT PUSH2 0x388 JUMPI PUSH2 0x387 PUSH2 0x68C JUMP JUMPDEST JUMPDEST SWAP1 PUSH1 0x0 MSTORE PUSH1 0x20 PUSH1 0x0 KECCAK256 SWAP1 PUSH1 0x5 MUL ADD PUSH1 0x1 ADD SLOAD TIMESTAMP LT JUMPDEST ISZERO PUSH2 0x3AA JUMPI DUP1 SWAP2 POP PUSH2 0x3BD JUMP JUMPDEST DUP1 DUP1 PUSH2 0x3B5 SWAP1 PUSH2 0x614 JUMP JUMPDEST SWAP2 POP POP PUSH2 0x337 JUMP JUMPDEST POP DUP1 SWAP2 POP POP SWAP1 JUMP JUMPDEST PUSH1 0x60 PUSH1 0x0 DUP1 SLOAD DUP1 PUSH1 0x20 MUL PUSH1 0x20 ADD PUSH1 0x40 MLOAD SWAP1 DUP2 ADD PUSH1 0x40 MSTORE DUP1 SWAP3 SWAP2 SWAP1 DUP2 DUP2 MSTORE PUSH1 0x20 ADD PUSH1 0x0 SWAP1 JUMPDEST DUP3 DUP3 LT ISZERO PUSH2 0x44D JUMPI DUP4 DUP3 SWAP1 PUSH1 0x0 MSTORE PUSH1 0x20 PUSH1 0x0 KECCAK256 SWAP1 PUSH1 0x5 MUL ADD PUSH1 0x40 MLOAD DUP1 PUSH1 0xA0 ADD PUSH1 0x40 MSTORE SWAP1 DUP2 PUSH1 0x0 DUP3 ADD SLOAD DUP2 MSTORE PUSH1 0x20 ADD PUSH1 0x1 DUP3 ADD SLOAD DUP2 MSTORE PUSH1 0x20 ADD PUSH1 0x2 DUP3 ADD SLOAD DUP2 MSTORE PUSH1 0x20 ADD PUSH1 0x3 DUP3 ADD SLOAD DUP2 MSTORE PUSH1 0x20 ADD PUSH1 0x4 DUP3 ADD SLOAD DUP2 MSTORE POP POP DUP2 MSTORE PUSH1 0x20 ADD SWAP1 PUSH1 0x1 ADD SWAP1 PUSH2 0x3E9 JUMP JUMPDEST POP POP POP POP SWAP1 POP SWAP1 JUMP JUMPDEST PUSH1 0x0 DUP2 CALLDATALOAD SWAP1 POP PUSH2 0x465 DUP2 PUSH2 0x6C0 JUMP JUMPDEST SWAP3 SWAP2 POP POP JUMP JUMPDEST PUSH1 0x0 PUSH1 0x20 DUP3 DUP5 SUB SLT ISZERO PUSH2 0x481 JUMPI PUSH2 0x480 PUSH2 0x6BB JUMP JUMPDEST JUMPDEST PUSH1 0x0 PUSH2 0x48F DUP5 DUP3 DUP6 ADD PUSH2 0x456 JUMP JUMPDEST SWAP2 POP POP SWAP3 SWAP2 POP POP JUMP JUMPDEST PUSH1 0x0 PUSH2 0x4A4 DUP4 DUP4 PUSH2 0x50E JUMP JUMPDEST PUSH1 0xA0 DUP4 ADD SWAP1 POP SWAP3 SWAP2 POP POP JUMP JUMPDEST PUSH1 0x0 PUSH2 0x4BB DUP3 PUSH2 0x5E1 JUMP JUMPDEST PUSH2 0x4C5 DUP2 DUP6 PUSH2 0x5F9 JUMP JUMPDEST SWAP4 POP PUSH2 0x4D0 DUP4 PUSH2 0x5D1 JUMP JUMPDEST DUP1 PUSH1 0x0 JUMPDEST DUP4 DUP2 LT ISZERO PUSH2 0x501 JUMPI DUP2 MLOAD PUSH2 0x4E8 DUP9 DUP3 PUSH2 0x498 JUMP JUMPDEST SWAP8 POP PUSH2 0x4F3 DUP4 PUSH2 0x5EC JUMP JUMPDEST SWAP3 POP POP PUSH1 0x1 DUP2 ADD SWAP1 POP PUSH2 0x4D4 JUMP JUMPDEST POP DUP6 SWAP4 POP POP POP POP SWAP3 SWAP2 POP POP JUMP JUMPDEST PUSH1 0xA0 DUP3 ADD PUSH1 0x0 DUP3 ADD MLOAD PUSH2 0x524 PUSH1 0x0 DUP6 ADD DUP3 PUSH2 0x576 JUMP JUMPDEST POP PUSH1 0x20 DUP3 ADD MLOAD PUSH2 0x537 PUSH1 0x20 DUP6 ADD DUP3 PUSH2 0x576 JUMP JUMPDEST POP PUSH1 0x40 DUP3 ADD MLOAD PUSH2 0x54A PUSH1 0x40 DUP6 ADD DUP3 PUSH2 0x576 JUMP JUMPDEST POP PUSH1 0x60 DUP3 ADD MLOAD PUSH2 0x55D PUSH1 0x60 DUP6 ADD DUP3 PUSH2 0x576 JUMP JUMPDEST POP PUSH1 0x80 DUP3 ADD MLOAD PUSH2 0x570 PUSH1 0x80 DUP6 ADD DUP3 PUSH2 0x576 JUMP JUMPDEST POP POP POP POP JUMP JUMPDEST PUSH2 0x57F DUP2 PUSH2 0x60A JUMP JUMPDEST DUP3 MSTORE POP POP JUMP JUMPDEST PUSH2 0x58E DUP2 PUSH2 0x60A JUMP JUMPDEST DUP3 MSTORE POP POP JUMP JUMPDEST PUSH1 0x0 PUSH1 0x20 DUP3 ADD SWAP1 POP DUP2 DUP2 SUB PUSH1 0x0 DUP4 ADD MSTORE PUSH2 0x5AE DUP2 DUP5 PUSH2 0x4B0 JUMP JUMPDEST SWAP1 POP SWAP3 SWAP2 POP POP JUMP JUMPDEST PUSH1 0x0 PUSH1 0x20 DUP3 ADD SWAP1 POP PUSH2 0x5CB PUSH1 0x0 DUP4 ADD DUP5 PUSH2 0x585 JUMP JUMPDEST SWAP3 SWAP2 POP POP JUMP JUMPDEST PUSH1 0x0 DUP2 SWAP1 POP PUSH1 0x20 DUP3 ADD SWAP1 POP SWAP2 SWAP1 POP JUMP JUMPDEST PUSH1 0x0 DUP2 MLOAD SWAP1 POP SWAP2 SWAP1 POP JUMP JUMPDEST PUSH1 0x0 PUSH1 0x20 DUP3 ADD SWAP1 POP SWAP2 SWAP1 POP JUMP JUMPDEST PUSH1 0x0 DUP3 DUP3 MSTORE PUSH1 0x20 DUP3 ADD SWAP1 POP SWAP3 SWAP2 POP POP JUMP JUMPDEST PUSH1 0x0 DUP2 SWAP1 POP SWAP2 SWAP1 POP JUMP JUMPDEST PUSH1 0x0 PUSH2 0x61F DUP3 PUSH2 0x60A JUMP JUMPDEST SWAP2 POP PUSH32 0xFFFFFFFFFFFFFFFFFFFFFFFFFFFFFFFFFFFFFFFFFFFFFFFFFFFFFFFFFFFFFFFF DUP3 EQ ISZERO PUSH2 0x652 JUMPI PUSH2 0x651 PUSH2 0x65D JUMP JUMPDEST JUMPDEST PUSH1 0x1 DUP3 ADD SWAP1 POP SWAP2 SWAP1 POP JUMP JUMPDEST PUSH32 0x4E487B7100000000000000000000000000000000000000000000000000000000 PUSH1 0x0 MSTORE PUSH1 0x11 PUSH1 0x4 MSTORE PUSH1 0x24 PUSH1 0x0 REVERT JUMPDEST PUSH32 0x4E487B7100000000000000000000000000000000000000000000000000000000 PUSH1 0x0 MSTORE PUSH1 0x32 PUSH1 0x4 MSTORE PUSH1 0x24 PUSH1 0x0 REVERT JUMPDEST PUSH1 0x0 DUP1 REVERT JUMPDEST PUSH2 0x6C9 DUP2 PUSH2 0x60A JUMP JUMPDEST DUP2 EQ PUSH2 0x6D4 JUMPI PUSH1 0x0 DUP1 REVERT JUMPDEST POP JUMP INVALID LOG2 PUSH5 0x6970667358 0x22 SLT KECCAK256 0xD4 LOG2 CALLCODE PUSH17 0x608C2CCBBCC879C84F8E457029A44CCEF8 0xC6 PUSH3 0x8156F4 0x28 0x4B INVALID 0xDF 0xBD SLT PUSH5 0x736F6C6343 STOP ADDMOD SMOD STOP CALLER "
				},
				"gasEstimates": {
					"creation": {
						"codeDepositCost": "361000",
						"executionCost": "540539",
						"totalCost": "901539"
					},
					"external": {
						"getAllRounds()": "infinite",
						"getCurrentMaxTotalAmount()": "infinite",
						"getCurrentRound()": "infinite",
						"getPriceXPAD()": "infinite",
						"getVestingXPAD(uint256)": "infinite"
					}
				},
				"methodIdentifiers": {
					"getAllRounds()": "e5066bbf",
					"getCurrentMaxTotalAmount()": "3f9a16a8",
					"getCurrentRound()": "a32bf597",
					"getPriceXPAD()": "2d2c4158",
					"getVestingXPAD(uint256)": "523c69e6"
				}
			},
			"storageLayout": {
				"storage": [
					{
						"astId": 16,
						"contract": "contracts/data.sol:Data",
						"label": "allRounds",
						"offset": 0,
						"slot": "0",
						"type": "t_array(t_struct(Round)12_storage)dyn_storage"
					}
				],
				"types": {
					"t_array(t_struct(Round)12_storage)dyn_storage": {
						"base": "t_struct(Round)12_storage",
						"encoding": "dynamic_array",
						"label": "struct Data.Round[]",
						"numberOfBytes": "32"
					},
					"t_struct(Round)12_storage": {
						"encoding": "inplace",
						"label": "struct Data.Round",
						"members": [
							{
								"astId": 3,
								"contract": "contracts/data.sol:Data",
								"label": "timeStart",
								"offset": 0,
								"slot": "0",
								"type": "t_uint256"
							},
							{
								"astId": 5,
								"contract": "contracts/data.sol:Data",
								"label": "timeEnd",
								"offset": 0,
								"slot": "1",
								"type": "t_uint256"
							},
							{
								"astId": 7,
								"contract": "contracts/data.sol:Data",
								"label": "vesting",
								"offset": 0,
								"slot": "2",
								"type": "t_uint256"
							},
							{
								"astId": 9,
								"contract": "contracts/data.sol:Data",
								"label": "price",
								"offset": 0,
								"slot": "3",
								"type": "t_uint256"
							},
							{
								"astId": 11,
								"contract": "contracts/data.sol:Data",
								"label": "maxTotalAmount",
								"offset": 0,
								"slot": "4",
								"type": "t_uint256"
							}
						],
						"numberOfBytes": "160"
					},
					"t_uint256": {
						"encoding": "inplace",
						"label": "uint256",
						"numberOfBytes": "32"
					}
				}
			},
			"userdoc": {
				"kind": "user",
				"methods": {},
				"version": 1
			}
		}
	}
}